{
	"contracts/Fundme.sol": {
		"FundMe": {
			"abi": [
				{
					"inputs": [],
					"name": "fund",
					"outputs": [],
					"stateMutability": "payable",
					"type": "function"
				},
				{
					"inputs": [],
					"name": "minimumUsd",
					"outputs": [
						{
							"internalType": "uint256",
							"name": "",
							"type": "uint256"
						}
					],
					"stateMutability": "view",
					"type": "function"
				}
			],
			"devdoc": {
				"kind": "dev",
				"methods": {},
				"version": 1
			},
			"evm": {
				"assembly": "    /* \"contracts/Fundme.sol\":140:407  contract FundMe{... */\n  mstore(0x40, 0x80)\n    /* \"contracts/Fundme.sol\":193:195  50 */\n  0x32\n    /* \"contracts/Fundme.sol\":164:195  uint256 public  minimumUsd = 50 */\n  0x00\n  sstore\n    /* \"contracts/Fundme.sol\":140:407  contract FundMe{... */\n  callvalue\n  dup1\n  iszero\n  tag_1\n  jumpi\n  0x00\n  dup1\n  revert\ntag_1:\n  pop\n  dataSize(sub_0)\n  dup1\n  dataOffset(sub_0)\n  0x00\n  codecopy\n  0x00\n  return\nstop\n\nsub_0: assembly {\n        /* \"contracts/Fundme.sol\":140:407  contract FundMe{... */\n      mstore(0x40, 0x80)\n      jumpi(tag_1, lt(calldatasize, 0x04))\n      shr(0xe0, calldataload(0x00))\n      dup1\n      0x098de820\n      eq\n      tag_2\n      jumpi\n      dup1\n      0xb60d4288\n      eq\n      tag_3\n      jumpi\n    tag_1:\n      0x00\n      dup1\n      revert\n        /* \"contracts/Fundme.sol\":164:195  uint256 public  minimumUsd = 50 */\n    tag_2:\n      callvalue\n      dup1\n      iszero\n      tag_4\n      jumpi\n      0x00\n      dup1\n      revert\n    tag_4:\n      pop\n      tag_5\n      tag_6\n      jump\t// in\n    tag_5:\n      mload(0x40)\n      tag_7\n      swap2\n      swap1\n      tag_8\n      jump\t// in\n    tag_7:\n      mload(0x40)\n      dup1\n      swap2\n      sub\n      swap1\n      return\n        /* \"contracts/Fundme.sol\":202:375  function fund() public payable  {... */\n    tag_3:\n      tag_9\n      tag_10\n      jump\t// in\n    tag_9:\n      stop\n        /* \"contracts/Fundme.sol\":164:195  uint256 public  minimumUsd = 50 */\n    tag_6:\n      sload(0x00)\n      dup2\n      jump\t// out\n        /* \"contracts/Fundme.sol\":202:375  function fund() public payable  {... */\n    tag_10:\n        /* \"contracts/Fundme.sol\":279:289  minimumUsd */\n      sload(0x00)\n        /* \"contracts/Fundme.sol\":266:275  msg.value */\n      callvalue\n        /* \"contracts/Fundme.sol\":266:289  msg.value >= minimumUsd */\n      lt\n      iszero\n        /* \"contracts/Fundme.sol\":258:329  require(msg.value >= minimumUsd, \"value sent less than required value\") */\n      tag_12\n      jumpi\n      mload(0x40)\n      0x08c379a000000000000000000000000000000000000000000000000000000000\n      dup2\n      mstore\n      0x04\n      add\n      tag_13\n      swap1\n      tag_14\n      jump\t// in\n    tag_13:\n      mload(0x40)\n      dup1\n      swap2\n      sub\n      swap1\n      revert\n    tag_12:\n        /* \"contracts/Fundme.sol\":202:375  function fund() public payable  {... */\n      jump\t// out\n        /* \"#utility.yul\":7:84   */\n    tag_15:\n        /* \"#utility.yul\":44:51   */\n      0x00\n        /* \"#utility.yul\":73:78   */\n      dup2\n        /* \"#utility.yul\":62:78   */\n      swap1\n      pop\n        /* \"#utility.yul\":7:84   */\n      swap2\n      swap1\n      pop\n      jump\t// out\n        /* \"#utility.yul\":90:208   */\n    tag_16:\n        /* \"#utility.yul\":177:201   */\n      tag_23\n        /* \"#utility.yul\":195:200   */\n      dup2\n        /* \"#utility.yul\":177:201   */\n      tag_15\n      jump\t// in\n    tag_23:\n        /* \"#utility.yul\":172:175   */\n      dup3\n        /* \"#utility.yul\":165:202   */\n      mstore\n        /* \"#utility.yul\":90:208   */\n      pop\n      pop\n      jump\t// out\n        /* \"#utility.yul\":214:436   */\n    tag_8:\n        /* \"#utility.yul\":307:311   */\n      0x00\n        /* \"#utility.yul\":345:347   */\n      0x20\n        /* \"#utility.yul\":334:343   */\n      dup3\n        /* \"#utility.yul\":330:348   */\n      add\n        /* \"#utility.yul\":322:348   */\n      swap1\n      pop\n        /* \"#utility.yul\":358:429   */\n      tag_25\n        /* \"#utility.yul\":426:427   */\n      0x00\n        /* \"#utility.yul\":415:424   */\n      dup4\n        /* \"#utility.yul\":411:428   */\n      add\n        /* \"#utility.yul\":402:408   */\n      dup5\n        /* \"#utility.yul\":358:429   */\n      tag_16\n      jump\t// in\n    tag_25:\n        /* \"#utility.yul\":214:436   */\n      swap3\n      swap2\n      pop\n      pop\n      jump\t// out\n        /* \"#utility.yul\":442:611   */\n    tag_17:\n        /* \"#utility.yul\":526:537   */\n      0x00\n        /* \"#utility.yul\":560:566   */\n      dup3\n        /* \"#utility.yul\":555:558   */\n      dup3\n        /* \"#utility.yul\":548:567   */\n      mstore\n        /* \"#utility.yul\":600:604   */\n      0x20\n        /* \"#utility.yul\":595:598   */\n      dup3\n        /* \"#utility.yul\":591:605   */\n      add\n        /* \"#utility.yul\":576:605   */\n      swap1\n      pop\n        /* \"#utility.yul\":442:611   */\n      swap3\n      swap2\n      pop\n      pop\n      jump\t// out\n        /* \"#utility.yul\":617:839   */\n    tag_18:\n        /* \"#utility.yul\":757:791   */\n      0x76616c75652073656e74206c657373207468616e207265717569726564207661\n        /* \"#utility.yul\":753:754   */\n      0x00\n        /* \"#utility.yul\":745:751   */\n      dup3\n        /* \"#utility.yul\":741:755   */\n      add\n        /* \"#utility.yul\":734:792   */\n      mstore\n        /* \"#utility.yul\":826:831   */\n      0x6c75650000000000000000000000000000000000000000000000000000000000\n        /* \"#utility.yul\":821:823   */\n      0x20\n        /* \"#utility.yul\":813:819   */\n      dup3\n        /* \"#utility.yul\":809:824   */\n      add\n        /* \"#utility.yul\":802:832   */\n      mstore\n        /* \"#utility.yul\":617:839   */\n      pop\n      jump\t// out\n        /* \"#utility.yul\":845:1211   */\n    tag_19:\n        /* \"#utility.yul\":987:990   */\n      0x00\n        /* \"#utility.yul\":1008:1075   */\n      tag_29\n        /* \"#utility.yul\":1072:1074   */\n      0x23\n        /* \"#utility.yul\":1067:1070   */\n      dup4\n        /* \"#utility.yul\":1008:1075   */\n      tag_17\n      jump\t// in\n    tag_29:\n        /* \"#utility.yul\":1001:1075   */\n      swap2\n      pop\n        /* \"#utility.yul\":1084:1177   */\n      tag_30\n        /* \"#utility.yul\":1173:1176   */\n      dup3\n        /* \"#utility.yul\":1084:1177   */\n      tag_18\n      jump\t// in\n    tag_30:\n        /* \"#utility.yul\":1202:1204   */\n      0x40\n        /* \"#utility.yul\":1197:1200   */\n      dup3\n        /* \"#utility.yul\":1193:1205   */\n      add\n        /* \"#utility.yul\":1186:1205   */\n      swap1\n      pop\n        /* \"#utility.yul\":845:1211   */\n      swap2\n      swap1\n      pop\n      jump\t// out\n        /* \"#utility.yul\":1217:1636   */\n    tag_14:\n        /* \"#utility.yul\":1383:1387   */\n      0x00\n        /* \"#utility.yul\":1421:1423   */\n      0x20\n        /* \"#utility.yul\":1410:1419   */\n      dup3\n        /* \"#utility.yul\":1406:1424   */\n      add\n        /* \"#utility.yul\":1398:1424   */\n      swap1\n      pop\n        /* \"#utility.yul\":1470:1479   */\n      dup2\n        /* \"#utility.yul\":1464:1468   */\n      dup2\n        /* \"#utility.yul\":1460:1480   */\n      sub\n        /* \"#utility.yul\":1456:1457   */\n      0x00\n        /* \"#utility.yul\":1445:1454   */\n      dup4\n        /* \"#utility.yul\":1441:1458   */\n      add\n        /* \"#utility.yul\":1434:1481   */\n      mstore\n        /* \"#utility.yul\":1498:1629   */\n      tag_32\n        /* \"#utility.yul\":1624:1628   */\n      dup2\n        /* \"#utility.yul\":1498:1629   */\n      tag_19\n      jump\t// in\n    tag_32:\n        /* \"#utility.yul\":1490:1629   */\n      swap1\n      pop\n        /* \"#utility.yul\":1217:1636   */\n      swap2\n      swap1\n      pop\n      jump\t// out\n\n    auxdata: 0xa26469706673582212209eeb65d6ef3ce30302060aead43db417934cac0a1e189f83401237bd1755802264736f6c63430008180033\n}\n",
				"bytecode": {
					"linkReferences": {},
					"object": "608060405260325f55348015610013575f80fd5b506101b0806100215f395ff3fe608060405260043610610028575f3560e01c8063098de8201461002c578063b60d428814610056575b5f80fd5b348015610037575f80fd5b50610040610060565b60405161004d91906100c3565b60405180910390f35b61005e610065565b005b5f5481565b5f543410156100a9576040517f08c379a00000000000000000000000000000000000000000000000000000000081526004016100a09061015c565b60405180910390fd5b565b5f819050919050565b6100bd816100ab565b82525050565b5f6020820190506100d65f8301846100b4565b92915050565b5f82825260208201905092915050565b7f76616c75652073656e74206c657373207468616e2072657175697265642076615f8201527f6c75650000000000000000000000000000000000000000000000000000000000602082015250565b5f6101466023836100dc565b9150610151826100ec565b604082019050919050565b5f6020820190508181035f8301526101738161013a565b905091905056fea26469706673582212209eeb65d6ef3ce30302060aead43db417934cac0a1e189f83401237bd1755802264736f6c63430008180033",
					"opcodes": "PUSH1 0x80 PUSH1 0x40 MSTORE PUSH1 0x32 PUSH0 SSTORE CALLVALUE DUP1 ISZERO PUSH2 0x13 JUMPI PUSH0 DUP1 REVERT JUMPDEST POP PUSH2 0x1B0 DUP1 PUSH2 0x21 PUSH0 CODECOPY PUSH0 RETURN INVALID PUSH1 0x80 PUSH1 0x40 MSTORE PUSH1 0x4 CALLDATASIZE LT PUSH2 0x28 JUMPI PUSH0 CALLDATALOAD PUSH1 0xE0 SHR DUP1 PUSH4 0x98DE820 EQ PUSH2 0x2C JUMPI DUP1 PUSH4 0xB60D4288 EQ PUSH2 0x56 JUMPI JUMPDEST PUSH0 DUP1 REVERT JUMPDEST CALLVALUE DUP1 ISZERO PUSH2 0x37 JUMPI PUSH0 DUP1 REVERT JUMPDEST POP PUSH2 0x40 PUSH2 0x60 JUMP JUMPDEST PUSH1 0x40 MLOAD PUSH2 0x4D SWAP2 SWAP1 PUSH2 0xC3 JUMP JUMPDEST PUSH1 0x40 MLOAD DUP1 SWAP2 SUB SWAP1 RETURN JUMPDEST PUSH2 0x5E PUSH2 0x65 JUMP JUMPDEST STOP JUMPDEST PUSH0 SLOAD DUP2 JUMP JUMPDEST PUSH0 SLOAD CALLVALUE LT ISZERO PUSH2 0xA9 JUMPI PUSH1 0x40 MLOAD PUSH32 0x8C379A000000000000000000000000000000000000000000000000000000000 DUP2 MSTORE PUSH1 0x4 ADD PUSH2 0xA0 SWAP1 PUSH2 0x15C JUMP JUMPDEST PUSH1 0x40 MLOAD DUP1 SWAP2 SUB SWAP1 REVERT JUMPDEST JUMP JUMPDEST PUSH0 DUP2 SWAP1 POP SWAP2 SWAP1 POP JUMP JUMPDEST PUSH2 0xBD DUP2 PUSH2 0xAB JUMP JUMPDEST DUP3 MSTORE POP POP JUMP JUMPDEST PUSH0 PUSH1 0x20 DUP3 ADD SWAP1 POP PUSH2 0xD6 PUSH0 DUP4 ADD DUP5 PUSH2 0xB4 JUMP JUMPDEST SWAP3 SWAP2 POP POP JUMP JUMPDEST PUSH0 DUP3 DUP3 MSTORE PUSH1 0x20 DUP3 ADD SWAP1 POP SWAP3 SWAP2 POP POP JUMP JUMPDEST PUSH32 0x76616C75652073656E74206C657373207468616E207265717569726564207661 PUSH0 DUP3 ADD MSTORE PUSH32 0x6C75650000000000000000000000000000000000000000000000000000000000 PUSH1 0x20 DUP3 ADD MSTORE POP JUMP JUMPDEST PUSH0 PUSH2 0x146 PUSH1 0x23 DUP4 PUSH2 0xDC JUMP JUMPDEST SWAP2 POP PUSH2 0x151 DUP3 PUSH2 0xEC JUMP JUMPDEST PUSH1 0x40 DUP3 ADD SWAP1 POP SWAP2 SWAP1 POP JUMP JUMPDEST PUSH0 PUSH1 0x20 DUP3 ADD SWAP1 POP DUP2 DUP2 SUB PUSH0 DUP4 ADD MSTORE PUSH2 0x173 DUP2 PUSH2 0x13A JUMP JUMPDEST SWAP1 POP SWAP2 SWAP1 POP JUMP INVALID LOG2 PUSH5 0x6970667358 0x22 SLT KECCAK256 SWAP15 0xEB PUSH6 0xD6EF3CE30302 MOD EXP 0xEA 0xD4 RETURNDATASIZE 0xB4 OR SWAP4 0x4C 0xAC EXP 0x1E XOR SWAP16 DUP4 BLOCKHASH SLT CALLDATACOPY 0xBD OR SSTORE DUP1 0x22 PUSH5 0x736F6C6343 STOP ADDMOD XOR STOP CALLER "
				},
				"gasEstimates": {
					"creation": {
						"codeDepositCost": "86400",
						"executionCost": "22238",
						"totalCost": "108638"
					},
					"external": {
						"fund()": "2545",
						"minimumUsd()": "2402"
					}
				},
				"methodIdentifiers": {
					"fund()": "b60d4288",
					"minimumUsd()": "098de820"
				}
			},
			"storageLayout": {
				"storage": [
					{
						"astId": 4,
						"contract": "contracts/Fundme.sol:FundMe",
						"label": "minimumUsd",
						"offset": 0,
						"slot": "0",
						"type": "t_uint256"
					}
				],
				"types": {
					"t_uint256": {
						"encoding": "inplace",
						"label": "uint256",
						"numberOfBytes": "32"
					}
				}
			},
			"userdoc": {
				"kind": "user",
				"methods": {},
				"version": 1
			}
		}
	}
}