{
	"contracts/StorageFactory.sol": {
		"StorageFactory": {
			"abi": [
				{
					"inputs": [
						{
							"internalType": "uint256",
							"name": "_storageIndex",
							"type": "uint256"
						},
						{
							"internalType": "string",
							"name": "_name",
							"type": "string"
						},
						{
							"internalType": "uint256",
							"name": "_favoriteNum",
							"type": "uint256"
						}
					],
					"name": "addPerson",
					"outputs": [],
					"stateMutability": "nonpayable",
					"type": "function"
				},
				{
					"inputs": [],
					"name": "createSimpleStorageContract",
					"outputs": [],
					"stateMutability": "nonpayable",
					"type": "function"
				},
				{
					"inputs": [
						{
							"internalType": "uint256",
							"name": "_storageIndex",
							"type": "uint256"
						}
					],
					"name": "returnPerson",
					"outputs": [
						{
							"components": [
								{
									"internalType": "uint256",
									"name": "favortieNum",
									"type": "uint256"
								},
								{
									"internalType": "string",
									"name": "name",
									"type": "string"
								}
							],
							"internalType": "struct SimpleStorage.People",
							"name": "",
							"type": "tuple"
						}
					],
					"stateMutability": "view",
					"type": "function"
				},
				{
					"inputs": [
						{
							"internalType": "uint256",
							"name": "_simpleStorageIndex",
							"type": "uint256"
						}
					],
					"name": "sfGet",
					"outputs": [
						{
							"internalType": "uint256",
							"name": "",
							"type": "uint256"
						}
					],
					"stateMutability": "view",
					"type": "function"
				},
				{
					"inputs": [
						{
							"internalType": "uint256",
							"name": "_simpleStorageIndex",
							"type": "uint256"
						},
						{
							"internalType": "uint256",
							"name": "_simpleStorageNumber",
							"type": "uint256"
						}
					],
					"name": "sfStore",
					"outputs": [],
					"stateMutability": "nonpayable",
					"type": "function"
				},
				{
					"inputs": [
						{
							"internalType": "uint256",
							"name": "",
							"type": "uint256"
						}
					],
					"name": "simpleStorageArray",
					"outputs": [
						{
							"internalType": "contract SimpleStorage",
							"name": "",
							"type": "address"
						}
					],
					"stateMutability": "view",
					"type": "function"
				}
			],
			"devdoc": {
				"kind": "dev",
				"methods": {},
				"version": 1
			},
			"evm": {
				"assembly": "    /* \"contracts/StorageFactory.sol\":236:1543  contract StorageFactory{... */\n  mstore(0x40, 0x80)\n  callvalue\n  dup1\n  iszero\n  tag_1\n  jumpi\n  0x00\n  dup1\n  revert\ntag_1:\n  pop\n  dataSize(sub_0)\n  dup1\n  dataOffset(sub_0)\n  0x00\n  codecopy\n  0x00\n  return\nstop\n\nsub_0: assembly {\n        /* \"contracts/StorageFactory.sol\":236:1543  contract StorageFactory{... */\n      mstore(0x40, 0x80)\n      callvalue\n      dup1\n      iszero\n      tag_1\n      jumpi\n      0x00\n      dup1\n      revert\n    tag_1:\n      pop\n      jumpi(tag_2, lt(calldatasize, 0x04))\n      shr(0xe0, calldataload(0x00))\n      dup1\n      0x1563700f\n      eq\n      tag_3\n      jumpi\n      dup1\n      0x1dda6541\n      eq\n      tag_4\n      jumpi\n      dup1\n      0x3df9b366\n      eq\n      tag_5\n      jumpi\n      dup1\n      0x64591bf1\n      eq\n      tag_6\n      jumpi\n      dup1\n      0xa40885d3\n      eq\n      tag_7\n      jumpi\n      dup1\n      0xc5f19c20\n      eq\n      tag_8\n      jumpi\n    tag_2:\n      0x00\n      dup1\n      revert\n        /* \"contracts/StorageFactory.sol\":492:897  function sfStore(uint256 _simpleStorageIndex, uint256 _simpleStorageNumber) public {... */\n    tag_3:\n      tag_9\n      0x04\n      dup1\n      calldatasize\n      sub\n      dup2\n      add\n      swap1\n      tag_10\n      swap2\n      swap1\n      tag_11\n      jump\t// in\n    tag_10:\n      tag_12\n      jump\t// in\n    tag_9:\n      stop\n        /* \"contracts/StorageFactory.sol\":321:488  function createSimpleStorageContract() public {... */\n    tag_4:\n      tag_13\n      tag_14\n      jump\t// in\n    tag_13:\n      stop\n        /* \"contracts/StorageFactory.sol\":1100:1320  function addPerson(uint256 _storageIndex, string memory _name, uint256 _favoriteNum) public {... */\n    tag_5:\n      tag_15\n      0x04\n      dup1\n      calldatasize\n      sub\n      dup2\n      add\n      swap1\n      tag_16\n      swap2\n      swap1\n      tag_17\n      jump\t// in\n    tag_16:\n      tag_18\n      jump\t// in\n    tag_15:\n      stop\n        /* \"contracts/StorageFactory.sol\":266:308  SimpleStorage[] public  simpleStorageArray */\n    tag_6:\n      tag_19\n      0x04\n      dup1\n      calldatasize\n      sub\n      dup2\n      add\n      swap1\n      tag_20\n      swap2\n      swap1\n      tag_21\n      jump\t// in\n    tag_20:\n      tag_22\n      jump\t// in\n    tag_19:\n      mload(0x40)\n      tag_23\n      swap2\n      swap1\n      tag_24\n      jump\t// in\n    tag_23:\n      mload(0x40)\n      dup1\n      swap2\n      sub\n      swap1\n      return\n        /* \"contracts/StorageFactory.sol\":1328:1534  function returnPerson(uint256 _storageIndex) public  view returns (SimpleStorage.People memory){... */\n    tag_7:\n      tag_25\n      0x04\n      dup1\n      calldatasize\n      sub\n      dup2\n      add\n      swap1\n      tag_26\n      swap2\n      swap1\n      tag_21\n      jump\t// in\n    tag_26:\n      tag_27\n      jump\t// in\n    tag_25:\n      mload(0x40)\n      tag_28\n      swap2\n      swap1\n      tag_29\n      jump\t// in\n    tag_28:\n      mload(0x40)\n      dup1\n      swap2\n      sub\n      swap1\n      return\n        /* \"contracts/StorageFactory.sol\":901:1096  function sfGet(uint256 _simpleStorageIndex) public  view  returns (uint256){... */\n    tag_8:\n      tag_30\n      0x04\n      dup1\n      calldatasize\n      sub\n      dup2\n      add\n      swap1\n      tag_31\n      swap2\n      swap1\n      tag_21\n      jump\t// in\n    tag_31:\n      tag_32\n      jump\t// in\n    tag_30:\n      mload(0x40)\n      tag_33\n      swap2\n      swap1\n      tag_34\n      jump\t// in\n    tag_33:\n      mload(0x40)\n      dup1\n      swap2\n      sub\n      swap1\n      return\n        /* \"contracts/StorageFactory.sol\":492:897  function sfStore(uint256 _simpleStorageIndex, uint256 _simpleStorageNumber) public {... */\n    tag_12:\n        /* \"contracts/StorageFactory.sol\":768:795  SimpleStorage simpleStorage */\n      0x00\n        /* \"contracts/StorageFactory.sol\":798:816  simpleStorageArray */\n      dup1\n        /* \"contracts/StorageFactory.sol\":817:836  _simpleStorageIndex */\n      dup4\n        /* \"contracts/StorageFactory.sol\":798:837  simpleStorageArray[_simpleStorageIndex] */\n      dup2\n      sload\n      dup2\n      lt\n      tag_36\n      jumpi\n      tag_37\n      tag_38\n      jump\t// in\n    tag_37:\n    tag_36:\n      swap1\n      0x00\n      mstore\n      keccak256(0x00, 0x20)\n      add\n      0x00\n      swap1\n      sload\n      swap1\n      0x0100\n      exp\n      swap1\n      div\n      0xffffffffffffffffffffffffffffffffffffffff\n      and\n        /* \"contracts/StorageFactory.sol\":768:837  SimpleStorage simpleStorage = simpleStorageArray[_simpleStorageIndex] */\n      swap1\n      pop\n        /* \"contracts/StorageFactory.sol\":844:857  simpleStorage */\n      dup1\n        /* \"contracts/StorageFactory.sol\":844:871  simpleStorage.storeFunction */\n      0xffffffffffffffffffffffffffffffffffffffff\n      and\n      0xd1e04b5b\n        /* \"contracts/StorageFactory.sol\":872:892  _simpleStorageNumber */\n      dup4\n        /* \"contracts/StorageFactory.sol\":844:893  simpleStorage.storeFunction(_simpleStorageNumber) */\n      mload(0x40)\n      dup3\n      0xffffffff\n      and\n      0xe0\n      shl\n      dup2\n      mstore\n      0x04\n      add\n      tag_40\n      swap2\n      swap1\n      tag_34\n      jump\t// in\n    tag_40:\n      0x00\n      mload(0x40)\n      dup1\n      dup4\n      sub\n      dup2\n      0x00\n      dup8\n      dup1\n      extcodesize\n      iszero\n      dup1\n      iszero\n      tag_41\n      jumpi\n      0x00\n      dup1\n      revert\n    tag_41:\n      pop\n      gas\n      call\n      iszero\n      dup1\n      iszero\n      tag_43\n      jumpi\n      returndatasize\n      0x00\n      dup1\n      returndatacopy\n      revert(0x00, returndatasize)\n    tag_43:\n      pop\n      pop\n      pop\n      pop\n        /* \"contracts/StorageFactory.sol\":575:897  {... */\n      pop\n        /* \"contracts/StorageFactory.sol\":492:897  function sfStore(uint256 _simpleStorageIndex, uint256 _simpleStorageNumber) public {... */\n      pop\n      pop\n      jump\t// out\n        /* \"contracts/StorageFactory.sol\":321:488  function createSimpleStorageContract() public {... */\n    tag_14:\n        /* \"contracts/StorageFactory.sol\":378:405  SimpleStorage simpleStorage */\n      0x00\n        /* \"contracts/StorageFactory.sol\":408:427  new SimpleStorage() */\n      mload(0x40)\n      tag_45\n      swap1\n      tag_46\n      jump\t// in\n    tag_45:\n      mload(0x40)\n      dup1\n      swap2\n      sub\n      swap1\n      0x00\n      create\n      dup1\n      iszero\n      dup1\n      iszero\n      tag_47\n      jumpi\n      returndatasize\n      0x00\n      dup1\n      returndatacopy\n      revert(0x00, returndatasize)\n    tag_47:\n      pop\n        /* \"contracts/StorageFactory.sol\":378:427  SimpleStorage simpleStorage = new SimpleStorage() */\n      swap1\n      pop\n        /* \"contracts/StorageFactory.sol\":438:456  simpleStorageArray */\n      0x00\n        /* \"contracts/StorageFactory.sol\":462:475  simpleStorage */\n      dup2\n        /* \"contracts/StorageFactory.sol\":438:476  simpleStorageArray.push(simpleStorage) */\n      swap1\n      dup1\n      0x01\n      dup2\n      sload\n      add\n      dup1\n      dup3\n      sstore\n      dup1\n      swap2\n      pop\n      pop\n      0x01\n      swap1\n      sub\n      swap1\n      0x00\n      mstore\n      keccak256(0x00, 0x20)\n      add\n      0x00\n      swap1\n      swap2\n      swap1\n      swap2\n      swap1\n      swap2\n      0x0100\n      exp\n      dup2\n      sload\n      dup2\n      0xffffffffffffffffffffffffffffffffffffffff\n      mul\n      not\n      and\n      swap1\n      dup4\n      0xffffffffffffffffffffffffffffffffffffffff\n      and\n      mul\n      or\n      swap1\n      sstore\n      pop\n        /* \"contracts/StorageFactory.sol\":367:488  {... */\n      pop\n        /* \"contracts/StorageFactory.sol\":321:488  function createSimpleStorageContract() public {... */\n      jump\t// out\n        /* \"contracts/StorageFactory.sol\":1100:1320  function addPerson(uint256 _storageIndex, string memory _name, uint256 _favoriteNum) public {... */\n    tag_18:\n        /* \"contracts/StorageFactory.sol\":1199:1226  SimpleStorage simpleStorage */\n      0x00\n        /* \"contracts/StorageFactory.sol\":1229:1247  simpleStorageArray */\n      dup1\n        /* \"contracts/StorageFactory.sol\":1248:1261  _storageIndex */\n      dup5\n        /* \"contracts/StorageFactory.sol\":1229:1262  simpleStorageArray[_storageIndex] */\n      dup2\n      sload\n      dup2\n      lt\n      tag_50\n      jumpi\n      tag_51\n      tag_38\n      jump\t// in\n    tag_51:\n    tag_50:\n      swap1\n      0x00\n      mstore\n      keccak256(0x00, 0x20)\n      add\n      0x00\n      swap1\n      sload\n      swap1\n      0x0100\n      exp\n      swap1\n      div\n      0xffffffffffffffffffffffffffffffffffffffff\n      and\n        /* \"contracts/StorageFactory.sol\":1199:1262  SimpleStorage simpleStorage = simpleStorageArray[_storageIndex] */\n      swap1\n      pop\n        /* \"contracts/StorageFactory.sol\":1269:1282  simpleStorage */\n      dup1\n        /* \"contracts/StorageFactory.sol\":1269:1292  simpleStorage.addPerson */\n      0xffffffffffffffffffffffffffffffffffffffff\n      and\n      0x6f760f41\n        /* \"contracts/StorageFactory.sol\":1294:1299  _name */\n      dup5\n        /* \"contracts/StorageFactory.sol\":1301:1313  _favoriteNum */\n      dup5\n        /* \"contracts/StorageFactory.sol\":1269:1314  simpleStorage.addPerson( _name, _favoriteNum) */\n      mload(0x40)\n      dup4\n      0xffffffff\n      and\n      0xe0\n      shl\n      dup2\n      mstore\n      0x04\n      add\n      tag_53\n      swap3\n      swap2\n      swap1\n      tag_54\n      jump\t// in\n    tag_53:\n      0x00\n      mload(0x40)\n      dup1\n      dup4\n      sub\n      dup2\n      0x00\n      dup8\n      dup1\n      extcodesize\n      iszero\n      dup1\n      iszero\n      tag_55\n      jumpi\n      0x00\n      dup1\n      revert\n    tag_55:\n      pop\n      gas\n      call\n      iszero\n      dup1\n      iszero\n      tag_57\n      jumpi\n      returndatasize\n      0x00\n      dup1\n      returndatacopy\n      revert(0x00, returndatasize)\n    tag_57:\n      pop\n      pop\n      pop\n      pop\n        /* \"contracts/StorageFactory.sol\":1192:1320  {... */\n      pop\n        /* \"contracts/StorageFactory.sol\":1100:1320  function addPerson(uint256 _storageIndex, string memory _name, uint256 _favoriteNum) public {... */\n      pop\n      pop\n      pop\n      jump\t// out\n        /* \"contracts/StorageFactory.sol\":266:308  SimpleStorage[] public  simpleStorageArray */\n    tag_22:\n      0x00\n      dup2\n      dup2\n      sload\n      dup2\n      lt\n      tag_58\n      jumpi\n      0x00\n      dup1\n      revert\n    tag_58:\n      swap1\n      0x00\n      mstore\n      keccak256(0x00, 0x20)\n      add\n      0x00\n      swap2\n      pop\n      sload\n      swap1\n      0x0100\n      exp\n      swap1\n      div\n      0xffffffffffffffffffffffffffffffffffffffff\n      and\n      dup2\n      jump\t// out\n        /* \"contracts/StorageFactory.sol\":1328:1534  function returnPerson(uint256 _storageIndex) public  view returns (SimpleStorage.People memory){... */\n    tag_27:\n        /* \"contracts/StorageFactory.sol\":1395:1422  SimpleStorage.People memory */\n      tag_60\n      tag_61\n      jump\t// in\n    tag_60:\n        /* \"contracts/StorageFactory.sol\":1427:1454  SimpleStorage simpleStorage */\n      0x00\n        /* \"contracts/StorageFactory.sol\":1457:1475  simpleStorageArray */\n      dup1\n        /* \"contracts/StorageFactory.sol\":1476:1489  _storageIndex */\n      dup4\n        /* \"contracts/StorageFactory.sol\":1457:1490  simpleStorageArray[_storageIndex] */\n      dup2\n      sload\n      dup2\n      lt\n      tag_63\n      jumpi\n      tag_64\n      tag_38\n      jump\t// in\n    tag_64:\n    tag_63:\n      swap1\n      0x00\n      mstore\n      keccak256(0x00, 0x20)\n      add\n      0x00\n      swap1\n      sload\n      swap1\n      0x0100\n      exp\n      swap1\n      div\n      0xffffffffffffffffffffffffffffffffffffffff\n      and\n        /* \"contracts/StorageFactory.sol\":1427:1490  SimpleStorage simpleStorage = simpleStorageArray[_storageIndex] */\n      swap1\n      pop\n        /* \"contracts/StorageFactory.sol\":1501:1514  simpleStorage */\n      dup1\n        /* \"contracts/StorageFactory.sol\":1501:1527  simpleStorage.returnPerson */\n      0xffffffffffffffffffffffffffffffffffffffff\n      and\n      0xa40885d3\n        /* \"contracts/StorageFactory.sol\":1528:1529  0 */\n      0x00\n        /* \"contracts/StorageFactory.sol\":1501:1530  simpleStorage.returnPerson(0) */\n      mload(0x40)\n      dup3\n      0xffffffff\n      and\n      0xe0\n      shl\n      dup2\n      mstore\n      0x04\n      add\n      tag_66\n      swap2\n      swap1\n      tag_67\n      jump\t// in\n    tag_66:\n      0x00\n      mload(0x40)\n      dup1\n      dup4\n      sub\n      dup2\n      dup7\n      gas\n      staticcall\n      iszero\n      dup1\n      iszero\n      tag_69\n      jumpi\n      returndatasize\n      0x00\n      dup1\n      returndatacopy\n      revert(0x00, returndatasize)\n    tag_69:\n      pop\n      pop\n      pop\n      pop\n      mload(0x40)\n      returndatasize\n      0x00\n      dup3\n      returndatacopy\n      returndatasize\n      not(0x1f)\n      0x1f\n      dup3\n      add\n      and\n      dup3\n      add\n      dup1\n      0x40\n      mstore\n      pop\n      dup2\n      add\n      swap1\n      tag_70\n      swap2\n      swap1\n      tag_71\n      jump\t// in\n    tag_70:\n        /* \"contracts/StorageFactory.sol\":1494:1530  return simpleStorage.returnPerson(0) */\n      swap2\n      pop\n      pop\n        /* \"contracts/StorageFactory.sol\":1328:1534  function returnPerson(uint256 _storageIndex) public  view returns (SimpleStorage.People memory){... */\n      swap2\n      swap1\n      pop\n      jump\t// out\n        /* \"contracts/StorageFactory.sol\":901:1096  function sfGet(uint256 _simpleStorageIndex) public  view  returns (uint256){... */\n    tag_32:\n        /* \"contracts/StorageFactory.sol\":968:975  uint256 */\n      0x00\n        /* \"contracts/StorageFactory.sol\":984:1011  SimpleStorage simpleStorage */\n      dup1\n        /* \"contracts/StorageFactory.sol\":1014:1032  simpleStorageArray */\n      0x00\n        /* \"contracts/StorageFactory.sol\":1033:1052  _simpleStorageIndex */\n      dup4\n        /* \"contracts/StorageFactory.sol\":1014:1053  simpleStorageArray[_simpleStorageIndex] */\n      dup2\n      sload\n      dup2\n      lt\n      tag_73\n      jumpi\n      tag_74\n      tag_38\n      jump\t// in\n    tag_74:\n    tag_73:\n      swap1\n      0x00\n      mstore\n      keccak256(0x00, 0x20)\n      add\n      0x00\n      swap1\n      sload\n      swap1\n      0x0100\n      exp\n      swap1\n      div\n      0xffffffffffffffffffffffffffffffffffffffff\n      and\n        /* \"contracts/StorageFactory.sol\":984:1053  SimpleStorage simpleStorage = simpleStorageArray[_simpleStorageIndex] */\n      swap1\n      pop\n        /* \"contracts/StorageFactory.sol\":1068:1081  simpleStorage */\n      dup1\n        /* \"contracts/StorageFactory.sol\":1068:1090  simpleStorage.retrieve */\n      0xffffffffffffffffffffffffffffffffffffffff\n      and\n      0x2e64cec1\n        /* \"contracts/StorageFactory.sol\":1068:1092  simpleStorage.retrieve() */\n      mload(0x40)\n      dup2\n      0xffffffff\n      and\n      0xe0\n      shl\n      dup2\n      mstore\n      0x04\n      add\n      0x20\n      mload(0x40)\n      dup1\n      dup4\n      sub\n      dup2\n      dup7\n      gas\n      staticcall\n      iszero\n      dup1\n      iszero\n      tag_77\n      jumpi\n      returndatasize\n      0x00\n      dup1\n      returndatacopy\n      revert(0x00, returndatasize)\n    tag_77:\n      pop\n      pop\n      pop\n      pop\n      mload(0x40)\n      returndatasize\n      not(0x1f)\n      0x1f\n      dup3\n      add\n      and\n      dup3\n      add\n      dup1\n      0x40\n      mstore\n      pop\n      dup2\n      add\n      swap1\n      tag_78\n      swap2\n      swap1\n      tag_79\n      jump\t// in\n    tag_78:\n        /* \"contracts/StorageFactory.sol\":1061:1092  return simpleStorage.retrieve() */\n      swap2\n      pop\n      pop\n        /* \"contracts/StorageFactory.sol\":901:1096  function sfGet(uint256 _simpleStorageIndex) public  view  returns (uint256){... */\n      swap2\n      swap1\n      pop\n      jump\t// out\n    tag_46:\n      dataSize(sub_0)\n      dup1\n      dataOffset(sub_0)\n      dup4\n      codecopy\n      add\n      swap1\n      jump\t// out\n    tag_61:\n      mload(0x40)\n      dup1\n      0x40\n      add\n      0x40\n      mstore\n      dup1\n      0x00\n      dup2\n      mstore\n      0x20\n      add\n      0x60\n      dup2\n      mstore\n      pop\n      swap1\n      jump\t// out\n        /* \"#utility.yul\":7:82   */\n    tag_80:\n        /* \"#utility.yul\":40:46   */\n      0x00\n        /* \"#utility.yul\":73:75   */\n      0x40\n        /* \"#utility.yul\":67:76   */\n      mload\n        /* \"#utility.yul\":57:76   */\n      swap1\n      pop\n        /* \"#utility.yul\":7:82   */\n      swap1\n      jump\t// out\n        /* \"#utility.yul\":88:205   */\n    tag_81:\n        /* \"#utility.yul\":197:198   */\n      0x00\n        /* \"#utility.yul\":194:195   */\n      dup1\n        /* \"#utility.yul\":187:199   */\n      revert\n        /* \"#utility.yul\":211:328   */\n    tag_82:\n        /* \"#utility.yul\":320:321   */\n      0x00\n        /* \"#utility.yul\":317:318   */\n      dup1\n        /* \"#utility.yul\":310:322   */\n      revert\n        /* \"#utility.yul\":334:411   */\n    tag_83:\n        /* \"#utility.yul\":371:378   */\n      0x00\n        /* \"#utility.yul\":400:405   */\n      dup2\n        /* \"#utility.yul\":389:405   */\n      swap1\n      pop\n        /* \"#utility.yul\":334:411   */\n      swap2\n      swap1\n      pop\n      jump\t// out\n        /* \"#utility.yul\":417:539   */\n    tag_84:\n        /* \"#utility.yul\":490:514   */\n      tag_126\n        /* \"#utility.yul\":508:513   */\n      dup2\n        /* \"#utility.yul\":490:514   */\n      tag_83\n      jump\t// in\n    tag_126:\n        /* \"#utility.yul\":483:488   */\n      dup2\n        /* \"#utility.yul\":480:515   */\n      eq\n        /* \"#utility.yul\":470:533   */\n      tag_127\n      jumpi\n        /* \"#utility.yul\":529:530   */\n      0x00\n        /* \"#utility.yul\":526:527   */\n      dup1\n        /* \"#utility.yul\":519:531   */\n      revert\n        /* \"#utility.yul\":470:533   */\n    tag_127:\n        /* \"#utility.yul\":417:539   */\n      pop\n      jump\t// out\n        /* \"#utility.yul\":545:684   */\n    tag_85:\n        /* \"#utility.yul\":591:596   */\n      0x00\n        /* \"#utility.yul\":629:635   */\n      dup2\n        /* \"#utility.yul\":616:636   */\n      calldataload\n        /* \"#utility.yul\":607:636   */\n      swap1\n      pop\n        /* \"#utility.yul\":645:678   */\n      tag_129\n        /* \"#utility.yul\":672:677   */\n      dup2\n        /* \"#utility.yul\":645:678   */\n      tag_84\n      jump\t// in\n    tag_129:\n        /* \"#utility.yul\":545:684   */\n      swap3\n      swap2\n      pop\n      pop\n      jump\t// out\n        /* \"#utility.yul\":690:1164   */\n    tag_11:\n        /* \"#utility.yul\":758:764   */\n      0x00\n        /* \"#utility.yul\":766:772   */\n      dup1\n        /* \"#utility.yul\":815:817   */\n      0x40\n        /* \"#utility.yul\":803:812   */\n      dup4\n        /* \"#utility.yul\":794:801   */\n      dup6\n        /* \"#utility.yul\":790:813   */\n      sub\n        /* \"#utility.yul\":786:818   */\n      slt\n        /* \"#utility.yul\":783:902   */\n      iszero\n      tag_131\n      jumpi\n        /* \"#utility.yul\":821:900   */\n      tag_132\n      tag_81\n      jump\t// in\n    tag_132:\n        /* \"#utility.yul\":783:902   */\n    tag_131:\n        /* \"#utility.yul\":941:942   */\n      0x00\n        /* \"#utility.yul\":966:1019   */\n      tag_133\n        /* \"#utility.yul\":1011:1018   */\n      dup6\n        /* \"#utility.yul\":1002:1008   */\n      dup3\n        /* \"#utility.yul\":991:1000   */\n      dup7\n        /* \"#utility.yul\":987:1009   */\n      add\n        /* \"#utility.yul\":966:1019   */\n      tag_85\n      jump\t// in\n    tag_133:\n        /* \"#utility.yul\":956:1019   */\n      swap3\n      pop\n        /* \"#utility.yul\":912:1029   */\n      pop\n        /* \"#utility.yul\":1068:1070   */\n      0x20\n        /* \"#utility.yul\":1094:1147   */\n      tag_134\n        /* \"#utility.yul\":1139:1146   */\n      dup6\n        /* \"#utility.yul\":1130:1136   */\n      dup3\n        /* \"#utility.yul\":1119:1128   */\n      dup7\n        /* \"#utility.yul\":1115:1137   */\n      add\n        /* \"#utility.yul\":1094:1147   */\n      tag_85\n      jump\t// in\n    tag_134:\n        /* \"#utility.yul\":1084:1147   */\n      swap2\n      pop\n        /* \"#utility.yul\":1039:1157   */\n      pop\n        /* \"#utility.yul\":690:1164   */\n      swap3\n      pop\n      swap3\n      swap1\n      pop\n      jump\t// out\n        /* \"#utility.yul\":1170:1287   */\n    tag_86:\n        /* \"#utility.yul\":1279:1280   */\n      0x00\n        /* \"#utility.yul\":1276:1277   */\n      dup1\n        /* \"#utility.yul\":1269:1281   */\n      revert\n        /* \"#utility.yul\":1293:1410   */\n    tag_87:\n        /* \"#utility.yul\":1402:1403   */\n      0x00\n        /* \"#utility.yul\":1399:1400   */\n      dup1\n        /* \"#utility.yul\":1392:1404   */\n      revert\n        /* \"#utility.yul\":1416:1518   */\n    tag_88:\n        /* \"#utility.yul\":1457:1463   */\n      0x00\n        /* \"#utility.yul\":1508:1510   */\n      0x1f\n        /* \"#utility.yul\":1504:1511   */\n      not\n        /* \"#utility.yul\":1499:1501   */\n      0x1f\n        /* \"#utility.yul\":1492:1497   */\n      dup4\n        /* \"#utility.yul\":1488:1502   */\n      add\n        /* \"#utility.yul\":1484:1512   */\n      and\n        /* \"#utility.yul\":1474:1512   */\n      swap1\n      pop\n        /* \"#utility.yul\":1416:1518   */\n      swap2\n      swap1\n      pop\n      jump\t// out\n        /* \"#utility.yul\":1524:1704   */\n    tag_89:\n        /* \"#utility.yul\":1572:1649   */\n      0x4e487b7100000000000000000000000000000000000000000000000000000000\n        /* \"#utility.yul\":1569:1570   */\n      0x00\n        /* \"#utility.yul\":1562:1650   */\n      mstore\n        /* \"#utility.yul\":1669:1673   */\n      0x41\n        /* \"#utility.yul\":1666:1667   */\n      0x04\n        /* \"#utility.yul\":1659:1674   */\n      mstore\n        /* \"#utility.yul\":1693:1697   */\n      0x24\n        /* \"#utility.yul\":1690:1691   */\n      0x00\n        /* \"#utility.yul\":1683:1698   */\n      revert\n        /* \"#utility.yul\":1710:1991   */\n    tag_90:\n        /* \"#utility.yul\":1793:1820   */\n      tag_140\n        /* \"#utility.yul\":1815:1819   */\n      dup3\n        /* \"#utility.yul\":1793:1820   */\n      tag_88\n      jump\t// in\n    tag_140:\n        /* \"#utility.yul\":1785:1791   */\n      dup2\n        /* \"#utility.yul\":1781:1821   */\n      add\n        /* \"#utility.yul\":1923:1929   */\n      dup2\n        /* \"#utility.yul\":1911:1921   */\n      dup2\n        /* \"#utility.yul\":1908:1930   */\n      lt\n        /* \"#utility.yul\":1887:1905   */\n      0xffffffffffffffff\n        /* \"#utility.yul\":1875:1885   */\n      dup3\n        /* \"#utility.yul\":1872:1906   */\n      gt\n        /* \"#utility.yul\":1869:1931   */\n      or\n        /* \"#utility.yul\":1866:1954   */\n      iszero\n      tag_141\n      jumpi\n        /* \"#utility.yul\":1934:1952   */\n      tag_142\n      tag_89\n      jump\t// in\n    tag_142:\n        /* \"#utility.yul\":1866:1954   */\n    tag_141:\n        /* \"#utility.yul\":1974:1984   */\n      dup1\n        /* \"#utility.yul\":1970:1972   */\n      0x40\n        /* \"#utility.yul\":1963:1985   */\n      mstore\n        /* \"#utility.yul\":1753:1991   */\n      pop\n        /* \"#utility.yul\":1710:1991   */\n      pop\n      pop\n      jump\t// out\n        /* \"#utility.yul\":1997:2126   */\n    tag_91:\n        /* \"#utility.yul\":2031:2037   */\n      0x00\n        /* \"#utility.yul\":2058:2078   */\n      tag_144\n      tag_80\n      jump\t// in\n    tag_144:\n        /* \"#utility.yul\":2048:2078   */\n      swap1\n      pop\n        /* \"#utility.yul\":2087:2120   */\n      tag_145\n        /* \"#utility.yul\":2115:2119   */\n      dup3\n        /* \"#utility.yul\":2107:2113   */\n      dup3\n        /* \"#utility.yul\":2087:2120   */\n      tag_90\n      jump\t// in\n    tag_145:\n        /* \"#utility.yul\":1997:2126   */\n      swap2\n      swap1\n      pop\n      jump\t// out\n        /* \"#utility.yul\":2132:2440   */\n    tag_92:\n        /* \"#utility.yul\":2194:2198   */\n      0x00\n        /* \"#utility.yul\":2284:2302   */\n      0xffffffffffffffff\n        /* \"#utility.yul\":2276:2282   */\n      dup3\n        /* \"#utility.yul\":2273:2303   */\n      gt\n        /* \"#utility.yul\":2270:2326   */\n      iszero\n      tag_147\n      jumpi\n        /* \"#utility.yul\":2306:2324   */\n      tag_148\n      tag_89\n      jump\t// in\n    tag_148:\n        /* \"#utility.yul\":2270:2326   */\n    tag_147:\n        /* \"#utility.yul\":2344:2373   */\n      tag_149\n        /* \"#utility.yul\":2366:2372   */\n      dup3\n        /* \"#utility.yul\":2344:2373   */\n      tag_88\n      jump\t// in\n    tag_149:\n        /* \"#utility.yul\":2336:2373   */\n      swap1\n      pop\n        /* \"#utility.yul\":2428:2432   */\n      0x20\n        /* \"#utility.yul\":2422:2426   */\n      dup2\n        /* \"#utility.yul\":2418:2433   */\n      add\n        /* \"#utility.yul\":2410:2433   */\n      swap1\n      pop\n        /* \"#utility.yul\":2132:2440   */\n      swap2\n      swap1\n      pop\n      jump\t// out\n        /* \"#utility.yul\":2446:2592   */\n    tag_93:\n        /* \"#utility.yul\":2543:2549   */\n      dup3\n        /* \"#utility.yul\":2538:2541   */\n      dup2\n        /* \"#utility.yul\":2533:2536   */\n      dup4\n        /* \"#utility.yul\":2520:2550   */\n      calldatacopy\n        /* \"#utility.yul\":2584:2585   */\n      0x00\n        /* \"#utility.yul\":2575:2581   */\n      dup4\n        /* \"#utility.yul\":2570:2573   */\n      dup4\n        /* \"#utility.yul\":2566:2582   */\n      add\n        /* \"#utility.yul\":2559:2586   */\n      mstore\n        /* \"#utility.yul\":2446:2592   */\n      pop\n      pop\n      pop\n      jump\t// out\n        /* \"#utility.yul\":2598:3023   */\n    tag_94:\n        /* \"#utility.yul\":2676:2681   */\n      0x00\n        /* \"#utility.yul\":2701:2767   */\n      tag_152\n        /* \"#utility.yul\":2717:2766   */\n      tag_153\n        /* \"#utility.yul\":2759:2765   */\n      dup5\n        /* \"#utility.yul\":2717:2766   */\n      tag_92\n      jump\t// in\n    tag_153:\n        /* \"#utility.yul\":2701:2767   */\n      tag_91\n      jump\t// in\n    tag_152:\n        /* \"#utility.yul\":2692:2767   */\n      swap1\n      pop\n        /* \"#utility.yul\":2790:2796   */\n      dup3\n        /* \"#utility.yul\":2783:2788   */\n      dup2\n        /* \"#utility.yul\":2776:2797   */\n      mstore\n        /* \"#utility.yul\":2828:2832   */\n      0x20\n        /* \"#utility.yul\":2821:2826   */\n      dup2\n        /* \"#utility.yul\":2817:2833   */\n      add\n        /* \"#utility.yul\":2866:2869   */\n      dup5\n        /* \"#utility.yul\":2857:2863   */\n      dup5\n        /* \"#utility.yul\":2852:2855   */\n      dup5\n        /* \"#utility.yul\":2848:2864   */\n      add\n        /* \"#utility.yul\":2845:2870   */\n      gt\n        /* \"#utility.yul\":2842:2954   */\n      iszero\n      tag_154\n      jumpi\n        /* \"#utility.yul\":2873:2952   */\n      tag_155\n      tag_87\n      jump\t// in\n    tag_155:\n        /* \"#utility.yul\":2842:2954   */\n    tag_154:\n        /* \"#utility.yul\":2963:3017   */\n      tag_156\n        /* \"#utility.yul\":3010:3016   */\n      dup5\n        /* \"#utility.yul\":3005:3008   */\n      dup3\n        /* \"#utility.yul\":3000:3003   */\n      dup6\n        /* \"#utility.yul\":2963:3017   */\n      tag_93\n      jump\t// in\n    tag_156:\n        /* \"#utility.yul\":2682:3023   */\n      pop\n        /* \"#utility.yul\":2598:3023   */\n      swap4\n      swap3\n      pop\n      pop\n      pop\n      jump\t// out\n        /* \"#utility.yul\":3043:3383   */\n    tag_95:\n        /* \"#utility.yul\":3099:3104   */\n      0x00\n        /* \"#utility.yul\":3148:3151   */\n      dup3\n        /* \"#utility.yul\":3141:3145   */\n      0x1f\n        /* \"#utility.yul\":3133:3139   */\n      dup4\n        /* \"#utility.yul\":3129:3146   */\n      add\n        /* \"#utility.yul\":3125:3152   */\n      slt\n        /* \"#utility.yul\":3115:3237   */\n      tag_158\n      jumpi\n        /* \"#utility.yul\":3156:3235   */\n      tag_159\n      tag_86\n      jump\t// in\n    tag_159:\n        /* \"#utility.yul\":3115:3237   */\n    tag_158:\n        /* \"#utility.yul\":3273:3279   */\n      dup2\n        /* \"#utility.yul\":3260:3280   */\n      calldataload\n        /* \"#utility.yul\":3298:3377   */\n      tag_160\n        /* \"#utility.yul\":3373:3376   */\n      dup5\n        /* \"#utility.yul\":3365:3371   */\n      dup3\n        /* \"#utility.yul\":3358:3362   */\n      0x20\n        /* \"#utility.yul\":3350:3356   */\n      dup7\n        /* \"#utility.yul\":3346:3363   */\n      add\n        /* \"#utility.yul\":3298:3377   */\n      tag_94\n      jump\t// in\n    tag_160:\n        /* \"#utility.yul\":3289:3377   */\n      swap2\n      pop\n        /* \"#utility.yul\":3105:3383   */\n      pop\n        /* \"#utility.yul\":3043:3383   */\n      swap3\n      swap2\n      pop\n      pop\n      jump\t// out\n        /* \"#utility.yul\":3389:4188   */\n    tag_17:\n        /* \"#utility.yul\":3476:3482   */\n      0x00\n        /* \"#utility.yul\":3484:3490   */\n      dup1\n        /* \"#utility.yul\":3492:3498   */\n      0x00\n        /* \"#utility.yul\":3541:3543   */\n      0x60\n        /* \"#utility.yul\":3529:3538   */\n      dup5\n        /* \"#utility.yul\":3520:3527   */\n      dup7\n        /* \"#utility.yul\":3516:3539   */\n      sub\n        /* \"#utility.yul\":3512:3544   */\n      slt\n        /* \"#utility.yul\":3509:3628   */\n      iszero\n      tag_162\n      jumpi\n        /* \"#utility.yul\":3547:3626   */\n      tag_163\n      tag_81\n      jump\t// in\n    tag_163:\n        /* \"#utility.yul\":3509:3628   */\n    tag_162:\n        /* \"#utility.yul\":3667:3668   */\n      0x00\n        /* \"#utility.yul\":3692:3745   */\n      tag_164\n        /* \"#utility.yul\":3737:3744   */\n      dup7\n        /* \"#utility.yul\":3728:3734   */\n      dup3\n        /* \"#utility.yul\":3717:3726   */\n      dup8\n        /* \"#utility.yul\":3713:3735   */\n      add\n        /* \"#utility.yul\":3692:3745   */\n      tag_85\n      jump\t// in\n    tag_164:\n        /* \"#utility.yul\":3682:3745   */\n      swap4\n      pop\n        /* \"#utility.yul\":3638:3755   */\n      pop\n        /* \"#utility.yul\":3822:3824   */\n      0x20\n        /* \"#utility.yul\":3811:3820   */\n      dup5\n        /* \"#utility.yul\":3807:3825   */\n      add\n        /* \"#utility.yul\":3794:3826   */\n      calldataload\n        /* \"#utility.yul\":3853:3871   */\n      0xffffffffffffffff\n        /* \"#utility.yul\":3845:3851   */\n      dup2\n        /* \"#utility.yul\":3842:3872   */\n      gt\n        /* \"#utility.yul\":3839:3956   */\n      iszero\n      tag_165\n      jumpi\n        /* \"#utility.yul\":3875:3954   */\n      tag_166\n      tag_82\n      jump\t// in\n    tag_166:\n        /* \"#utility.yul\":3839:3956   */\n    tag_165:\n        /* \"#utility.yul\":3980:4043   */\n      tag_167\n        /* \"#utility.yul\":4035:4042   */\n      dup7\n        /* \"#utility.yul\":4026:4032   */\n      dup3\n        /* \"#utility.yul\":4015:4024   */\n      dup8\n        /* \"#utility.yul\":4011:4033   */\n      add\n        /* \"#utility.yul\":3980:4043   */\n      tag_95\n      jump\t// in\n    tag_167:\n        /* \"#utility.yul\":3970:4043   */\n      swap3\n      pop\n        /* \"#utility.yul\":3765:4053   */\n      pop\n        /* \"#utility.yul\":4092:4094   */\n      0x40\n        /* \"#utility.yul\":4118:4171   */\n      tag_168\n        /* \"#utility.yul\":4163:4170   */\n      dup7\n        /* \"#utility.yul\":4154:4160   */\n      dup3\n        /* \"#utility.yul\":4143:4152   */\n      dup8\n        /* \"#utility.yul\":4139:4161   */\n      add\n        /* \"#utility.yul\":4118:4171   */\n      tag_85\n      jump\t// in\n    tag_168:\n        /* \"#utility.yul\":4108:4171   */\n      swap2\n      pop\n        /* \"#utility.yul\":4063:4181   */\n      pop\n        /* \"#utility.yul\":3389:4188   */\n      swap3\n      pop\n      swap3\n      pop\n      swap3\n      jump\t// out\n        /* \"#utility.yul\":4194:4523   */\n    tag_21:\n        /* \"#utility.yul\":4253:4259   */\n      0x00\n        /* \"#utility.yul\":4302:4304   */\n      0x20\n        /* \"#utility.yul\":4290:4299   */\n      dup3\n        /* \"#utility.yul\":4281:4288   */\n      dup5\n        /* \"#utility.yul\":4277:4300   */\n      sub\n        /* \"#utility.yul\":4273:4305   */\n      slt\n        /* \"#utility.yul\":4270:4389   */\n      iszero\n      tag_170\n      jumpi\n        /* \"#utility.yul\":4308:4387   */\n      tag_171\n      tag_81\n      jump\t// in\n    tag_171:\n        /* \"#utility.yul\":4270:4389   */\n    tag_170:\n        /* \"#utility.yul\":4428:4429   */\n      0x00\n        /* \"#utility.yul\":4453:4506   */\n      tag_172\n        /* \"#utility.yul\":4498:4505   */\n      dup5\n        /* \"#utility.yul\":4489:4495   */\n      dup3\n        /* \"#utility.yul\":4478:4487   */\n      dup6\n        /* \"#utility.yul\":4474:4496   */\n      add\n        /* \"#utility.yul\":4453:4506   */\n      tag_85\n      jump\t// in\n    tag_172:\n        /* \"#utility.yul\":4443:4506   */\n      swap2\n      pop\n        /* \"#utility.yul\":4399:4516   */\n      pop\n        /* \"#utility.yul\":4194:4523   */\n      swap3\n      swap2\n      pop\n      pop\n      jump\t// out\n        /* \"#utility.yul\":4529:4655   */\n    tag_96:\n        /* \"#utility.yul\":4566:4573   */\n      0x00\n        /* \"#utility.yul\":4606:4648   */\n      0xffffffffffffffffffffffffffffffffffffffff\n        /* \"#utility.yul\":4599:4604   */\n      dup3\n        /* \"#utility.yul\":4595:4649   */\n      and\n        /* \"#utility.yul\":4584:4649   */\n      swap1\n      pop\n        /* \"#utility.yul\":4529:4655   */\n      swap2\n      swap1\n      pop\n      jump\t// out\n        /* \"#utility.yul\":4661:4721   */\n    tag_97:\n        /* \"#utility.yul\":4689:4692   */\n      0x00\n        /* \"#utility.yul\":4710:4715   */\n      dup2\n        /* \"#utility.yul\":4703:4715   */\n      swap1\n      pop\n        /* \"#utility.yul\":4661:4721   */\n      swap2\n      swap1\n      pop\n      jump\t// out\n        /* \"#utility.yul\":4727:4869   */\n    tag_98:\n        /* \"#utility.yul\":4777:4786   */\n      0x00\n        /* \"#utility.yul\":4810:4863   */\n      tag_176\n        /* \"#utility.yul\":4828:4862   */\n      tag_177\n        /* \"#utility.yul\":4837:4861   */\n      tag_178\n        /* \"#utility.yul\":4855:4860   */\n      dup5\n        /* \"#utility.yul\":4837:4861   */\n      tag_96\n      jump\t// in\n    tag_178:\n        /* \"#utility.yul\":4828:4862   */\n      tag_97\n      jump\t// in\n    tag_177:\n        /* \"#utility.yul\":4810:4863   */\n      tag_96\n      jump\t// in\n    tag_176:\n        /* \"#utility.yul\":4797:4863   */\n      swap1\n      pop\n        /* \"#utility.yul\":4727:4869   */\n      swap2\n      swap1\n      pop\n      jump\t// out\n        /* \"#utility.yul\":4875:5001   */\n    tag_99:\n        /* \"#utility.yul\":4925:4934   */\n      0x00\n        /* \"#utility.yul\":4958:4995   */\n      tag_180\n        /* \"#utility.yul\":4989:4994   */\n      dup3\n        /* \"#utility.yul\":4958:4995   */\n      tag_98\n      jump\t// in\n    tag_180:\n        /* \"#utility.yul\":4945:4995   */\n      swap1\n      pop\n        /* \"#utility.yul\":4875:5001   */\n      swap2\n      swap1\n      pop\n      jump\t// out\n        /* \"#utility.yul\":5007:5153   */\n    tag_100:\n        /* \"#utility.yul\":5077:5086   */\n      0x00\n        /* \"#utility.yul\":5110:5147   */\n      tag_182\n        /* \"#utility.yul\":5141:5146   */\n      dup3\n        /* \"#utility.yul\":5110:5147   */\n      tag_99\n      jump\t// in\n    tag_182:\n        /* \"#utility.yul\":5097:5147   */\n      swap1\n      pop\n        /* \"#utility.yul\":5007:5153   */\n      swap2\n      swap1\n      pop\n      jump\t// out\n        /* \"#utility.yul\":5159:5330   */\n    tag_101:\n        /* \"#utility.yul\":5266:5323   */\n      tag_184\n        /* \"#utility.yul\":5317:5322   */\n      dup2\n        /* \"#utility.yul\":5266:5323   */\n      tag_100\n      jump\t// in\n    tag_184:\n        /* \"#utility.yul\":5261:5264   */\n      dup3\n        /* \"#utility.yul\":5254:5324   */\n      mstore\n        /* \"#utility.yul\":5159:5330   */\n      pop\n      pop\n      jump\t// out\n        /* \"#utility.yul\":5336:5598   */\n    tag_24:\n        /* \"#utility.yul\":5449:5453   */\n      0x00\n        /* \"#utility.yul\":5487:5489   */\n      0x20\n        /* \"#utility.yul\":5476:5485   */\n      dup3\n        /* \"#utility.yul\":5472:5490   */\n      add\n        /* \"#utility.yul\":5464:5490   */\n      swap1\n      pop\n        /* \"#utility.yul\":5500:5591   */\n      tag_186\n        /* \"#utility.yul\":5588:5589   */\n      0x00\n        /* \"#utility.yul\":5577:5586   */\n      dup4\n        /* \"#utility.yul\":5573:5590   */\n      add\n        /* \"#utility.yul\":5564:5570   */\n      dup5\n        /* \"#utility.yul\":5500:5591   */\n      tag_101\n      jump\t// in\n    tag_186:\n        /* \"#utility.yul\":5336:5598   */\n      swap3\n      swap2\n      pop\n      pop\n      jump\t// out\n        /* \"#utility.yul\":5604:5712   */\n    tag_102:\n        /* \"#utility.yul\":5681:5705   */\n      tag_188\n        /* \"#utility.yul\":5699:5704   */\n      dup2\n        /* \"#utility.yul\":5681:5705   */\n      tag_83\n      jump\t// in\n    tag_188:\n        /* \"#utility.yul\":5676:5679   */\n      dup3\n        /* \"#utility.yul\":5669:5706   */\n      mstore\n        /* \"#utility.yul\":5604:5712   */\n      pop\n      pop\n      jump\t// out\n        /* \"#utility.yul\":5718:5817   */\n    tag_103:\n        /* \"#utility.yul\":5770:5776   */\n      0x00\n        /* \"#utility.yul\":5804:5809   */\n      dup2\n        /* \"#utility.yul\":5798:5810   */\n      mload\n        /* \"#utility.yul\":5788:5810   */\n      swap1\n      pop\n        /* \"#utility.yul\":5718:5817   */\n      swap2\n      swap1\n      pop\n      jump\t// out\n        /* \"#utility.yul\":5823:5982   */\n    tag_104:\n        /* \"#utility.yul\":5897:5908   */\n      0x00\n        /* \"#utility.yul\":5931:5937   */\n      dup3\n        /* \"#utility.yul\":5926:5929   */\n      dup3\n        /* \"#utility.yul\":5919:5938   */\n      mstore\n        /* \"#utility.yul\":5971:5975   */\n      0x20\n        /* \"#utility.yul\":5966:5969   */\n      dup3\n        /* \"#utility.yul\":5962:5976   */\n      add\n        /* \"#utility.yul\":5947:5976   */\n      swap1\n      pop\n        /* \"#utility.yul\":5823:5982   */\n      swap3\n      swap2\n      pop\n      pop\n      jump\t// out\n        /* \"#utility.yul\":5988:6234   */\n    tag_105:\n        /* \"#utility.yul\":6069:6070   */\n      0x00\n        /* \"#utility.yul\":6079:6192   */\n    tag_192:\n        /* \"#utility.yul\":6093:6099   */\n      dup4\n        /* \"#utility.yul\":6090:6091   */\n      dup2\n        /* \"#utility.yul\":6087:6100   */\n      lt\n        /* \"#utility.yul\":6079:6192   */\n      iszero\n      tag_194\n      jumpi\n        /* \"#utility.yul\":6178:6179   */\n      dup1\n        /* \"#utility.yul\":6173:6176   */\n      dup3\n        /* \"#utility.yul\":6169:6180   */\n      add\n        /* \"#utility.yul\":6163:6181   */\n      mload\n        /* \"#utility.yul\":6159:6160   */\n      dup2\n        /* \"#utility.yul\":6154:6157   */\n      dup5\n        /* \"#utility.yul\":6150:6161   */\n      add\n        /* \"#utility.yul\":6143:6182   */\n      mstore\n        /* \"#utility.yul\":6115:6117   */\n      0x20\n        /* \"#utility.yul\":6112:6113   */\n      dup2\n        /* \"#utility.yul\":6108:6118   */\n      add\n        /* \"#utility.yul\":6103:6118   */\n      swap1\n      pop\n        /* \"#utility.yul\":6079:6192   */\n      jump(tag_192)\n    tag_194:\n        /* \"#utility.yul\":6226:6227   */\n      0x00\n        /* \"#utility.yul\":6217:6223   */\n      dup5\n        /* \"#utility.yul\":6212:6215   */\n      dup5\n        /* \"#utility.yul\":6208:6224   */\n      add\n        /* \"#utility.yul\":6201:6228   */\n      mstore\n        /* \"#utility.yul\":6050:6234   */\n      pop\n        /* \"#utility.yul\":5988:6234   */\n      pop\n      pop\n      pop\n      jump\t// out\n        /* \"#utility.yul\":6240:6597   */\n    tag_106:\n        /* \"#utility.yul\":6318:6321   */\n      0x00\n        /* \"#utility.yul\":6346:6385   */\n      tag_196\n        /* \"#utility.yul\":6379:6384   */\n      dup3\n        /* \"#utility.yul\":6346:6385   */\n      tag_103\n      jump\t// in\n    tag_196:\n        /* \"#utility.yul\":6401:6462   */\n      tag_197\n        /* \"#utility.yul\":6455:6461   */\n      dup2\n        /* \"#utility.yul\":6450:6453   */\n      dup6\n        /* \"#utility.yul\":6401:6462   */\n      tag_104\n      jump\t// in\n    tag_197:\n        /* \"#utility.yul\":6394:6462   */\n      swap4\n      pop\n        /* \"#utility.yul\":6471:6536   */\n      tag_198\n        /* \"#utility.yul\":6529:6535   */\n      dup2\n        /* \"#utility.yul\":6524:6527   */\n      dup6\n        /* \"#utility.yul\":6517:6521   */\n      0x20\n        /* \"#utility.yul\":6510:6515   */\n      dup7\n        /* \"#utility.yul\":6506:6522   */\n      add\n        /* \"#utility.yul\":6471:6536   */\n      tag_105\n      jump\t// in\n    tag_198:\n        /* \"#utility.yul\":6561:6590   */\n      tag_199\n        /* \"#utility.yul\":6583:6589   */\n      dup2\n        /* \"#utility.yul\":6561:6590   */\n      tag_88\n      jump\t// in\n    tag_199:\n        /* \"#utility.yul\":6556:6559   */\n      dup5\n        /* \"#utility.yul\":6552:6591   */\n      add\n        /* \"#utility.yul\":6545:6591   */\n      swap2\n      pop\n        /* \"#utility.yul\":6322:6597   */\n      pop\n        /* \"#utility.yul\":6240:6597   */\n      swap3\n      swap2\n      pop\n      pop\n      jump\t// out\n        /* \"#utility.yul\":6669:7276   */\n    tag_107:\n        /* \"#utility.yul\":6782:6785   */\n      0x00\n        /* \"#utility.yul\":6818:6822   */\n      0x40\n        /* \"#utility.yul\":6813:6816   */\n      dup4\n        /* \"#utility.yul\":6809:6823   */\n      add\n        /* \"#utility.yul\":6912:6916   */\n      0x00\n        /* \"#utility.yul\":6905:6910   */\n      dup4\n        /* \"#utility.yul\":6901:6917   */\n      add\n        /* \"#utility.yul\":6895:6918   */\n      mload\n        /* \"#utility.yul\":6931:6994   */\n      tag_201\n        /* \"#utility.yul\":6988:6992   */\n      0x00\n        /* \"#utility.yul\":6983:6986   */\n      dup7\n        /* \"#utility.yul\":6979:6993   */\n      add\n        /* \"#utility.yul\":6965:6977   */\n      dup3\n        /* \"#utility.yul\":6931:6994   */\n      tag_102\n      jump\t// in\n    tag_201:\n        /* \"#utility.yul\":6833:7004   */\n      pop\n        /* \"#utility.yul\":7086:7090   */\n      0x20\n        /* \"#utility.yul\":7079:7084   */\n      dup4\n        /* \"#utility.yul\":7075:7091   */\n      add\n        /* \"#utility.yul\":7069:7092   */\n      mload\n        /* \"#utility.yul\":7139:7142   */\n      dup5\n        /* \"#utility.yul\":7133:7137   */\n      dup3\n        /* \"#utility.yul\":7129:7143   */\n      sub\n        /* \"#utility.yul\":7122:7126   */\n      0x20\n        /* \"#utility.yul\":7117:7120   */\n      dup7\n        /* \"#utility.yul\":7113:7127   */\n      add\n        /* \"#utility.yul\":7106:7144   */\n      mstore\n        /* \"#utility.yul\":7165:7238   */\n      tag_202\n        /* \"#utility.yul\":7233:7237   */\n      dup3\n        /* \"#utility.yul\":7219:7231   */\n      dup3\n        /* \"#utility.yul\":7165:7238   */\n      tag_106\n      jump\t// in\n    tag_202:\n        /* \"#utility.yul\":7157:7238   */\n      swap2\n      pop\n        /* \"#utility.yul\":7014:7249   */\n      pop\n        /* \"#utility.yul\":7266:7270   */\n      dup1\n        /* \"#utility.yul\":7259:7270   */\n      swap2\n      pop\n        /* \"#utility.yul\":6787:7276   */\n      pop\n        /* \"#utility.yul\":6669:7276   */\n      swap3\n      swap2\n      pop\n      pop\n      jump\t// out\n        /* \"#utility.yul\":7282:7643   */\n    tag_29:\n        /* \"#utility.yul\":7419:7423   */\n      0x00\n        /* \"#utility.yul\":7457:7459   */\n      0x20\n        /* \"#utility.yul\":7446:7455   */\n      dup3\n        /* \"#utility.yul\":7442:7460   */\n      add\n        /* \"#utility.yul\":7434:7460   */\n      swap1\n      pop\n        /* \"#utility.yul\":7506:7515   */\n      dup2\n        /* \"#utility.yul\":7500:7504   */\n      dup2\n        /* \"#utility.yul\":7496:7516   */\n      sub\n        /* \"#utility.yul\":7492:7493   */\n      0x00\n        /* \"#utility.yul\":7481:7490   */\n      dup4\n        /* \"#utility.yul\":7477:7494   */\n      add\n        /* \"#utility.yul\":7470:7517   */\n      mstore\n        /* \"#utility.yul\":7534:7636   */\n      tag_204\n        /* \"#utility.yul\":7631:7635   */\n      dup2\n        /* \"#utility.yul\":7622:7628   */\n      dup5\n        /* \"#utility.yul\":7534:7636   */\n      tag_107\n      jump\t// in\n    tag_204:\n        /* \"#utility.yul\":7526:7636   */\n      swap1\n      pop\n        /* \"#utility.yul\":7282:7643   */\n      swap3\n      swap2\n      pop\n      pop\n      jump\t// out\n        /* \"#utility.yul\":7649:7767   */\n    tag_108:\n        /* \"#utility.yul\":7736:7760   */\n      tag_206\n        /* \"#utility.yul\":7754:7759   */\n      dup2\n        /* \"#utility.yul\":7736:7760   */\n      tag_83\n      jump\t// in\n    tag_206:\n        /* \"#utility.yul\":7731:7734   */\n      dup3\n        /* \"#utility.yul\":7724:7761   */\n      mstore\n        /* \"#utility.yul\":7649:7767   */\n      pop\n      pop\n      jump\t// out\n        /* \"#utility.yul\":7773:7995   */\n    tag_34:\n        /* \"#utility.yul\":7866:7870   */\n      0x00\n        /* \"#utility.yul\":7904:7906   */\n      0x20\n        /* \"#utility.yul\":7893:7902   */\n      dup3\n        /* \"#utility.yul\":7889:7907   */\n      add\n        /* \"#utility.yul\":7881:7907   */\n      swap1\n      pop\n        /* \"#utility.yul\":7917:7988   */\n      tag_208\n        /* \"#utility.yul\":7985:7986   */\n      0x00\n        /* \"#utility.yul\":7974:7983   */\n      dup4\n        /* \"#utility.yul\":7970:7987   */\n      add\n        /* \"#utility.yul\":7961:7967   */\n      dup5\n        /* \"#utility.yul\":7917:7988   */\n      tag_108\n      jump\t// in\n    tag_208:\n        /* \"#utility.yul\":7773:7995   */\n      swap3\n      swap2\n      pop\n      pop\n      jump\t// out\n        /* \"#utility.yul\":8001:8181   */\n    tag_38:\n        /* \"#utility.yul\":8049:8126   */\n      0x4e487b7100000000000000000000000000000000000000000000000000000000\n        /* \"#utility.yul\":8046:8047   */\n      0x00\n        /* \"#utility.yul\":8039:8127   */\n      mstore\n        /* \"#utility.yul\":8146:8150   */\n      0x32\n        /* \"#utility.yul\":8143:8144   */\n      0x04\n        /* \"#utility.yul\":8136:8151   */\n      mstore\n        /* \"#utility.yul\":8170:8174   */\n      0x24\n        /* \"#utility.yul\":8167:8168   */\n      0x00\n        /* \"#utility.yul\":8160:8175   */\n      revert\n        /* \"#utility.yul\":8187:8356   */\n    tag_109:\n        /* \"#utility.yul\":8271:8282   */\n      0x00\n        /* \"#utility.yul\":8305:8311   */\n      dup3\n        /* \"#utility.yul\":8300:8303   */\n      dup3\n        /* \"#utility.yul\":8293:8312   */\n      mstore\n        /* \"#utility.yul\":8345:8349   */\n      0x20\n        /* \"#utility.yul\":8340:8343   */\n      dup3\n        /* \"#utility.yul\":8336:8350   */\n      add\n        /* \"#utility.yul\":8321:8350   */\n      swap1\n      pop\n        /* \"#utility.yul\":8187:8356   */\n      swap3\n      swap2\n      pop\n      pop\n      jump\t// out\n        /* \"#utility.yul\":8362:8739   */\n    tag_110:\n        /* \"#utility.yul\":8450:8453   */\n      0x00\n        /* \"#utility.yul\":8478:8517   */\n      tag_212\n        /* \"#utility.yul\":8511:8516   */\n      dup3\n        /* \"#utility.yul\":8478:8517   */\n      tag_103\n      jump\t// in\n    tag_212:\n        /* \"#utility.yul\":8533:8604   */\n      tag_213\n        /* \"#utility.yul\":8597:8603   */\n      dup2\n        /* \"#utility.yul\":8592:8595   */\n      dup6\n        /* \"#utility.yul\":8533:8604   */\n      tag_109\n      jump\t// in\n    tag_213:\n        /* \"#utility.yul\":8526:8604   */\n      swap4\n      pop\n        /* \"#utility.yul\":8613:8678   */\n      tag_214\n        /* \"#utility.yul\":8671:8677   */\n      dup2\n        /* \"#utility.yul\":8666:8669   */\n      dup6\n        /* \"#utility.yul\":8659:8663   */\n      0x20\n        /* \"#utility.yul\":8652:8657   */\n      dup7\n        /* \"#utility.yul\":8648:8664   */\n      add\n        /* \"#utility.yul\":8613:8678   */\n      tag_105\n      jump\t// in\n    tag_214:\n        /* \"#utility.yul\":8703:8732   */\n      tag_215\n        /* \"#utility.yul\":8725:8731   */\n      dup2\n        /* \"#utility.yul\":8703:8732   */\n      tag_88\n      jump\t// in\n    tag_215:\n        /* \"#utility.yul\":8698:8701   */\n      dup5\n        /* \"#utility.yul\":8694:8733   */\n      add\n        /* \"#utility.yul\":8687:8733   */\n      swap2\n      pop\n        /* \"#utility.yul\":8454:8739   */\n      pop\n        /* \"#utility.yul\":8362:8739   */\n      swap3\n      swap2\n      pop\n      pop\n      jump\t// out\n        /* \"#utility.yul\":8745:9168   */\n    tag_54:\n        /* \"#utility.yul\":8886:8890   */\n      0x00\n        /* \"#utility.yul\":8924:8926   */\n      0x40\n        /* \"#utility.yul\":8913:8922   */\n      dup3\n        /* \"#utility.yul\":8909:8927   */\n      add\n        /* \"#utility.yul\":8901:8927   */\n      swap1\n      pop\n        /* \"#utility.yul\":8973:8982   */\n      dup2\n        /* \"#utility.yul\":8967:8971   */\n      dup2\n        /* \"#utility.yul\":8963:8983   */\n      sub\n        /* \"#utility.yul\":8959:8960   */\n      0x00\n        /* \"#utility.yul\":8948:8957   */\n      dup4\n        /* \"#utility.yul\":8944:8961   */\n      add\n        /* \"#utility.yul\":8937:8984   */\n      mstore\n        /* \"#utility.yul\":9001:9079   */\n      tag_217\n        /* \"#utility.yul\":9074:9078   */\n      dup2\n        /* \"#utility.yul\":9065:9071   */\n      dup6\n        /* \"#utility.yul\":9001:9079   */\n      tag_110\n      jump\t// in\n    tag_217:\n        /* \"#utility.yul\":8993:9079   */\n      swap1\n      pop\n        /* \"#utility.yul\":9089:9161   */\n      tag_218\n        /* \"#utility.yul\":9157:9159   */\n      0x20\n        /* \"#utility.yul\":9146:9155   */\n      dup4\n        /* \"#utility.yul\":9142:9160   */\n      add\n        /* \"#utility.yul\":9133:9139   */\n      dup5\n        /* \"#utility.yul\":9089:9161   */\n      tag_108\n      jump\t// in\n    tag_218:\n        /* \"#utility.yul\":8745:9168   */\n      swap4\n      swap3\n      pop\n      pop\n      pop\n      jump\t// out\n        /* \"#utility.yul\":9174:9259   */\n    tag_111:\n        /* \"#utility.yul\":9219:9226   */\n      0x00\n        /* \"#utility.yul\":9248:9253   */\n      dup2\n        /* \"#utility.yul\":9237:9253   */\n      swap1\n      pop\n        /* \"#utility.yul\":9174:9259   */\n      swap2\n      swap1\n      pop\n      jump\t// out\n        /* \"#utility.yul\":9265:9423   */\n    tag_112:\n        /* \"#utility.yul\":9323:9332   */\n      0x00\n        /* \"#utility.yul\":9356:9417   */\n      tag_221\n        /* \"#utility.yul\":9374:9416   */\n      tag_222\n        /* \"#utility.yul\":9383:9415   */\n      tag_223\n        /* \"#utility.yul\":9409:9414   */\n      dup5\n        /* \"#utility.yul\":9383:9415   */\n      tag_111\n      jump\t// in\n    tag_223:\n        /* \"#utility.yul\":9374:9416   */\n      tag_97\n      jump\t// in\n    tag_222:\n        /* \"#utility.yul\":9356:9417   */\n      tag_83\n      jump\t// in\n    tag_221:\n        /* \"#utility.yul\":9343:9417   */\n      swap1\n      pop\n        /* \"#utility.yul\":9265:9423   */\n      swap2\n      swap1\n      pop\n      jump\t// out\n        /* \"#utility.yul\":9429:9576   */\n    tag_113:\n        /* \"#utility.yul\":9524:9569   */\n      tag_225\n        /* \"#utility.yul\":9563:9568   */\n      dup2\n        /* \"#utility.yul\":9524:9569   */\n      tag_112\n      jump\t// in\n    tag_225:\n        /* \"#utility.yul\":9519:9522   */\n      dup3\n        /* \"#utility.yul\":9512:9570   */\n      mstore\n        /* \"#utility.yul\":9429:9576   */\n      pop\n      pop\n      jump\t// out\n        /* \"#utility.yul\":9582:9820   */\n    tag_67:\n        /* \"#utility.yul\":9683:9687   */\n      0x00\n        /* \"#utility.yul\":9721:9723   */\n      0x20\n        /* \"#utility.yul\":9710:9719   */\n      dup3\n        /* \"#utility.yul\":9706:9724   */\n      add\n        /* \"#utility.yul\":9698:9724   */\n      swap1\n      pop\n        /* \"#utility.yul\":9734:9813   */\n      tag_227\n        /* \"#utility.yul\":9810:9811   */\n      0x00\n        /* \"#utility.yul\":9799:9808   */\n      dup4\n        /* \"#utility.yul\":9795:9812   */\n      add\n        /* \"#utility.yul\":9786:9792   */\n      dup5\n        /* \"#utility.yul\":9734:9813   */\n      tag_113\n      jump\t// in\n    tag_227:\n        /* \"#utility.yul\":9582:9820   */\n      swap3\n      swap2\n      pop\n      pop\n      jump\t// out\n        /* \"#utility.yul\":9826:9943   */\n    tag_114:\n        /* \"#utility.yul\":9935:9936   */\n      0x00\n        /* \"#utility.yul\":9932:9933   */\n      dup1\n        /* \"#utility.yul\":9925:9937   */\n      revert\n        /* \"#utility.yul\":9949:10066   */\n    tag_115:\n        /* \"#utility.yul\":10058:10059   */\n      0x00\n        /* \"#utility.yul\":10055:10056   */\n      dup1\n        /* \"#utility.yul\":10048:10060   */\n      revert\n        /* \"#utility.yul\":10072:10215   */\n    tag_116:\n        /* \"#utility.yul\":10129:10134   */\n      0x00\n        /* \"#utility.yul\":10160:10166   */\n      dup2\n        /* \"#utility.yul\":10154:10167   */\n      mload\n        /* \"#utility.yul\":10145:10167   */\n      swap1\n      pop\n        /* \"#utility.yul\":10176:10209   */\n      tag_231\n        /* \"#utility.yul\":10203:10208   */\n      dup2\n        /* \"#utility.yul\":10176:10209   */\n      tag_84\n      jump\t// in\n    tag_231:\n        /* \"#utility.yul\":10072:10215   */\n      swap3\n      swap2\n      pop\n      pop\n      jump\t// out\n        /* \"#utility.yul\":10221:10655   */\n    tag_117:\n        /* \"#utility.yul\":10310:10315   */\n      0x00\n        /* \"#utility.yul\":10335:10401   */\n      tag_233\n        /* \"#utility.yul\":10351:10400   */\n      tag_234\n        /* \"#utility.yul\":10393:10399   */\n      dup5\n        /* \"#utility.yul\":10351:10400   */\n      tag_92\n      jump\t// in\n    tag_234:\n        /* \"#utility.yul\":10335:10401   */\n      tag_91\n      jump\t// in\n    tag_233:\n        /* \"#utility.yul\":10326:10401   */\n      swap1\n      pop\n        /* \"#utility.yul\":10424:10430   */\n      dup3\n        /* \"#utility.yul\":10417:10422   */\n      dup2\n        /* \"#utility.yul\":10410:10431   */\n      mstore\n        /* \"#utility.yul\":10462:10466   */\n      0x20\n        /* \"#utility.yul\":10455:10460   */\n      dup2\n        /* \"#utility.yul\":10451:10467   */\n      add\n        /* \"#utility.yul\":10500:10503   */\n      dup5\n        /* \"#utility.yul\":10491:10497   */\n      dup5\n        /* \"#utility.yul\":10486:10489   */\n      dup5\n        /* \"#utility.yul\":10482:10498   */\n      add\n        /* \"#utility.yul\":10479:10504   */\n      gt\n        /* \"#utility.yul\":10476:10588   */\n      iszero\n      tag_235\n      jumpi\n        /* \"#utility.yul\":10507:10586   */\n      tag_236\n      tag_87\n      jump\t// in\n    tag_236:\n        /* \"#utility.yul\":10476:10588   */\n    tag_235:\n        /* \"#utility.yul\":10597:10649   */\n      tag_237\n        /* \"#utility.yul\":10642:10648   */\n      dup5\n        /* \"#utility.yul\":10637:10640   */\n      dup3\n        /* \"#utility.yul\":10632:10635   */\n      dup6\n        /* \"#utility.yul\":10597:10649   */\n      tag_105\n      jump\t// in\n    tag_237:\n        /* \"#utility.yul\":10316:10655   */\n      pop\n        /* \"#utility.yul\":10221:10655   */\n      swap4\n      swap3\n      pop\n      pop\n      pop\n      jump\t// out\n        /* \"#utility.yul\":10675:11030   */\n    tag_118:\n        /* \"#utility.yul\":10742:10747   */\n      0x00\n        /* \"#utility.yul\":10791:10794   */\n      dup3\n        /* \"#utility.yul\":10784:10788   */\n      0x1f\n        /* \"#utility.yul\":10776:10782   */\n      dup4\n        /* \"#utility.yul\":10772:10789   */\n      add\n        /* \"#utility.yul\":10768:10795   */\n      slt\n        /* \"#utility.yul\":10758:10880   */\n      tag_239\n      jumpi\n        /* \"#utility.yul\":10799:10878   */\n      tag_240\n      tag_86\n      jump\t// in\n    tag_240:\n        /* \"#utility.yul\":10758:10880   */\n    tag_239:\n        /* \"#utility.yul\":10909:10915   */\n      dup2\n        /* \"#utility.yul\":10903:10916   */\n      mload\n        /* \"#utility.yul\":10934:11024   */\n      tag_241\n        /* \"#utility.yul\":11020:11023   */\n      dup5\n        /* \"#utility.yul\":11012:11018   */\n      dup3\n        /* \"#utility.yul\":11005:11009   */\n      0x20\n        /* \"#utility.yul\":10997:11003   */\n      dup7\n        /* \"#utility.yul\":10993:11010   */\n      add\n        /* \"#utility.yul\":10934:11024   */\n      tag_117\n      jump\t// in\n    tag_241:\n        /* \"#utility.yul\":10925:11024   */\n      swap2\n      pop\n        /* \"#utility.yul\":10748:11030   */\n      pop\n        /* \"#utility.yul\":10675:11030   */\n      swap3\n      swap2\n      pop\n      pop\n      jump\t// out\n        /* \"#utility.yul\":11071:11845   */\n    tag_119:\n        /* \"#utility.yul\":11153:11158   */\n      0x00\n        /* \"#utility.yul\":11197:11201   */\n      0x40\n        /* \"#utility.yul\":11185:11194   */\n      dup3\n        /* \"#utility.yul\":11180:11183   */\n      dup5\n        /* \"#utility.yul\":11176:11195   */\n      sub\n        /* \"#utility.yul\":11172:11202   */\n      slt\n        /* \"#utility.yul\":11169:11286   */\n      iszero\n      tag_243\n      jumpi\n        /* \"#utility.yul\":11205:11284   */\n      tag_244\n      tag_114\n      jump\t// in\n    tag_244:\n        /* \"#utility.yul\":11169:11286   */\n    tag_243:\n        /* \"#utility.yul\":11304:11325   */\n      tag_245\n        /* \"#utility.yul\":11320:11324   */\n      0x40\n        /* \"#utility.yul\":11304:11325   */\n      tag_91\n      jump\t// in\n    tag_245:\n        /* \"#utility.yul\":11295:11325   */\n      swap1\n      pop\n        /* \"#utility.yul\":11391:11392   */\n      0x00\n        /* \"#utility.yul\":11431:11491   */\n      tag_246\n        /* \"#utility.yul\":11487:11490   */\n      dup5\n        /* \"#utility.yul\":11478:11484   */\n      dup3\n        /* \"#utility.yul\":11467:11476   */\n      dup6\n        /* \"#utility.yul\":11463:11485   */\n      add\n        /* \"#utility.yul\":11431:11491   */\n      tag_116\n      jump\t// in\n    tag_246:\n        /* \"#utility.yul\":11424:11428   */\n      0x00\n        /* \"#utility.yul\":11417:11422   */\n      dup4\n        /* \"#utility.yul\":11413:11429   */\n      add\n        /* \"#utility.yul\":11406:11492   */\n      mstore\n        /* \"#utility.yul\":11335:11503   */\n      pop\n        /* \"#utility.yul\":11583:11585   */\n      0x20\n        /* \"#utility.yul\":11572:11581   */\n      dup3\n        /* \"#utility.yul\":11568:11586   */\n      add\n        /* \"#utility.yul\":11562:11587   */\n      mload\n        /* \"#utility.yul\":11614:11632   */\n      0xffffffffffffffff\n        /* \"#utility.yul\":11606:11612   */\n      dup2\n        /* \"#utility.yul\":11603:11633   */\n      gt\n        /* \"#utility.yul\":11600:11717   */\n      iszero\n      tag_247\n      jumpi\n        /* \"#utility.yul\":11636:11715   */\n      tag_248\n      tag_115\n      jump\t// in\n    tag_248:\n        /* \"#utility.yul\":11600:11717   */\n    tag_247:\n        /* \"#utility.yul\":11756:11826   */\n      tag_249\n        /* \"#utility.yul\":11822:11825   */\n      dup5\n        /* \"#utility.yul\":11813:11819   */\n      dup3\n        /* \"#utility.yul\":11802:11811   */\n      dup6\n        /* \"#utility.yul\":11798:11820   */\n      add\n        /* \"#utility.yul\":11756:11826   */\n      tag_118\n      jump\t// in\n    tag_249:\n        /* \"#utility.yul\":11749:11753   */\n      0x20\n        /* \"#utility.yul\":11742:11747   */\n      dup4\n        /* \"#utility.yul\":11738:11754   */\n      add\n        /* \"#utility.yul\":11731:11827   */\n      mstore\n        /* \"#utility.yul\":11513:11838   */\n      pop\n        /* \"#utility.yul\":11071:11845   */\n      swap3\n      swap2\n      pop\n      pop\n      jump\t// out\n        /* \"#utility.yul\":11851:12399   */\n    tag_71:\n        /* \"#utility.yul\":11943:11949   */\n      0x00\n        /* \"#utility.yul\":11992:11994   */\n      0x20\n        /* \"#utility.yul\":11980:11989   */\n      dup3\n        /* \"#utility.yul\":11971:11978   */\n      dup5\n        /* \"#utility.yul\":11967:11990   */\n      sub\n        /* \"#utility.yul\":11963:11995   */\n      slt\n        /* \"#utility.yul\":11960:12079   */\n      iszero\n      tag_251\n      jumpi\n        /* \"#utility.yul\":11998:12077   */\n      tag_252\n      tag_81\n      jump\t// in\n    tag_252:\n        /* \"#utility.yul\":11960:12079   */\n    tag_251:\n        /* \"#utility.yul\":12139:12140   */\n      0x00\n        /* \"#utility.yul\":12128:12137   */\n      dup3\n        /* \"#utility.yul\":12124:12141   */\n      add\n        /* \"#utility.yul\":12118:12142   */\n      mload\n        /* \"#utility.yul\":12169:12187   */\n      0xffffffffffffffff\n        /* \"#utility.yul\":12161:12167   */\n      dup2\n        /* \"#utility.yul\":12158:12188   */\n      gt\n        /* \"#utility.yul\":12155:12272   */\n      iszero\n      tag_253\n      jumpi\n        /* \"#utility.yul\":12191:12270   */\n      tag_254\n      tag_82\n      jump\t// in\n    tag_254:\n        /* \"#utility.yul\":12155:12272   */\n    tag_253:\n        /* \"#utility.yul\":12296:12382   */\n      tag_255\n        /* \"#utility.yul\":12374:12381   */\n      dup5\n        /* \"#utility.yul\":12365:12371   */\n      dup3\n        /* \"#utility.yul\":12354:12363   */\n      dup6\n        /* \"#utility.yul\":12350:12372   */\n      add\n        /* \"#utility.yul\":12296:12382   */\n      tag_119\n      jump\t// in\n    tag_255:\n        /* \"#utility.yul\":12286:12382   */\n      swap2\n      pop\n        /* \"#utility.yul\":12089:12392   */\n      pop\n        /* \"#utility.yul\":11851:12399   */\n      swap3\n      swap2\n      pop\n      pop\n      jump\t// out\n        /* \"#utility.yul\":12405:12756   */\n    tag_79:\n        /* \"#utility.yul\":12475:12481   */\n      0x00\n        /* \"#utility.yul\":12524:12526   */\n      0x20\n        /* \"#utility.yul\":12512:12521   */\n      dup3\n        /* \"#utility.yul\":12503:12510   */\n      dup5\n        /* \"#utility.yul\":12499:12522   */\n      sub\n        /* \"#utility.yul\":12495:12527   */\n      slt\n        /* \"#utility.yul\":12492:12611   */\n      iszero\n      tag_257\n      jumpi\n        /* \"#utility.yul\":12530:12609   */\n      tag_258\n      tag_81\n      jump\t// in\n    tag_258:\n        /* \"#utility.yul\":12492:12611   */\n    tag_257:\n        /* \"#utility.yul\":12650:12651   */\n      0x00\n        /* \"#utility.yul\":12675:12739   */\n      tag_259\n        /* \"#utility.yul\":12731:12738   */\n      dup5\n        /* \"#utility.yul\":12722:12728   */\n      dup3\n        /* \"#utility.yul\":12711:12720   */\n      dup6\n        /* \"#utility.yul\":12707:12729   */\n      add\n        /* \"#utility.yul\":12675:12739   */\n      tag_116\n      jump\t// in\n    tag_259:\n        /* \"#utility.yul\":12665:12739   */\n      swap2\n      pop\n        /* \"#utility.yul\":12621:12749   */\n      pop\n        /* \"#utility.yul\":12405:12756   */\n      swap3\n      swap2\n      pop\n      pop\n      jump\t// out\n    stop\n\n    sub_0: assembly {\n            /* \"contracts/SimpleStorage.sol\":305:3087  contract SimpleStorage{... */\n          mstore(0x40, 0x80)\n            /* \"contracts/SimpleStorage.sol\":515:520  false */\n          0x00\n            /* \"contracts/SimpleStorage.sol\":490:520  bool hasFavoriteNumber = false */\n          dup1\n          exp(0x0100, 0x00)\n          dup2\n          sload\n          dup2\n          0xff\n          mul\n          not\n          and\n          swap1\n          dup4\n          iszero\n          iszero\n          mul\n          or\n          swap1\n          sstore\n          pop\n            /* \"contracts/SimpleStorage.sol\":544:547  123 */\n          0x7b\n            /* \"contracts/SimpleStorage.sol\":527:547  uint favNumber = 123 */\n          0x01\n          sstore\n            /* \"contracts/SimpleStorage.sol\":575:577  12 */\n          0x0c\n            /* \"contracts/SimpleStorage.sol\":554:577  int hasFavoriteNum = 12 */\n          0x02\n          sstore\n            /* \"contracts/SimpleStorage.sol\":585:617  string testString = \"Works fine\" */\n          mload(0x40)\n          dup1\n          0x40\n          add\n          0x40\n          mstore\n          dup1\n          0x0a\n          dup2\n          mstore\n          0x20\n          add\n          0x576f726b732066696e6500000000000000000000000000000000000000000000\n          dup2\n          mstore\n          pop\n          0x03\n          swap1\n          dup2\n          tag_1\n          swap2\n          swap1\n          tag_2\n          jump\t// in\n        tag_1:\n          pop\n            /* \"contracts/SimpleStorage.sol\":641:643  -4 */\n          0xfffffffffffffffffffffffffffffffffffffffffffffffffffffffffffffffc\n            /* \"contracts/SimpleStorage.sol\":624:643  int256 intTest = -4 */\n          0x04\n          sstore\n            /* \"contracts/SimpleStorage.sol\":670:712  0x70997678Dbd70Bd5a7EC9289c25F079d00117Cc4 */\n          0x70997678dbd70bd5a7ec9289c25f079d00117cc4\n            /* \"contracts/SimpleStorage.sol\":650:712  address myAddress = 0x70997678Dbd70Bd5a7EC9289c25F079d00117Cc4 */\n          0x05\n          exp(0x0100, 0x00)\n          dup2\n          sload\n          dup2\n          0xffffffffffffffffffffffffffffffffffffffff\n          mul\n          not\n          and\n          swap1\n          dup4\n          0xffffffffffffffffffffffffffffffffffffffff\n          and\n          mul\n          or\n          swap1\n          sstore\n          pop\n            /* \"contracts/SimpleStorage.sol\":742:763  bytes32 check = \"cat\" */\n          sstore(0x06, 0x6361740000000000000000000000000000000000000000000000000000000000)\n            /* \"contracts/SimpleStorage.sol\":305:3087  contract SimpleStorage{... */\n          callvalue\n          dup1\n          iszero\n          tag_3\n          jumpi\n          0x00\n          dup1\n          revert\n        tag_3:\n          pop\n          jump(tag_4)\n            /* \"#utility.yul\":7:106   */\n        tag_5:\n            /* \"#utility.yul\":59:65   */\n          0x00\n            /* \"#utility.yul\":93:98   */\n          dup2\n            /* \"#utility.yul\":87:99   */\n          mload\n            /* \"#utility.yul\":77:99   */\n          swap1\n          pop\n            /* \"#utility.yul\":7:106   */\n          swap2\n          swap1\n          pop\n          jump\t// out\n            /* \"#utility.yul\":112:292   */\n        tag_6:\n            /* \"#utility.yul\":160:237   */\n          0x4e487b7100000000000000000000000000000000000000000000000000000000\n            /* \"#utility.yul\":157:158   */\n          0x00\n            /* \"#utility.yul\":150:238   */\n          mstore\n            /* \"#utility.yul\":257:261   */\n          0x41\n            /* \"#utility.yul\":254:255   */\n          0x04\n            /* \"#utility.yul\":247:262   */\n          mstore\n            /* \"#utility.yul\":281:285   */\n          0x24\n            /* \"#utility.yul\":278:279   */\n          0x00\n            /* \"#utility.yul\":271:286   */\n          revert\n            /* \"#utility.yul\":298:478   */\n        tag_7:\n            /* \"#utility.yul\":346:423   */\n          0x4e487b7100000000000000000000000000000000000000000000000000000000\n            /* \"#utility.yul\":343:344   */\n          0x00\n            /* \"#utility.yul\":336:424   */\n          mstore\n            /* \"#utility.yul\":443:447   */\n          0x22\n            /* \"#utility.yul\":440:441   */\n          0x04\n            /* \"#utility.yul\":433:448   */\n          mstore\n            /* \"#utility.yul\":467:471   */\n          0x24\n            /* \"#utility.yul\":464:465   */\n          0x00\n            /* \"#utility.yul\":457:472   */\n          revert\n            /* \"#utility.yul\":484:804   */\n        tag_8:\n            /* \"#utility.yul\":528:534   */\n          0x00\n            /* \"#utility.yul\":565:566   */\n          0x02\n            /* \"#utility.yul\":559:563   */\n          dup3\n            /* \"#utility.yul\":555:567   */\n          div\n            /* \"#utility.yul\":545:567   */\n          swap1\n          pop\n            /* \"#utility.yul\":612:613   */\n          0x01\n            /* \"#utility.yul\":606:610   */\n          dup3\n            /* \"#utility.yul\":602:614   */\n          and\n            /* \"#utility.yul\":633:651   */\n          dup1\n            /* \"#utility.yul\":623:704   */\n          tag_30\n          jumpi\n            /* \"#utility.yul\":689:693   */\n          0x7f\n            /* \"#utility.yul\":681:687   */\n          dup3\n            /* \"#utility.yul\":677:694   */\n          and\n            /* \"#utility.yul\":667:694   */\n          swap2\n          pop\n            /* \"#utility.yul\":623:704   */\n        tag_30:\n            /* \"#utility.yul\":751:753   */\n          0x20\n            /* \"#utility.yul\":743:749   */\n          dup3\n            /* \"#utility.yul\":740:754   */\n          lt\n            /* \"#utility.yul\":720:738   */\n          dup2\n            /* \"#utility.yul\":717:755   */\n          sub\n            /* \"#utility.yul\":714:798   */\n          tag_31\n          jumpi\n            /* \"#utility.yul\":770:788   */\n          tag_32\n          tag_7\n          jump\t// in\n        tag_32:\n            /* \"#utility.yul\":714:798   */\n        tag_31:\n            /* \"#utility.yul\":535:804   */\n          pop\n            /* \"#utility.yul\":484:804   */\n          swap2\n          swap1\n          pop\n          jump\t// out\n            /* \"#utility.yul\":810:951   */\n        tag_9:\n            /* \"#utility.yul\":859:863   */\n          0x00\n            /* \"#utility.yul\":882:885   */\n          dup2\n            /* \"#utility.yul\":874:885   */\n          swap1\n          pop\n            /* \"#utility.yul\":905:908   */\n          dup2\n            /* \"#utility.yul\":902:903   */\n          0x00\n            /* \"#utility.yul\":895:909   */\n          mstore\n            /* \"#utility.yul\":939:943   */\n          0x20\n            /* \"#utility.yul\":936:937   */\n          0x00\n            /* \"#utility.yul\":926:944   */\n          keccak256\n            /* \"#utility.yul\":918:944   */\n          swap1\n          pop\n            /* \"#utility.yul\":810:951   */\n          swap2\n          swap1\n          pop\n          jump\t// out\n            /* \"#utility.yul\":957:1050   */\n        tag_10:\n            /* \"#utility.yul\":994:1000   */\n          0x00\n            /* \"#utility.yul\":1041:1043   */\n          0x20\n            /* \"#utility.yul\":1036:1038   */\n          0x1f\n            /* \"#utility.yul\":1029:1034   */\n          dup4\n            /* \"#utility.yul\":1025:1039   */\n          add\n            /* \"#utility.yul\":1021:1044   */\n          div\n            /* \"#utility.yul\":1011:1044   */\n          swap1\n          pop\n            /* \"#utility.yul\":957:1050   */\n          swap2\n          swap1\n          pop\n          jump\t// out\n            /* \"#utility.yul\":1056:1163   */\n        tag_11:\n            /* \"#utility.yul\":1100:1108   */\n          0x00\n            /* \"#utility.yul\":1150:1155   */\n          dup3\n            /* \"#utility.yul\":1144:1148   */\n          dup3\n            /* \"#utility.yul\":1140:1156   */\n          shl\n            /* \"#utility.yul\":1119:1156   */\n          swap1\n          pop\n            /* \"#utility.yul\":1056:1163   */\n          swap3\n          swap2\n          pop\n          pop\n          jump\t// out\n            /* \"#utility.yul\":1169:1562   */\n        tag_12:\n            /* \"#utility.yul\":1238:1244   */\n          0x00\n            /* \"#utility.yul\":1288:1289   */\n          0x08\n            /* \"#utility.yul\":1276:1286   */\n          dup4\n            /* \"#utility.yul\":1272:1290   */\n          mul\n            /* \"#utility.yul\":1311:1408   */\n          tag_37\n            /* \"#utility.yul\":1341:1407   */\n          0xffffffffffffffffffffffffffffffffffffffffffffffffffffffffffffffff\n            /* \"#utility.yul\":1330:1339   */\n          dup3\n            /* \"#utility.yul\":1311:1408   */\n          tag_11\n          jump\t// in\n        tag_37:\n            /* \"#utility.yul\":1429:1468   */\n          tag_38\n            /* \"#utility.yul\":1459:1467   */\n          dup7\n            /* \"#utility.yul\":1448:1457   */\n          dup4\n            /* \"#utility.yul\":1429:1468   */\n          tag_11\n          jump\t// in\n        tag_38:\n            /* \"#utility.yul\":1417:1468   */\n          swap6\n          pop\n            /* \"#utility.yul\":1501:1505   */\n          dup1\n            /* \"#utility.yul\":1497:1506   */\n          not\n            /* \"#utility.yul\":1490:1495   */\n          dup5\n            /* \"#utility.yul\":1486:1507   */\n          and\n            /* \"#utility.yul\":1477:1507   */\n          swap4\n          pop\n            /* \"#utility.yul\":1550:1554   */\n          dup1\n            /* \"#utility.yul\":1540:1548   */\n          dup7\n            /* \"#utility.yul\":1536:1555   */\n          and\n            /* \"#utility.yul\":1529:1534   */\n          dup5\n            /* \"#utility.yul\":1526:1556   */\n          or\n            /* \"#utility.yul\":1516:1556   */\n          swap3\n          pop\n            /* \"#utility.yul\":1245:1562   */\n          pop\n          pop\n            /* \"#utility.yul\":1169:1562   */\n          swap4\n          swap3\n          pop\n          pop\n          pop\n          jump\t// out\n            /* \"#utility.yul\":1568:1645   */\n        tag_13:\n            /* \"#utility.yul\":1605:1612   */\n          0x00\n            /* \"#utility.yul\":1634:1639   */\n          dup2\n            /* \"#utility.yul\":1623:1639   */\n          swap1\n          pop\n            /* \"#utility.yul\":1568:1645   */\n          swap2\n          swap1\n          pop\n          jump\t// out\n            /* \"#utility.yul\":1651:1711   */\n        tag_14:\n            /* \"#utility.yul\":1679:1682   */\n          0x00\n            /* \"#utility.yul\":1700:1705   */\n          dup2\n            /* \"#utility.yul\":1693:1705   */\n          swap1\n          pop\n            /* \"#utility.yul\":1651:1711   */\n          swap2\n          swap1\n          pop\n          jump\t// out\n            /* \"#utility.yul\":1717:1859   */\n        tag_15:\n            /* \"#utility.yul\":1767:1776   */\n          0x00\n            /* \"#utility.yul\":1800:1853   */\n          tag_42\n            /* \"#utility.yul\":1818:1852   */\n          tag_43\n            /* \"#utility.yul\":1827:1851   */\n          tag_44\n            /* \"#utility.yul\":1845:1850   */\n          dup5\n            /* \"#utility.yul\":1827:1851   */\n          tag_13\n          jump\t// in\n        tag_44:\n            /* \"#utility.yul\":1818:1852   */\n          tag_14\n          jump\t// in\n        tag_43:\n            /* \"#utility.yul\":1800:1853   */\n          tag_13\n          jump\t// in\n        tag_42:\n            /* \"#utility.yul\":1787:1853   */\n          swap1\n          pop\n            /* \"#utility.yul\":1717:1859   */\n          swap2\n          swap1\n          pop\n          jump\t// out\n            /* \"#utility.yul\":1865:1940   */\n        tag_16:\n            /* \"#utility.yul\":1908:1911   */\n          0x00\n            /* \"#utility.yul\":1929:1934   */\n          dup2\n            /* \"#utility.yul\":1922:1934   */\n          swap1\n          pop\n            /* \"#utility.yul\":1865:1940   */\n          swap2\n          swap1\n          pop\n          jump\t// out\n            /* \"#utility.yul\":1946:2215   */\n        tag_17:\n            /* \"#utility.yul\":2056:2095   */\n          tag_47\n            /* \"#utility.yul\":2087:2094   */\n          dup4\n            /* \"#utility.yul\":2056:2095   */\n          tag_15\n          jump\t// in\n        tag_47:\n            /* \"#utility.yul\":2117:2208   */\n          tag_48\n            /* \"#utility.yul\":2166:2207   */\n          tag_49\n            /* \"#utility.yul\":2190:2206   */\n          dup3\n            /* \"#utility.yul\":2166:2207   */\n          tag_16\n          jump\t// in\n        tag_49:\n            /* \"#utility.yul\":2158:2164   */\n          dup5\n            /* \"#utility.yul\":2151:2155   */\n          dup5\n            /* \"#utility.yul\":2145:2156   */\n          sload\n            /* \"#utility.yul\":2117:2208   */\n          tag_12\n          jump\t// in\n        tag_48:\n            /* \"#utility.yul\":2111:2115   */\n          dup3\n            /* \"#utility.yul\":2104:2209   */\n          sstore\n            /* \"#utility.yul\":2022:2215   */\n          pop\n            /* \"#utility.yul\":1946:2215   */\n          pop\n          pop\n          pop\n          jump\t// out\n            /* \"#utility.yul\":2221:2294   */\n        tag_18:\n            /* \"#utility.yul\":2266:2269   */\n          0x00\n            /* \"#utility.yul\":2221:2294   */\n          swap1\n          jump\t// out\n            /* \"#utility.yul\":2300:2489   */\n        tag_19:\n            /* \"#utility.yul\":2377:2409   */\n          tag_52\n          tag_18\n          jump\t// in\n        tag_52:\n            /* \"#utility.yul\":2418:2483   */\n          tag_53\n            /* \"#utility.yul\":2476:2482   */\n          dup2\n            /* \"#utility.yul\":2468:2474   */\n          dup5\n            /* \"#utility.yul\":2462:2466   */\n          dup5\n            /* \"#utility.yul\":2418:2483   */\n          tag_17\n          jump\t// in\n        tag_53:\n            /* \"#utility.yul\":2353:2489   */\n          pop\n            /* \"#utility.yul\":2300:2489   */\n          pop\n          pop\n          jump\t// out\n            /* \"#utility.yul\":2495:2681   */\n        tag_20:\n            /* \"#utility.yul\":2555:2675   */\n        tag_55:\n            /* \"#utility.yul\":2572:2575   */\n          dup2\n            /* \"#utility.yul\":2565:2570   */\n          dup2\n            /* \"#utility.yul\":2562:2576   */\n          lt\n            /* \"#utility.yul\":2555:2675   */\n          iszero\n          tag_57\n          jumpi\n            /* \"#utility.yul\":2626:2665   */\n          tag_58\n            /* \"#utility.yul\":2663:2664   */\n          0x00\n            /* \"#utility.yul\":2656:2661   */\n          dup3\n            /* \"#utility.yul\":2626:2665   */\n          tag_19\n          jump\t// in\n        tag_58:\n            /* \"#utility.yul\":2599:2600   */\n          0x01\n            /* \"#utility.yul\":2592:2597   */\n          dup2\n            /* \"#utility.yul\":2588:2601   */\n          add\n            /* \"#utility.yul\":2579:2601   */\n          swap1\n          pop\n            /* \"#utility.yul\":2555:2675   */\n          jump(tag_55)\n        tag_57:\n            /* \"#utility.yul\":2495:2681   */\n          pop\n          pop\n          jump\t// out\n            /* \"#utility.yul\":2687:3230   */\n        tag_21:\n            /* \"#utility.yul\":2788:2790   */\n          0x1f\n            /* \"#utility.yul\":2783:2786   */\n          dup3\n            /* \"#utility.yul\":2780:2791   */\n          gt\n            /* \"#utility.yul\":2777:3223   */\n          iszero\n          tag_60\n          jumpi\n            /* \"#utility.yul\":2822:2860   */\n          tag_61\n            /* \"#utility.yul\":2854:2859   */\n          dup2\n            /* \"#utility.yul\":2822:2860   */\n          tag_9\n          jump\t// in\n        tag_61:\n            /* \"#utility.yul\":2906:2935   */\n          tag_62\n            /* \"#utility.yul\":2924:2934   */\n          dup5\n            /* \"#utility.yul\":2906:2935   */\n          tag_10\n          jump\t// in\n        tag_62:\n            /* \"#utility.yul\":2896:2904   */\n          dup2\n            /* \"#utility.yul\":2892:2936   */\n          add\n            /* \"#utility.yul\":3089:3091   */\n          0x20\n            /* \"#utility.yul\":3077:3087   */\n          dup6\n            /* \"#utility.yul\":3074:3092   */\n          lt\n            /* \"#utility.yul\":3071:3120   */\n          iszero\n          tag_63\n          jumpi\n            /* \"#utility.yul\":3110:3118   */\n          dup2\n            /* \"#utility.yul\":3095:3118   */\n          swap1\n          pop\n            /* \"#utility.yul\":3071:3120   */\n        tag_63:\n            /* \"#utility.yul\":3133:3213   */\n          tag_64\n            /* \"#utility.yul\":3189:3211   */\n          tag_65\n            /* \"#utility.yul\":3207:3210   */\n          dup6\n            /* \"#utility.yul\":3189:3211   */\n          tag_10\n          jump\t// in\n        tag_65:\n            /* \"#utility.yul\":3179:3187   */\n          dup4\n            /* \"#utility.yul\":3175:3212   */\n          add\n            /* \"#utility.yul\":3162:3173   */\n          dup3\n            /* \"#utility.yul\":3133:3213   */\n          tag_20\n          jump\t// in\n        tag_64:\n            /* \"#utility.yul\":2792:3223   */\n          pop\n          pop\n            /* \"#utility.yul\":2777:3223   */\n        tag_60:\n            /* \"#utility.yul\":2687:3230   */\n          pop\n          pop\n          pop\n          jump\t// out\n            /* \"#utility.yul\":3236:3353   */\n        tag_22:\n            /* \"#utility.yul\":3290:3298   */\n          0x00\n            /* \"#utility.yul\":3340:3345   */\n          dup3\n            /* \"#utility.yul\":3334:3338   */\n          dup3\n            /* \"#utility.yul\":3330:3346   */\n          shr\n            /* \"#utility.yul\":3309:3346   */\n          swap1\n          pop\n            /* \"#utility.yul\":3236:3353   */\n          swap3\n          swap2\n          pop\n          pop\n          jump\t// out\n            /* \"#utility.yul\":3359:3528   */\n        tag_23:\n            /* \"#utility.yul\":3403:3409   */\n          0x00\n            /* \"#utility.yul\":3436:3487   */\n          tag_68\n            /* \"#utility.yul\":3484:3485   */\n          0x00\n            /* \"#utility.yul\":3480:3486   */\n          not\n            /* \"#utility.yul\":3472:3477   */\n          dup5\n            /* \"#utility.yul\":3469:3470   */\n          0x08\n            /* \"#utility.yul\":3465:3478   */\n          mul\n            /* \"#utility.yul\":3436:3487   */\n          tag_22\n          jump\t// in\n        tag_68:\n            /* \"#utility.yul\":3432:3488   */\n          not\n            /* \"#utility.yul\":3517:3521   */\n          dup1\n            /* \"#utility.yul\":3511:3515   */\n          dup4\n            /* \"#utility.yul\":3507:3522   */\n          and\n            /* \"#utility.yul\":3497:3522   */\n          swap2\n          pop\n            /* \"#utility.yul\":3410:3528   */\n          pop\n            /* \"#utility.yul\":3359:3528   */\n          swap3\n          swap2\n          pop\n          pop\n          jump\t// out\n            /* \"#utility.yul\":3533:3828   */\n        tag_24:\n            /* \"#utility.yul\":3609:3613   */\n          0x00\n            /* \"#utility.yul\":3755:3784   */\n          tag_70\n            /* \"#utility.yul\":3780:3783   */\n          dup4\n            /* \"#utility.yul\":3774:3778   */\n          dup4\n            /* \"#utility.yul\":3755:3784   */\n          tag_23\n          jump\t// in\n        tag_70:\n            /* \"#utility.yul\":3747:3784   */\n          swap2\n          pop\n            /* \"#utility.yul\":3817:3820   */\n          dup3\n            /* \"#utility.yul\":3814:3815   */\n          0x02\n            /* \"#utility.yul\":3810:3821   */\n          mul\n            /* \"#utility.yul\":3804:3808   */\n          dup3\n            /* \"#utility.yul\":3801:3822   */\n          or\n            /* \"#utility.yul\":3793:3822   */\n          swap1\n          pop\n            /* \"#utility.yul\":3533:3828   */\n          swap3\n          swap2\n          pop\n          pop\n          jump\t// out\n            /* \"#utility.yul\":3833:5228   */\n        tag_2:\n            /* \"#utility.yul\":3950:3987   */\n          tag_72\n            /* \"#utility.yul\":3983:3986   */\n          dup3\n            /* \"#utility.yul\":3950:3987   */\n          tag_5\n          jump\t// in\n        tag_72:\n            /* \"#utility.yul\":4052:4070   */\n          0xffffffffffffffff\n            /* \"#utility.yul\":4044:4050   */\n          dup2\n            /* \"#utility.yul\":4041:4071   */\n          gt\n            /* \"#utility.yul\":4038:4094   */\n          iszero\n          tag_73\n          jumpi\n            /* \"#utility.yul\":4074:4092   */\n          tag_74\n          tag_6\n          jump\t// in\n        tag_74:\n            /* \"#utility.yul\":4038:4094   */\n        tag_73:\n            /* \"#utility.yul\":4118:4156   */\n          tag_75\n            /* \"#utility.yul\":4150:4154   */\n          dup3\n            /* \"#utility.yul\":4144:4155   */\n          sload\n            /* \"#utility.yul\":4118:4156   */\n          tag_8\n          jump\t// in\n        tag_75:\n            /* \"#utility.yul\":4203:4270   */\n          tag_76\n            /* \"#utility.yul\":4263:4269   */\n          dup3\n            /* \"#utility.yul\":4255:4261   */\n          dup3\n            /* \"#utility.yul\":4249:4253   */\n          dup6\n            /* \"#utility.yul\":4203:4270   */\n          tag_21\n          jump\t// in\n        tag_76:\n            /* \"#utility.yul\":4297:4298   */\n          0x00\n            /* \"#utility.yul\":4321:4325   */\n          0x20\n            /* \"#utility.yul\":4308:4325   */\n          swap1\n          pop\n            /* \"#utility.yul\":4353:4355   */\n          0x1f\n            /* \"#utility.yul\":4345:4351   */\n          dup4\n            /* \"#utility.yul\":4342:4356   */\n          gt\n            /* \"#utility.yul\":4370:4371   */\n          0x01\n            /* \"#utility.yul\":4365:4983   */\n          dup2\n          eq\n          tag_78\n          jumpi\n            /* \"#utility.yul\":5027:5028   */\n          0x00\n            /* \"#utility.yul\":5044:5050   */\n          dup5\n            /* \"#utility.yul\":5041:5118   */\n          iszero\n          tag_79\n          jumpi\n            /* \"#utility.yul\":5093:5102   */\n          dup3\n            /* \"#utility.yul\":5088:5091   */\n          dup8\n            /* \"#utility.yul\":5084:5103   */\n          add\n            /* \"#utility.yul\":5078:5104   */\n          mload\n            /* \"#utility.yul\":5069:5104   */\n          swap1\n          pop\n            /* \"#utility.yul\":5041:5118   */\n        tag_79:\n            /* \"#utility.yul\":5144:5211   */\n          tag_80\n            /* \"#utility.yul\":5204:5210   */\n          dup6\n            /* \"#utility.yul\":5197:5202   */\n          dup3\n            /* \"#utility.yul\":5144:5211   */\n          tag_24\n          jump\t// in\n        tag_80:\n            /* \"#utility.yul\":5138:5142   */\n          dup7\n            /* \"#utility.yul\":5131:5212   */\n          sstore\n            /* \"#utility.yul\":5000:5222   */\n          pop\n            /* \"#utility.yul\":4335:5222   */\n          jump(tag_77)\n            /* \"#utility.yul\":4365:4983   */\n        tag_78:\n            /* \"#utility.yul\":4417:4421   */\n          0x1f\n            /* \"#utility.yul\":4413:4422   */\n          not\n            /* \"#utility.yul\":4405:4411   */\n          dup5\n            /* \"#utility.yul\":4401:4423   */\n          and\n            /* \"#utility.yul\":4451:4488   */\n          tag_81\n            /* \"#utility.yul\":4483:4487   */\n          dup7\n            /* \"#utility.yul\":4451:4488   */\n          tag_9\n          jump\t// in\n        tag_81:\n            /* \"#utility.yul\":4510:4511   */\n          0x00\n            /* \"#utility.yul\":4524:4732   */\n        tag_82:\n            /* \"#utility.yul\":4538:4545   */\n          dup3\n            /* \"#utility.yul\":4535:4536   */\n          dup2\n            /* \"#utility.yul\":4532:4546   */\n          lt\n            /* \"#utility.yul\":4524:4732   */\n          iszero\n          tag_84\n          jumpi\n            /* \"#utility.yul\":4617:4626   */\n          dup5\n            /* \"#utility.yul\":4612:4615   */\n          dup10\n            /* \"#utility.yul\":4608:4627   */\n          add\n            /* \"#utility.yul\":4602:4628   */\n          mload\n            /* \"#utility.yul\":4594:4600   */\n          dup3\n            /* \"#utility.yul\":4587:4629   */\n          sstore\n            /* \"#utility.yul\":4668:4669   */\n          0x01\n            /* \"#utility.yul\":4660:4666   */\n          dup3\n            /* \"#utility.yul\":4656:4670   */\n          add\n            /* \"#utility.yul\":4646:4670   */\n          swap2\n          pop\n            /* \"#utility.yul\":4715:4717   */\n          0x20\n            /* \"#utility.yul\":4704:4713   */\n          dup6\n            /* \"#utility.yul\":4700:4718   */\n          add\n            /* \"#utility.yul\":4687:4718   */\n          swap5\n          pop\n            /* \"#utility.yul\":4561:4565   */\n          0x20\n            /* \"#utility.yul\":4558:4559   */\n          dup2\n            /* \"#utility.yul\":4554:4566   */\n          add\n            /* \"#utility.yul\":4549:4566   */\n          swap1\n          pop\n            /* \"#utility.yul\":4524:4732   */\n          jump(tag_82)\n        tag_84:\n            /* \"#utility.yul\":4760:4766   */\n          dup7\n            /* \"#utility.yul\":4751:4758   */\n          dup4\n            /* \"#utility.yul\":4748:4767   */\n          lt\n            /* \"#utility.yul\":4745:4924   */\n          iszero\n          tag_85\n          jumpi\n            /* \"#utility.yul\":4818:4827   */\n          dup5\n            /* \"#utility.yul\":4813:4816   */\n          dup10\n            /* \"#utility.yul\":4809:4828   */\n          add\n            /* \"#utility.yul\":4803:4829   */\n          mload\n            /* \"#utility.yul\":4861:4909   */\n          tag_86\n            /* \"#utility.yul\":4903:4907   */\n          0x1f\n            /* \"#utility.yul\":4895:4901   */\n          dup10\n            /* \"#utility.yul\":4891:4908   */\n          and\n            /* \"#utility.yul\":4880:4889   */\n          dup3\n            /* \"#utility.yul\":4861:4909   */\n          tag_23\n          jump\t// in\n        tag_86:\n            /* \"#utility.yul\":4853:4859   */\n          dup4\n            /* \"#utility.yul\":4846:4910   */\n          sstore\n            /* \"#utility.yul\":4768:4924   */\n          pop\n            /* \"#utility.yul\":4745:4924   */\n        tag_85:\n            /* \"#utility.yul\":4970:4971   */\n          0x01\n            /* \"#utility.yul\":4966:4967   */\n          0x02\n            /* \"#utility.yul\":4958:4964   */\n          dup9\n            /* \"#utility.yul\":4954:4968   */\n          mul\n            /* \"#utility.yul\":4950:4972   */\n          add\n            /* \"#utility.yul\":4944:4948   */\n          dup9\n            /* \"#utility.yul\":4937:4973   */\n          sstore\n            /* \"#utility.yul\":4372:4983   */\n          pop\n          pop\n          pop\n            /* \"#utility.yul\":4335:5222   */\n        tag_77:\n          pop\n            /* \"#utility.yul\":3925:5228   */\n          pop\n          pop\n          pop\n            /* \"#utility.yul\":3833:5228   */\n          pop\n          pop\n          jump\t// out\n            /* \"contracts/SimpleStorage.sol\":305:3087  contract SimpleStorage{... */\n        tag_4:\n          dataSize(sub_0)\n          dup1\n          dataOffset(sub_0)\n          0x00\n          codecopy\n          0x00\n          return\n        stop\n\n        sub_0: assembly {\n                /* \"contracts/SimpleStorage.sol\":305:3087  contract SimpleStorage{... */\n              mstore(0x40, 0x80)\n              callvalue\n              dup1\n              iszero\n              tag_1\n              jumpi\n              0x00\n              dup1\n              revert\n            tag_1:\n              pop\n              jumpi(tag_2, lt(calldatasize, 0x04))\n              shr(0xe0, calldataload(0x00))\n              dup1\n              0x06c62c2c\n              eq\n              tag_3\n              jumpi\n              dup1\n              0x2e64cec1\n              eq\n              tag_4\n              jumpi\n              dup1\n              0x6f760f41\n              eq\n              tag_5\n              jumpi\n              dup1\n              0x9e7a13ad\n              eq\n              tag_6\n              jumpi\n              dup1\n              0xa40885d3\n              eq\n              tag_7\n              jumpi\n              dup1\n              0xd1e04b5b\n              eq\n              tag_8\n              jumpi\n            tag_2:\n              0x00\n              dup1\n              revert\n                /* \"contracts/SimpleStorage.sol\":1424:1472  mapping (string => uint256) public  nameToFavNum */\n            tag_3:\n              tag_9\n              0x04\n              dup1\n              calldatasize\n              sub\n              dup2\n              add\n              swap1\n              tag_10\n              swap2\n              swap1\n              tag_11\n              jump\t// in\n            tag_10:\n              tag_12\n              jump\t// in\n            tag_9:\n              mload(0x40)\n              tag_13\n              swap2\n              swap1\n              tag_14\n              jump\t// in\n            tag_13:\n              mload(0x40)\n              dup1\n              swap2\n              sub\n              swap1\n              return\n                /* \"contracts/SimpleStorage.sol\":2833:2924  function retrieve() public  view  returns (uint256){... */\n            tag_4:\n              tag_15\n              tag_16\n              jump\t// in\n            tag_15:\n              mload(0x40)\n              tag_17\n              swap2\n              swap1\n              tag_14\n              jump\t// in\n            tag_17:\n              mload(0x40)\n              dup1\n              swap2\n              sub\n              swap1\n              return\n                /* \"contracts/SimpleStorage.sol\":2065:2375  function addPerson(string memory _name, uint _favoriteNum) public {... */\n            tag_5:\n              tag_18\n              0x04\n              dup1\n              calldatasize\n              sub\n              dup2\n              add\n              swap1\n              tag_19\n              swap2\n              swap1\n              tag_20\n              jump\t// in\n            tag_19:\n              tag_21\n              jump\t// in\n            tag_18:\n              stop\n                /* \"contracts/SimpleStorage.sol\":1674:1696  People[] public people */\n            tag_6:\n              tag_22\n              0x04\n              dup1\n              calldatasize\n              sub\n              dup2\n              add\n              swap1\n              tag_23\n              swap2\n              swap1\n              tag_24\n              jump\t// in\n            tag_23:\n              tag_25\n              jump\t// in\n            tag_22:\n              mload(0x40)\n              tag_26\n              swap3\n              swap2\n              swap1\n              tag_27\n              jump\t// in\n            tag_26:\n              mload(0x40)\n              dup1\n              swap2\n              sub\n              swap1\n              return\n                /* \"contracts/SimpleStorage.sol\":2931:3084  function returnPerson(uint256 _index) public  view returns (People memory){... */\n            tag_7:\n              tag_28\n              0x04\n              dup1\n              calldatasize\n              sub\n              dup2\n              add\n              swap1\n              tag_29\n              swap2\n              swap1\n              tag_24\n              jump\t// in\n            tag_29:\n              tag_30\n              jump\t// in\n            tag_28:\n              mload(0x40)\n              tag_31\n              swap2\n              swap1\n              tag_32\n              jump\t// in\n            tag_31:\n              mload(0x40)\n              dup1\n              swap2\n              sub\n              swap1\n              return\n                /* \"contracts/SimpleStorage.sol\":2381:2502  function storeFunction(uint256 _favoriteNumber) public virtual  {... */\n            tag_8:\n              tag_33\n              0x04\n              dup1\n              calldatasize\n              sub\n              dup2\n              add\n              swap1\n              tag_34\n              swap2\n              swap1\n              tag_24\n              jump\t// in\n            tag_34:\n              tag_35\n              jump\t// in\n            tag_33:\n              stop\n                /* \"contracts/SimpleStorage.sol\":1424:1472  mapping (string => uint256) public  nameToFavNum */\n            tag_12:\n              0x08\n              dup2\n              dup1\n              mload\n              0x20\n              dup2\n              add\n              dup3\n              add\n              dup1\n              mload\n              dup5\n              dup3\n              mstore\n              0x20\n              dup4\n              add\n              0x20\n              dup6\n              add\n              keccak256\n              dup2\n              dup4\n              mstore\n              dup1\n              swap6\n              pop\n              pop\n              pop\n              pop\n              pop\n              pop\n              0x00\n              swap2\n              pop\n              swap1\n              pop\n              sload\n              dup2\n              jump\t// out\n                /* \"contracts/SimpleStorage.sol\":2833:2924  function retrieve() public  view  returns (uint256){... */\n            tag_16:\n                /* \"contracts/SimpleStorage.sol\":2876:2883  uint256 */\n              0x00\n                /* \"contracts/SimpleStorage.sol\":2902:2913  favortieNum */\n              sload(0x07)\n                /* \"contracts/SimpleStorage.sol\":2895:2913  return favortieNum */\n              swap1\n              pop\n                /* \"contracts/SimpleStorage.sol\":2833:2924  function retrieve() public  view  returns (uint256){... */\n              swap1\n              jump\t// out\n                /* \"contracts/SimpleStorage.sol\":2065:2375  function addPerson(string memory _name, uint _favoriteNum) public {... */\n            tag_21:\n                /* \"contracts/SimpleStorage.sol\":2135:2141  people */\n              0x09\n                /* \"contracts/SimpleStorage.sol\":2147:2174  People(_favoriteNum, _name) */\n              mload(0x40)\n              dup1\n              0x40\n              add\n              0x40\n              mstore\n              dup1\n                /* \"contracts/SimpleStorage.sol\":2154:2166  _favoriteNum */\n              dup4\n                /* \"contracts/SimpleStorage.sol\":2147:2174  People(_favoriteNum, _name) */\n              dup2\n              mstore\n              0x20\n              add\n                /* \"contracts/SimpleStorage.sol\":2168:2173  _name */\n              dup5\n                /* \"contracts/SimpleStorage.sol\":2147:2174  People(_favoriteNum, _name) */\n              dup2\n              mstore\n              pop\n                /* \"contracts/SimpleStorage.sol\":2135:2175  people.push(People(_favoriteNum, _name)) */\n              swap1\n              dup1\n              0x01\n              dup2\n              sload\n              add\n              dup1\n              dup3\n              sstore\n              dup1\n              swap2\n              pop\n              pop\n              0x01\n              swap1\n              sub\n              swap1\n              0x00\n              mstore\n              keccak256(0x00, 0x20)\n              swap1\n              0x02\n              mul\n              add\n              0x00\n              swap1\n              swap2\n              swap1\n              swap2\n              swap1\n              swap2\n              pop\n              0x00\n              dup3\n              add\n              mload\n              dup2\n              0x00\n              add\n              sstore\n              0x20\n              dup3\n              add\n              mload\n              dup2\n              0x01\n              add\n              swap1\n              dup2\n              tag_39\n              swap2\n              swap1\n              tag_40\n              jump\t// in\n            tag_39:\n              pop\n              pop\n              pop\n                /* \"contracts/SimpleStorage.sol\":2201:2213  _favoriteNum */\n              dup1\n                /* \"contracts/SimpleStorage.sol\":2180:2192  nameToFavNum */\n              0x08\n                /* \"contracts/SimpleStorage.sol\":2193:2198  _name */\n              dup4\n                /* \"contracts/SimpleStorage.sol\":2180:2199  nameToFavNum[_name] */\n              mload(0x40)\n              tag_41\n              swap2\n              swap1\n              tag_42\n              jump\t// in\n            tag_41:\n              swap1\n              dup2\n              mstore\n              0x20\n              add\n              mload(0x40)\n              dup1\n              swap2\n              sub\n              swap1\n              keccak256\n                /* \"contracts/SimpleStorage.sol\":2180:2213  nameToFavNum[_name] =_favoriteNum */\n              dup2\n              swap1\n              sstore\n              pop\n                /* \"contracts/SimpleStorage.sol\":2065:2375  function addPerson(string memory _name, uint _favoriteNum) public {... */\n              pop\n              pop\n              jump\t// out\n                /* \"contracts/SimpleStorage.sol\":1674:1696  People[] public people */\n            tag_25:\n              0x09\n              dup2\n              dup2\n              sload\n              dup2\n              lt\n              tag_43\n              jumpi\n              0x00\n              dup1\n              revert\n            tag_43:\n              swap1\n              0x00\n              mstore\n              keccak256(0x00, 0x20)\n              swap1\n              0x02\n              mul\n              add\n              0x00\n              swap2\n              pop\n              swap1\n              pop\n              dup1\n              0x00\n              add\n              sload\n              swap1\n              dup1\n              0x01\n              add\n              dup1\n              sload\n              tag_45\n              swap1\n              tag_46\n              jump\t// in\n            tag_45:\n              dup1\n              0x1f\n              add\n              0x20\n              dup1\n              swap2\n              div\n              mul\n              0x20\n              add\n              mload(0x40)\n              swap1\n              dup2\n              add\n              0x40\n              mstore\n              dup1\n              swap3\n              swap2\n              swap1\n              dup2\n              dup2\n              mstore\n              0x20\n              add\n              dup3\n              dup1\n              sload\n              tag_47\n              swap1\n              tag_46\n              jump\t// in\n            tag_47:\n              dup1\n              iszero\n              tag_48\n              jumpi\n              dup1\n              0x1f\n              lt\n              tag_49\n              jumpi\n              0x0100\n              dup1\n              dup4\n              sload\n              div\n              mul\n              dup4\n              mstore\n              swap2\n              0x20\n              add\n              swap2\n              jump(tag_48)\n            tag_49:\n              dup3\n              add\n              swap2\n              swap1\n              0x00\n              mstore\n              keccak256(0x00, 0x20)\n              swap1\n            tag_50:\n              dup2\n              sload\n              dup2\n              mstore\n              swap1\n              0x01\n              add\n              swap1\n              0x20\n              add\n              dup1\n              dup4\n              gt\n              tag_50\n              jumpi\n              dup3\n              swap1\n              sub\n              0x1f\n              and\n              dup3\n              add\n              swap2\n            tag_48:\n              pop\n              pop\n              pop\n              pop\n              pop\n              swap1\n              pop\n              dup3\n              jump\t// out\n                /* \"contracts/SimpleStorage.sol\":2931:3084  function returnPerson(uint256 _index) public  view returns (People memory){... */\n            tag_30:\n                /* \"contracts/SimpleStorage.sol\":2991:3004  People memory */\n              tag_51\n              tag_52\n              jump\t// in\n            tag_51:\n                /* \"contracts/SimpleStorage.sol\":3012:3035  People memory peopleNew */\n              0x00\n                /* \"contracts/SimpleStorage.sol\":3038:3044  people */\n              0x09\n                /* \"contracts/SimpleStorage.sol\":3045:3051  _index */\n              dup4\n                /* \"contracts/SimpleStorage.sol\":3038:3052  people[_index] */\n              dup2\n              sload\n              dup2\n              lt\n              tag_54\n              jumpi\n              tag_55\n              tag_56\n              jump\t// in\n            tag_55:\n            tag_54:\n              swap1\n              0x00\n              mstore\n              keccak256(0x00, 0x20)\n              swap1\n              0x02\n              mul\n              add\n                /* \"contracts/SimpleStorage.sol\":3012:3052  People memory peopleNew = people[_index] */\n              mload(0x40)\n              dup1\n              0x40\n              add\n              0x40\n              mstore\n              swap1\n              dup2\n              0x00\n              dup3\n              add\n              sload\n              dup2\n              mstore\n              0x20\n              add\n              0x01\n              dup3\n              add\n              dup1\n              sload\n              tag_58\n              swap1\n              tag_46\n              jump\t// in\n            tag_58:\n              dup1\n              0x1f\n              add\n              0x20\n              dup1\n              swap2\n              div\n              mul\n              0x20\n              add\n              mload(0x40)\n              swap1\n              dup2\n              add\n              0x40\n              mstore\n              dup1\n              swap3\n              swap2\n              swap1\n              dup2\n              dup2\n              mstore\n              0x20\n              add\n              dup3\n              dup1\n              sload\n              tag_59\n              swap1\n              tag_46\n              jump\t// in\n            tag_59:\n              dup1\n              iszero\n              tag_60\n              jumpi\n              dup1\n              0x1f\n              lt\n              tag_61\n              jumpi\n              0x0100\n              dup1\n              dup4\n              sload\n              div\n              mul\n              dup4\n              mstore\n              swap2\n              0x20\n              add\n              swap2\n              jump(tag_60)\n            tag_61:\n              dup3\n              add\n              swap2\n              swap1\n              0x00\n              mstore\n              keccak256(0x00, 0x20)\n              swap1\n            tag_62:\n              dup2\n              sload\n              dup2\n              mstore\n              swap1\n              0x01\n              add\n              swap1\n              0x20\n              add\n              dup1\n              dup4\n              gt\n              tag_62\n              jumpi\n              dup3\n              swap1\n              sub\n              0x1f\n              and\n              dup3\n              add\n              swap2\n            tag_60:\n              pop\n              pop\n              pop\n              pop\n              pop\n              dup2\n              mstore\n              pop\n              pop\n              swap1\n              pop\n                /* \"contracts/SimpleStorage.sol\":3066:3075  peopleNew */\n              dup1\n                /* \"contracts/SimpleStorage.sol\":3059:3075  return peopleNew */\n              swap2\n              pop\n              pop\n                /* \"contracts/SimpleStorage.sol\":2931:3084  function returnPerson(uint256 _index) public  view returns (People memory){... */\n              swap2\n              swap1\n              pop\n              jump\t// out\n                /* \"contracts/SimpleStorage.sol\":2381:2502  function storeFunction(uint256 _favoriteNumber) public virtual  {... */\n            tag_35:\n                /* \"contracts/SimpleStorage.sol\":2470:2485  _favoriteNumber */\n              dup1\n                /* \"contracts/SimpleStorage.sol\":2456:2467  favortieNum */\n              0x07\n                /* \"contracts/SimpleStorage.sol\":2456:2485  favortieNum = _favoriteNumber */\n              dup2\n              swap1\n              sstore\n              pop\n                /* \"contracts/SimpleStorage.sol\":2381:2502  function storeFunction(uint256 _favoriteNumber) public virtual  {... */\n              pop\n              jump\t// out\n            tag_52:\n              mload(0x40)\n              dup1\n              0x40\n              add\n              0x40\n              mstore\n              dup1\n              0x00\n              dup2\n              mstore\n              0x20\n              add\n              0x60\n              dup2\n              mstore\n              pop\n              swap1\n              jump\t// out\n                /* \"#utility.yul\":7:82   */\n            tag_64:\n                /* \"#utility.yul\":40:46   */\n              0x00\n                /* \"#utility.yul\":73:75   */\n              0x40\n                /* \"#utility.yul\":67:76   */\n              mload\n                /* \"#utility.yul\":57:76   */\n              swap1\n              pop\n                /* \"#utility.yul\":7:82   */\n              swap1\n              jump\t// out\n                /* \"#utility.yul\":88:205   */\n            tag_65:\n                /* \"#utility.yul\":197:198   */\n              0x00\n                /* \"#utility.yul\":194:195   */\n              dup1\n                /* \"#utility.yul\":187:199   */\n              revert\n                /* \"#utility.yul\":211:328   */\n            tag_66:\n                /* \"#utility.yul\":320:321   */\n              0x00\n                /* \"#utility.yul\":317:318   */\n              dup1\n                /* \"#utility.yul\":310:322   */\n              revert\n                /* \"#utility.yul\":334:451   */\n            tag_67:\n                /* \"#utility.yul\":443:444   */\n              0x00\n                /* \"#utility.yul\":440:441   */\n              dup1\n                /* \"#utility.yul\":433:445   */\n              revert\n                /* \"#utility.yul\":457:574   */\n            tag_68:\n                /* \"#utility.yul\":566:567   */\n              0x00\n                /* \"#utility.yul\":563:564   */\n              dup1\n                /* \"#utility.yul\":556:568   */\n              revert\n                /* \"#utility.yul\":580:682   */\n            tag_69:\n                /* \"#utility.yul\":621:627   */\n              0x00\n                /* \"#utility.yul\":672:674   */\n              0x1f\n                /* \"#utility.yul\":668:675   */\n              not\n                /* \"#utility.yul\":663:665   */\n              0x1f\n                /* \"#utility.yul\":656:661   */\n              dup4\n                /* \"#utility.yul\":652:666   */\n              add\n                /* \"#utility.yul\":648:676   */\n              and\n                /* \"#utility.yul\":638:676   */\n              swap1\n              pop\n                /* \"#utility.yul\":580:682   */\n              swap2\n              swap1\n              pop\n              jump\t// out\n                /* \"#utility.yul\":688:868   */\n            tag_70:\n                /* \"#utility.yul\":736:813   */\n              0x4e487b7100000000000000000000000000000000000000000000000000000000\n                /* \"#utility.yul\":733:734   */\n              0x00\n                /* \"#utility.yul\":726:814   */\n              mstore\n                /* \"#utility.yul\":833:837   */\n              0x41\n                /* \"#utility.yul\":830:831   */\n              0x04\n                /* \"#utility.yul\":823:838   */\n              mstore\n                /* \"#utility.yul\":857:861   */\n              0x24\n                /* \"#utility.yul\":854:855   */\n              0x00\n                /* \"#utility.yul\":847:862   */\n              revert\n                /* \"#utility.yul\":874:1155   */\n            tag_71:\n                /* \"#utility.yul\":957:984   */\n              tag_116\n                /* \"#utility.yul\":979:983   */\n              dup3\n                /* \"#utility.yul\":957:984   */\n              tag_69\n              jump\t// in\n            tag_116:\n                /* \"#utility.yul\":949:955   */\n              dup2\n                /* \"#utility.yul\":945:985   */\n              add\n                /* \"#utility.yul\":1087:1093   */\n              dup2\n                /* \"#utility.yul\":1075:1085   */\n              dup2\n                /* \"#utility.yul\":1072:1094   */\n              lt\n                /* \"#utility.yul\":1051:1069   */\n              0xffffffffffffffff\n                /* \"#utility.yul\":1039:1049   */\n              dup3\n                /* \"#utility.yul\":1036:1070   */\n              gt\n                /* \"#utility.yul\":1033:1095   */\n              or\n                /* \"#utility.yul\":1030:1118   */\n              iszero\n              tag_117\n              jumpi\n                /* \"#utility.yul\":1098:1116   */\n              tag_118\n              tag_70\n              jump\t// in\n            tag_118:\n                /* \"#utility.yul\":1030:1118   */\n            tag_117:\n                /* \"#utility.yul\":1138:1148   */\n              dup1\n                /* \"#utility.yul\":1134:1136   */\n              0x40\n                /* \"#utility.yul\":1127:1149   */\n              mstore\n                /* \"#utility.yul\":917:1155   */\n              pop\n                /* \"#utility.yul\":874:1155   */\n              pop\n              pop\n              jump\t// out\n                /* \"#utility.yul\":1161:1290   */\n            tag_72:\n                /* \"#utility.yul\":1195:1201   */\n              0x00\n                /* \"#utility.yul\":1222:1242   */\n              tag_120\n              tag_64\n              jump\t// in\n            tag_120:\n                /* \"#utility.yul\":1212:1242   */\n              swap1\n              pop\n                /* \"#utility.yul\":1251:1284   */\n              tag_121\n                /* \"#utility.yul\":1279:1283   */\n              dup3\n                /* \"#utility.yul\":1271:1277   */\n              dup3\n                /* \"#utility.yul\":1251:1284   */\n              tag_71\n              jump\t// in\n            tag_121:\n                /* \"#utility.yul\":1161:1290   */\n              swap2\n              swap1\n              pop\n              jump\t// out\n                /* \"#utility.yul\":1296:1604   */\n            tag_73:\n                /* \"#utility.yul\":1358:1362   */\n              0x00\n                /* \"#utility.yul\":1448:1466   */\n              0xffffffffffffffff\n                /* \"#utility.yul\":1440:1446   */\n              dup3\n                /* \"#utility.yul\":1437:1467   */\n              gt\n                /* \"#utility.yul\":1434:1490   */\n              iszero\n              tag_123\n              jumpi\n                /* \"#utility.yul\":1470:1488   */\n              tag_124\n              tag_70\n              jump\t// in\n            tag_124:\n                /* \"#utility.yul\":1434:1490   */\n            tag_123:\n                /* \"#utility.yul\":1508:1537   */\n              tag_125\n                /* \"#utility.yul\":1530:1536   */\n              dup3\n                /* \"#utility.yul\":1508:1537   */\n              tag_69\n              jump\t// in\n            tag_125:\n                /* \"#utility.yul\":1500:1537   */\n              swap1\n              pop\n                /* \"#utility.yul\":1592:1596   */\n              0x20\n                /* \"#utility.yul\":1586:1590   */\n              dup2\n                /* \"#utility.yul\":1582:1597   */\n              add\n                /* \"#utility.yul\":1574:1597   */\n              swap1\n              pop\n                /* \"#utility.yul\":1296:1604   */\n              swap2\n              swap1\n              pop\n              jump\t// out\n                /* \"#utility.yul\":1610:1756   */\n            tag_74:\n                /* \"#utility.yul\":1707:1713   */\n              dup3\n                /* \"#utility.yul\":1702:1705   */\n              dup2\n                /* \"#utility.yul\":1697:1700   */\n              dup4\n                /* \"#utility.yul\":1684:1714   */\n              calldatacopy\n                /* \"#utility.yul\":1748:1749   */\n              0x00\n                /* \"#utility.yul\":1739:1745   */\n              dup4\n                /* \"#utility.yul\":1734:1737   */\n              dup4\n                /* \"#utility.yul\":1730:1746   */\n              add\n                /* \"#utility.yul\":1723:1750   */\n              mstore\n                /* \"#utility.yul\":1610:1756   */\n              pop\n              pop\n              pop\n              jump\t// out\n                /* \"#utility.yul\":1762:2187   */\n            tag_75:\n                /* \"#utility.yul\":1840:1845   */\n              0x00\n                /* \"#utility.yul\":1865:1931   */\n              tag_128\n                /* \"#utility.yul\":1881:1930   */\n              tag_129\n                /* \"#utility.yul\":1923:1929   */\n              dup5\n                /* \"#utility.yul\":1881:1930   */\n              tag_73\n              jump\t// in\n            tag_129:\n                /* \"#utility.yul\":1865:1931   */\n              tag_72\n              jump\t// in\n            tag_128:\n                /* \"#utility.yul\":1856:1931   */\n              swap1\n              pop\n                /* \"#utility.yul\":1954:1960   */\n              dup3\n                /* \"#utility.yul\":1947:1952   */\n              dup2\n                /* \"#utility.yul\":1940:1961   */\n              mstore\n                /* \"#utility.yul\":1992:1996   */\n              0x20\n                /* \"#utility.yul\":1985:1990   */\n              dup2\n                /* \"#utility.yul\":1981:1997   */\n              add\n                /* \"#utility.yul\":2030:2033   */\n              dup5\n                /* \"#utility.yul\":2021:2027   */\n              dup5\n                /* \"#utility.yul\":2016:2019   */\n              dup5\n                /* \"#utility.yul\":2012:2028   */\n              add\n                /* \"#utility.yul\":2009:2034   */\n              gt\n                /* \"#utility.yul\":2006:2118   */\n              iszero\n              tag_130\n              jumpi\n                /* \"#utility.yul\":2037:2116   */\n              tag_131\n              tag_68\n              jump\t// in\n            tag_131:\n                /* \"#utility.yul\":2006:2118   */\n            tag_130:\n                /* \"#utility.yul\":2127:2181   */\n              tag_132\n                /* \"#utility.yul\":2174:2180   */\n              dup5\n                /* \"#utility.yul\":2169:2172   */\n              dup3\n                /* \"#utility.yul\":2164:2167   */\n              dup6\n                /* \"#utility.yul\":2127:2181   */\n              tag_74\n              jump\t// in\n            tag_132:\n                /* \"#utility.yul\":1846:2187   */\n              pop\n                /* \"#utility.yul\":1762:2187   */\n              swap4\n              swap3\n              pop\n              pop\n              pop\n              jump\t// out\n                /* \"#utility.yul\":2207:2547   */\n            tag_76:\n                /* \"#utility.yul\":2263:2268   */\n              0x00\n                /* \"#utility.yul\":2312:2315   */\n              dup3\n                /* \"#utility.yul\":2305:2309   */\n              0x1f\n                /* \"#utility.yul\":2297:2303   */\n              dup4\n                /* \"#utility.yul\":2293:2310   */\n              add\n                /* \"#utility.yul\":2289:2316   */\n              slt\n                /* \"#utility.yul\":2279:2401   */\n              tag_134\n              jumpi\n                /* \"#utility.yul\":2320:2399   */\n              tag_135\n              tag_67\n              jump\t// in\n            tag_135:\n                /* \"#utility.yul\":2279:2401   */\n            tag_134:\n                /* \"#utility.yul\":2437:2443   */\n              dup2\n                /* \"#utility.yul\":2424:2444   */\n              calldataload\n                /* \"#utility.yul\":2462:2541   */\n              tag_136\n                /* \"#utility.yul\":2537:2540   */\n              dup5\n                /* \"#utility.yul\":2529:2535   */\n              dup3\n                /* \"#utility.yul\":2522:2526   */\n              0x20\n                /* \"#utility.yul\":2514:2520   */\n              dup7\n                /* \"#utility.yul\":2510:2527   */\n              add\n                /* \"#utility.yul\":2462:2541   */\n              tag_75\n              jump\t// in\n            tag_136:\n                /* \"#utility.yul\":2453:2541   */\n              swap2\n              pop\n                /* \"#utility.yul\":2269:2547   */\n              pop\n                /* \"#utility.yul\":2207:2547   */\n              swap3\n              swap2\n              pop\n              pop\n              jump\t// out\n                /* \"#utility.yul\":2553:3062   */\n            tag_11:\n                /* \"#utility.yul\":2622:2628   */\n              0x00\n                /* \"#utility.yul\":2671:2673   */\n              0x20\n                /* \"#utility.yul\":2659:2668   */\n              dup3\n                /* \"#utility.yul\":2650:2657   */\n              dup5\n                /* \"#utility.yul\":2646:2669   */\n              sub\n                /* \"#utility.yul\":2642:2674   */\n              slt\n                /* \"#utility.yul\":2639:2758   */\n              iszero\n              tag_138\n              jumpi\n                /* \"#utility.yul\":2677:2756   */\n              tag_139\n              tag_65\n              jump\t// in\n            tag_139:\n                /* \"#utility.yul\":2639:2758   */\n            tag_138:\n                /* \"#utility.yul\":2825:2826   */\n              0x00\n                /* \"#utility.yul\":2814:2823   */\n              dup3\n                /* \"#utility.yul\":2810:2827   */\n              add\n                /* \"#utility.yul\":2797:2828   */\n              calldataload\n                /* \"#utility.yul\":2855:2873   */\n              0xffffffffffffffff\n                /* \"#utility.yul\":2847:2853   */\n              dup2\n                /* \"#utility.yul\":2844:2874   */\n              gt\n                /* \"#utility.yul\":2841:2958   */\n              iszero\n              tag_140\n              jumpi\n                /* \"#utility.yul\":2877:2956   */\n              tag_141\n              tag_66\n              jump\t// in\n            tag_141:\n                /* \"#utility.yul\":2841:2958   */\n            tag_140:\n                /* \"#utility.yul\":2982:3045   */\n              tag_142\n                /* \"#utility.yul\":3037:3044   */\n              dup5\n                /* \"#utility.yul\":3028:3034   */\n              dup3\n                /* \"#utility.yul\":3017:3026   */\n              dup6\n                /* \"#utility.yul\":3013:3035   */\n              add\n                /* \"#utility.yul\":2982:3045   */\n              tag_76\n              jump\t// in\n            tag_142:\n                /* \"#utility.yul\":2972:3045   */\n              swap2\n              pop\n                /* \"#utility.yul\":2768:3055   */\n              pop\n                /* \"#utility.yul\":2553:3062   */\n              swap3\n              swap2\n              pop\n              pop\n              jump\t// out\n                /* \"#utility.yul\":3068:3145   */\n            tag_77:\n                /* \"#utility.yul\":3105:3112   */\n              0x00\n                /* \"#utility.yul\":3134:3139   */\n              dup2\n                /* \"#utility.yul\":3123:3139   */\n              swap1\n              pop\n                /* \"#utility.yul\":3068:3145   */\n              swap2\n              swap1\n              pop\n              jump\t// out\n                /* \"#utility.yul\":3151:3269   */\n            tag_78:\n                /* \"#utility.yul\":3238:3262   */\n              tag_145\n                /* \"#utility.yul\":3256:3261   */\n              dup2\n                /* \"#utility.yul\":3238:3262   */\n              tag_77\n              jump\t// in\n            tag_145:\n                /* \"#utility.yul\":3233:3236   */\n              dup3\n                /* \"#utility.yul\":3226:3263   */\n              mstore\n                /* \"#utility.yul\":3151:3269   */\n              pop\n              pop\n              jump\t// out\n                /* \"#utility.yul\":3275:3497   */\n            tag_14:\n                /* \"#utility.yul\":3368:3372   */\n              0x00\n                /* \"#utility.yul\":3406:3408   */\n              0x20\n                /* \"#utility.yul\":3395:3404   */\n              dup3\n                /* \"#utility.yul\":3391:3409   */\n              add\n                /* \"#utility.yul\":3383:3409   */\n              swap1\n              pop\n                /* \"#utility.yul\":3419:3490   */\n              tag_147\n                /* \"#utility.yul\":3487:3488   */\n              0x00\n                /* \"#utility.yul\":3476:3485   */\n              dup4\n                /* \"#utility.yul\":3472:3489   */\n              add\n                /* \"#utility.yul\":3463:3469   */\n              dup5\n                /* \"#utility.yul\":3419:3490   */\n              tag_78\n              jump\t// in\n            tag_147:\n                /* \"#utility.yul\":3275:3497   */\n              swap3\n              swap2\n              pop\n              pop\n              jump\t// out\n                /* \"#utility.yul\":3503:3625   */\n            tag_79:\n                /* \"#utility.yul\":3576:3600   */\n              tag_149\n                /* \"#utility.yul\":3594:3599   */\n              dup2\n                /* \"#utility.yul\":3576:3600   */\n              tag_77\n              jump\t// in\n            tag_149:\n                /* \"#utility.yul\":3569:3574   */\n              dup2\n                /* \"#utility.yul\":3566:3601   */\n              eq\n                /* \"#utility.yul\":3556:3619   */\n              tag_150\n              jumpi\n                /* \"#utility.yul\":3615:3616   */\n              0x00\n                /* \"#utility.yul\":3612:3613   */\n              dup1\n                /* \"#utility.yul\":3605:3617   */\n              revert\n                /* \"#utility.yul\":3556:3619   */\n            tag_150:\n                /* \"#utility.yul\":3503:3625   */\n              pop\n              jump\t// out\n                /* \"#utility.yul\":3631:3770   */\n            tag_80:\n                /* \"#utility.yul\":3677:3682   */\n              0x00\n                /* \"#utility.yul\":3715:3721   */\n              dup2\n                /* \"#utility.yul\":3702:3722   */\n              calldataload\n                /* \"#utility.yul\":3693:3722   */\n              swap1\n              pop\n                /* \"#utility.yul\":3731:3764   */\n              tag_152\n                /* \"#utility.yul\":3758:3763   */\n              dup2\n                /* \"#utility.yul\":3731:3764   */\n              tag_79\n              jump\t// in\n            tag_152:\n                /* \"#utility.yul\":3631:3770   */\n              swap3\n              swap2\n              pop\n              pop\n              jump\t// out\n                /* \"#utility.yul\":3776:4430   */\n            tag_20:\n                /* \"#utility.yul\":3854:3860   */\n              0x00\n                /* \"#utility.yul\":3862:3868   */\n              dup1\n                /* \"#utility.yul\":3911:3913   */\n              0x40\n                /* \"#utility.yul\":3899:3908   */\n              dup4\n                /* \"#utility.yul\":3890:3897   */\n              dup6\n                /* \"#utility.yul\":3886:3909   */\n              sub\n                /* \"#utility.yul\":3882:3914   */\n              slt\n                /* \"#utility.yul\":3879:3998   */\n              iszero\n              tag_154\n              jumpi\n                /* \"#utility.yul\":3917:3996   */\n              tag_155\n              tag_65\n              jump\t// in\n            tag_155:\n                /* \"#utility.yul\":3879:3998   */\n            tag_154:\n                /* \"#utility.yul\":4065:4066   */\n              0x00\n                /* \"#utility.yul\":4054:4063   */\n              dup4\n                /* \"#utility.yul\":4050:4067   */\n              add\n                /* \"#utility.yul\":4037:4068   */\n              calldataload\n                /* \"#utility.yul\":4095:4113   */\n              0xffffffffffffffff\n                /* \"#utility.yul\":4087:4093   */\n              dup2\n                /* \"#utility.yul\":4084:4114   */\n              gt\n                /* \"#utility.yul\":4081:4198   */\n              iszero\n              tag_156\n              jumpi\n                /* \"#utility.yul\":4117:4196   */\n              tag_157\n              tag_66\n              jump\t// in\n            tag_157:\n                /* \"#utility.yul\":4081:4198   */\n            tag_156:\n                /* \"#utility.yul\":4222:4285   */\n              tag_158\n                /* \"#utility.yul\":4277:4284   */\n              dup6\n                /* \"#utility.yul\":4268:4274   */\n              dup3\n                /* \"#utility.yul\":4257:4266   */\n              dup7\n                /* \"#utility.yul\":4253:4275   */\n              add\n                /* \"#utility.yul\":4222:4285   */\n              tag_76\n              jump\t// in\n            tag_158:\n                /* \"#utility.yul\":4212:4285   */\n              swap3\n              pop\n                /* \"#utility.yul\":4008:4295   */\n              pop\n                /* \"#utility.yul\":4334:4336   */\n              0x20\n                /* \"#utility.yul\":4360:4413   */\n              tag_159\n                /* \"#utility.yul\":4405:4412   */\n              dup6\n                /* \"#utility.yul\":4396:4402   */\n              dup3\n                /* \"#utility.yul\":4385:4394   */\n              dup7\n                /* \"#utility.yul\":4381:4403   */\n              add\n                /* \"#utility.yul\":4360:4413   */\n              tag_80\n              jump\t// in\n            tag_159:\n                /* \"#utility.yul\":4350:4413   */\n              swap2\n              pop\n                /* \"#utility.yul\":4305:4423   */\n              pop\n                /* \"#utility.yul\":3776:4430   */\n              swap3\n              pop\n              swap3\n              swap1\n              pop\n              jump\t// out\n                /* \"#utility.yul\":4436:4765   */\n            tag_24:\n                /* \"#utility.yul\":4495:4501   */\n              0x00\n                /* \"#utility.yul\":4544:4546   */\n              0x20\n                /* \"#utility.yul\":4532:4541   */\n              dup3\n                /* \"#utility.yul\":4523:4530   */\n              dup5\n                /* \"#utility.yul\":4519:4542   */\n              sub\n                /* \"#utility.yul\":4515:4547   */\n              slt\n                /* \"#utility.yul\":4512:4631   */\n              iszero\n              tag_161\n              jumpi\n                /* \"#utility.yul\":4550:4629   */\n              tag_162\n              tag_65\n              jump\t// in\n            tag_162:\n                /* \"#utility.yul\":4512:4631   */\n            tag_161:\n                /* \"#utility.yul\":4670:4671   */\n              0x00\n                /* \"#utility.yul\":4695:4748   */\n              tag_163\n                /* \"#utility.yul\":4740:4747   */\n              dup5\n                /* \"#utility.yul\":4731:4737   */\n              dup3\n                /* \"#utility.yul\":4720:4729   */\n              dup6\n                /* \"#utility.yul\":4716:4738   */\n              add\n                /* \"#utility.yul\":4695:4748   */\n              tag_80\n              jump\t// in\n            tag_163:\n                /* \"#utility.yul\":4685:4748   */\n              swap2\n              pop\n                /* \"#utility.yul\":4641:4758   */\n              pop\n                /* \"#utility.yul\":4436:4765   */\n              swap3\n              swap2\n              pop\n              pop\n              jump\t// out\n                /* \"#utility.yul\":4771:4870   */\n            tag_81:\n                /* \"#utility.yul\":4823:4829   */\n              0x00\n                /* \"#utility.yul\":4857:4862   */\n              dup2\n                /* \"#utility.yul\":4851:4863   */\n              mload\n                /* \"#utility.yul\":4841:4863   */\n              swap1\n              pop\n                /* \"#utility.yul\":4771:4870   */\n              swap2\n              swap1\n              pop\n              jump\t// out\n                /* \"#utility.yul\":4876:5045   */\n            tag_82:\n                /* \"#utility.yul\":4960:4971   */\n              0x00\n                /* \"#utility.yul\":4994:5000   */\n              dup3\n                /* \"#utility.yul\":4989:4992   */\n              dup3\n                /* \"#utility.yul\":4982:5001   */\n              mstore\n                /* \"#utility.yul\":5034:5038   */\n              0x20\n                /* \"#utility.yul\":5029:5032   */\n              dup3\n                /* \"#utility.yul\":5025:5039   */\n              add\n                /* \"#utility.yul\":5010:5039   */\n              swap1\n              pop\n                /* \"#utility.yul\":4876:5045   */\n              swap3\n              swap2\n              pop\n              pop\n              jump\t// out\n                /* \"#utility.yul\":5051:5297   */\n            tag_83:\n                /* \"#utility.yul\":5132:5133   */\n              0x00\n                /* \"#utility.yul\":5142:5255   */\n            tag_167:\n                /* \"#utility.yul\":5156:5162   */\n              dup4\n                /* \"#utility.yul\":5153:5154   */\n              dup2\n                /* \"#utility.yul\":5150:5163   */\n              lt\n                /* \"#utility.yul\":5142:5255   */\n              iszero\n              tag_169\n              jumpi\n                /* \"#utility.yul\":5241:5242   */\n              dup1\n                /* \"#utility.yul\":5236:5239   */\n              dup3\n                /* \"#utility.yul\":5232:5243   */\n              add\n                /* \"#utility.yul\":5226:5244   */\n              mload\n                /* \"#utility.yul\":5222:5223   */\n              dup2\n                /* \"#utility.yul\":5217:5220   */\n              dup5\n                /* \"#utility.yul\":5213:5224   */\n              add\n                /* \"#utility.yul\":5206:5245   */\n              mstore\n                /* \"#utility.yul\":5178:5180   */\n              0x20\n                /* \"#utility.yul\":5175:5176   */\n              dup2\n                /* \"#utility.yul\":5171:5181   */\n              add\n                /* \"#utility.yul\":5166:5181   */\n              swap1\n              pop\n                /* \"#utility.yul\":5142:5255   */\n              jump(tag_167)\n            tag_169:\n                /* \"#utility.yul\":5289:5290   */\n              0x00\n                /* \"#utility.yul\":5280:5286   */\n              dup5\n                /* \"#utility.yul\":5275:5278   */\n              dup5\n                /* \"#utility.yul\":5271:5287   */\n              add\n                /* \"#utility.yul\":5264:5291   */\n              mstore\n                /* \"#utility.yul\":5113:5297   */\n              pop\n                /* \"#utility.yul\":5051:5297   */\n              pop\n              pop\n              pop\n              jump\t// out\n                /* \"#utility.yul\":5303:5680   */\n            tag_84:\n                /* \"#utility.yul\":5391:5394   */\n              0x00\n                /* \"#utility.yul\":5419:5458   */\n              tag_171\n                /* \"#utility.yul\":5452:5457   */\n              dup3\n                /* \"#utility.yul\":5419:5458   */\n              tag_81\n              jump\t// in\n            tag_171:\n                /* \"#utility.yul\":5474:5545   */\n              tag_172\n                /* \"#utility.yul\":5538:5544   */\n              dup2\n                /* \"#utility.yul\":5533:5536   */\n              dup6\n                /* \"#utility.yul\":5474:5545   */\n              tag_82\n              jump\t// in\n            tag_172:\n                /* \"#utility.yul\":5467:5545   */\n              swap4\n              pop\n                /* \"#utility.yul\":5554:5619   */\n              tag_173\n                /* \"#utility.yul\":5612:5618   */\n              dup2\n                /* \"#utility.yul\":5607:5610   */\n              dup6\n                /* \"#utility.yul\":5600:5604   */\n              0x20\n                /* \"#utility.yul\":5593:5598   */\n              dup7\n                /* \"#utility.yul\":5589:5605   */\n              add\n                /* \"#utility.yul\":5554:5619   */\n              tag_83\n              jump\t// in\n            tag_173:\n                /* \"#utility.yul\":5644:5673   */\n              tag_174\n                /* \"#utility.yul\":5666:5672   */\n              dup2\n                /* \"#utility.yul\":5644:5673   */\n              tag_69\n              jump\t// in\n            tag_174:\n                /* \"#utility.yul\":5639:5642   */\n              dup5\n                /* \"#utility.yul\":5635:5674   */\n              add\n                /* \"#utility.yul\":5628:5674   */\n              swap2\n              pop\n                /* \"#utility.yul\":5395:5680   */\n              pop\n                /* \"#utility.yul\":5303:5680   */\n              swap3\n              swap2\n              pop\n              pop\n              jump\t// out\n                /* \"#utility.yul\":5686:6109   */\n            tag_27:\n                /* \"#utility.yul\":5827:5831   */\n              0x00\n                /* \"#utility.yul\":5865:5867   */\n              0x40\n                /* \"#utility.yul\":5854:5863   */\n              dup3\n                /* \"#utility.yul\":5850:5868   */\n              add\n                /* \"#utility.yul\":5842:5868   */\n              swap1\n              pop\n                /* \"#utility.yul\":5878:5949   */\n              tag_176\n                /* \"#utility.yul\":5946:5947   */\n              0x00\n                /* \"#utility.yul\":5935:5944   */\n              dup4\n                /* \"#utility.yul\":5931:5948   */\n              add\n                /* \"#utility.yul\":5922:5928   */\n              dup6\n                /* \"#utility.yul\":5878:5949   */\n              tag_78\n              jump\t// in\n            tag_176:\n                /* \"#utility.yul\":5996:6005   */\n              dup2\n                /* \"#utility.yul\":5990:5994   */\n              dup2\n                /* \"#utility.yul\":5986:6006   */\n              sub\n                /* \"#utility.yul\":5981:5983   */\n              0x20\n                /* \"#utility.yul\":5970:5979   */\n              dup4\n                /* \"#utility.yul\":5966:5984   */\n              add\n                /* \"#utility.yul\":5959:6007   */\n              mstore\n                /* \"#utility.yul\":6024:6102   */\n              tag_177\n                /* \"#utility.yul\":6097:6101   */\n              dup2\n                /* \"#utility.yul\":6088:6094   */\n              dup5\n                /* \"#utility.yul\":6024:6102   */\n              tag_84\n              jump\t// in\n            tag_177:\n                /* \"#utility.yul\":6016:6102   */\n              swap1\n              pop\n                /* \"#utility.yul\":5686:6109   */\n              swap4\n              swap3\n              pop\n              pop\n              pop\n              jump\t// out\n                /* \"#utility.yul\":6115:6223   */\n            tag_85:\n                /* \"#utility.yul\":6192:6216   */\n              tag_179\n                /* \"#utility.yul\":6210:6215   */\n              dup2\n                /* \"#utility.yul\":6192:6216   */\n              tag_77\n              jump\t// in\n            tag_179:\n                /* \"#utility.yul\":6187:6190   */\n              dup3\n                /* \"#utility.yul\":6180:6217   */\n              mstore\n                /* \"#utility.yul\":6115:6223   */\n              pop\n              pop\n              jump\t// out\n                /* \"#utility.yul\":6229:6388   */\n            tag_86:\n                /* \"#utility.yul\":6303:6314   */\n              0x00\n                /* \"#utility.yul\":6337:6343   */\n              dup3\n                /* \"#utility.yul\":6332:6335   */\n              dup3\n                /* \"#utility.yul\":6325:6344   */\n              mstore\n                /* \"#utility.yul\":6377:6381   */\n              0x20\n                /* \"#utility.yul\":6372:6375   */\n              dup3\n                /* \"#utility.yul\":6368:6382   */\n              add\n                /* \"#utility.yul\":6353:6382   */\n              swap1\n              pop\n                /* \"#utility.yul\":6229:6388   */\n              swap3\n              swap2\n              pop\n              pop\n              jump\t// out\n                /* \"#utility.yul\":6394:6751   */\n            tag_87:\n                /* \"#utility.yul\":6472:6475   */\n              0x00\n                /* \"#utility.yul\":6500:6539   */\n              tag_182\n                /* \"#utility.yul\":6533:6538   */\n              dup3\n                /* \"#utility.yul\":6500:6539   */\n              tag_81\n              jump\t// in\n            tag_182:\n                /* \"#utility.yul\":6555:6616   */\n              tag_183\n                /* \"#utility.yul\":6609:6615   */\n              dup2\n                /* \"#utility.yul\":6604:6607   */\n              dup6\n                /* \"#utility.yul\":6555:6616   */\n              tag_86\n              jump\t// in\n            tag_183:\n                /* \"#utility.yul\":6548:6616   */\n              swap4\n              pop\n                /* \"#utility.yul\":6625:6690   */\n              tag_184\n                /* \"#utility.yul\":6683:6689   */\n              dup2\n                /* \"#utility.yul\":6678:6681   */\n              dup6\n                /* \"#utility.yul\":6671:6675   */\n              0x20\n                /* \"#utility.yul\":6664:6669   */\n              dup7\n                /* \"#utility.yul\":6660:6676   */\n              add\n                /* \"#utility.yul\":6625:6690   */\n              tag_83\n              jump\t// in\n            tag_184:\n                /* \"#utility.yul\":6715:6744   */\n              tag_185\n                /* \"#utility.yul\":6737:6743   */\n              dup2\n                /* \"#utility.yul\":6715:6744   */\n              tag_69\n              jump\t// in\n            tag_185:\n                /* \"#utility.yul\":6710:6713   */\n              dup5\n                /* \"#utility.yul\":6706:6745   */\n              add\n                /* \"#utility.yul\":6699:6745   */\n              swap2\n              pop\n                /* \"#utility.yul\":6476:6751   */\n              pop\n                /* \"#utility.yul\":6394:6751   */\n              swap3\n              swap2\n              pop\n              pop\n              jump\t// out\n                /* \"#utility.yul\":6823:7430   */\n            tag_88:\n                /* \"#utility.yul\":6936:6939   */\n              0x00\n                /* \"#utility.yul\":6972:6976   */\n              0x40\n                /* \"#utility.yul\":6967:6970   */\n              dup4\n                /* \"#utility.yul\":6963:6977   */\n              add\n                /* \"#utility.yul\":7066:7070   */\n              0x00\n                /* \"#utility.yul\":7059:7064   */\n              dup4\n                /* \"#utility.yul\":7055:7071   */\n              add\n                /* \"#utility.yul\":7049:7072   */\n              mload\n                /* \"#utility.yul\":7085:7148   */\n              tag_187\n                /* \"#utility.yul\":7142:7146   */\n              0x00\n                /* \"#utility.yul\":7137:7140   */\n              dup7\n                /* \"#utility.yul\":7133:7147   */\n              add\n                /* \"#utility.yul\":7119:7131   */\n              dup3\n                /* \"#utility.yul\":7085:7148   */\n              tag_85\n              jump\t// in\n            tag_187:\n                /* \"#utility.yul\":6987:7158   */\n              pop\n                /* \"#utility.yul\":7240:7244   */\n              0x20\n                /* \"#utility.yul\":7233:7238   */\n              dup4\n                /* \"#utility.yul\":7229:7245   */\n              add\n                /* \"#utility.yul\":7223:7246   */\n              mload\n                /* \"#utility.yul\":7293:7296   */\n              dup5\n                /* \"#utility.yul\":7287:7291   */\n              dup3\n                /* \"#utility.yul\":7283:7297   */\n              sub\n                /* \"#utility.yul\":7276:7280   */\n              0x20\n                /* \"#utility.yul\":7271:7274   */\n              dup7\n                /* \"#utility.yul\":7267:7281   */\n              add\n                /* \"#utility.yul\":7260:7298   */\n              mstore\n                /* \"#utility.yul\":7319:7392   */\n              tag_188\n                /* \"#utility.yul\":7387:7391   */\n              dup3\n                /* \"#utility.yul\":7373:7385   */\n              dup3\n                /* \"#utility.yul\":7319:7392   */\n              tag_87\n              jump\t// in\n            tag_188:\n                /* \"#utility.yul\":7311:7392   */\n              swap2\n              pop\n                /* \"#utility.yul\":7168:7403   */\n              pop\n                /* \"#utility.yul\":7420:7424   */\n              dup1\n                /* \"#utility.yul\":7413:7424   */\n              swap2\n              pop\n                /* \"#utility.yul\":6941:7430   */\n              pop\n                /* \"#utility.yul\":6823:7430   */\n              swap3\n              swap2\n              pop\n              pop\n              jump\t// out\n                /* \"#utility.yul\":7436:7797   */\n            tag_32:\n                /* \"#utility.yul\":7573:7577   */\n              0x00\n                /* \"#utility.yul\":7611:7613   */\n              0x20\n                /* \"#utility.yul\":7600:7609   */\n              dup3\n                /* \"#utility.yul\":7596:7614   */\n              add\n                /* \"#utility.yul\":7588:7614   */\n              swap1\n              pop\n                /* \"#utility.yul\":7660:7669   */\n              dup2\n                /* \"#utility.yul\":7654:7658   */\n              dup2\n                /* \"#utility.yul\":7650:7670   */\n              sub\n                /* \"#utility.yul\":7646:7647   */\n              0x00\n                /* \"#utility.yul\":7635:7644   */\n              dup4\n                /* \"#utility.yul\":7631:7648   */\n              add\n                /* \"#utility.yul\":7624:7671   */\n              mstore\n                /* \"#utility.yul\":7688:7790   */\n              tag_190\n                /* \"#utility.yul\":7785:7789   */\n              dup2\n                /* \"#utility.yul\":7776:7782   */\n              dup5\n                /* \"#utility.yul\":7688:7790   */\n              tag_88\n              jump\t// in\n            tag_190:\n                /* \"#utility.yul\":7680:7790   */\n              swap1\n              pop\n                /* \"#utility.yul\":7436:7797   */\n              swap3\n              swap2\n              pop\n              pop\n              jump\t// out\n                /* \"#utility.yul\":7803:7983   */\n            tag_89:\n                /* \"#utility.yul\":7851:7928   */\n              0x4e487b7100000000000000000000000000000000000000000000000000000000\n                /* \"#utility.yul\":7848:7849   */\n              0x00\n                /* \"#utility.yul\":7841:7929   */\n              mstore\n                /* \"#utility.yul\":7948:7952   */\n              0x22\n                /* \"#utility.yul\":7945:7946   */\n              0x04\n                /* \"#utility.yul\":7938:7953   */\n              mstore\n                /* \"#utility.yul\":7972:7976   */\n              0x24\n                /* \"#utility.yul\":7969:7970   */\n              0x00\n                /* \"#utility.yul\":7962:7977   */\n              revert\n                /* \"#utility.yul\":7989:8309   */\n            tag_46:\n                /* \"#utility.yul\":8033:8039   */\n              0x00\n                /* \"#utility.yul\":8070:8071   */\n              0x02\n                /* \"#utility.yul\":8064:8068   */\n              dup3\n                /* \"#utility.yul\":8060:8072   */\n              div\n                /* \"#utility.yul\":8050:8072   */\n              swap1\n              pop\n                /* \"#utility.yul\":8117:8118   */\n              0x01\n                /* \"#utility.yul\":8111:8115   */\n              dup3\n                /* \"#utility.yul\":8107:8119   */\n              and\n                /* \"#utility.yul\":8138:8156   */\n              dup1\n                /* \"#utility.yul\":8128:8209   */\n              tag_193\n              jumpi\n                /* \"#utility.yul\":8194:8198   */\n              0x7f\n                /* \"#utility.yul\":8186:8192   */\n              dup3\n                /* \"#utility.yul\":8182:8199   */\n              and\n                /* \"#utility.yul\":8172:8199   */\n              swap2\n              pop\n                /* \"#utility.yul\":8128:8209   */\n            tag_193:\n                /* \"#utility.yul\":8256:8258   */\n              0x20\n                /* \"#utility.yul\":8248:8254   */\n              dup3\n                /* \"#utility.yul\":8245:8259   */\n              lt\n                /* \"#utility.yul\":8225:8243   */\n              dup2\n                /* \"#utility.yul\":8222:8260   */\n              sub\n                /* \"#utility.yul\":8219:8303   */\n              tag_194\n              jumpi\n                /* \"#utility.yul\":8275:8293   */\n              tag_195\n              tag_89\n              jump\t// in\n            tag_195:\n                /* \"#utility.yul\":8219:8303   */\n            tag_194:\n                /* \"#utility.yul\":8040:8309   */\n              pop\n                /* \"#utility.yul\":7989:8309   */\n              swap2\n              swap1\n              pop\n              jump\t// out\n                /* \"#utility.yul\":8315:8456   */\n            tag_90:\n                /* \"#utility.yul\":8364:8368   */\n              0x00\n                /* \"#utility.yul\":8387:8390   */\n              dup2\n                /* \"#utility.yul\":8379:8390   */\n              swap1\n              pop\n                /* \"#utility.yul\":8410:8413   */\n              dup2\n                /* \"#utility.yul\":8407:8408   */\n              0x00\n                /* \"#utility.yul\":8400:8414   */\n              mstore\n                /* \"#utility.yul\":8444:8448   */\n              0x20\n                /* \"#utility.yul\":8441:8442   */\n              0x00\n                /* \"#utility.yul\":8431:8449   */\n              keccak256\n                /* \"#utility.yul\":8423:8449   */\n              swap1\n              pop\n                /* \"#utility.yul\":8315:8456   */\n              swap2\n              swap1\n              pop\n              jump\t// out\n                /* \"#utility.yul\":8462:8555   */\n            tag_91:\n                /* \"#utility.yul\":8499:8505   */\n              0x00\n                /* \"#utility.yul\":8546:8548   */\n              0x20\n                /* \"#utility.yul\":8541:8543   */\n              0x1f\n                /* \"#utility.yul\":8534:8539   */\n              dup4\n                /* \"#utility.yul\":8530:8544   */\n              add\n                /* \"#utility.yul\":8526:8549   */\n              div\n                /* \"#utility.yul\":8516:8549   */\n              swap1\n              pop\n                /* \"#utility.yul\":8462:8555   */\n              swap2\n              swap1\n              pop\n              jump\t// out\n                /* \"#utility.yul\":8561:8668   */\n            tag_92:\n                /* \"#utility.yul\":8605:8613   */\n              0x00\n                /* \"#utility.yul\":8655:8660   */\n              dup3\n                /* \"#utility.yul\":8649:8653   */\n              dup3\n                /* \"#utility.yul\":8645:8661   */\n              shl\n                /* \"#utility.yul\":8624:8661   */\n              swap1\n              pop\n                /* \"#utility.yul\":8561:8668   */\n              swap3\n              swap2\n              pop\n              pop\n              jump\t// out\n                /* \"#utility.yul\":8674:9067   */\n            tag_93:\n                /* \"#utility.yul\":8743:8749   */\n              0x00\n                /* \"#utility.yul\":8793:8794   */\n              0x08\n                /* \"#utility.yul\":8781:8791   */\n              dup4\n                /* \"#utility.yul\":8777:8795   */\n              mul\n                /* \"#utility.yul\":8816:8913   */\n              tag_200\n                /* \"#utility.yul\":8846:8912   */\n              0xffffffffffffffffffffffffffffffffffffffffffffffffffffffffffffffff\n                /* \"#utility.yul\":8835:8844   */\n              dup3\n                /* \"#utility.yul\":8816:8913   */\n              tag_92\n              jump\t// in\n            tag_200:\n                /* \"#utility.yul\":8934:8973   */\n              tag_201\n                /* \"#utility.yul\":8964:8972   */\n              dup7\n                /* \"#utility.yul\":8953:8962   */\n              dup4\n                /* \"#utility.yul\":8934:8973   */\n              tag_92\n              jump\t// in\n            tag_201:\n                /* \"#utility.yul\":8922:8973   */\n              swap6\n              pop\n                /* \"#utility.yul\":9006:9010   */\n              dup1\n                /* \"#utility.yul\":9002:9011   */\n              not\n                /* \"#utility.yul\":8995:9000   */\n              dup5\n                /* \"#utility.yul\":8991:9012   */\n              and\n                /* \"#utility.yul\":8982:9012   */\n              swap4\n              pop\n                /* \"#utility.yul\":9055:9059   */\n              dup1\n                /* \"#utility.yul\":9045:9053   */\n              dup7\n                /* \"#utility.yul\":9041:9060   */\n              and\n                /* \"#utility.yul\":9034:9039   */\n              dup5\n                /* \"#utility.yul\":9031:9061   */\n              or\n                /* \"#utility.yul\":9021:9061   */\n              swap3\n              pop\n                /* \"#utility.yul\":8750:9067   */\n              pop\n              pop\n                /* \"#utility.yul\":8674:9067   */\n              swap4\n              swap3\n              pop\n              pop\n              pop\n              jump\t// out\n                /* \"#utility.yul\":9073:9133   */\n            tag_94:\n                /* \"#utility.yul\":9101:9104   */\n              0x00\n                /* \"#utility.yul\":9122:9127   */\n              dup2\n                /* \"#utility.yul\":9115:9127   */\n              swap1\n              pop\n                /* \"#utility.yul\":9073:9133   */\n              swap2\n              swap1\n              pop\n              jump\t// out\n                /* \"#utility.yul\":9139:9281   */\n            tag_95:\n                /* \"#utility.yul\":9189:9198   */\n              0x00\n                /* \"#utility.yul\":9222:9275   */\n              tag_204\n                /* \"#utility.yul\":9240:9274   */\n              tag_205\n                /* \"#utility.yul\":9249:9273   */\n              tag_206\n                /* \"#utility.yul\":9267:9272   */\n              dup5\n                /* \"#utility.yul\":9249:9273   */\n              tag_77\n              jump\t// in\n            tag_206:\n                /* \"#utility.yul\":9240:9274   */\n              tag_94\n              jump\t// in\n            tag_205:\n                /* \"#utility.yul\":9222:9275   */\n              tag_77\n              jump\t// in\n            tag_204:\n                /* \"#utility.yul\":9209:9275   */\n              swap1\n              pop\n                /* \"#utility.yul\":9139:9281   */\n              swap2\n              swap1\n              pop\n              jump\t// out\n                /* \"#utility.yul\":9287:9362   */\n            tag_96:\n                /* \"#utility.yul\":9330:9333   */\n              0x00\n                /* \"#utility.yul\":9351:9356   */\n              dup2\n                /* \"#utility.yul\":9344:9356   */\n              swap1\n              pop\n                /* \"#utility.yul\":9287:9362   */\n              swap2\n              swap1\n              pop\n              jump\t// out\n                /* \"#utility.yul\":9368:9637   */\n            tag_97:\n                /* \"#utility.yul\":9478:9517   */\n              tag_209\n                /* \"#utility.yul\":9509:9516   */\n              dup4\n                /* \"#utility.yul\":9478:9517   */\n              tag_95\n              jump\t// in\n            tag_209:\n                /* \"#utility.yul\":9539:9630   */\n              tag_210\n                /* \"#utility.yul\":9588:9629   */\n              tag_211\n                /* \"#utility.yul\":9612:9628   */\n              dup3\n                /* \"#utility.yul\":9588:9629   */\n              tag_96\n              jump\t// in\n            tag_211:\n                /* \"#utility.yul\":9580:9586   */\n              dup5\n                /* \"#utility.yul\":9573:9577   */\n              dup5\n                /* \"#utility.yul\":9567:9578   */\n              sload\n                /* \"#utility.yul\":9539:9630   */\n              tag_93\n              jump\t// in\n            tag_210:\n                /* \"#utility.yul\":9533:9537   */\n              dup3\n                /* \"#utility.yul\":9526:9631   */\n              sstore\n                /* \"#utility.yul\":9444:9637   */\n              pop\n                /* \"#utility.yul\":9368:9637   */\n              pop\n              pop\n              pop\n              jump\t// out\n                /* \"#utility.yul\":9643:9716   */\n            tag_98:\n                /* \"#utility.yul\":9688:9691   */\n              0x00\n                /* \"#utility.yul\":9643:9716   */\n              swap1\n              jump\t// out\n                /* \"#utility.yul\":9722:9911   */\n            tag_99:\n                /* \"#utility.yul\":9799:9831   */\n              tag_214\n              tag_98\n              jump\t// in\n            tag_214:\n                /* \"#utility.yul\":9840:9905   */\n              tag_215\n                /* \"#utility.yul\":9898:9904   */\n              dup2\n                /* \"#utility.yul\":9890:9896   */\n              dup5\n                /* \"#utility.yul\":9884:9888   */\n              dup5\n                /* \"#utility.yul\":9840:9905   */\n              tag_97\n              jump\t// in\n            tag_215:\n                /* \"#utility.yul\":9775:9911   */\n              pop\n                /* \"#utility.yul\":9722:9911   */\n              pop\n              pop\n              jump\t// out\n                /* \"#utility.yul\":9917:10103   */\n            tag_100:\n                /* \"#utility.yul\":9977:10097   */\n            tag_217:\n                /* \"#utility.yul\":9994:9997   */\n              dup2\n                /* \"#utility.yul\":9987:9992   */\n              dup2\n                /* \"#utility.yul\":9984:9998   */\n              lt\n                /* \"#utility.yul\":9977:10097   */\n              iszero\n              tag_219\n              jumpi\n                /* \"#utility.yul\":10048:10087   */\n              tag_220\n                /* \"#utility.yul\":10085:10086   */\n              0x00\n                /* \"#utility.yul\":10078:10083   */\n              dup3\n                /* \"#utility.yul\":10048:10087   */\n              tag_99\n              jump\t// in\n            tag_220:\n                /* \"#utility.yul\":10021:10022   */\n              0x01\n                /* \"#utility.yul\":10014:10019   */\n              dup2\n                /* \"#utility.yul\":10010:10023   */\n              add\n                /* \"#utility.yul\":10001:10023   */\n              swap1\n              pop\n                /* \"#utility.yul\":9977:10097   */\n              jump(tag_217)\n            tag_219:\n                /* \"#utility.yul\":9917:10103   */\n              pop\n              pop\n              jump\t// out\n                /* \"#utility.yul\":10109:10652   */\n            tag_101:\n                /* \"#utility.yul\":10210:10212   */\n              0x1f\n                /* \"#utility.yul\":10205:10208   */\n              dup3\n                /* \"#utility.yul\":10202:10213   */\n              gt\n                /* \"#utility.yul\":10199:10645   */\n              iszero\n              tag_222\n              jumpi\n                /* \"#utility.yul\":10244:10282   */\n              tag_223\n                /* \"#utility.yul\":10276:10281   */\n              dup2\n                /* \"#utility.yul\":10244:10282   */\n              tag_90\n              jump\t// in\n            tag_223:\n                /* \"#utility.yul\":10328:10357   */\n              tag_224\n                /* \"#utility.yul\":10346:10356   */\n              dup5\n                /* \"#utility.yul\":10328:10357   */\n              tag_91\n              jump\t// in\n            tag_224:\n                /* \"#utility.yul\":10318:10326   */\n              dup2\n                /* \"#utility.yul\":10314:10358   */\n              add\n                /* \"#utility.yul\":10511:10513   */\n              0x20\n                /* \"#utility.yul\":10499:10509   */\n              dup6\n                /* \"#utility.yul\":10496:10514   */\n              lt\n                /* \"#utility.yul\":10493:10542   */\n              iszero\n              tag_225\n              jumpi\n                /* \"#utility.yul\":10532:10540   */\n              dup2\n                /* \"#utility.yul\":10517:10540   */\n              swap1\n              pop\n                /* \"#utility.yul\":10493:10542   */\n            tag_225:\n                /* \"#utility.yul\":10555:10635   */\n              tag_226\n                /* \"#utility.yul\":10611:10633   */\n              tag_227\n                /* \"#utility.yul\":10629:10632   */\n              dup6\n                /* \"#utility.yul\":10611:10633   */\n              tag_91\n              jump\t// in\n            tag_227:\n                /* \"#utility.yul\":10601:10609   */\n              dup4\n                /* \"#utility.yul\":10597:10634   */\n              add\n                /* \"#utility.yul\":10584:10595   */\n              dup3\n                /* \"#utility.yul\":10555:10635   */\n              tag_100\n              jump\t// in\n            tag_226:\n                /* \"#utility.yul\":10214:10645   */\n              pop\n              pop\n                /* \"#utility.yul\":10199:10645   */\n            tag_222:\n                /* \"#utility.yul\":10109:10652   */\n              pop\n              pop\n              pop\n              jump\t// out\n                /* \"#utility.yul\":10658:10775   */\n            tag_102:\n                /* \"#utility.yul\":10712:10720   */\n              0x00\n                /* \"#utility.yul\":10762:10767   */\n              dup3\n                /* \"#utility.yul\":10756:10760   */\n              dup3\n                /* \"#utility.yul\":10752:10768   */\n              shr\n                /* \"#utility.yul\":10731:10768   */\n              swap1\n              pop\n                /* \"#utility.yul\":10658:10775   */\n              swap3\n              swap2\n              pop\n              pop\n              jump\t// out\n                /* \"#utility.yul\":10781:10950   */\n            tag_103:\n                /* \"#utility.yul\":10825:10831   */\n              0x00\n                /* \"#utility.yul\":10858:10909   */\n              tag_230\n                /* \"#utility.yul\":10906:10907   */\n              0x00\n                /* \"#utility.yul\":10902:10908   */\n              not\n                /* \"#utility.yul\":10894:10899   */\n              dup5\n                /* \"#utility.yul\":10891:10892   */\n              0x08\n                /* \"#utility.yul\":10887:10900   */\n              mul\n                /* \"#utility.yul\":10858:10909   */\n              tag_102\n              jump\t// in\n            tag_230:\n                /* \"#utility.yul\":10854:10910   */\n              not\n                /* \"#utility.yul\":10939:10943   */\n              dup1\n                /* \"#utility.yul\":10933:10937   */\n              dup4\n                /* \"#utility.yul\":10929:10944   */\n              and\n                /* \"#utility.yul\":10919:10944   */\n              swap2\n              pop\n                /* \"#utility.yul\":10832:10950   */\n              pop\n                /* \"#utility.yul\":10781:10950   */\n              swap3\n              swap2\n              pop\n              pop\n              jump\t// out\n                /* \"#utility.yul\":10955:11250   */\n            tag_104:\n                /* \"#utility.yul\":11031:11035   */\n              0x00\n                /* \"#utility.yul\":11177:11206   */\n              tag_232\n                /* \"#utility.yul\":11202:11205   */\n              dup4\n                /* \"#utility.yul\":11196:11200   */\n              dup4\n                /* \"#utility.yul\":11177:11206   */\n              tag_103\n              jump\t// in\n            tag_232:\n                /* \"#utility.yul\":11169:11206   */\n              swap2\n              pop\n                /* \"#utility.yul\":11239:11242   */\n              dup3\n                /* \"#utility.yul\":11236:11237   */\n              0x02\n                /* \"#utility.yul\":11232:11243   */\n              mul\n                /* \"#utility.yul\":11226:11230   */\n              dup3\n                /* \"#utility.yul\":11223:11244   */\n              or\n                /* \"#utility.yul\":11215:11244   */\n              swap1\n              pop\n                /* \"#utility.yul\":10955:11250   */\n              swap3\n              swap2\n              pop\n              pop\n              jump\t// out\n                /* \"#utility.yul\":11255:12650   */\n            tag_40:\n                /* \"#utility.yul\":11372:11409   */\n              tag_234\n                /* \"#utility.yul\":11405:11408   */\n              dup3\n                /* \"#utility.yul\":11372:11409   */\n              tag_81\n              jump\t// in\n            tag_234:\n                /* \"#utility.yul\":11474:11492   */\n              0xffffffffffffffff\n                /* \"#utility.yul\":11466:11472   */\n              dup2\n                /* \"#utility.yul\":11463:11493   */\n              gt\n                /* \"#utility.yul\":11460:11516   */\n              iszero\n              tag_235\n              jumpi\n                /* \"#utility.yul\":11496:11514   */\n              tag_236\n              tag_70\n              jump\t// in\n            tag_236:\n                /* \"#utility.yul\":11460:11516   */\n            tag_235:\n                /* \"#utility.yul\":11540:11578   */\n              tag_237\n                /* \"#utility.yul\":11572:11576   */\n              dup3\n                /* \"#utility.yul\":11566:11577   */\n              sload\n                /* \"#utility.yul\":11540:11578   */\n              tag_46\n              jump\t// in\n            tag_237:\n                /* \"#utility.yul\":11625:11692   */\n              tag_238\n                /* \"#utility.yul\":11685:11691   */\n              dup3\n                /* \"#utility.yul\":11677:11683   */\n              dup3\n                /* \"#utility.yul\":11671:11675   */\n              dup6\n                /* \"#utility.yul\":11625:11692   */\n              tag_101\n              jump\t// in\n            tag_238:\n                /* \"#utility.yul\":11719:11720   */\n              0x00\n                /* \"#utility.yul\":11743:11747   */\n              0x20\n                /* \"#utility.yul\":11730:11747   */\n              swap1\n              pop\n                /* \"#utility.yul\":11775:11777   */\n              0x1f\n                /* \"#utility.yul\":11767:11773   */\n              dup4\n                /* \"#utility.yul\":11764:11778   */\n              gt\n                /* \"#utility.yul\":11792:11793   */\n              0x01\n                /* \"#utility.yul\":11787:12405   */\n              dup2\n              eq\n              tag_240\n              jumpi\n                /* \"#utility.yul\":12449:12450   */\n              0x00\n                /* \"#utility.yul\":12466:12472   */\n              dup5\n                /* \"#utility.yul\":12463:12540   */\n              iszero\n              tag_241\n              jumpi\n                /* \"#utility.yul\":12515:12524   */\n              dup3\n                /* \"#utility.yul\":12510:12513   */\n              dup8\n                /* \"#utility.yul\":12506:12525   */\n              add\n                /* \"#utility.yul\":12500:12526   */\n              mload\n                /* \"#utility.yul\":12491:12526   */\n              swap1\n              pop\n                /* \"#utility.yul\":12463:12540   */\n            tag_241:\n                /* \"#utility.yul\":12566:12633   */\n              tag_242\n                /* \"#utility.yul\":12626:12632   */\n              dup6\n                /* \"#utility.yul\":12619:12624   */\n              dup3\n                /* \"#utility.yul\":12566:12633   */\n              tag_104\n              jump\t// in\n            tag_242:\n                /* \"#utility.yul\":12560:12564   */\n              dup7\n                /* \"#utility.yul\":12553:12634   */\n              sstore\n                /* \"#utility.yul\":12422:12644   */\n              pop\n                /* \"#utility.yul\":11757:12644   */\n              jump(tag_239)\n                /* \"#utility.yul\":11787:12405   */\n            tag_240:\n                /* \"#utility.yul\":11839:11843   */\n              0x1f\n                /* \"#utility.yul\":11835:11844   */\n              not\n                /* \"#utility.yul\":11827:11833   */\n              dup5\n                /* \"#utility.yul\":11823:11845   */\n              and\n                /* \"#utility.yul\":11873:11910   */\n              tag_243\n                /* \"#utility.yul\":11905:11909   */\n              dup7\n                /* \"#utility.yul\":11873:11910   */\n              tag_90\n              jump\t// in\n            tag_243:\n                /* \"#utility.yul\":11932:11933   */\n              0x00\n                /* \"#utility.yul\":11946:12154   */\n            tag_244:\n                /* \"#utility.yul\":11960:11967   */\n              dup3\n                /* \"#utility.yul\":11957:11958   */\n              dup2\n                /* \"#utility.yul\":11954:11968   */\n              lt\n                /* \"#utility.yul\":11946:12154   */\n              iszero\n              tag_246\n              jumpi\n                /* \"#utility.yul\":12039:12048   */\n              dup5\n                /* \"#utility.yul\":12034:12037   */\n              dup10\n                /* \"#utility.yul\":12030:12049   */\n              add\n                /* \"#utility.yul\":12024:12050   */\n              mload\n                /* \"#utility.yul\":12016:12022   */\n              dup3\n                /* \"#utility.yul\":12009:12051   */\n              sstore\n                /* \"#utility.yul\":12090:12091   */\n              0x01\n                /* \"#utility.yul\":12082:12088   */\n              dup3\n                /* \"#utility.yul\":12078:12092   */\n              add\n                /* \"#utility.yul\":12068:12092   */\n              swap2\n              pop\n                /* \"#utility.yul\":12137:12139   */\n              0x20\n                /* \"#utility.yul\":12126:12135   */\n              dup6\n                /* \"#utility.yul\":12122:12140   */\n              add\n                /* \"#utility.yul\":12109:12140   */\n              swap5\n              pop\n                /* \"#utility.yul\":11983:11987   */\n              0x20\n                /* \"#utility.yul\":11980:11981   */\n              dup2\n                /* \"#utility.yul\":11976:11988   */\n              add\n                /* \"#utility.yul\":11971:11988   */\n              swap1\n              pop\n                /* \"#utility.yul\":11946:12154   */\n              jump(tag_244)\n            tag_246:\n                /* \"#utility.yul\":12182:12188   */\n              dup7\n                /* \"#utility.yul\":12173:12180   */\n              dup4\n                /* \"#utility.yul\":12170:12189   */\n              lt\n                /* \"#utility.yul\":12167:12346   */\n              iszero\n              tag_247\n              jumpi\n                /* \"#utility.yul\":12240:12249   */\n              dup5\n                /* \"#utility.yul\":12235:12238   */\n              dup10\n                /* \"#utility.yul\":12231:12250   */\n              add\n                /* \"#utility.yul\":12225:12251   */\n              mload\n                /* \"#utility.yul\":12283:12331   */\n              tag_248\n                /* \"#utility.yul\":12325:12329   */\n              0x1f\n                /* \"#utility.yul\":12317:12323   */\n              dup10\n                /* \"#utility.yul\":12313:12330   */\n              and\n                /* \"#utility.yul\":12302:12311   */\n              dup3\n                /* \"#utility.yul\":12283:12331   */\n              tag_103\n              jump\t// in\n            tag_248:\n                /* \"#utility.yul\":12275:12281   */\n              dup4\n                /* \"#utility.yul\":12268:12332   */\n              sstore\n                /* \"#utility.yul\":12190:12346   */\n              pop\n                /* \"#utility.yul\":12167:12346   */\n            tag_247:\n                /* \"#utility.yul\":12392:12393   */\n              0x01\n                /* \"#utility.yul\":12388:12389   */\n              0x02\n                /* \"#utility.yul\":12380:12386   */\n              dup9\n                /* \"#utility.yul\":12376:12390   */\n              mul\n                /* \"#utility.yul\":12372:12394   */\n              add\n                /* \"#utility.yul\":12366:12370   */\n              dup9\n                /* \"#utility.yul\":12359:12395   */\n              sstore\n                /* \"#utility.yul\":11794:12405   */\n              pop\n              pop\n              pop\n                /* \"#utility.yul\":11757:12644   */\n            tag_239:\n              pop\n                /* \"#utility.yul\":11347:12650   */\n              pop\n              pop\n              pop\n                /* \"#utility.yul\":11255:12650   */\n              pop\n              pop\n              jump\t// out\n                /* \"#utility.yul\":12656:12804   */\n            tag_105:\n                /* \"#utility.yul\":12758:12769   */\n              0x00\n                /* \"#utility.yul\":12795:12798   */\n              dup2\n                /* \"#utility.yul\":12780:12798   */\n              swap1\n              pop\n                /* \"#utility.yul\":12656:12804   */\n              swap3\n              swap2\n              pop\n              pop\n              jump\t// out\n                /* \"#utility.yul\":12810:13200   */\n            tag_106:\n                /* \"#utility.yul\":12916:12919   */\n              0x00\n                /* \"#utility.yul\":12944:12983   */\n              tag_251\n                /* \"#utility.yul\":12977:12982   */\n              dup3\n                /* \"#utility.yul\":12944:12983   */\n              tag_81\n              jump\t// in\n            tag_251:\n                /* \"#utility.yul\":12999:13088   */\n              tag_252\n                /* \"#utility.yul\":13081:13087   */\n              dup2\n                /* \"#utility.yul\":13076:13079   */\n              dup6\n                /* \"#utility.yul\":12999:13088   */\n              tag_105\n              jump\t// in\n            tag_252:\n                /* \"#utility.yul\":12992:13088   */\n              swap4\n              pop\n                /* \"#utility.yul\":13097:13162   */\n              tag_253\n                /* \"#utility.yul\":13155:13161   */\n              dup2\n                /* \"#utility.yul\":13150:13153   */\n              dup6\n                /* \"#utility.yul\":13143:13147   */\n              0x20\n                /* \"#utility.yul\":13136:13141   */\n              dup7\n                /* \"#utility.yul\":13132:13148   */\n              add\n                /* \"#utility.yul\":13097:13162   */\n              tag_83\n              jump\t// in\n            tag_253:\n                /* \"#utility.yul\":13187:13193   */\n              dup1\n                /* \"#utility.yul\":13182:13185   */\n              dup5\n                /* \"#utility.yul\":13178:13194   */\n              add\n                /* \"#utility.yul\":13171:13194   */\n              swap2\n              pop\n                /* \"#utility.yul\":12920:13200   */\n              pop\n                /* \"#utility.yul\":12810:13200   */\n              swap3\n              swap2\n              pop\n              pop\n              jump\t// out\n                /* \"#utility.yul\":13206:13481   */\n            tag_42:\n                /* \"#utility.yul\":13338:13341   */\n              0x00\n                /* \"#utility.yul\":13360:13455   */\n              tag_255\n                /* \"#utility.yul\":13451:13454   */\n              dup3\n                /* \"#utility.yul\":13442:13448   */\n              dup5\n                /* \"#utility.yul\":13360:13455   */\n              tag_106\n              jump\t// in\n            tag_255:\n                /* \"#utility.yul\":13353:13455   */\n              swap2\n              pop\n                /* \"#utility.yul\":13472:13475   */\n              dup2\n                /* \"#utility.yul\":13465:13475   */\n              swap1\n              pop\n                /* \"#utility.yul\":13206:13481   */\n              swap3\n              swap2\n              pop\n              pop\n              jump\t// out\n                /* \"#utility.yul\":13487:13667   */\n            tag_56:\n                /* \"#utility.yul\":13535:13612   */\n              0x4e487b7100000000000000000000000000000000000000000000000000000000\n                /* \"#utility.yul\":13532:13533   */\n              0x00\n                /* \"#utility.yul\":13525:13613   */\n              mstore\n                /* \"#utility.yul\":13632:13636   */\n              0x32\n                /* \"#utility.yul\":13629:13630   */\n              0x04\n                /* \"#utility.yul\":13622:13637   */\n              mstore\n                /* \"#utility.yul\":13656:13660   */\n              0x24\n                /* \"#utility.yul\":13653:13654   */\n              0x00\n                /* \"#utility.yul\":13646:13661   */\n              revert\n\n            auxdata: 0xa264697066735822122077ae034bfc5db82bd52a6300f86d60ecb38230b073a35988bef26e4bab40d9ee64736f6c63430008180033\n        }\n    }\n\n    auxdata: 0xa26469706673582212207bc2d4580b4528f647e904e4d2fab7a49acc0b9ec47192a43b1208181f415a2864736f6c63430008180033\n}\n",
				"bytecode": {
					"linkReferences": {},
					"object": "608060405234801561000f575f80fd5b50611bc98061001d5f395ff3fe608060405234801562000010575f80fd5b506004361062000068575f3560e01c80631563700f146200006c5780631dda6541146200008c5780633df9b366146200009857806364591bf114620000b8578063a40885d314620000ee578063c5f19c201462000124575b5f80fd5b6200008a600480360381019062000084919062000583565b6200015a565b005b620000966200020a565b005b620000b66004803603810190620000b0919062000720565b62000298565b005b620000d66004803603810190620000d0919062000798565b6200034b565b604051620000e591906200084e565b60405180910390f35b6200010c600480360381019062000106919062000798565b62000386565b6040516200011b91906200093c565b60405180910390f35b6200014260048036038101906200013c919062000798565b62000459565b6040516200015191906200096f565b60405180910390f35b5f8083815481106200017157620001706200098a565b5b905f5260205f20015f9054906101000a900473ffffffffffffffffffffffffffffffffffffffff1690508073ffffffffffffffffffffffffffffffffffffffff1663d1e04b5b836040518263ffffffff1660e01b8152600401620001d691906200096f565b5f604051808303815f87803b158015620001ee575f80fd5b505af115801562000201573d5f803e3d5ffd5b50505050505050565b5f604051620002199062000513565b604051809103905ff08015801562000233573d5f803e3d5ffd5b5090505f81908060018154018082558091505060019003905f5260205f20015f9091909190916101000a81548173ffffffffffffffffffffffffffffffffffffffff021916908373ffffffffffffffffffffffffffffffffffffffff16021790555050565b5f808481548110620002af57620002ae6200098a565b5b905f5260205f20015f9054906101000a900473ffffffffffffffffffffffffffffffffffffffff1690508073ffffffffffffffffffffffffffffffffffffffff16636f760f4184846040518363ffffffff1660e01b81526004016200031692919062000a07565b5f604051808303815f87803b1580156200032e575f80fd5b505af115801562000341573d5f803e3d5ffd5b5050505050505050565b5f81815481106200035a575f80fd5b905f5260205f20015f915054906101000a900473ffffffffffffffffffffffffffffffffffffffff1681565b6200039062000521565b5f808381548110620003a757620003a66200098a565b5b905f5260205f20015f9054906101000a900473ffffffffffffffffffffffffffffffffffffffff1690508073ffffffffffffffffffffffffffffffffffffffff1663a40885d35f6040518263ffffffff1660e01b81526004016200040c919062000a7a565b5f60405180830381865afa15801562000427573d5f803e3d5ffd5b505050506040513d5f823e3d601f19601f8201168201806040525081019062000451919062000ba4565b915050919050565b5f805f83815481106200047157620004706200098a565b5b905f5260205f20015f9054906101000a900473ffffffffffffffffffffffffffffffffffffffff1690508073ffffffffffffffffffffffffffffffffffffffff16632e64cec16040518163ffffffff1660e01b8152600401602060405180830381865afa158015620004e5573d5f803e3d5ffd5b505050506040513d601f19601f820116820180604052508101906200050b919062000bf3565b915050919050565b610f708062000c2483390190565b60405180604001604052805f8152602001606081525090565b5f604051905090565b5f80fd5b5f80fd5b5f819050919050565b6200055f816200054b565b81146200056a575f80fd5b50565b5f813590506200057d8162000554565b92915050565b5f80604083850312156200059c576200059b62000543565b5b5f620005ab858286016200056d565b9250506020620005be858286016200056d565b9150509250929050565b5f80fd5b5f80fd5b5f601f19601f8301169050919050565b7f4e487b71000000000000000000000000000000000000000000000000000000005f52604160045260245ffd5b6200061882620005d0565b810181811067ffffffffffffffff821117156200063a5762000639620005e0565b5b80604052505050565b5f6200064e6200053a565b90506200065c82826200060d565b919050565b5f67ffffffffffffffff8211156200067e576200067d620005e0565b5b6200068982620005d0565b9050602081019050919050565b828183375f83830152505050565b5f620006ba620006b48462000661565b62000643565b905082815260208101848484011115620006d957620006d8620005cc565b5b620006e684828562000696565b509392505050565b5f82601f830112620007055762000704620005c8565b5b813562000717848260208601620006a4565b91505092915050565b5f805f606084860312156200073a576200073962000543565b5b5f62000749868287016200056d565b935050602084013567ffffffffffffffff8111156200076d576200076c62000547565b5b6200077b86828701620006ee565b92505060406200078e868287016200056d565b9150509250925092565b5f60208284031215620007b057620007af62000543565b5b5f620007bf848285016200056d565b91505092915050565b5f73ffffffffffffffffffffffffffffffffffffffff82169050919050565b5f819050919050565b5f620008106200080a6200080484620007c8565b620007e7565b620007c8565b9050919050565b5f6200082382620007f0565b9050919050565b5f620008368262000817565b9050919050565b62000848816200082a565b82525050565b5f602082019050620008635f8301846200083d565b92915050565b62000874816200054b565b82525050565b5f81519050919050565b5f82825260208201905092915050565b5f5b83811015620008b357808201518184015260208101905062000896565b5f8484015250505050565b5f620008ca826200087a565b620008d6818562000884565b9350620008e881856020860162000894565b620008f381620005d0565b840191505092915050565b5f604083015f830151620009155f86018262000869565b50602083015184820360208601526200092f8282620008be565b9150508091505092915050565b5f6020820190508181035f830152620009568184620008fe565b905092915050565b62000969816200054b565b82525050565b5f602082019050620009845f8301846200095e565b92915050565b7f4e487b71000000000000000000000000000000000000000000000000000000005f52603260045260245ffd5b5f82825260208201905092915050565b5f620009d3826200087a565b620009df8185620009b7565b9350620009f181856020860162000894565b620009fc81620005d0565b840191505092915050565b5f6040820190508181035f83015262000a218185620009c7565b905062000a3260208301846200095e565b9392505050565b5f819050919050565b5f62000a6262000a5c62000a568462000a39565b620007e7565b6200054b565b9050919050565b62000a748162000a42565b82525050565b5f60208201905062000a8f5f83018462000a69565b92915050565b5f80fd5b5f80fd5b5f8151905062000aad8162000554565b92915050565b5f62000ac962000ac38462000661565b62000643565b90508281526020810184848401111562000ae85762000ae7620005cc565b5b62000af584828562000894565b509392505050565b5f82601f83011262000b145762000b13620005c8565b5b815162000b2684826020860162000ab3565b91505092915050565b5f6040828403121562000b475762000b4662000a95565b5b62000b53604062000643565b90505f62000b648482850162000a9d565b5f83015250602082015167ffffffffffffffff81111562000b8a5762000b8962000a99565b5b62000b988482850162000afd565b60208301525092915050565b5f6020828403121562000bbc5762000bbb62000543565b5b5f82015167ffffffffffffffff81111562000bdc5762000bdb62000547565b5b62000bea8482850162000b2f565b91505092915050565b5f6020828403121562000c0b5762000c0a62000543565b5b5f62000c1a8482850162000a9d565b9150509291505056fe60806040525f805f6101000a81548160ff021916908315150217905550607b600155600c6002556040518060400160405280600a81526020017f576f726b732066696e6500000000000000000000000000000000000000000000815250600390816200006c919062000380565b507ffffffffffffffffffffffffffffffffffffffffffffffffffffffffffffffffc6004557370997678dbd70bd5a7ec9289c25f079d00117cc460055f6101000a81548173ffffffffffffffffffffffffffffffffffffffff021916908373ffffffffffffffffffffffffffffffffffffffff1602179055507f636174000000000000000000000000000000000000000000000000000000000060065534801562000115575f80fd5b5062000464565b5f81519050919050565b7f4e487b71000000000000000000000000000000000000000000000000000000005f52604160045260245ffd5b7f4e487b71000000000000000000000000000000000000000000000000000000005f52602260045260245ffd5b5f60028204905060018216806200019857607f821691505b602082108103620001ae57620001ad62000153565b5b50919050565b5f819050815f5260205f209050919050565b5f6020601f8301049050919050565b5f82821b905092915050565b5f60088302620002127fffffffffffffffffffffffffffffffffffffffffffffffffffffffffffffffff82620001d5565b6200021e8683620001d5565b95508019841693508086168417925050509392505050565b5f819050919050565b5f819050919050565b5f62000268620002626200025c8462000236565b6200023f565b62000236565b9050919050565b5f819050919050565b620002838362000248565b6200029b62000292826200026f565b848454620001e1565b825550505050565b5f90565b620002b1620002a3565b620002be81848462000278565b505050565b5b81811015620002e557620002d95f82620002a7565b600181019050620002c4565b5050565b601f8211156200033457620002fe81620001b4565b6200030984620001c6565b8101602085101562000319578190505b620003316200032885620001c6565b830182620002c3565b50505b505050565b5f82821c905092915050565b5f620003565f198460080262000339565b1980831691505092915050565b5f62000370838362000345565b9150826002028217905092915050565b6200038b826200011c565b67ffffffffffffffff811115620003a757620003a662000126565b5b620003b3825462000180565b620003c0828285620002e9565b5f60209050601f831160018114620003f6575f8415620003e1578287015190505b620003ed858262000363565b8655506200045c565b601f1984166200040686620001b4565b5f5b828110156200042f5784890151825560018201915060208501945060208101905062000408565b868310156200044f57848901516200044b601f89168262000345565b8355505b6001600288020188555050505b505050505050565b610afe80620004725f395ff3fe608060405234801561000f575f80fd5b5060043610610060575f3560e01c806306c62c2c146100645780632e64cec1146100945780636f760f41146100b25780639e7a13ad146100ce578063a40885d3146100ff578063d1e04b5b1461012f575b5f80fd5b61007e60048036038101906100799190610502565b61014b565b60405161008b9190610561565b60405180910390f35b61009c610178565b6040516100a99190610561565b60405180910390f35b6100cc60048036038101906100c791906105a4565b610181565b005b6100e860048036038101906100e391906105fe565b610205565b6040516100f69291906106a3565b60405180910390f35b610119600480360381019061011491906105fe565b6102ba565b6040516101269190610762565b60405180910390f35b610149600480360381019061014491906105fe565b610392565b005b6008818051602081018201805184825260208301602085012081835280955050505050505f915090505481565b5f600754905090565b6009604051806040016040528083815260200184815250908060018154018082558091505060019003905f5260205f2090600202015f909190919091505f820151815f015560208201518160010190816101db919061097c565b505050806008836040516101ef9190610a85565b9081526020016040518091039020819055505050565b60098181548110610214575f80fd5b905f5260205f2090600202015f91509050805f015490806001018054610239906107af565b80601f0160208091040260200160405190810160405280929190818152602001828054610265906107af565b80156102b05780601f10610287576101008083540402835291602001916102b0565b820191905f5260205f20905b81548152906001019060200180831161029357829003601f168201915b5050505050905082565b6102c261039c565b5f600983815481106102d7576102d6610a9b565b5b905f5260205f2090600202016040518060400160405290815f8201548152602001600182018054610307906107af565b80601f0160208091040260200160405190810160405280929190818152602001828054610333906107af565b801561037e5780601f106103555761010080835404028352916020019161037e565b820191905f5260205f20905b81548152906001019060200180831161036157829003601f168201915b505050505081525050905080915050919050565b8060078190555050565b60405180604001604052805f8152602001606081525090565b5f604051905090565b5f80fd5b5f80fd5b5f80fd5b5f80fd5b5f601f19601f8301169050919050565b7f4e487b71000000000000000000000000000000000000000000000000000000005f52604160045260245ffd5b610414826103ce565b810181811067ffffffffffffffff82111715610433576104326103de565b5b80604052505050565b5f6104456103b5565b9050610451828261040b565b919050565b5f67ffffffffffffffff8211156104705761046f6103de565b5b610479826103ce565b9050602081019050919050565b828183375f83830152505050565b5f6104a66104a184610456565b61043c565b9050828152602081018484840111156104c2576104c16103ca565b5b6104cd848285610486565b509392505050565b5f82601f8301126104e9576104e86103c6565b5b81356104f9848260208601610494565b91505092915050565b5f60208284031215610517576105166103be565b5b5f82013567ffffffffffffffff811115610534576105336103c2565b5b610540848285016104d5565b91505092915050565b5f819050919050565b61055b81610549565b82525050565b5f6020820190506105745f830184610552565b92915050565b61058381610549565b811461058d575f80fd5b50565b5f8135905061059e8161057a565b92915050565b5f80604083850312156105ba576105b96103be565b5b5f83013567ffffffffffffffff8111156105d7576105d66103c2565b5b6105e3858286016104d5565b92505060206105f485828601610590565b9150509250929050565b5f60208284031215610613576106126103be565b5b5f61062084828501610590565b91505092915050565b5f81519050919050565b5f82825260208201905092915050565b5f5b83811015610660578082015181840152602081019050610645565b5f8484015250505050565b5f61067582610629565b61067f8185610633565b935061068f818560208601610643565b610698816103ce565b840191505092915050565b5f6040820190506106b65f830185610552565b81810360208301526106c8818461066b565b90509392505050565b6106da81610549565b82525050565b5f82825260208201905092915050565b5f6106fa82610629565b61070481856106e0565b9350610714818560208601610643565b61071d816103ce565b840191505092915050565b5f604083015f83015161073d5f8601826106d1565b506020830151848203602086015261075582826106f0565b9150508091505092915050565b5f6020820190508181035f83015261077a8184610728565b905092915050565b7f4e487b71000000000000000000000000000000000000000000000000000000005f52602260045260245ffd5b5f60028204905060018216806107c657607f821691505b6020821081036107d9576107d8610782565b5b50919050565b5f819050815f5260205f209050919050565b5f6020601f8301049050919050565b5f82821b905092915050565b5f6008830261083b7fffffffffffffffffffffffffffffffffffffffffffffffffffffffffffffffff82610800565b6108458683610800565b95508019841693508086168417925050509392505050565b5f819050919050565b5f61088061087b61087684610549565b61085d565b610549565b9050919050565b5f819050919050565b61089983610866565b6108ad6108a582610887565b84845461080c565b825550505050565b5f90565b6108c16108b5565b6108cc818484610890565b505050565b5b818110156108ef576108e45f826108b9565b6001810190506108d2565b5050565b601f82111561093457610905816107df565b61090e846107f1565b8101602085101561091d578190505b610931610929856107f1565b8301826108d1565b50505b505050565b5f82821c905092915050565b5f6109545f1984600802610939565b1980831691505092915050565b5f61096c8383610945565b9150826002028217905092915050565b61098582610629565b67ffffffffffffffff81111561099e5761099d6103de565b5b6109a882546107af565b6109b38282856108f3565b5f60209050601f8311600181146109e4575f84156109d2578287015190505b6109dc8582610961565b865550610a43565b601f1984166109f2866107df565b5f5b82811015610a19578489015182556001820191506020850194506020810190506109f4565b86831015610a365784890151610a32601f891682610945565b8355505b6001600288020188555050505b505050505050565b5f81905092915050565b5f610a5f82610629565b610a698185610a4b565b9350610a79818560208601610643565b80840191505092915050565b5f610a908284610a55565b915081905092915050565b7f4e487b71000000000000000000000000000000000000000000000000000000005f52603260045260245ffdfea264697066735822122077ae034bfc5db82bd52a6300f86d60ecb38230b073a35988bef26e4bab40d9ee64736f6c63430008180033a26469706673582212207bc2d4580b4528f647e904e4d2fab7a49acc0b9ec47192a43b1208181f415a2864736f6c63430008180033",
					"opcodes": "PUSH1 0x80 PUSH1 0x40 MSTORE CALLVALUE DUP1 ISZERO PUSH2 0xF JUMPI PUSH0 DUP1 REVERT JUMPDEST POP PUSH2 0x1BC9 DUP1 PUSH2 0x1D PUSH0 CODECOPY PUSH0 RETURN INVALID PUSH1 0x80 PUSH1 0x40 MSTORE CALLVALUE DUP1 ISZERO PUSH3 0x10 JUMPI PUSH0 DUP1 REVERT JUMPDEST POP PUSH1 0x4 CALLDATASIZE LT PUSH3 0x68 JUMPI PUSH0 CALLDATALOAD PUSH1 0xE0 SHR DUP1 PUSH4 0x1563700F EQ PUSH3 0x6C JUMPI DUP1 PUSH4 0x1DDA6541 EQ PUSH3 0x8C JUMPI DUP1 PUSH4 0x3DF9B366 EQ PUSH3 0x98 JUMPI DUP1 PUSH4 0x64591BF1 EQ PUSH3 0xB8 JUMPI DUP1 PUSH4 0xA40885D3 EQ PUSH3 0xEE JUMPI DUP1 PUSH4 0xC5F19C20 EQ PUSH3 0x124 JUMPI JUMPDEST PUSH0 DUP1 REVERT JUMPDEST PUSH3 0x8A PUSH1 0x4 DUP1 CALLDATASIZE SUB DUP2 ADD SWAP1 PUSH3 0x84 SWAP2 SWAP1 PUSH3 0x583 JUMP JUMPDEST PUSH3 0x15A JUMP JUMPDEST STOP JUMPDEST PUSH3 0x96 PUSH3 0x20A JUMP JUMPDEST STOP JUMPDEST PUSH3 0xB6 PUSH1 0x4 DUP1 CALLDATASIZE SUB DUP2 ADD SWAP1 PUSH3 0xB0 SWAP2 SWAP1 PUSH3 0x720 JUMP JUMPDEST PUSH3 0x298 JUMP JUMPDEST STOP JUMPDEST PUSH3 0xD6 PUSH1 0x4 DUP1 CALLDATASIZE SUB DUP2 ADD SWAP1 PUSH3 0xD0 SWAP2 SWAP1 PUSH3 0x798 JUMP JUMPDEST PUSH3 0x34B JUMP JUMPDEST PUSH1 0x40 MLOAD PUSH3 0xE5 SWAP2 SWAP1 PUSH3 0x84E JUMP JUMPDEST PUSH1 0x40 MLOAD DUP1 SWAP2 SUB SWAP1 RETURN JUMPDEST PUSH3 0x10C PUSH1 0x4 DUP1 CALLDATASIZE SUB DUP2 ADD SWAP1 PUSH3 0x106 SWAP2 SWAP1 PUSH3 0x798 JUMP JUMPDEST PUSH3 0x386 JUMP JUMPDEST PUSH1 0x40 MLOAD PUSH3 0x11B SWAP2 SWAP1 PUSH3 0x93C JUMP JUMPDEST PUSH1 0x40 MLOAD DUP1 SWAP2 SUB SWAP1 RETURN JUMPDEST PUSH3 0x142 PUSH1 0x4 DUP1 CALLDATASIZE SUB DUP2 ADD SWAP1 PUSH3 0x13C SWAP2 SWAP1 PUSH3 0x798 JUMP JUMPDEST PUSH3 0x459 JUMP JUMPDEST PUSH1 0x40 MLOAD PUSH3 0x151 SWAP2 SWAP1 PUSH3 0x96F JUMP JUMPDEST PUSH1 0x40 MLOAD DUP1 SWAP2 SUB SWAP1 RETURN JUMPDEST PUSH0 DUP1 DUP4 DUP2 SLOAD DUP2 LT PUSH3 0x171 JUMPI PUSH3 0x170 PUSH3 0x98A JUMP JUMPDEST JUMPDEST SWAP1 PUSH0 MSTORE PUSH1 0x20 PUSH0 KECCAK256 ADD PUSH0 SWAP1 SLOAD SWAP1 PUSH2 0x100 EXP SWAP1 DIV PUSH20 0xFFFFFFFFFFFFFFFFFFFFFFFFFFFFFFFFFFFFFFFF AND SWAP1 POP DUP1 PUSH20 0xFFFFFFFFFFFFFFFFFFFFFFFFFFFFFFFFFFFFFFFF AND PUSH4 0xD1E04B5B DUP4 PUSH1 0x40 MLOAD DUP3 PUSH4 0xFFFFFFFF AND PUSH1 0xE0 SHL DUP2 MSTORE PUSH1 0x4 ADD PUSH3 0x1D6 SWAP2 SWAP1 PUSH3 0x96F JUMP JUMPDEST PUSH0 PUSH1 0x40 MLOAD DUP1 DUP4 SUB DUP2 PUSH0 DUP8 DUP1 EXTCODESIZE ISZERO DUP1 ISZERO PUSH3 0x1EE JUMPI PUSH0 DUP1 REVERT JUMPDEST POP GAS CALL ISZERO DUP1 ISZERO PUSH3 0x201 JUMPI RETURNDATASIZE PUSH0 DUP1 RETURNDATACOPY RETURNDATASIZE PUSH0 REVERT JUMPDEST POP POP POP POP POP POP POP JUMP JUMPDEST PUSH0 PUSH1 0x40 MLOAD PUSH3 0x219 SWAP1 PUSH3 0x513 JUMP JUMPDEST PUSH1 0x40 MLOAD DUP1 SWAP2 SUB SWAP1 PUSH0 CREATE DUP1 ISZERO DUP1 ISZERO PUSH3 0x233 JUMPI RETURNDATASIZE PUSH0 DUP1 RETURNDATACOPY RETURNDATASIZE PUSH0 REVERT JUMPDEST POP SWAP1 POP PUSH0 DUP2 SWAP1 DUP1 PUSH1 0x1 DUP2 SLOAD ADD DUP1 DUP3 SSTORE DUP1 SWAP2 POP POP PUSH1 0x1 SWAP1 SUB SWAP1 PUSH0 MSTORE PUSH1 0x20 PUSH0 KECCAK256 ADD PUSH0 SWAP1 SWAP2 SWAP1 SWAP2 SWAP1 SWAP2 PUSH2 0x100 EXP DUP2 SLOAD DUP2 PUSH20 0xFFFFFFFFFFFFFFFFFFFFFFFFFFFFFFFFFFFFFFFF MUL NOT AND SWAP1 DUP4 PUSH20 0xFFFFFFFFFFFFFFFFFFFFFFFFFFFFFFFFFFFFFFFF AND MUL OR SWAP1 SSTORE POP POP JUMP JUMPDEST PUSH0 DUP1 DUP5 DUP2 SLOAD DUP2 LT PUSH3 0x2AF JUMPI PUSH3 0x2AE PUSH3 0x98A JUMP JUMPDEST JUMPDEST SWAP1 PUSH0 MSTORE PUSH1 0x20 PUSH0 KECCAK256 ADD PUSH0 SWAP1 SLOAD SWAP1 PUSH2 0x100 EXP SWAP1 DIV PUSH20 0xFFFFFFFFFFFFFFFFFFFFFFFFFFFFFFFFFFFFFFFF AND SWAP1 POP DUP1 PUSH20 0xFFFFFFFFFFFFFFFFFFFFFFFFFFFFFFFFFFFFFFFF AND PUSH4 0x6F760F41 DUP5 DUP5 PUSH1 0x40 MLOAD DUP4 PUSH4 0xFFFFFFFF AND PUSH1 0xE0 SHL DUP2 MSTORE PUSH1 0x4 ADD PUSH3 0x316 SWAP3 SWAP2 SWAP1 PUSH3 0xA07 JUMP JUMPDEST PUSH0 PUSH1 0x40 MLOAD DUP1 DUP4 SUB DUP2 PUSH0 DUP8 DUP1 EXTCODESIZE ISZERO DUP1 ISZERO PUSH3 0x32E JUMPI PUSH0 DUP1 REVERT JUMPDEST POP GAS CALL ISZERO DUP1 ISZERO PUSH3 0x341 JUMPI RETURNDATASIZE PUSH0 DUP1 RETURNDATACOPY RETURNDATASIZE PUSH0 REVERT JUMPDEST POP POP POP POP POP POP POP POP JUMP JUMPDEST PUSH0 DUP2 DUP2 SLOAD DUP2 LT PUSH3 0x35A JUMPI PUSH0 DUP1 REVERT JUMPDEST SWAP1 PUSH0 MSTORE PUSH1 0x20 PUSH0 KECCAK256 ADD PUSH0 SWAP2 POP SLOAD SWAP1 PUSH2 0x100 EXP SWAP1 DIV PUSH20 0xFFFFFFFFFFFFFFFFFFFFFFFFFFFFFFFFFFFFFFFF AND DUP2 JUMP JUMPDEST PUSH3 0x390 PUSH3 0x521 JUMP JUMPDEST PUSH0 DUP1 DUP4 DUP2 SLOAD DUP2 LT PUSH3 0x3A7 JUMPI PUSH3 0x3A6 PUSH3 0x98A JUMP JUMPDEST JUMPDEST SWAP1 PUSH0 MSTORE PUSH1 0x20 PUSH0 KECCAK256 ADD PUSH0 SWAP1 SLOAD SWAP1 PUSH2 0x100 EXP SWAP1 DIV PUSH20 0xFFFFFFFFFFFFFFFFFFFFFFFFFFFFFFFFFFFFFFFF AND SWAP1 POP DUP1 PUSH20 0xFFFFFFFFFFFFFFFFFFFFFFFFFFFFFFFFFFFFFFFF AND PUSH4 0xA40885D3 PUSH0 PUSH1 0x40 MLOAD DUP3 PUSH4 0xFFFFFFFF AND PUSH1 0xE0 SHL DUP2 MSTORE PUSH1 0x4 ADD PUSH3 0x40C SWAP2 SWAP1 PUSH3 0xA7A JUMP JUMPDEST PUSH0 PUSH1 0x40 MLOAD DUP1 DUP4 SUB DUP2 DUP7 GAS STATICCALL ISZERO DUP1 ISZERO PUSH3 0x427 JUMPI RETURNDATASIZE PUSH0 DUP1 RETURNDATACOPY RETURNDATASIZE PUSH0 REVERT JUMPDEST POP POP POP POP PUSH1 0x40 MLOAD RETURNDATASIZE PUSH0 DUP3 RETURNDATACOPY RETURNDATASIZE PUSH1 0x1F NOT PUSH1 0x1F DUP3 ADD AND DUP3 ADD DUP1 PUSH1 0x40 MSTORE POP DUP2 ADD SWAP1 PUSH3 0x451 SWAP2 SWAP1 PUSH3 0xBA4 JUMP JUMPDEST SWAP2 POP POP SWAP2 SWAP1 POP JUMP JUMPDEST PUSH0 DUP1 PUSH0 DUP4 DUP2 SLOAD DUP2 LT PUSH3 0x471 JUMPI PUSH3 0x470 PUSH3 0x98A JUMP JUMPDEST JUMPDEST SWAP1 PUSH0 MSTORE PUSH1 0x20 PUSH0 KECCAK256 ADD PUSH0 SWAP1 SLOAD SWAP1 PUSH2 0x100 EXP SWAP1 DIV PUSH20 0xFFFFFFFFFFFFFFFFFFFFFFFFFFFFFFFFFFFFFFFF AND SWAP1 POP DUP1 PUSH20 0xFFFFFFFFFFFFFFFFFFFFFFFFFFFFFFFFFFFFFFFF AND PUSH4 0x2E64CEC1 PUSH1 0x40 MLOAD DUP2 PUSH4 0xFFFFFFFF AND PUSH1 0xE0 SHL DUP2 MSTORE PUSH1 0x4 ADD PUSH1 0x20 PUSH1 0x40 MLOAD DUP1 DUP4 SUB DUP2 DUP7 GAS STATICCALL ISZERO DUP1 ISZERO PUSH3 0x4E5 JUMPI RETURNDATASIZE PUSH0 DUP1 RETURNDATACOPY RETURNDATASIZE PUSH0 REVERT JUMPDEST POP POP POP POP PUSH1 0x40 MLOAD RETURNDATASIZE PUSH1 0x1F NOT PUSH1 0x1F DUP3 ADD AND DUP3 ADD DUP1 PUSH1 0x40 MSTORE POP DUP2 ADD SWAP1 PUSH3 0x50B SWAP2 SWAP1 PUSH3 0xBF3 JUMP JUMPDEST SWAP2 POP POP SWAP2 SWAP1 POP JUMP JUMPDEST PUSH2 0xF70 DUP1 PUSH3 0xC24 DUP4 CODECOPY ADD SWAP1 JUMP JUMPDEST PUSH1 0x40 MLOAD DUP1 PUSH1 0x40 ADD PUSH1 0x40 MSTORE DUP1 PUSH0 DUP2 MSTORE PUSH1 0x20 ADD PUSH1 0x60 DUP2 MSTORE POP SWAP1 JUMP JUMPDEST PUSH0 PUSH1 0x40 MLOAD SWAP1 POP SWAP1 JUMP JUMPDEST PUSH0 DUP1 REVERT JUMPDEST PUSH0 DUP1 REVERT JUMPDEST PUSH0 DUP2 SWAP1 POP SWAP2 SWAP1 POP JUMP JUMPDEST PUSH3 0x55F DUP2 PUSH3 0x54B JUMP JUMPDEST DUP2 EQ PUSH3 0x56A JUMPI PUSH0 DUP1 REVERT JUMPDEST POP JUMP JUMPDEST PUSH0 DUP2 CALLDATALOAD SWAP1 POP PUSH3 0x57D DUP2 PUSH3 0x554 JUMP JUMPDEST SWAP3 SWAP2 POP POP JUMP JUMPDEST PUSH0 DUP1 PUSH1 0x40 DUP4 DUP6 SUB SLT ISZERO PUSH3 0x59C JUMPI PUSH3 0x59B PUSH3 0x543 JUMP JUMPDEST JUMPDEST PUSH0 PUSH3 0x5AB DUP6 DUP3 DUP7 ADD PUSH3 0x56D JUMP JUMPDEST SWAP3 POP POP PUSH1 0x20 PUSH3 0x5BE DUP6 DUP3 DUP7 ADD PUSH3 0x56D JUMP JUMPDEST SWAP2 POP POP SWAP3 POP SWAP3 SWAP1 POP JUMP JUMPDEST PUSH0 DUP1 REVERT JUMPDEST PUSH0 DUP1 REVERT JUMPDEST PUSH0 PUSH1 0x1F NOT PUSH1 0x1F DUP4 ADD AND SWAP1 POP SWAP2 SWAP1 POP JUMP JUMPDEST PUSH32 0x4E487B7100000000000000000000000000000000000000000000000000000000 PUSH0 MSTORE PUSH1 0x41 PUSH1 0x4 MSTORE PUSH1 0x24 PUSH0 REVERT JUMPDEST PUSH3 0x618 DUP3 PUSH3 0x5D0 JUMP JUMPDEST DUP2 ADD DUP2 DUP2 LT PUSH8 0xFFFFFFFFFFFFFFFF DUP3 GT OR ISZERO PUSH3 0x63A JUMPI PUSH3 0x639 PUSH3 0x5E0 JUMP JUMPDEST JUMPDEST DUP1 PUSH1 0x40 MSTORE POP POP POP JUMP JUMPDEST PUSH0 PUSH3 0x64E PUSH3 0x53A JUMP JUMPDEST SWAP1 POP PUSH3 0x65C DUP3 DUP3 PUSH3 0x60D JUMP JUMPDEST SWAP2 SWAP1 POP JUMP JUMPDEST PUSH0 PUSH8 0xFFFFFFFFFFFFFFFF DUP3 GT ISZERO PUSH3 0x67E JUMPI PUSH3 0x67D PUSH3 0x5E0 JUMP JUMPDEST JUMPDEST PUSH3 0x689 DUP3 PUSH3 0x5D0 JUMP JUMPDEST SWAP1 POP PUSH1 0x20 DUP2 ADD SWAP1 POP SWAP2 SWAP1 POP JUMP JUMPDEST DUP3 DUP2 DUP4 CALLDATACOPY PUSH0 DUP4 DUP4 ADD MSTORE POP POP POP JUMP JUMPDEST PUSH0 PUSH3 0x6BA PUSH3 0x6B4 DUP5 PUSH3 0x661 JUMP JUMPDEST PUSH3 0x643 JUMP JUMPDEST SWAP1 POP DUP3 DUP2 MSTORE PUSH1 0x20 DUP2 ADD DUP5 DUP5 DUP5 ADD GT ISZERO PUSH3 0x6D9 JUMPI PUSH3 0x6D8 PUSH3 0x5CC JUMP JUMPDEST JUMPDEST PUSH3 0x6E6 DUP5 DUP3 DUP6 PUSH3 0x696 JUMP JUMPDEST POP SWAP4 SWAP3 POP POP POP JUMP JUMPDEST PUSH0 DUP3 PUSH1 0x1F DUP4 ADD SLT PUSH3 0x705 JUMPI PUSH3 0x704 PUSH3 0x5C8 JUMP JUMPDEST JUMPDEST DUP2 CALLDATALOAD PUSH3 0x717 DUP5 DUP3 PUSH1 0x20 DUP7 ADD PUSH3 0x6A4 JUMP JUMPDEST SWAP2 POP POP SWAP3 SWAP2 POP POP JUMP JUMPDEST PUSH0 DUP1 PUSH0 PUSH1 0x60 DUP5 DUP7 SUB SLT ISZERO PUSH3 0x73A JUMPI PUSH3 0x739 PUSH3 0x543 JUMP JUMPDEST JUMPDEST PUSH0 PUSH3 0x749 DUP7 DUP3 DUP8 ADD PUSH3 0x56D JUMP JUMPDEST SWAP4 POP POP PUSH1 0x20 DUP5 ADD CALLDATALOAD PUSH8 0xFFFFFFFFFFFFFFFF DUP2 GT ISZERO PUSH3 0x76D JUMPI PUSH3 0x76C PUSH3 0x547 JUMP JUMPDEST JUMPDEST PUSH3 0x77B DUP7 DUP3 DUP8 ADD PUSH3 0x6EE JUMP JUMPDEST SWAP3 POP POP PUSH1 0x40 PUSH3 0x78E DUP7 DUP3 DUP8 ADD PUSH3 0x56D JUMP JUMPDEST SWAP2 POP POP SWAP3 POP SWAP3 POP SWAP3 JUMP JUMPDEST PUSH0 PUSH1 0x20 DUP3 DUP5 SUB SLT ISZERO PUSH3 0x7B0 JUMPI PUSH3 0x7AF PUSH3 0x543 JUMP JUMPDEST JUMPDEST PUSH0 PUSH3 0x7BF DUP5 DUP3 DUP6 ADD PUSH3 0x56D JUMP JUMPDEST SWAP2 POP POP SWAP3 SWAP2 POP POP JUMP JUMPDEST PUSH0 PUSH20 0xFFFFFFFFFFFFFFFFFFFFFFFFFFFFFFFFFFFFFFFF DUP3 AND SWAP1 POP SWAP2 SWAP1 POP JUMP JUMPDEST PUSH0 DUP2 SWAP1 POP SWAP2 SWAP1 POP JUMP JUMPDEST PUSH0 PUSH3 0x810 PUSH3 0x80A PUSH3 0x804 DUP5 PUSH3 0x7C8 JUMP JUMPDEST PUSH3 0x7E7 JUMP JUMPDEST PUSH3 0x7C8 JUMP JUMPDEST SWAP1 POP SWAP2 SWAP1 POP JUMP JUMPDEST PUSH0 PUSH3 0x823 DUP3 PUSH3 0x7F0 JUMP JUMPDEST SWAP1 POP SWAP2 SWAP1 POP JUMP JUMPDEST PUSH0 PUSH3 0x836 DUP3 PUSH3 0x817 JUMP JUMPDEST SWAP1 POP SWAP2 SWAP1 POP JUMP JUMPDEST PUSH3 0x848 DUP2 PUSH3 0x82A JUMP JUMPDEST DUP3 MSTORE POP POP JUMP JUMPDEST PUSH0 PUSH1 0x20 DUP3 ADD SWAP1 POP PUSH3 0x863 PUSH0 DUP4 ADD DUP5 PUSH3 0x83D JUMP JUMPDEST SWAP3 SWAP2 POP POP JUMP JUMPDEST PUSH3 0x874 DUP2 PUSH3 0x54B JUMP JUMPDEST DUP3 MSTORE POP POP JUMP JUMPDEST PUSH0 DUP2 MLOAD SWAP1 POP SWAP2 SWAP1 POP JUMP JUMPDEST PUSH0 DUP3 DUP3 MSTORE PUSH1 0x20 DUP3 ADD SWAP1 POP SWAP3 SWAP2 POP POP JUMP JUMPDEST PUSH0 JUMPDEST DUP4 DUP2 LT ISZERO PUSH3 0x8B3 JUMPI DUP1 DUP3 ADD MLOAD DUP2 DUP5 ADD MSTORE PUSH1 0x20 DUP2 ADD SWAP1 POP PUSH3 0x896 JUMP JUMPDEST PUSH0 DUP5 DUP5 ADD MSTORE POP POP POP POP JUMP JUMPDEST PUSH0 PUSH3 0x8CA DUP3 PUSH3 0x87A JUMP JUMPDEST PUSH3 0x8D6 DUP2 DUP6 PUSH3 0x884 JUMP JUMPDEST SWAP4 POP PUSH3 0x8E8 DUP2 DUP6 PUSH1 0x20 DUP7 ADD PUSH3 0x894 JUMP JUMPDEST PUSH3 0x8F3 DUP2 PUSH3 0x5D0 JUMP JUMPDEST DUP5 ADD SWAP2 POP POP SWAP3 SWAP2 POP POP JUMP JUMPDEST PUSH0 PUSH1 0x40 DUP4 ADD PUSH0 DUP4 ADD MLOAD PUSH3 0x915 PUSH0 DUP7 ADD DUP3 PUSH3 0x869 JUMP JUMPDEST POP PUSH1 0x20 DUP4 ADD MLOAD DUP5 DUP3 SUB PUSH1 0x20 DUP7 ADD MSTORE PUSH3 0x92F DUP3 DUP3 PUSH3 0x8BE JUMP JUMPDEST SWAP2 POP POP DUP1 SWAP2 POP POP SWAP3 SWAP2 POP POP JUMP JUMPDEST PUSH0 PUSH1 0x20 DUP3 ADD SWAP1 POP DUP2 DUP2 SUB PUSH0 DUP4 ADD MSTORE PUSH3 0x956 DUP2 DUP5 PUSH3 0x8FE JUMP JUMPDEST SWAP1 POP SWAP3 SWAP2 POP POP JUMP JUMPDEST PUSH3 0x969 DUP2 PUSH3 0x54B JUMP JUMPDEST DUP3 MSTORE POP POP JUMP JUMPDEST PUSH0 PUSH1 0x20 DUP3 ADD SWAP1 POP PUSH3 0x984 PUSH0 DUP4 ADD DUP5 PUSH3 0x95E JUMP JUMPDEST SWAP3 SWAP2 POP POP JUMP JUMPDEST PUSH32 0x4E487B7100000000000000000000000000000000000000000000000000000000 PUSH0 MSTORE PUSH1 0x32 PUSH1 0x4 MSTORE PUSH1 0x24 PUSH0 REVERT JUMPDEST PUSH0 DUP3 DUP3 MSTORE PUSH1 0x20 DUP3 ADD SWAP1 POP SWAP3 SWAP2 POP POP JUMP JUMPDEST PUSH0 PUSH3 0x9D3 DUP3 PUSH3 0x87A JUMP JUMPDEST PUSH3 0x9DF DUP2 DUP6 PUSH3 0x9B7 JUMP JUMPDEST SWAP4 POP PUSH3 0x9F1 DUP2 DUP6 PUSH1 0x20 DUP7 ADD PUSH3 0x894 JUMP JUMPDEST PUSH3 0x9FC DUP2 PUSH3 0x5D0 JUMP JUMPDEST DUP5 ADD SWAP2 POP POP SWAP3 SWAP2 POP POP JUMP JUMPDEST PUSH0 PUSH1 0x40 DUP3 ADD SWAP1 POP DUP2 DUP2 SUB PUSH0 DUP4 ADD MSTORE PUSH3 0xA21 DUP2 DUP6 PUSH3 0x9C7 JUMP JUMPDEST SWAP1 POP PUSH3 0xA32 PUSH1 0x20 DUP4 ADD DUP5 PUSH3 0x95E JUMP JUMPDEST SWAP4 SWAP3 POP POP POP JUMP JUMPDEST PUSH0 DUP2 SWAP1 POP SWAP2 SWAP1 POP JUMP JUMPDEST PUSH0 PUSH3 0xA62 PUSH3 0xA5C PUSH3 0xA56 DUP5 PUSH3 0xA39 JUMP JUMPDEST PUSH3 0x7E7 JUMP JUMPDEST PUSH3 0x54B JUMP JUMPDEST SWAP1 POP SWAP2 SWAP1 POP JUMP JUMPDEST PUSH3 0xA74 DUP2 PUSH3 0xA42 JUMP JUMPDEST DUP3 MSTORE POP POP JUMP JUMPDEST PUSH0 PUSH1 0x20 DUP3 ADD SWAP1 POP PUSH3 0xA8F PUSH0 DUP4 ADD DUP5 PUSH3 0xA69 JUMP JUMPDEST SWAP3 SWAP2 POP POP JUMP JUMPDEST PUSH0 DUP1 REVERT JUMPDEST PUSH0 DUP1 REVERT JUMPDEST PUSH0 DUP2 MLOAD SWAP1 POP PUSH3 0xAAD DUP2 PUSH3 0x554 JUMP JUMPDEST SWAP3 SWAP2 POP POP JUMP JUMPDEST PUSH0 PUSH3 0xAC9 PUSH3 0xAC3 DUP5 PUSH3 0x661 JUMP JUMPDEST PUSH3 0x643 JUMP JUMPDEST SWAP1 POP DUP3 DUP2 MSTORE PUSH1 0x20 DUP2 ADD DUP5 DUP5 DUP5 ADD GT ISZERO PUSH3 0xAE8 JUMPI PUSH3 0xAE7 PUSH3 0x5CC JUMP JUMPDEST JUMPDEST PUSH3 0xAF5 DUP5 DUP3 DUP6 PUSH3 0x894 JUMP JUMPDEST POP SWAP4 SWAP3 POP POP POP JUMP JUMPDEST PUSH0 DUP3 PUSH1 0x1F DUP4 ADD SLT PUSH3 0xB14 JUMPI PUSH3 0xB13 PUSH3 0x5C8 JUMP JUMPDEST JUMPDEST DUP2 MLOAD PUSH3 0xB26 DUP5 DUP3 PUSH1 0x20 DUP7 ADD PUSH3 0xAB3 JUMP JUMPDEST SWAP2 POP POP SWAP3 SWAP2 POP POP JUMP JUMPDEST PUSH0 PUSH1 0x40 DUP3 DUP5 SUB SLT ISZERO PUSH3 0xB47 JUMPI PUSH3 0xB46 PUSH3 0xA95 JUMP JUMPDEST JUMPDEST PUSH3 0xB53 PUSH1 0x40 PUSH3 0x643 JUMP JUMPDEST SWAP1 POP PUSH0 PUSH3 0xB64 DUP5 DUP3 DUP6 ADD PUSH3 0xA9D JUMP JUMPDEST PUSH0 DUP4 ADD MSTORE POP PUSH1 0x20 DUP3 ADD MLOAD PUSH8 0xFFFFFFFFFFFFFFFF DUP2 GT ISZERO PUSH3 0xB8A JUMPI PUSH3 0xB89 PUSH3 0xA99 JUMP JUMPDEST JUMPDEST PUSH3 0xB98 DUP5 DUP3 DUP6 ADD PUSH3 0xAFD JUMP JUMPDEST PUSH1 0x20 DUP4 ADD MSTORE POP SWAP3 SWAP2 POP POP JUMP JUMPDEST PUSH0 PUSH1 0x20 DUP3 DUP5 SUB SLT ISZERO PUSH3 0xBBC JUMPI PUSH3 0xBBB PUSH3 0x543 JUMP JUMPDEST JUMPDEST PUSH0 DUP3 ADD MLOAD PUSH8 0xFFFFFFFFFFFFFFFF DUP2 GT ISZERO PUSH3 0xBDC JUMPI PUSH3 0xBDB PUSH3 0x547 JUMP JUMPDEST JUMPDEST PUSH3 0xBEA DUP5 DUP3 DUP6 ADD PUSH3 0xB2F JUMP JUMPDEST SWAP2 POP POP SWAP3 SWAP2 POP POP JUMP JUMPDEST PUSH0 PUSH1 0x20 DUP3 DUP5 SUB SLT ISZERO PUSH3 0xC0B JUMPI PUSH3 0xC0A PUSH3 0x543 JUMP JUMPDEST JUMPDEST PUSH0 PUSH3 0xC1A DUP5 DUP3 DUP6 ADD PUSH3 0xA9D JUMP JUMPDEST SWAP2 POP POP SWAP3 SWAP2 POP POP JUMP INVALID PUSH1 0x80 PUSH1 0x40 MSTORE PUSH0 DUP1 PUSH0 PUSH2 0x100 EXP DUP2 SLOAD DUP2 PUSH1 0xFF MUL NOT AND SWAP1 DUP4 ISZERO ISZERO MUL OR SWAP1 SSTORE POP PUSH1 0x7B PUSH1 0x1 SSTORE PUSH1 0xC PUSH1 0x2 SSTORE PUSH1 0x40 MLOAD DUP1 PUSH1 0x40 ADD PUSH1 0x40 MSTORE DUP1 PUSH1 0xA DUP2 MSTORE PUSH1 0x20 ADD PUSH32 0x576F726B732066696E6500000000000000000000000000000000000000000000 DUP2 MSTORE POP PUSH1 0x3 SWAP1 DUP2 PUSH3 0x6C SWAP2 SWAP1 PUSH3 0x380 JUMP JUMPDEST POP PUSH32 0xFFFFFFFFFFFFFFFFFFFFFFFFFFFFFFFFFFFFFFFFFFFFFFFFFFFFFFFFFFFFFFFC PUSH1 0x4 SSTORE PUSH20 0x70997678DBD70BD5A7EC9289C25F079D00117CC4 PUSH1 0x5 PUSH0 PUSH2 0x100 EXP DUP2 SLOAD DUP2 PUSH20 0xFFFFFFFFFFFFFFFFFFFFFFFFFFFFFFFFFFFFFFFF MUL NOT AND SWAP1 DUP4 PUSH20 0xFFFFFFFFFFFFFFFFFFFFFFFFFFFFFFFFFFFFFFFF AND MUL OR SWAP1 SSTORE POP PUSH32 0x6361740000000000000000000000000000000000000000000000000000000000 PUSH1 0x6 SSTORE CALLVALUE DUP1 ISZERO PUSH3 0x115 JUMPI PUSH0 DUP1 REVERT JUMPDEST POP PUSH3 0x464 JUMP JUMPDEST PUSH0 DUP2 MLOAD SWAP1 POP SWAP2 SWAP1 POP JUMP JUMPDEST PUSH32 0x4E487B7100000000000000000000000000000000000000000000000000000000 PUSH0 MSTORE PUSH1 0x41 PUSH1 0x4 MSTORE PUSH1 0x24 PUSH0 REVERT JUMPDEST PUSH32 0x4E487B7100000000000000000000000000000000000000000000000000000000 PUSH0 MSTORE PUSH1 0x22 PUSH1 0x4 MSTORE PUSH1 0x24 PUSH0 REVERT JUMPDEST PUSH0 PUSH1 0x2 DUP3 DIV SWAP1 POP PUSH1 0x1 DUP3 AND DUP1 PUSH3 0x198 JUMPI PUSH1 0x7F DUP3 AND SWAP2 POP JUMPDEST PUSH1 0x20 DUP3 LT DUP2 SUB PUSH3 0x1AE JUMPI PUSH3 0x1AD PUSH3 0x153 JUMP JUMPDEST JUMPDEST POP SWAP2 SWAP1 POP JUMP JUMPDEST PUSH0 DUP2 SWAP1 POP DUP2 PUSH0 MSTORE PUSH1 0x20 PUSH0 KECCAK256 SWAP1 POP SWAP2 SWAP1 POP JUMP JUMPDEST PUSH0 PUSH1 0x20 PUSH1 0x1F DUP4 ADD DIV SWAP1 POP SWAP2 SWAP1 POP JUMP JUMPDEST PUSH0 DUP3 DUP3 SHL SWAP1 POP SWAP3 SWAP2 POP POP JUMP JUMPDEST PUSH0 PUSH1 0x8 DUP4 MUL PUSH3 0x212 PUSH32 0xFFFFFFFFFFFFFFFFFFFFFFFFFFFFFFFFFFFFFFFFFFFFFFFFFFFFFFFFFFFFFFFF DUP3 PUSH3 0x1D5 JUMP JUMPDEST PUSH3 0x21E DUP7 DUP4 PUSH3 0x1D5 JUMP JUMPDEST SWAP6 POP DUP1 NOT DUP5 AND SWAP4 POP DUP1 DUP7 AND DUP5 OR SWAP3 POP POP POP SWAP4 SWAP3 POP POP POP JUMP JUMPDEST PUSH0 DUP2 SWAP1 POP SWAP2 SWAP1 POP JUMP JUMPDEST PUSH0 DUP2 SWAP1 POP SWAP2 SWAP1 POP JUMP JUMPDEST PUSH0 PUSH3 0x268 PUSH3 0x262 PUSH3 0x25C DUP5 PUSH3 0x236 JUMP JUMPDEST PUSH3 0x23F JUMP JUMPDEST PUSH3 0x236 JUMP JUMPDEST SWAP1 POP SWAP2 SWAP1 POP JUMP JUMPDEST PUSH0 DUP2 SWAP1 POP SWAP2 SWAP1 POP JUMP JUMPDEST PUSH3 0x283 DUP4 PUSH3 0x248 JUMP JUMPDEST PUSH3 0x29B PUSH3 0x292 DUP3 PUSH3 0x26F JUMP JUMPDEST DUP5 DUP5 SLOAD PUSH3 0x1E1 JUMP JUMPDEST DUP3 SSTORE POP POP POP POP JUMP JUMPDEST PUSH0 SWAP1 JUMP JUMPDEST PUSH3 0x2B1 PUSH3 0x2A3 JUMP JUMPDEST PUSH3 0x2BE DUP2 DUP5 DUP5 PUSH3 0x278 JUMP JUMPDEST POP POP POP JUMP JUMPDEST JUMPDEST DUP2 DUP2 LT ISZERO PUSH3 0x2E5 JUMPI PUSH3 0x2D9 PUSH0 DUP3 PUSH3 0x2A7 JUMP JUMPDEST PUSH1 0x1 DUP2 ADD SWAP1 POP PUSH3 0x2C4 JUMP JUMPDEST POP POP JUMP JUMPDEST PUSH1 0x1F DUP3 GT ISZERO PUSH3 0x334 JUMPI PUSH3 0x2FE DUP2 PUSH3 0x1B4 JUMP JUMPDEST PUSH3 0x309 DUP5 PUSH3 0x1C6 JUMP JUMPDEST DUP2 ADD PUSH1 0x20 DUP6 LT ISZERO PUSH3 0x319 JUMPI DUP2 SWAP1 POP JUMPDEST PUSH3 0x331 PUSH3 0x328 DUP6 PUSH3 0x1C6 JUMP JUMPDEST DUP4 ADD DUP3 PUSH3 0x2C3 JUMP JUMPDEST POP POP JUMPDEST POP POP POP JUMP JUMPDEST PUSH0 DUP3 DUP3 SHR SWAP1 POP SWAP3 SWAP2 POP POP JUMP JUMPDEST PUSH0 PUSH3 0x356 PUSH0 NOT DUP5 PUSH1 0x8 MUL PUSH3 0x339 JUMP JUMPDEST NOT DUP1 DUP4 AND SWAP2 POP POP SWAP3 SWAP2 POP POP JUMP JUMPDEST PUSH0 PUSH3 0x370 DUP4 DUP4 PUSH3 0x345 JUMP JUMPDEST SWAP2 POP DUP3 PUSH1 0x2 MUL DUP3 OR SWAP1 POP SWAP3 SWAP2 POP POP JUMP JUMPDEST PUSH3 0x38B DUP3 PUSH3 0x11C JUMP JUMPDEST PUSH8 0xFFFFFFFFFFFFFFFF DUP2 GT ISZERO PUSH3 0x3A7 JUMPI PUSH3 0x3A6 PUSH3 0x126 JUMP JUMPDEST JUMPDEST PUSH3 0x3B3 DUP3 SLOAD PUSH3 0x180 JUMP JUMPDEST PUSH3 0x3C0 DUP3 DUP3 DUP6 PUSH3 0x2E9 JUMP JUMPDEST PUSH0 PUSH1 0x20 SWAP1 POP PUSH1 0x1F DUP4 GT PUSH1 0x1 DUP2 EQ PUSH3 0x3F6 JUMPI PUSH0 DUP5 ISZERO PUSH3 0x3E1 JUMPI DUP3 DUP8 ADD MLOAD SWAP1 POP JUMPDEST PUSH3 0x3ED DUP6 DUP3 PUSH3 0x363 JUMP JUMPDEST DUP7 SSTORE POP PUSH3 0x45C JUMP JUMPDEST PUSH1 0x1F NOT DUP5 AND PUSH3 0x406 DUP7 PUSH3 0x1B4 JUMP JUMPDEST PUSH0 JUMPDEST DUP3 DUP2 LT ISZERO PUSH3 0x42F JUMPI DUP5 DUP10 ADD MLOAD DUP3 SSTORE PUSH1 0x1 DUP3 ADD SWAP2 POP PUSH1 0x20 DUP6 ADD SWAP5 POP PUSH1 0x20 DUP2 ADD SWAP1 POP PUSH3 0x408 JUMP JUMPDEST DUP7 DUP4 LT ISZERO PUSH3 0x44F JUMPI DUP5 DUP10 ADD MLOAD PUSH3 0x44B PUSH1 0x1F DUP10 AND DUP3 PUSH3 0x345 JUMP JUMPDEST DUP4 SSTORE POP JUMPDEST PUSH1 0x1 PUSH1 0x2 DUP9 MUL ADD DUP9 SSTORE POP POP POP JUMPDEST POP POP POP POP POP POP JUMP JUMPDEST PUSH2 0xAFE DUP1 PUSH3 0x472 PUSH0 CODECOPY PUSH0 RETURN INVALID PUSH1 0x80 PUSH1 0x40 MSTORE CALLVALUE DUP1 ISZERO PUSH2 0xF JUMPI PUSH0 DUP1 REVERT JUMPDEST POP PUSH1 0x4 CALLDATASIZE LT PUSH2 0x60 JUMPI PUSH0 CALLDATALOAD PUSH1 0xE0 SHR DUP1 PUSH4 0x6C62C2C EQ PUSH2 0x64 JUMPI DUP1 PUSH4 0x2E64CEC1 EQ PUSH2 0x94 JUMPI DUP1 PUSH4 0x6F760F41 EQ PUSH2 0xB2 JUMPI DUP1 PUSH4 0x9E7A13AD EQ PUSH2 0xCE JUMPI DUP1 PUSH4 0xA40885D3 EQ PUSH2 0xFF JUMPI DUP1 PUSH4 0xD1E04B5B EQ PUSH2 0x12F JUMPI JUMPDEST PUSH0 DUP1 REVERT JUMPDEST PUSH2 0x7E PUSH1 0x4 DUP1 CALLDATASIZE SUB DUP2 ADD SWAP1 PUSH2 0x79 SWAP2 SWAP1 PUSH2 0x502 JUMP JUMPDEST PUSH2 0x14B JUMP JUMPDEST PUSH1 0x40 MLOAD PUSH2 0x8B SWAP2 SWAP1 PUSH2 0x561 JUMP JUMPDEST PUSH1 0x40 MLOAD DUP1 SWAP2 SUB SWAP1 RETURN JUMPDEST PUSH2 0x9C PUSH2 0x178 JUMP JUMPDEST PUSH1 0x40 MLOAD PUSH2 0xA9 SWAP2 SWAP1 PUSH2 0x561 JUMP JUMPDEST PUSH1 0x40 MLOAD DUP1 SWAP2 SUB SWAP1 RETURN JUMPDEST PUSH2 0xCC PUSH1 0x4 DUP1 CALLDATASIZE SUB DUP2 ADD SWAP1 PUSH2 0xC7 SWAP2 SWAP1 PUSH2 0x5A4 JUMP JUMPDEST PUSH2 0x181 JUMP JUMPDEST STOP JUMPDEST PUSH2 0xE8 PUSH1 0x4 DUP1 CALLDATASIZE SUB DUP2 ADD SWAP1 PUSH2 0xE3 SWAP2 SWAP1 PUSH2 0x5FE JUMP JUMPDEST PUSH2 0x205 JUMP JUMPDEST PUSH1 0x40 MLOAD PUSH2 0xF6 SWAP3 SWAP2 SWAP1 PUSH2 0x6A3 JUMP JUMPDEST PUSH1 0x40 MLOAD DUP1 SWAP2 SUB SWAP1 RETURN JUMPDEST PUSH2 0x119 PUSH1 0x4 DUP1 CALLDATASIZE SUB DUP2 ADD SWAP1 PUSH2 0x114 SWAP2 SWAP1 PUSH2 0x5FE JUMP JUMPDEST PUSH2 0x2BA JUMP JUMPDEST PUSH1 0x40 MLOAD PUSH2 0x126 SWAP2 SWAP1 PUSH2 0x762 JUMP JUMPDEST PUSH1 0x40 MLOAD DUP1 SWAP2 SUB SWAP1 RETURN JUMPDEST PUSH2 0x149 PUSH1 0x4 DUP1 CALLDATASIZE SUB DUP2 ADD SWAP1 PUSH2 0x144 SWAP2 SWAP1 PUSH2 0x5FE JUMP JUMPDEST PUSH2 0x392 JUMP JUMPDEST STOP JUMPDEST PUSH1 0x8 DUP2 DUP1 MLOAD PUSH1 0x20 DUP2 ADD DUP3 ADD DUP1 MLOAD DUP5 DUP3 MSTORE PUSH1 0x20 DUP4 ADD PUSH1 0x20 DUP6 ADD KECCAK256 DUP2 DUP4 MSTORE DUP1 SWAP6 POP POP POP POP POP POP PUSH0 SWAP2 POP SWAP1 POP SLOAD DUP2 JUMP JUMPDEST PUSH0 PUSH1 0x7 SLOAD SWAP1 POP SWAP1 JUMP JUMPDEST PUSH1 0x9 PUSH1 0x40 MLOAD DUP1 PUSH1 0x40 ADD PUSH1 0x40 MSTORE DUP1 DUP4 DUP2 MSTORE PUSH1 0x20 ADD DUP5 DUP2 MSTORE POP SWAP1 DUP1 PUSH1 0x1 DUP2 SLOAD ADD DUP1 DUP3 SSTORE DUP1 SWAP2 POP POP PUSH1 0x1 SWAP1 SUB SWAP1 PUSH0 MSTORE PUSH1 0x20 PUSH0 KECCAK256 SWAP1 PUSH1 0x2 MUL ADD PUSH0 SWAP1 SWAP2 SWAP1 SWAP2 SWAP1 SWAP2 POP PUSH0 DUP3 ADD MLOAD DUP2 PUSH0 ADD SSTORE PUSH1 0x20 DUP3 ADD MLOAD DUP2 PUSH1 0x1 ADD SWAP1 DUP2 PUSH2 0x1DB SWAP2 SWAP1 PUSH2 0x97C JUMP JUMPDEST POP POP POP DUP1 PUSH1 0x8 DUP4 PUSH1 0x40 MLOAD PUSH2 0x1EF SWAP2 SWAP1 PUSH2 0xA85 JUMP JUMPDEST SWAP1 DUP2 MSTORE PUSH1 0x20 ADD PUSH1 0x40 MLOAD DUP1 SWAP2 SUB SWAP1 KECCAK256 DUP2 SWAP1 SSTORE POP POP POP JUMP JUMPDEST PUSH1 0x9 DUP2 DUP2 SLOAD DUP2 LT PUSH2 0x214 JUMPI PUSH0 DUP1 REVERT JUMPDEST SWAP1 PUSH0 MSTORE PUSH1 0x20 PUSH0 KECCAK256 SWAP1 PUSH1 0x2 MUL ADD PUSH0 SWAP2 POP SWAP1 POP DUP1 PUSH0 ADD SLOAD SWAP1 DUP1 PUSH1 0x1 ADD DUP1 SLOAD PUSH2 0x239 SWAP1 PUSH2 0x7AF JUMP JUMPDEST DUP1 PUSH1 0x1F ADD PUSH1 0x20 DUP1 SWAP2 DIV MUL PUSH1 0x20 ADD PUSH1 0x40 MLOAD SWAP1 DUP2 ADD PUSH1 0x40 MSTORE DUP1 SWAP3 SWAP2 SWAP1 DUP2 DUP2 MSTORE PUSH1 0x20 ADD DUP3 DUP1 SLOAD PUSH2 0x265 SWAP1 PUSH2 0x7AF JUMP JUMPDEST DUP1 ISZERO PUSH2 0x2B0 JUMPI DUP1 PUSH1 0x1F LT PUSH2 0x287 JUMPI PUSH2 0x100 DUP1 DUP4 SLOAD DIV MUL DUP4 MSTORE SWAP2 PUSH1 0x20 ADD SWAP2 PUSH2 0x2B0 JUMP JUMPDEST DUP3 ADD SWAP2 SWAP1 PUSH0 MSTORE PUSH1 0x20 PUSH0 KECCAK256 SWAP1 JUMPDEST DUP2 SLOAD DUP2 MSTORE SWAP1 PUSH1 0x1 ADD SWAP1 PUSH1 0x20 ADD DUP1 DUP4 GT PUSH2 0x293 JUMPI DUP3 SWAP1 SUB PUSH1 0x1F AND DUP3 ADD SWAP2 JUMPDEST POP POP POP POP POP SWAP1 POP DUP3 JUMP JUMPDEST PUSH2 0x2C2 PUSH2 0x39C JUMP JUMPDEST PUSH0 PUSH1 0x9 DUP4 DUP2 SLOAD DUP2 LT PUSH2 0x2D7 JUMPI PUSH2 0x2D6 PUSH2 0xA9B JUMP JUMPDEST JUMPDEST SWAP1 PUSH0 MSTORE PUSH1 0x20 PUSH0 KECCAK256 SWAP1 PUSH1 0x2 MUL ADD PUSH1 0x40 MLOAD DUP1 PUSH1 0x40 ADD PUSH1 0x40 MSTORE SWAP1 DUP2 PUSH0 DUP3 ADD SLOAD DUP2 MSTORE PUSH1 0x20 ADD PUSH1 0x1 DUP3 ADD DUP1 SLOAD PUSH2 0x307 SWAP1 PUSH2 0x7AF JUMP JUMPDEST DUP1 PUSH1 0x1F ADD PUSH1 0x20 DUP1 SWAP2 DIV MUL PUSH1 0x20 ADD PUSH1 0x40 MLOAD SWAP1 DUP2 ADD PUSH1 0x40 MSTORE DUP1 SWAP3 SWAP2 SWAP1 DUP2 DUP2 MSTORE PUSH1 0x20 ADD DUP3 DUP1 SLOAD PUSH2 0x333 SWAP1 PUSH2 0x7AF JUMP JUMPDEST DUP1 ISZERO PUSH2 0x37E JUMPI DUP1 PUSH1 0x1F LT PUSH2 0x355 JUMPI PUSH2 0x100 DUP1 DUP4 SLOAD DIV MUL DUP4 MSTORE SWAP2 PUSH1 0x20 ADD SWAP2 PUSH2 0x37E JUMP JUMPDEST DUP3 ADD SWAP2 SWAP1 PUSH0 MSTORE PUSH1 0x20 PUSH0 KECCAK256 SWAP1 JUMPDEST DUP2 SLOAD DUP2 MSTORE SWAP1 PUSH1 0x1 ADD SWAP1 PUSH1 0x20 ADD DUP1 DUP4 GT PUSH2 0x361 JUMPI DUP3 SWAP1 SUB PUSH1 0x1F AND DUP3 ADD SWAP2 JUMPDEST POP POP POP POP POP DUP2 MSTORE POP POP SWAP1 POP DUP1 SWAP2 POP POP SWAP2 SWAP1 POP JUMP JUMPDEST DUP1 PUSH1 0x7 DUP2 SWAP1 SSTORE POP POP JUMP JUMPDEST PUSH1 0x40 MLOAD DUP1 PUSH1 0x40 ADD PUSH1 0x40 MSTORE DUP1 PUSH0 DUP2 MSTORE PUSH1 0x20 ADD PUSH1 0x60 DUP2 MSTORE POP SWAP1 JUMP JUMPDEST PUSH0 PUSH1 0x40 MLOAD SWAP1 POP SWAP1 JUMP JUMPDEST PUSH0 DUP1 REVERT JUMPDEST PUSH0 DUP1 REVERT JUMPDEST PUSH0 DUP1 REVERT JUMPDEST PUSH0 DUP1 REVERT JUMPDEST PUSH0 PUSH1 0x1F NOT PUSH1 0x1F DUP4 ADD AND SWAP1 POP SWAP2 SWAP1 POP JUMP JUMPDEST PUSH32 0x4E487B7100000000000000000000000000000000000000000000000000000000 PUSH0 MSTORE PUSH1 0x41 PUSH1 0x4 MSTORE PUSH1 0x24 PUSH0 REVERT JUMPDEST PUSH2 0x414 DUP3 PUSH2 0x3CE JUMP JUMPDEST DUP2 ADD DUP2 DUP2 LT PUSH8 0xFFFFFFFFFFFFFFFF DUP3 GT OR ISZERO PUSH2 0x433 JUMPI PUSH2 0x432 PUSH2 0x3DE JUMP JUMPDEST JUMPDEST DUP1 PUSH1 0x40 MSTORE POP POP POP JUMP JUMPDEST PUSH0 PUSH2 0x445 PUSH2 0x3B5 JUMP JUMPDEST SWAP1 POP PUSH2 0x451 DUP3 DUP3 PUSH2 0x40B JUMP JUMPDEST SWAP2 SWAP1 POP JUMP JUMPDEST PUSH0 PUSH8 0xFFFFFFFFFFFFFFFF DUP3 GT ISZERO PUSH2 0x470 JUMPI PUSH2 0x46F PUSH2 0x3DE JUMP JUMPDEST JUMPDEST PUSH2 0x479 DUP3 PUSH2 0x3CE JUMP JUMPDEST SWAP1 POP PUSH1 0x20 DUP2 ADD SWAP1 POP SWAP2 SWAP1 POP JUMP JUMPDEST DUP3 DUP2 DUP4 CALLDATACOPY PUSH0 DUP4 DUP4 ADD MSTORE POP POP POP JUMP JUMPDEST PUSH0 PUSH2 0x4A6 PUSH2 0x4A1 DUP5 PUSH2 0x456 JUMP JUMPDEST PUSH2 0x43C JUMP JUMPDEST SWAP1 POP DUP3 DUP2 MSTORE PUSH1 0x20 DUP2 ADD DUP5 DUP5 DUP5 ADD GT ISZERO PUSH2 0x4C2 JUMPI PUSH2 0x4C1 PUSH2 0x3CA JUMP JUMPDEST JUMPDEST PUSH2 0x4CD DUP5 DUP3 DUP6 PUSH2 0x486 JUMP JUMPDEST POP SWAP4 SWAP3 POP POP POP JUMP JUMPDEST PUSH0 DUP3 PUSH1 0x1F DUP4 ADD SLT PUSH2 0x4E9 JUMPI PUSH2 0x4E8 PUSH2 0x3C6 JUMP JUMPDEST JUMPDEST DUP2 CALLDATALOAD PUSH2 0x4F9 DUP5 DUP3 PUSH1 0x20 DUP7 ADD PUSH2 0x494 JUMP JUMPDEST SWAP2 POP POP SWAP3 SWAP2 POP POP JUMP JUMPDEST PUSH0 PUSH1 0x20 DUP3 DUP5 SUB SLT ISZERO PUSH2 0x517 JUMPI PUSH2 0x516 PUSH2 0x3BE JUMP JUMPDEST JUMPDEST PUSH0 DUP3 ADD CALLDATALOAD PUSH8 0xFFFFFFFFFFFFFFFF DUP2 GT ISZERO PUSH2 0x534 JUMPI PUSH2 0x533 PUSH2 0x3C2 JUMP JUMPDEST JUMPDEST PUSH2 0x540 DUP5 DUP3 DUP6 ADD PUSH2 0x4D5 JUMP JUMPDEST SWAP2 POP POP SWAP3 SWAP2 POP POP JUMP JUMPDEST PUSH0 DUP2 SWAP1 POP SWAP2 SWAP1 POP JUMP JUMPDEST PUSH2 0x55B DUP2 PUSH2 0x549 JUMP JUMPDEST DUP3 MSTORE POP POP JUMP JUMPDEST PUSH0 PUSH1 0x20 DUP3 ADD SWAP1 POP PUSH2 0x574 PUSH0 DUP4 ADD DUP5 PUSH2 0x552 JUMP JUMPDEST SWAP3 SWAP2 POP POP JUMP JUMPDEST PUSH2 0x583 DUP2 PUSH2 0x549 JUMP JUMPDEST DUP2 EQ PUSH2 0x58D JUMPI PUSH0 DUP1 REVERT JUMPDEST POP JUMP JUMPDEST PUSH0 DUP2 CALLDATALOAD SWAP1 POP PUSH2 0x59E DUP2 PUSH2 0x57A JUMP JUMPDEST SWAP3 SWAP2 POP POP JUMP JUMPDEST PUSH0 DUP1 PUSH1 0x40 DUP4 DUP6 SUB SLT ISZERO PUSH2 0x5BA JUMPI PUSH2 0x5B9 PUSH2 0x3BE JUMP JUMPDEST JUMPDEST PUSH0 DUP4 ADD CALLDATALOAD PUSH8 0xFFFFFFFFFFFFFFFF DUP2 GT ISZERO PUSH2 0x5D7 JUMPI PUSH2 0x5D6 PUSH2 0x3C2 JUMP JUMPDEST JUMPDEST PUSH2 0x5E3 DUP6 DUP3 DUP7 ADD PUSH2 0x4D5 JUMP JUMPDEST SWAP3 POP POP PUSH1 0x20 PUSH2 0x5F4 DUP6 DUP3 DUP7 ADD PUSH2 0x590 JUMP JUMPDEST SWAP2 POP POP SWAP3 POP SWAP3 SWAP1 POP JUMP JUMPDEST PUSH0 PUSH1 0x20 DUP3 DUP5 SUB SLT ISZERO PUSH2 0x613 JUMPI PUSH2 0x612 PUSH2 0x3BE JUMP JUMPDEST JUMPDEST PUSH0 PUSH2 0x620 DUP5 DUP3 DUP6 ADD PUSH2 0x590 JUMP JUMPDEST SWAP2 POP POP SWAP3 SWAP2 POP POP JUMP JUMPDEST PUSH0 DUP2 MLOAD SWAP1 POP SWAP2 SWAP1 POP JUMP JUMPDEST PUSH0 DUP3 DUP3 MSTORE PUSH1 0x20 DUP3 ADD SWAP1 POP SWAP3 SWAP2 POP POP JUMP JUMPDEST PUSH0 JUMPDEST DUP4 DUP2 LT ISZERO PUSH2 0x660 JUMPI DUP1 DUP3 ADD MLOAD DUP2 DUP5 ADD MSTORE PUSH1 0x20 DUP2 ADD SWAP1 POP PUSH2 0x645 JUMP JUMPDEST PUSH0 DUP5 DUP5 ADD MSTORE POP POP POP POP JUMP JUMPDEST PUSH0 PUSH2 0x675 DUP3 PUSH2 0x629 JUMP JUMPDEST PUSH2 0x67F DUP2 DUP6 PUSH2 0x633 JUMP JUMPDEST SWAP4 POP PUSH2 0x68F DUP2 DUP6 PUSH1 0x20 DUP7 ADD PUSH2 0x643 JUMP JUMPDEST PUSH2 0x698 DUP2 PUSH2 0x3CE JUMP JUMPDEST DUP5 ADD SWAP2 POP POP SWAP3 SWAP2 POP POP JUMP JUMPDEST PUSH0 PUSH1 0x40 DUP3 ADD SWAP1 POP PUSH2 0x6B6 PUSH0 DUP4 ADD DUP6 PUSH2 0x552 JUMP JUMPDEST DUP2 DUP2 SUB PUSH1 0x20 DUP4 ADD MSTORE PUSH2 0x6C8 DUP2 DUP5 PUSH2 0x66B JUMP JUMPDEST SWAP1 POP SWAP4 SWAP3 POP POP POP JUMP JUMPDEST PUSH2 0x6DA DUP2 PUSH2 0x549 JUMP JUMPDEST DUP3 MSTORE POP POP JUMP JUMPDEST PUSH0 DUP3 DUP3 MSTORE PUSH1 0x20 DUP3 ADD SWAP1 POP SWAP3 SWAP2 POP POP JUMP JUMPDEST PUSH0 PUSH2 0x6FA DUP3 PUSH2 0x629 JUMP JUMPDEST PUSH2 0x704 DUP2 DUP6 PUSH2 0x6E0 JUMP JUMPDEST SWAP4 POP PUSH2 0x714 DUP2 DUP6 PUSH1 0x20 DUP7 ADD PUSH2 0x643 JUMP JUMPDEST PUSH2 0x71D DUP2 PUSH2 0x3CE JUMP JUMPDEST DUP5 ADD SWAP2 POP POP SWAP3 SWAP2 POP POP JUMP JUMPDEST PUSH0 PUSH1 0x40 DUP4 ADD PUSH0 DUP4 ADD MLOAD PUSH2 0x73D PUSH0 DUP7 ADD DUP3 PUSH2 0x6D1 JUMP JUMPDEST POP PUSH1 0x20 DUP4 ADD MLOAD DUP5 DUP3 SUB PUSH1 0x20 DUP7 ADD MSTORE PUSH2 0x755 DUP3 DUP3 PUSH2 0x6F0 JUMP JUMPDEST SWAP2 POP POP DUP1 SWAP2 POP POP SWAP3 SWAP2 POP POP JUMP JUMPDEST PUSH0 PUSH1 0x20 DUP3 ADD SWAP1 POP DUP2 DUP2 SUB PUSH0 DUP4 ADD MSTORE PUSH2 0x77A DUP2 DUP5 PUSH2 0x728 JUMP JUMPDEST SWAP1 POP SWAP3 SWAP2 POP POP JUMP JUMPDEST PUSH32 0x4E487B7100000000000000000000000000000000000000000000000000000000 PUSH0 MSTORE PUSH1 0x22 PUSH1 0x4 MSTORE PUSH1 0x24 PUSH0 REVERT JUMPDEST PUSH0 PUSH1 0x2 DUP3 DIV SWAP1 POP PUSH1 0x1 DUP3 AND DUP1 PUSH2 0x7C6 JUMPI PUSH1 0x7F DUP3 AND SWAP2 POP JUMPDEST PUSH1 0x20 DUP3 LT DUP2 SUB PUSH2 0x7D9 JUMPI PUSH2 0x7D8 PUSH2 0x782 JUMP JUMPDEST JUMPDEST POP SWAP2 SWAP1 POP JUMP JUMPDEST PUSH0 DUP2 SWAP1 POP DUP2 PUSH0 MSTORE PUSH1 0x20 PUSH0 KECCAK256 SWAP1 POP SWAP2 SWAP1 POP JUMP JUMPDEST PUSH0 PUSH1 0x20 PUSH1 0x1F DUP4 ADD DIV SWAP1 POP SWAP2 SWAP1 POP JUMP JUMPDEST PUSH0 DUP3 DUP3 SHL SWAP1 POP SWAP3 SWAP2 POP POP JUMP JUMPDEST PUSH0 PUSH1 0x8 DUP4 MUL PUSH2 0x83B PUSH32 0xFFFFFFFFFFFFFFFFFFFFFFFFFFFFFFFFFFFFFFFFFFFFFFFFFFFFFFFFFFFFFFFF DUP3 PUSH2 0x800 JUMP JUMPDEST PUSH2 0x845 DUP7 DUP4 PUSH2 0x800 JUMP JUMPDEST SWAP6 POP DUP1 NOT DUP5 AND SWAP4 POP DUP1 DUP7 AND DUP5 OR SWAP3 POP POP POP SWAP4 SWAP3 POP POP POP JUMP JUMPDEST PUSH0 DUP2 SWAP1 POP SWAP2 SWAP1 POP JUMP JUMPDEST PUSH0 PUSH2 0x880 PUSH2 0x87B PUSH2 0x876 DUP5 PUSH2 0x549 JUMP JUMPDEST PUSH2 0x85D JUMP JUMPDEST PUSH2 0x549 JUMP JUMPDEST SWAP1 POP SWAP2 SWAP1 POP JUMP JUMPDEST PUSH0 DUP2 SWAP1 POP SWAP2 SWAP1 POP JUMP JUMPDEST PUSH2 0x899 DUP4 PUSH2 0x866 JUMP JUMPDEST PUSH2 0x8AD PUSH2 0x8A5 DUP3 PUSH2 0x887 JUMP JUMPDEST DUP5 DUP5 SLOAD PUSH2 0x80C JUMP JUMPDEST DUP3 SSTORE POP POP POP POP JUMP JUMPDEST PUSH0 SWAP1 JUMP JUMPDEST PUSH2 0x8C1 PUSH2 0x8B5 JUMP JUMPDEST PUSH2 0x8CC DUP2 DUP5 DUP5 PUSH2 0x890 JUMP JUMPDEST POP POP POP JUMP JUMPDEST JUMPDEST DUP2 DUP2 LT ISZERO PUSH2 0x8EF JUMPI PUSH2 0x8E4 PUSH0 DUP3 PUSH2 0x8B9 JUMP JUMPDEST PUSH1 0x1 DUP2 ADD SWAP1 POP PUSH2 0x8D2 JUMP JUMPDEST POP POP JUMP JUMPDEST PUSH1 0x1F DUP3 GT ISZERO PUSH2 0x934 JUMPI PUSH2 0x905 DUP2 PUSH2 0x7DF JUMP JUMPDEST PUSH2 0x90E DUP5 PUSH2 0x7F1 JUMP JUMPDEST DUP2 ADD PUSH1 0x20 DUP6 LT ISZERO PUSH2 0x91D JUMPI DUP2 SWAP1 POP JUMPDEST PUSH2 0x931 PUSH2 0x929 DUP6 PUSH2 0x7F1 JUMP JUMPDEST DUP4 ADD DUP3 PUSH2 0x8D1 JUMP JUMPDEST POP POP JUMPDEST POP POP POP JUMP JUMPDEST PUSH0 DUP3 DUP3 SHR SWAP1 POP SWAP3 SWAP2 POP POP JUMP JUMPDEST PUSH0 PUSH2 0x954 PUSH0 NOT DUP5 PUSH1 0x8 MUL PUSH2 0x939 JUMP JUMPDEST NOT DUP1 DUP4 AND SWAP2 POP POP SWAP3 SWAP2 POP POP JUMP JUMPDEST PUSH0 PUSH2 0x96C DUP4 DUP4 PUSH2 0x945 JUMP JUMPDEST SWAP2 POP DUP3 PUSH1 0x2 MUL DUP3 OR SWAP1 POP SWAP3 SWAP2 POP POP JUMP JUMPDEST PUSH2 0x985 DUP3 PUSH2 0x629 JUMP JUMPDEST PUSH8 0xFFFFFFFFFFFFFFFF DUP2 GT ISZERO PUSH2 0x99E JUMPI PUSH2 0x99D PUSH2 0x3DE JUMP JUMPDEST JUMPDEST PUSH2 0x9A8 DUP3 SLOAD PUSH2 0x7AF JUMP JUMPDEST PUSH2 0x9B3 DUP3 DUP3 DUP6 PUSH2 0x8F3 JUMP JUMPDEST PUSH0 PUSH1 0x20 SWAP1 POP PUSH1 0x1F DUP4 GT PUSH1 0x1 DUP2 EQ PUSH2 0x9E4 JUMPI PUSH0 DUP5 ISZERO PUSH2 0x9D2 JUMPI DUP3 DUP8 ADD MLOAD SWAP1 POP JUMPDEST PUSH2 0x9DC DUP6 DUP3 PUSH2 0x961 JUMP JUMPDEST DUP7 SSTORE POP PUSH2 0xA43 JUMP JUMPDEST PUSH1 0x1F NOT DUP5 AND PUSH2 0x9F2 DUP7 PUSH2 0x7DF JUMP JUMPDEST PUSH0 JUMPDEST DUP3 DUP2 LT ISZERO PUSH2 0xA19 JUMPI DUP5 DUP10 ADD MLOAD DUP3 SSTORE PUSH1 0x1 DUP3 ADD SWAP2 POP PUSH1 0x20 DUP6 ADD SWAP5 POP PUSH1 0x20 DUP2 ADD SWAP1 POP PUSH2 0x9F4 JUMP JUMPDEST DUP7 DUP4 LT ISZERO PUSH2 0xA36 JUMPI DUP5 DUP10 ADD MLOAD PUSH2 0xA32 PUSH1 0x1F DUP10 AND DUP3 PUSH2 0x945 JUMP JUMPDEST DUP4 SSTORE POP JUMPDEST PUSH1 0x1 PUSH1 0x2 DUP9 MUL ADD DUP9 SSTORE POP POP POP JUMPDEST POP POP POP POP POP POP JUMP JUMPDEST PUSH0 DUP2 SWAP1 POP SWAP3 SWAP2 POP POP JUMP JUMPDEST PUSH0 PUSH2 0xA5F DUP3 PUSH2 0x629 JUMP JUMPDEST PUSH2 0xA69 DUP2 DUP6 PUSH2 0xA4B JUMP JUMPDEST SWAP4 POP PUSH2 0xA79 DUP2 DUP6 PUSH1 0x20 DUP7 ADD PUSH2 0x643 JUMP JUMPDEST DUP1 DUP5 ADD SWAP2 POP POP SWAP3 SWAP2 POP POP JUMP JUMPDEST PUSH0 PUSH2 0xA90 DUP3 DUP5 PUSH2 0xA55 JUMP JUMPDEST SWAP2 POP DUP2 SWAP1 POP SWAP3 SWAP2 POP POP JUMP JUMPDEST PUSH32 0x4E487B7100000000000000000000000000000000000000000000000000000000 PUSH0 MSTORE PUSH1 0x32 PUSH1 0x4 MSTORE PUSH1 0x24 PUSH0 REVERT INVALID LOG2 PUSH5 0x6970667358 0x22 SLT KECCAK256 PUSH24 0xAE034BFC5DB82BD52A6300F86D60ECB38230B073A35988BE CALLCODE PUSH15 0x4BAB40D9EE64736F6C634300081800 CALLER LOG2 PUSH5 0x6970667358 0x22 SLT KECCAK256 PUSH28 0xC2D4580B4528F647E904E4D2FAB7A49ACC0B9EC47192A43B1208181F COINBASE GAS 0x28 PUSH5 0x736F6C6343 STOP ADDMOD XOR STOP CALLER "
				},
				"gasEstimates": {
					"creation": {
						"codeDepositCost": "1422600",
						"executionCost": "1484",
						"totalCost": "1424084"
					},
					"external": {
						"addPerson(uint256,string,uint256)": "infinite",
						"createSimpleStorageContract()": "infinite",
						"returnPerson(uint256)": "infinite",
						"sfGet(uint256)": "infinite",
						"sfStore(uint256,uint256)": "infinite",
						"simpleStorageArray(uint256)": "infinite"
					}
				},
				"methodIdentifiers": {
					"addPerson(uint256,string,uint256)": "3df9b366",
					"createSimpleStorageContract()": "1dda6541",
					"returnPerson(uint256)": "a40885d3",
					"sfGet(uint256)": "c5f19c20",
					"sfStore(uint256,uint256)": "1563700f",
					"simpleStorageArray(uint256)": "64591bf1"
				}
			},
			"storageLayout": {
				"storage": [
					{
						"astId": 105,
						"contract": "contracts/StorageFactory.sol:StorageFactory",
						"label": "simpleStorageArray",
						"offset": 0,
						"slot": "0",
						"type": "t_array(t_contract(SimpleStorage)98)dyn_storage"
					}
				],
				"types": {
					"t_array(t_contract(SimpleStorage)98)dyn_storage": {
						"base": "t_contract(SimpleStorage)98",
						"encoding": "dynamic_array",
						"label": "contract SimpleStorage[]",
						"numberOfBytes": "32"
					},
					"t_contract(SimpleStorage)98": {
						"encoding": "inplace",
						"label": "contract SimpleStorage",
						"numberOfBytes": "20"
					}
				}
			},
			"userdoc": {
				"kind": "user",
				"methods": {},
				"version": 1
			}
		}
	}
}