{
	"contracts/SimpleStorage.sol": {
		"SimpleStorage": {
			"abi": [
				{
					"inputs": [
						{
							"internalType": "string",
							"name": "_name",
							"type": "string"
						},
						{
							"internalType": "uint256",
							"name": "_favoriteNum",
							"type": "uint256"
						}
					],
					"name": "addPerson",
					"outputs": [],
					"stateMutability": "nonpayable",
					"type": "function"
				},
				{
					"inputs": [
						{
							"internalType": "string",
							"name": "",
							"type": "string"
						}
					],
					"name": "nameToFavNum",
					"outputs": [
						{
							"internalType": "uint256",
							"name": "",
							"type": "uint256"
						}
					],
					"stateMutability": "view",
					"type": "function"
				},
				{
					"inputs": [
						{
							"internalType": "uint256",
							"name": "",
							"type": "uint256"
						}
					],
					"name": "people",
					"outputs": [
						{
							"internalType": "uint256",
							"name": "favortieNum",
							"type": "uint256"
						},
						{
							"internalType": "string",
							"name": "name",
							"type": "string"
						}
					],
					"stateMutability": "view",
					"type": "function"
				},
				{
					"inputs": [],
					"name": "retrieve",
					"outputs": [
						{
							"internalType": "uint256",
							"name": "",
							"type": "uint256"
						}
					],
					"stateMutability": "view",
					"type": "function"
				},
				{
					"inputs": [
						{
							"internalType": "uint256",
							"name": "_index",
							"type": "uint256"
						}
					],
					"name": "returnPerson",
					"outputs": [
						{
							"components": [
								{
									"internalType": "uint256",
									"name": "favortieNum",
									"type": "uint256"
								},
								{
									"internalType": "string",
									"name": "name",
									"type": "string"
								}
							],
							"internalType": "struct SimpleStorage.People",
							"name": "",
							"type": "tuple"
						}
					],
					"stateMutability": "view",
					"type": "function"
				},
				{
					"inputs": [
						{
							"internalType": "uint256",
							"name": "_favoriteNumber",
							"type": "uint256"
						}
					],
					"name": "storeFunction",
					"outputs": [],
					"stateMutability": "nonpayable",
					"type": "function"
				}
			],
			"devdoc": {
				"kind": "dev",
				"methods": {},
				"version": 1
			},
			"evm": {
				"assembly": "    /* \"contracts/SimpleStorage.sol\":305:3087  contract SimpleStorage{... */\n  mstore(0x40, 0x80)\n    /* \"contracts/SimpleStorage.sol\":515:520  false */\n  0x00\n    /* \"contracts/SimpleStorage.sol\":490:520  bool hasFavoriteNumber = false */\n  dup1\n  exp(0x0100, 0x00)\n  dup2\n  sload\n  dup2\n  0xff\n  mul\n  not\n  and\n  swap1\n  dup4\n  iszero\n  iszero\n  mul\n  or\n  swap1\n  sstore\n  pop\n    /* \"contracts/SimpleStorage.sol\":544:547  123 */\n  0x7b\n    /* \"contracts/SimpleStorage.sol\":527:547  uint favNumber = 123 */\n  0x01\n  sstore\n    /* \"contracts/SimpleStorage.sol\":575:577  12 */\n  0x0c\n    /* \"contracts/SimpleStorage.sol\":554:577  int hasFavoriteNum = 12 */\n  0x02\n  sstore\n    /* \"contracts/SimpleStorage.sol\":585:617  string testString = \"Works fine\" */\n  mload(0x40)\n  dup1\n  0x40\n  add\n  0x40\n  mstore\n  dup1\n  0x0a\n  dup2\n  mstore\n  0x20\n  add\n  0x576f726b732066696e6500000000000000000000000000000000000000000000\n  dup2\n  mstore\n  pop\n  0x03\n  swap1\n  dup2\n  tag_1\n  swap2\n  swap1\n  tag_2\n  jump\t// in\ntag_1:\n  pop\n    /* \"contracts/SimpleStorage.sol\":641:643  -4 */\n  0xfffffffffffffffffffffffffffffffffffffffffffffffffffffffffffffffc\n    /* \"contracts/SimpleStorage.sol\":624:643  int256 intTest = -4 */\n  0x04\n  sstore\n    /* \"contracts/SimpleStorage.sol\":670:712  0x70997678Dbd70Bd5a7EC9289c25F079d00117Cc4 */\n  0x70997678dbd70bd5a7ec9289c25f079d00117cc4\n    /* \"contracts/SimpleStorage.sol\":650:712  address myAddress = 0x70997678Dbd70Bd5a7EC9289c25F079d00117Cc4 */\n  0x05\n  exp(0x0100, 0x00)\n  dup2\n  sload\n  dup2\n  0xffffffffffffffffffffffffffffffffffffffff\n  mul\n  not\n  and\n  swap1\n  dup4\n  0xffffffffffffffffffffffffffffffffffffffff\n  and\n  mul\n  or\n  swap1\n  sstore\n  pop\n    /* \"contracts/SimpleStorage.sol\":742:763  bytes32 check = \"cat\" */\n  sstore(0x06, 0x6361740000000000000000000000000000000000000000000000000000000000)\n    /* \"contracts/SimpleStorage.sol\":305:3087  contract SimpleStorage{... */\n  callvalue\n  dup1\n  iszero\n  tag_3\n  jumpi\n  0x00\n  dup1\n  revert\ntag_3:\n  pop\n  jump(tag_4)\n    /* \"#utility.yul\":7:106   */\ntag_5:\n    /* \"#utility.yul\":59:65   */\n  0x00\n    /* \"#utility.yul\":93:98   */\n  dup2\n    /* \"#utility.yul\":87:99   */\n  mload\n    /* \"#utility.yul\":77:99   */\n  swap1\n  pop\n    /* \"#utility.yul\":7:106   */\n  swap2\n  swap1\n  pop\n  jump\t// out\n    /* \"#utility.yul\":112:292   */\ntag_6:\n    /* \"#utility.yul\":160:237   */\n  0x4e487b7100000000000000000000000000000000000000000000000000000000\n    /* \"#utility.yul\":157:158   */\n  0x00\n    /* \"#utility.yul\":150:238   */\n  mstore\n    /* \"#utility.yul\":257:261   */\n  0x41\n    /* \"#utility.yul\":254:255   */\n  0x04\n    /* \"#utility.yul\":247:262   */\n  mstore\n    /* \"#utility.yul\":281:285   */\n  0x24\n    /* \"#utility.yul\":278:279   */\n  0x00\n    /* \"#utility.yul\":271:286   */\n  revert\n    /* \"#utility.yul\":298:478   */\ntag_7:\n    /* \"#utility.yul\":346:423   */\n  0x4e487b7100000000000000000000000000000000000000000000000000000000\n    /* \"#utility.yul\":343:344   */\n  0x00\n    /* \"#utility.yul\":336:424   */\n  mstore\n    /* \"#utility.yul\":443:447   */\n  0x22\n    /* \"#utility.yul\":440:441   */\n  0x04\n    /* \"#utility.yul\":433:448   */\n  mstore\n    /* \"#utility.yul\":467:471   */\n  0x24\n    /* \"#utility.yul\":464:465   */\n  0x00\n    /* \"#utility.yul\":457:472   */\n  revert\n    /* \"#utility.yul\":484:804   */\ntag_8:\n    /* \"#utility.yul\":528:534   */\n  0x00\n    /* \"#utility.yul\":565:566   */\n  0x02\n    /* \"#utility.yul\":559:563   */\n  dup3\n    /* \"#utility.yul\":555:567   */\n  div\n    /* \"#utility.yul\":545:567   */\n  swap1\n  pop\n    /* \"#utility.yul\":612:613   */\n  0x01\n    /* \"#utility.yul\":606:610   */\n  dup3\n    /* \"#utility.yul\":602:614   */\n  and\n    /* \"#utility.yul\":633:651   */\n  dup1\n    /* \"#utility.yul\":623:704   */\n  tag_30\n  jumpi\n    /* \"#utility.yul\":689:693   */\n  0x7f\n    /* \"#utility.yul\":681:687   */\n  dup3\n    /* \"#utility.yul\":677:694   */\n  and\n    /* \"#utility.yul\":667:694   */\n  swap2\n  pop\n    /* \"#utility.yul\":623:704   */\ntag_30:\n    /* \"#utility.yul\":751:753   */\n  0x20\n    /* \"#utility.yul\":743:749   */\n  dup3\n    /* \"#utility.yul\":740:754   */\n  lt\n    /* \"#utility.yul\":720:738   */\n  dup2\n    /* \"#utility.yul\":717:755   */\n  sub\n    /* \"#utility.yul\":714:798   */\n  tag_31\n  jumpi\n    /* \"#utility.yul\":770:788   */\n  tag_32\n  tag_7\n  jump\t// in\ntag_32:\n    /* \"#utility.yul\":714:798   */\ntag_31:\n    /* \"#utility.yul\":535:804   */\n  pop\n    /* \"#utility.yul\":484:804   */\n  swap2\n  swap1\n  pop\n  jump\t// out\n    /* \"#utility.yul\":810:951   */\ntag_9:\n    /* \"#utility.yul\":859:863   */\n  0x00\n    /* \"#utility.yul\":882:885   */\n  dup2\n    /* \"#utility.yul\":874:885   */\n  swap1\n  pop\n    /* \"#utility.yul\":905:908   */\n  dup2\n    /* \"#utility.yul\":902:903   */\n  0x00\n    /* \"#utility.yul\":895:909   */\n  mstore\n    /* \"#utility.yul\":939:943   */\n  0x20\n    /* \"#utility.yul\":936:937   */\n  0x00\n    /* \"#utility.yul\":926:944   */\n  keccak256\n    /* \"#utility.yul\":918:944   */\n  swap1\n  pop\n    /* \"#utility.yul\":810:951   */\n  swap2\n  swap1\n  pop\n  jump\t// out\n    /* \"#utility.yul\":957:1050   */\ntag_10:\n    /* \"#utility.yul\":994:1000   */\n  0x00\n    /* \"#utility.yul\":1041:1043   */\n  0x20\n    /* \"#utility.yul\":1036:1038   */\n  0x1f\n    /* \"#utility.yul\":1029:1034   */\n  dup4\n    /* \"#utility.yul\":1025:1039   */\n  add\n    /* \"#utility.yul\":1021:1044   */\n  div\n    /* \"#utility.yul\":1011:1044   */\n  swap1\n  pop\n    /* \"#utility.yul\":957:1050   */\n  swap2\n  swap1\n  pop\n  jump\t// out\n    /* \"#utility.yul\":1056:1163   */\ntag_11:\n    /* \"#utility.yul\":1100:1108   */\n  0x00\n    /* \"#utility.yul\":1150:1155   */\n  dup3\n    /* \"#utility.yul\":1144:1148   */\n  dup3\n    /* \"#utility.yul\":1140:1156   */\n  shl\n    /* \"#utility.yul\":1119:1156   */\n  swap1\n  pop\n    /* \"#utility.yul\":1056:1163   */\n  swap3\n  swap2\n  pop\n  pop\n  jump\t// out\n    /* \"#utility.yul\":1169:1562   */\ntag_12:\n    /* \"#utility.yul\":1238:1244   */\n  0x00\n    /* \"#utility.yul\":1288:1289   */\n  0x08\n    /* \"#utility.yul\":1276:1286   */\n  dup4\n    /* \"#utility.yul\":1272:1290   */\n  mul\n    /* \"#utility.yul\":1311:1408   */\n  tag_37\n    /* \"#utility.yul\":1341:1407   */\n  0xffffffffffffffffffffffffffffffffffffffffffffffffffffffffffffffff\n    /* \"#utility.yul\":1330:1339   */\n  dup3\n    /* \"#utility.yul\":1311:1408   */\n  tag_11\n  jump\t// in\ntag_37:\n    /* \"#utility.yul\":1429:1468   */\n  tag_38\n    /* \"#utility.yul\":1459:1467   */\n  dup7\n    /* \"#utility.yul\":1448:1457   */\n  dup4\n    /* \"#utility.yul\":1429:1468   */\n  tag_11\n  jump\t// in\ntag_38:\n    /* \"#utility.yul\":1417:1468   */\n  swap6\n  pop\n    /* \"#utility.yul\":1501:1505   */\n  dup1\n    /* \"#utility.yul\":1497:1506   */\n  not\n    /* \"#utility.yul\":1490:1495   */\n  dup5\n    /* \"#utility.yul\":1486:1507   */\n  and\n    /* \"#utility.yul\":1477:1507   */\n  swap4\n  pop\n    /* \"#utility.yul\":1550:1554   */\n  dup1\n    /* \"#utility.yul\":1540:1548   */\n  dup7\n    /* \"#utility.yul\":1536:1555   */\n  and\n    /* \"#utility.yul\":1529:1534   */\n  dup5\n    /* \"#utility.yul\":1526:1556   */\n  or\n    /* \"#utility.yul\":1516:1556   */\n  swap3\n  pop\n    /* \"#utility.yul\":1245:1562   */\n  pop\n  pop\n    /* \"#utility.yul\":1169:1562   */\n  swap4\n  swap3\n  pop\n  pop\n  pop\n  jump\t// out\n    /* \"#utility.yul\":1568:1645   */\ntag_13:\n    /* \"#utility.yul\":1605:1612   */\n  0x00\n    /* \"#utility.yul\":1634:1639   */\n  dup2\n    /* \"#utility.yul\":1623:1639   */\n  swap1\n  pop\n    /* \"#utility.yul\":1568:1645   */\n  swap2\n  swap1\n  pop\n  jump\t// out\n    /* \"#utility.yul\":1651:1711   */\ntag_14:\n    /* \"#utility.yul\":1679:1682   */\n  0x00\n    /* \"#utility.yul\":1700:1705   */\n  dup2\n    /* \"#utility.yul\":1693:1705   */\n  swap1\n  pop\n    /* \"#utility.yul\":1651:1711   */\n  swap2\n  swap1\n  pop\n  jump\t// out\n    /* \"#utility.yul\":1717:1859   */\ntag_15:\n    /* \"#utility.yul\":1767:1776   */\n  0x00\n    /* \"#utility.yul\":1800:1853   */\n  tag_42\n    /* \"#utility.yul\":1818:1852   */\n  tag_43\n    /* \"#utility.yul\":1827:1851   */\n  tag_44\n    /* \"#utility.yul\":1845:1850   */\n  dup5\n    /* \"#utility.yul\":1827:1851   */\n  tag_13\n  jump\t// in\ntag_44:\n    /* \"#utility.yul\":1818:1852   */\n  tag_14\n  jump\t// in\ntag_43:\n    /* \"#utility.yul\":1800:1853   */\n  tag_13\n  jump\t// in\ntag_42:\n    /* \"#utility.yul\":1787:1853   */\n  swap1\n  pop\n    /* \"#utility.yul\":1717:1859   */\n  swap2\n  swap1\n  pop\n  jump\t// out\n    /* \"#utility.yul\":1865:1940   */\ntag_16:\n    /* \"#utility.yul\":1908:1911   */\n  0x00\n    /* \"#utility.yul\":1929:1934   */\n  dup2\n    /* \"#utility.yul\":1922:1934   */\n  swap1\n  pop\n    /* \"#utility.yul\":1865:1940   */\n  swap2\n  swap1\n  pop\n  jump\t// out\n    /* \"#utility.yul\":1946:2215   */\ntag_17:\n    /* \"#utility.yul\":2056:2095   */\n  tag_47\n    /* \"#utility.yul\":2087:2094   */\n  dup4\n    /* \"#utility.yul\":2056:2095   */\n  tag_15\n  jump\t// in\ntag_47:\n    /* \"#utility.yul\":2117:2208   */\n  tag_48\n    /* \"#utility.yul\":2166:2207   */\n  tag_49\n    /* \"#utility.yul\":2190:2206   */\n  dup3\n    /* \"#utility.yul\":2166:2207   */\n  tag_16\n  jump\t// in\ntag_49:\n    /* \"#utility.yul\":2158:2164   */\n  dup5\n    /* \"#utility.yul\":2151:2155   */\n  dup5\n    /* \"#utility.yul\":2145:2156   */\n  sload\n    /* \"#utility.yul\":2117:2208   */\n  tag_12\n  jump\t// in\ntag_48:\n    /* \"#utility.yul\":2111:2115   */\n  dup3\n    /* \"#utility.yul\":2104:2209   */\n  sstore\n    /* \"#utility.yul\":2022:2215   */\n  pop\n    /* \"#utility.yul\":1946:2215   */\n  pop\n  pop\n  pop\n  jump\t// out\n    /* \"#utility.yul\":2221:2294   */\ntag_18:\n    /* \"#utility.yul\":2266:2269   */\n  0x00\n    /* \"#utility.yul\":2221:2294   */\n  swap1\n  jump\t// out\n    /* \"#utility.yul\":2300:2489   */\ntag_19:\n    /* \"#utility.yul\":2377:2409   */\n  tag_52\n  tag_18\n  jump\t// in\ntag_52:\n    /* \"#utility.yul\":2418:2483   */\n  tag_53\n    /* \"#utility.yul\":2476:2482   */\n  dup2\n    /* \"#utility.yul\":2468:2474   */\n  dup5\n    /* \"#utility.yul\":2462:2466   */\n  dup5\n    /* \"#utility.yul\":2418:2483   */\n  tag_17\n  jump\t// in\ntag_53:\n    /* \"#utility.yul\":2353:2489   */\n  pop\n    /* \"#utility.yul\":2300:2489   */\n  pop\n  pop\n  jump\t// out\n    /* \"#utility.yul\":2495:2681   */\ntag_20:\n    /* \"#utility.yul\":2555:2675   */\ntag_55:\n    /* \"#utility.yul\":2572:2575   */\n  dup2\n    /* \"#utility.yul\":2565:2570   */\n  dup2\n    /* \"#utility.yul\":2562:2576   */\n  lt\n    /* \"#utility.yul\":2555:2675   */\n  iszero\n  tag_57\n  jumpi\n    /* \"#utility.yul\":2626:2665   */\n  tag_58\n    /* \"#utility.yul\":2663:2664   */\n  0x00\n    /* \"#utility.yul\":2656:2661   */\n  dup3\n    /* \"#utility.yul\":2626:2665   */\n  tag_19\n  jump\t// in\ntag_58:\n    /* \"#utility.yul\":2599:2600   */\n  0x01\n    /* \"#utility.yul\":2592:2597   */\n  dup2\n    /* \"#utility.yul\":2588:2601   */\n  add\n    /* \"#utility.yul\":2579:2601   */\n  swap1\n  pop\n    /* \"#utility.yul\":2555:2675   */\n  jump(tag_55)\ntag_57:\n    /* \"#utility.yul\":2495:2681   */\n  pop\n  pop\n  jump\t// out\n    /* \"#utility.yul\":2687:3230   */\ntag_21:\n    /* \"#utility.yul\":2788:2790   */\n  0x1f\n    /* \"#utility.yul\":2783:2786   */\n  dup3\n    /* \"#utility.yul\":2780:2791   */\n  gt\n    /* \"#utility.yul\":2777:3223   */\n  iszero\n  tag_60\n  jumpi\n    /* \"#utility.yul\":2822:2860   */\n  tag_61\n    /* \"#utility.yul\":2854:2859   */\n  dup2\n    /* \"#utility.yul\":2822:2860   */\n  tag_9\n  jump\t// in\ntag_61:\n    /* \"#utility.yul\":2906:2935   */\n  tag_62\n    /* \"#utility.yul\":2924:2934   */\n  dup5\n    /* \"#utility.yul\":2906:2935   */\n  tag_10\n  jump\t// in\ntag_62:\n    /* \"#utility.yul\":2896:2904   */\n  dup2\n    /* \"#utility.yul\":2892:2936   */\n  add\n    /* \"#utility.yul\":3089:3091   */\n  0x20\n    /* \"#utility.yul\":3077:3087   */\n  dup6\n    /* \"#utility.yul\":3074:3092   */\n  lt\n    /* \"#utility.yul\":3071:3120   */\n  iszero\n  tag_63\n  jumpi\n    /* \"#utility.yul\":3110:3118   */\n  dup2\n    /* \"#utility.yul\":3095:3118   */\n  swap1\n  pop\n    /* \"#utility.yul\":3071:3120   */\ntag_63:\n    /* \"#utility.yul\":3133:3213   */\n  tag_64\n    /* \"#utility.yul\":3189:3211   */\n  tag_65\n    /* \"#utility.yul\":3207:3210   */\n  dup6\n    /* \"#utility.yul\":3189:3211   */\n  tag_10\n  jump\t// in\ntag_65:\n    /* \"#utility.yul\":3179:3187   */\n  dup4\n    /* \"#utility.yul\":3175:3212   */\n  add\n    /* \"#utility.yul\":3162:3173   */\n  dup3\n    /* \"#utility.yul\":3133:3213   */\n  tag_20\n  jump\t// in\ntag_64:\n    /* \"#utility.yul\":2792:3223   */\n  pop\n  pop\n    /* \"#utility.yul\":2777:3223   */\ntag_60:\n    /* \"#utility.yul\":2687:3230   */\n  pop\n  pop\n  pop\n  jump\t// out\n    /* \"#utility.yul\":3236:3353   */\ntag_22:\n    /* \"#utility.yul\":3290:3298   */\n  0x00\n    /* \"#utility.yul\":3340:3345   */\n  dup3\n    /* \"#utility.yul\":3334:3338   */\n  dup3\n    /* \"#utility.yul\":3330:3346   */\n  shr\n    /* \"#utility.yul\":3309:3346   */\n  swap1\n  pop\n    /* \"#utility.yul\":3236:3353   */\n  swap3\n  swap2\n  pop\n  pop\n  jump\t// out\n    /* \"#utility.yul\":3359:3528   */\ntag_23:\n    /* \"#utility.yul\":3403:3409   */\n  0x00\n    /* \"#utility.yul\":3436:3487   */\n  tag_68\n    /* \"#utility.yul\":3484:3485   */\n  0x00\n    /* \"#utility.yul\":3480:3486   */\n  not\n    /* \"#utility.yul\":3472:3477   */\n  dup5\n    /* \"#utility.yul\":3469:3470   */\n  0x08\n    /* \"#utility.yul\":3465:3478   */\n  mul\n    /* \"#utility.yul\":3436:3487   */\n  tag_22\n  jump\t// in\ntag_68:\n    /* \"#utility.yul\":3432:3488   */\n  not\n    /* \"#utility.yul\":3517:3521   */\n  dup1\n    /* \"#utility.yul\":3511:3515   */\n  dup4\n    /* \"#utility.yul\":3507:3522   */\n  and\n    /* \"#utility.yul\":3497:3522   */\n  swap2\n  pop\n    /* \"#utility.yul\":3410:3528   */\n  pop\n    /* \"#utility.yul\":3359:3528   */\n  swap3\n  swap2\n  pop\n  pop\n  jump\t// out\n    /* \"#utility.yul\":3533:3828   */\ntag_24:\n    /* \"#utility.yul\":3609:3613   */\n  0x00\n    /* \"#utility.yul\":3755:3784   */\n  tag_70\n    /* \"#utility.yul\":3780:3783   */\n  dup4\n    /* \"#utility.yul\":3774:3778   */\n  dup4\n    /* \"#utility.yul\":3755:3784   */\n  tag_23\n  jump\t// in\ntag_70:\n    /* \"#utility.yul\":3747:3784   */\n  swap2\n  pop\n    /* \"#utility.yul\":3817:3820   */\n  dup3\n    /* \"#utility.yul\":3814:3815   */\n  0x02\n    /* \"#utility.yul\":3810:3821   */\n  mul\n    /* \"#utility.yul\":3804:3808   */\n  dup3\n    /* \"#utility.yul\":3801:3822   */\n  or\n    /* \"#utility.yul\":3793:3822   */\n  swap1\n  pop\n    /* \"#utility.yul\":3533:3828   */\n  swap3\n  swap2\n  pop\n  pop\n  jump\t// out\n    /* \"#utility.yul\":3833:5228   */\ntag_2:\n    /* \"#utility.yul\":3950:3987   */\n  tag_72\n    /* \"#utility.yul\":3983:3986   */\n  dup3\n    /* \"#utility.yul\":3950:3987   */\n  tag_5\n  jump\t// in\ntag_72:\n    /* \"#utility.yul\":4052:4070   */\n  0xffffffffffffffff\n    /* \"#utility.yul\":4044:4050   */\n  dup2\n    /* \"#utility.yul\":4041:4071   */\n  gt\n    /* \"#utility.yul\":4038:4094   */\n  iszero\n  tag_73\n  jumpi\n    /* \"#utility.yul\":4074:4092   */\n  tag_74\n  tag_6\n  jump\t// in\ntag_74:\n    /* \"#utility.yul\":4038:4094   */\ntag_73:\n    /* \"#utility.yul\":4118:4156   */\n  tag_75\n    /* \"#utility.yul\":4150:4154   */\n  dup3\n    /* \"#utility.yul\":4144:4155   */\n  sload\n    /* \"#utility.yul\":4118:4156   */\n  tag_8\n  jump\t// in\ntag_75:\n    /* \"#utility.yul\":4203:4270   */\n  tag_76\n    /* \"#utility.yul\":4263:4269   */\n  dup3\n    /* \"#utility.yul\":4255:4261   */\n  dup3\n    /* \"#utility.yul\":4249:4253   */\n  dup6\n    /* \"#utility.yul\":4203:4270   */\n  tag_21\n  jump\t// in\ntag_76:\n    /* \"#utility.yul\":4297:4298   */\n  0x00\n    /* \"#utility.yul\":4321:4325   */\n  0x20\n    /* \"#utility.yul\":4308:4325   */\n  swap1\n  pop\n    /* \"#utility.yul\":4353:4355   */\n  0x1f\n    /* \"#utility.yul\":4345:4351   */\n  dup4\n    /* \"#utility.yul\":4342:4356   */\n  gt\n    /* \"#utility.yul\":4370:4371   */\n  0x01\n    /* \"#utility.yul\":4365:4983   */\n  dup2\n  eq\n  tag_78\n  jumpi\n    /* \"#utility.yul\":5027:5028   */\n  0x00\n    /* \"#utility.yul\":5044:5050   */\n  dup5\n    /* \"#utility.yul\":5041:5118   */\n  iszero\n  tag_79\n  jumpi\n    /* \"#utility.yul\":5093:5102   */\n  dup3\n    /* \"#utility.yul\":5088:5091   */\n  dup8\n    /* \"#utility.yul\":5084:5103   */\n  add\n    /* \"#utility.yul\":5078:5104   */\n  mload\n    /* \"#utility.yul\":5069:5104   */\n  swap1\n  pop\n    /* \"#utility.yul\":5041:5118   */\ntag_79:\n    /* \"#utility.yul\":5144:5211   */\n  tag_80\n    /* \"#utility.yul\":5204:5210   */\n  dup6\n    /* \"#utility.yul\":5197:5202   */\n  dup3\n    /* \"#utility.yul\":5144:5211   */\n  tag_24\n  jump\t// in\ntag_80:\n    /* \"#utility.yul\":5138:5142   */\n  dup7\n    /* \"#utility.yul\":5131:5212   */\n  sstore\n    /* \"#utility.yul\":5000:5222   */\n  pop\n    /* \"#utility.yul\":4335:5222   */\n  jump(tag_77)\n    /* \"#utility.yul\":4365:4983   */\ntag_78:\n    /* \"#utility.yul\":4417:4421   */\n  0x1f\n    /* \"#utility.yul\":4413:4422   */\n  not\n    /* \"#utility.yul\":4405:4411   */\n  dup5\n    /* \"#utility.yul\":4401:4423   */\n  and\n    /* \"#utility.yul\":4451:4488   */\n  tag_81\n    /* \"#utility.yul\":4483:4487   */\n  dup7\n    /* \"#utility.yul\":4451:4488   */\n  tag_9\n  jump\t// in\ntag_81:\n    /* \"#utility.yul\":4510:4511   */\n  0x00\n    /* \"#utility.yul\":4524:4732   */\ntag_82:\n    /* \"#utility.yul\":4538:4545   */\n  dup3\n    /* \"#utility.yul\":4535:4536   */\n  dup2\n    /* \"#utility.yul\":4532:4546   */\n  lt\n    /* \"#utility.yul\":4524:4732   */\n  iszero\n  tag_84\n  jumpi\n    /* \"#utility.yul\":4617:4626   */\n  dup5\n    /* \"#utility.yul\":4612:4615   */\n  dup10\n    /* \"#utility.yul\":4608:4627   */\n  add\n    /* \"#utility.yul\":4602:4628   */\n  mload\n    /* \"#utility.yul\":4594:4600   */\n  dup3\n    /* \"#utility.yul\":4587:4629   */\n  sstore\n    /* \"#utility.yul\":4668:4669   */\n  0x01\n    /* \"#utility.yul\":4660:4666   */\n  dup3\n    /* \"#utility.yul\":4656:4670   */\n  add\n    /* \"#utility.yul\":4646:4670   */\n  swap2\n  pop\n    /* \"#utility.yul\":4715:4717   */\n  0x20\n    /* \"#utility.yul\":4704:4713   */\n  dup6\n    /* \"#utility.yul\":4700:4718   */\n  add\n    /* \"#utility.yul\":4687:4718   */\n  swap5\n  pop\n    /* \"#utility.yul\":4561:4565   */\n  0x20\n    /* \"#utility.yul\":4558:4559   */\n  dup2\n    /* \"#utility.yul\":4554:4566   */\n  add\n    /* \"#utility.yul\":4549:4566   */\n  swap1\n  pop\n    /* \"#utility.yul\":4524:4732   */\n  jump(tag_82)\ntag_84:\n    /* \"#utility.yul\":4760:4766   */\n  dup7\n    /* \"#utility.yul\":4751:4758   */\n  dup4\n    /* \"#utility.yul\":4748:4767   */\n  lt\n    /* \"#utility.yul\":4745:4924   */\n  iszero\n  tag_85\n  jumpi\n    /* \"#utility.yul\":4818:4827   */\n  dup5\n    /* \"#utility.yul\":4813:4816   */\n  dup10\n    /* \"#utility.yul\":4809:4828   */\n  add\n    /* \"#utility.yul\":4803:4829   */\n  mload\n    /* \"#utility.yul\":4861:4909   */\n  tag_86\n    /* \"#utility.yul\":4903:4907   */\n  0x1f\n    /* \"#utility.yul\":4895:4901   */\n  dup10\n    /* \"#utility.yul\":4891:4908   */\n  and\n    /* \"#utility.yul\":4880:4889   */\n  dup3\n    /* \"#utility.yul\":4861:4909   */\n  tag_23\n  jump\t// in\ntag_86:\n    /* \"#utility.yul\":4853:4859   */\n  dup4\n    /* \"#utility.yul\":4846:4910   */\n  sstore\n    /* \"#utility.yul\":4768:4924   */\n  pop\n    /* \"#utility.yul\":4745:4924   */\ntag_85:\n    /* \"#utility.yul\":4970:4971   */\n  0x01\n    /* \"#utility.yul\":4966:4967   */\n  0x02\n    /* \"#utility.yul\":4958:4964   */\n  dup9\n    /* \"#utility.yul\":4954:4968   */\n  mul\n    /* \"#utility.yul\":4950:4972   */\n  add\n    /* \"#utility.yul\":4944:4948   */\n  dup9\n    /* \"#utility.yul\":4937:4973   */\n  sstore\n    /* \"#utility.yul\":4372:4983   */\n  pop\n  pop\n  pop\n    /* \"#utility.yul\":4335:5222   */\ntag_77:\n  pop\n    /* \"#utility.yul\":3925:5228   */\n  pop\n  pop\n  pop\n    /* \"#utility.yul\":3833:5228   */\n  pop\n  pop\n  jump\t// out\n    /* \"contracts/SimpleStorage.sol\":305:3087  contract SimpleStorage{... */\ntag_4:\n  dataSize(sub_0)\n  dup1\n  dataOffset(sub_0)\n  0x00\n  codecopy\n  0x00\n  return\nstop\n\nsub_0: assembly {\n        /* \"contracts/SimpleStorage.sol\":305:3087  contract SimpleStorage{... */\n      mstore(0x40, 0x80)\n      callvalue\n      dup1\n      iszero\n      tag_1\n      jumpi\n      0x00\n      dup1\n      revert\n    tag_1:\n      pop\n      jumpi(tag_2, lt(calldatasize, 0x04))\n      shr(0xe0, calldataload(0x00))\n      dup1\n      0x06c62c2c\n      eq\n      tag_3\n      jumpi\n      dup1\n      0x2e64cec1\n      eq\n      tag_4\n      jumpi\n      dup1\n      0x6f760f41\n      eq\n      tag_5\n      jumpi\n      dup1\n      0x9e7a13ad\n      eq\n      tag_6\n      jumpi\n      dup1\n      0xa40885d3\n      eq\n      tag_7\n      jumpi\n      dup1\n      0xd1e04b5b\n      eq\n      tag_8\n      jumpi\n    tag_2:\n      0x00\n      dup1\n      revert\n        /* \"contracts/SimpleStorage.sol\":1424:1472  mapping (string => uint256) public  nameToFavNum */\n    tag_3:\n      tag_9\n      0x04\n      dup1\n      calldatasize\n      sub\n      dup2\n      add\n      swap1\n      tag_10\n      swap2\n      swap1\n      tag_11\n      jump\t// in\n    tag_10:\n      tag_12\n      jump\t// in\n    tag_9:\n      mload(0x40)\n      tag_13\n      swap2\n      swap1\n      tag_14\n      jump\t// in\n    tag_13:\n      mload(0x40)\n      dup1\n      swap2\n      sub\n      swap1\n      return\n        /* \"contracts/SimpleStorage.sol\":2833:2924  function retrieve() public  view  returns (uint256){... */\n    tag_4:\n      tag_15\n      tag_16\n      jump\t// in\n    tag_15:\n      mload(0x40)\n      tag_17\n      swap2\n      swap1\n      tag_14\n      jump\t// in\n    tag_17:\n      mload(0x40)\n      dup1\n      swap2\n      sub\n      swap1\n      return\n        /* \"contracts/SimpleStorage.sol\":2065:2375  function addPerson(string memory _name, uint _favoriteNum) public {... */\n    tag_5:\n      tag_18\n      0x04\n      dup1\n      calldatasize\n      sub\n      dup2\n      add\n      swap1\n      tag_19\n      swap2\n      swap1\n      tag_20\n      jump\t// in\n    tag_19:\n      tag_21\n      jump\t// in\n    tag_18:\n      stop\n        /* \"contracts/SimpleStorage.sol\":1674:1696  People[] public people */\n    tag_6:\n      tag_22\n      0x04\n      dup1\n      calldatasize\n      sub\n      dup2\n      add\n      swap1\n      tag_23\n      swap2\n      swap1\n      tag_24\n      jump\t// in\n    tag_23:\n      tag_25\n      jump\t// in\n    tag_22:\n      mload(0x40)\n      tag_26\n      swap3\n      swap2\n      swap1\n      tag_27\n      jump\t// in\n    tag_26:\n      mload(0x40)\n      dup1\n      swap2\n      sub\n      swap1\n      return\n        /* \"contracts/SimpleStorage.sol\":2931:3084  function returnPerson(uint256 _index) public  view returns (People memory){... */\n    tag_7:\n      tag_28\n      0x04\n      dup1\n      calldatasize\n      sub\n      dup2\n      add\n      swap1\n      tag_29\n      swap2\n      swap1\n      tag_24\n      jump\t// in\n    tag_29:\n      tag_30\n      jump\t// in\n    tag_28:\n      mload(0x40)\n      tag_31\n      swap2\n      swap1\n      tag_32\n      jump\t// in\n    tag_31:\n      mload(0x40)\n      dup1\n      swap2\n      sub\n      swap1\n      return\n        /* \"contracts/SimpleStorage.sol\":2381:2502  function storeFunction(uint256 _favoriteNumber) public virtual  {... */\n    tag_8:\n      tag_33\n      0x04\n      dup1\n      calldatasize\n      sub\n      dup2\n      add\n      swap1\n      tag_34\n      swap2\n      swap1\n      tag_24\n      jump\t// in\n    tag_34:\n      tag_35\n      jump\t// in\n    tag_33:\n      stop\n        /* \"contracts/SimpleStorage.sol\":1424:1472  mapping (string => uint256) public  nameToFavNum */\n    tag_12:\n      0x08\n      dup2\n      dup1\n      mload\n      0x20\n      dup2\n      add\n      dup3\n      add\n      dup1\n      mload\n      dup5\n      dup3\n      mstore\n      0x20\n      dup4\n      add\n      0x20\n      dup6\n      add\n      keccak256\n      dup2\n      dup4\n      mstore\n      dup1\n      swap6\n      pop\n      pop\n      pop\n      pop\n      pop\n      pop\n      0x00\n      swap2\n      pop\n      swap1\n      pop\n      sload\n      dup2\n      jump\t// out\n        /* \"contracts/SimpleStorage.sol\":2833:2924  function retrieve() public  view  returns (uint256){... */\n    tag_16:\n        /* \"contracts/SimpleStorage.sol\":2876:2883  uint256 */\n      0x00\n        /* \"contracts/SimpleStorage.sol\":2902:2913  favortieNum */\n      sload(0x07)\n        /* \"contracts/SimpleStorage.sol\":2895:2913  return favortieNum */\n      swap1\n      pop\n        /* \"contracts/SimpleStorage.sol\":2833:2924  function retrieve() public  view  returns (uint256){... */\n      swap1\n      jump\t// out\n        /* \"contracts/SimpleStorage.sol\":2065:2375  function addPerson(string memory _name, uint _favoriteNum) public {... */\n    tag_21:\n        /* \"contracts/SimpleStorage.sol\":2135:2141  people */\n      0x09\n        /* \"contracts/SimpleStorage.sol\":2147:2174  People(_favoriteNum, _name) */\n      mload(0x40)\n      dup1\n      0x40\n      add\n      0x40\n      mstore\n      dup1\n        /* \"contracts/SimpleStorage.sol\":2154:2166  _favoriteNum */\n      dup4\n        /* \"contracts/SimpleStorage.sol\":2147:2174  People(_favoriteNum, _name) */\n      dup2\n      mstore\n      0x20\n      add\n        /* \"contracts/SimpleStorage.sol\":2168:2173  _name */\n      dup5\n        /* \"contracts/SimpleStorage.sol\":2147:2174  People(_favoriteNum, _name) */\n      dup2\n      mstore\n      pop\n        /* \"contracts/SimpleStorage.sol\":2135:2175  people.push(People(_favoriteNum, _name)) */\n      swap1\n      dup1\n      0x01\n      dup2\n      sload\n      add\n      dup1\n      dup3\n      sstore\n      dup1\n      swap2\n      pop\n      pop\n      0x01\n      swap1\n      sub\n      swap1\n      0x00\n      mstore\n      keccak256(0x00, 0x20)\n      swap1\n      0x02\n      mul\n      add\n      0x00\n      swap1\n      swap2\n      swap1\n      swap2\n      swap1\n      swap2\n      pop\n      0x00\n      dup3\n      add\n      mload\n      dup2\n      0x00\n      add\n      sstore\n      0x20\n      dup3\n      add\n      mload\n      dup2\n      0x01\n      add\n      swap1\n      dup2\n      tag_39\n      swap2\n      swap1\n      tag_40\n      jump\t// in\n    tag_39:\n      pop\n      pop\n      pop\n        /* \"contracts/SimpleStorage.sol\":2201:2213  _favoriteNum */\n      dup1\n        /* \"contracts/SimpleStorage.sol\":2180:2192  nameToFavNum */\n      0x08\n        /* \"contracts/SimpleStorage.sol\":2193:2198  _name */\n      dup4\n        /* \"contracts/SimpleStorage.sol\":2180:2199  nameToFavNum[_name] */\n      mload(0x40)\n      tag_41\n      swap2\n      swap1\n      tag_42\n      jump\t// in\n    tag_41:\n      swap1\n      dup2\n      mstore\n      0x20\n      add\n      mload(0x40)\n      dup1\n      swap2\n      sub\n      swap1\n      keccak256\n        /* \"contracts/SimpleStorage.sol\":2180:2213  nameToFavNum[_name] =_favoriteNum */\n      dup2\n      swap1\n      sstore\n      pop\n        /* \"contracts/SimpleStorage.sol\":2065:2375  function addPerson(string memory _name, uint _favoriteNum) public {... */\n      pop\n      pop\n      jump\t// out\n        /* \"contracts/SimpleStorage.sol\":1674:1696  People[] public people */\n    tag_25:\n      0x09\n      dup2\n      dup2\n      sload\n      dup2\n      lt\n      tag_43\n      jumpi\n      0x00\n      dup1\n      revert\n    tag_43:\n      swap1\n      0x00\n      mstore\n      keccak256(0x00, 0x20)\n      swap1\n      0x02\n      mul\n      add\n      0x00\n      swap2\n      pop\n      swap1\n      pop\n      dup1\n      0x00\n      add\n      sload\n      swap1\n      dup1\n      0x01\n      add\n      dup1\n      sload\n      tag_45\n      swap1\n      tag_46\n      jump\t// in\n    tag_45:\n      dup1\n      0x1f\n      add\n      0x20\n      dup1\n      swap2\n      div\n      mul\n      0x20\n      add\n      mload(0x40)\n      swap1\n      dup2\n      add\n      0x40\n      mstore\n      dup1\n      swap3\n      swap2\n      swap1\n      dup2\n      dup2\n      mstore\n      0x20\n      add\n      dup3\n      dup1\n      sload\n      tag_47\n      swap1\n      tag_46\n      jump\t// in\n    tag_47:\n      dup1\n      iszero\n      tag_48\n      jumpi\n      dup1\n      0x1f\n      lt\n      tag_49\n      jumpi\n      0x0100\n      dup1\n      dup4\n      sload\n      div\n      mul\n      dup4\n      mstore\n      swap2\n      0x20\n      add\n      swap2\n      jump(tag_48)\n    tag_49:\n      dup3\n      add\n      swap2\n      swap1\n      0x00\n      mstore\n      keccak256(0x00, 0x20)\n      swap1\n    tag_50:\n      dup2\n      sload\n      dup2\n      mstore\n      swap1\n      0x01\n      add\n      swap1\n      0x20\n      add\n      dup1\n      dup4\n      gt\n      tag_50\n      jumpi\n      dup3\n      swap1\n      sub\n      0x1f\n      and\n      dup3\n      add\n      swap2\n    tag_48:\n      pop\n      pop\n      pop\n      pop\n      pop\n      swap1\n      pop\n      dup3\n      jump\t// out\n        /* \"contracts/SimpleStorage.sol\":2931:3084  function returnPerson(uint256 _index) public  view returns (People memory){... */\n    tag_30:\n        /* \"contracts/SimpleStorage.sol\":2991:3004  People memory */\n      tag_51\n      tag_52\n      jump\t// in\n    tag_51:\n        /* \"contracts/SimpleStorage.sol\":3012:3035  People memory peopleNew */\n      0x00\n        /* \"contracts/SimpleStorage.sol\":3038:3044  people */\n      0x09\n        /* \"contracts/SimpleStorage.sol\":3045:3051  _index */\n      dup4\n        /* \"contracts/SimpleStorage.sol\":3038:3052  people[_index] */\n      dup2\n      sload\n      dup2\n      lt\n      tag_54\n      jumpi\n      tag_55\n      tag_56\n      jump\t// in\n    tag_55:\n    tag_54:\n      swap1\n      0x00\n      mstore\n      keccak256(0x00, 0x20)\n      swap1\n      0x02\n      mul\n      add\n        /* \"contracts/SimpleStorage.sol\":3012:3052  People memory peopleNew = people[_index] */\n      mload(0x40)\n      dup1\n      0x40\n      add\n      0x40\n      mstore\n      swap1\n      dup2\n      0x00\n      dup3\n      add\n      sload\n      dup2\n      mstore\n      0x20\n      add\n      0x01\n      dup3\n      add\n      dup1\n      sload\n      tag_58\n      swap1\n      tag_46\n      jump\t// in\n    tag_58:\n      dup1\n      0x1f\n      add\n      0x20\n      dup1\n      swap2\n      div\n      mul\n      0x20\n      add\n      mload(0x40)\n      swap1\n      dup2\n      add\n      0x40\n      mstore\n      dup1\n      swap3\n      swap2\n      swap1\n      dup2\n      dup2\n      mstore\n      0x20\n      add\n      dup3\n      dup1\n      sload\n      tag_59\n      swap1\n      tag_46\n      jump\t// in\n    tag_59:\n      dup1\n      iszero\n      tag_60\n      jumpi\n      dup1\n      0x1f\n      lt\n      tag_61\n      jumpi\n      0x0100\n      dup1\n      dup4\n      sload\n      div\n      mul\n      dup4\n      mstore\n      swap2\n      0x20\n      add\n      swap2\n      jump(tag_60)\n    tag_61:\n      dup3\n      add\n      swap2\n      swap1\n      0x00\n      mstore\n      keccak256(0x00, 0x20)\n      swap1\n    tag_62:\n      dup2\n      sload\n      dup2\n      mstore\n      swap1\n      0x01\n      add\n      swap1\n      0x20\n      add\n      dup1\n      dup4\n      gt\n      tag_62\n      jumpi\n      dup3\n      swap1\n      sub\n      0x1f\n      and\n      dup3\n      add\n      swap2\n    tag_60:\n      pop\n      pop\n      pop\n      pop\n      pop\n      dup2\n      mstore\n      pop\n      pop\n      swap1\n      pop\n        /* \"contracts/SimpleStorage.sol\":3066:3075  peopleNew */\n      dup1\n        /* \"contracts/SimpleStorage.sol\":3059:3075  return peopleNew */\n      swap2\n      pop\n      pop\n        /* \"contracts/SimpleStorage.sol\":2931:3084  function returnPerson(uint256 _index) public  view returns (People memory){... */\n      swap2\n      swap1\n      pop\n      jump\t// out\n        /* \"contracts/SimpleStorage.sol\":2381:2502  function storeFunction(uint256 _favoriteNumber) public virtual  {... */\n    tag_35:\n        /* \"contracts/SimpleStorage.sol\":2470:2485  _favoriteNumber */\n      dup1\n        /* \"contracts/SimpleStorage.sol\":2456:2467  favortieNum */\n      0x07\n        /* \"contracts/SimpleStorage.sol\":2456:2485  favortieNum = _favoriteNumber */\n      dup2\n      swap1\n      sstore\n      pop\n        /* \"contracts/SimpleStorage.sol\":2381:2502  function storeFunction(uint256 _favoriteNumber) public virtual  {... */\n      pop\n      jump\t// out\n    tag_52:\n      mload(0x40)\n      dup1\n      0x40\n      add\n      0x40\n      mstore\n      dup1\n      0x00\n      dup2\n      mstore\n      0x20\n      add\n      0x60\n      dup2\n      mstore\n      pop\n      swap1\n      jump\t// out\n        /* \"#utility.yul\":7:82   */\n    tag_64:\n        /* \"#utility.yul\":40:46   */\n      0x00\n        /* \"#utility.yul\":73:75   */\n      0x40\n        /* \"#utility.yul\":67:76   */\n      mload\n        /* \"#utility.yul\":57:76   */\n      swap1\n      pop\n        /* \"#utility.yul\":7:82   */\n      swap1\n      jump\t// out\n        /* \"#utility.yul\":88:205   */\n    tag_65:\n        /* \"#utility.yul\":197:198   */\n      0x00\n        /* \"#utility.yul\":194:195   */\n      dup1\n        /* \"#utility.yul\":187:199   */\n      revert\n        /* \"#utility.yul\":211:328   */\n    tag_66:\n        /* \"#utility.yul\":320:321   */\n      0x00\n        /* \"#utility.yul\":317:318   */\n      dup1\n        /* \"#utility.yul\":310:322   */\n      revert\n        /* \"#utility.yul\":334:451   */\n    tag_67:\n        /* \"#utility.yul\":443:444   */\n      0x00\n        /* \"#utility.yul\":440:441   */\n      dup1\n        /* \"#utility.yul\":433:445   */\n      revert\n        /* \"#utility.yul\":457:574   */\n    tag_68:\n        /* \"#utility.yul\":566:567   */\n      0x00\n        /* \"#utility.yul\":563:564   */\n      dup1\n        /* \"#utility.yul\":556:568   */\n      revert\n        /* \"#utility.yul\":580:682   */\n    tag_69:\n        /* \"#utility.yul\":621:627   */\n      0x00\n        /* \"#utility.yul\":672:674   */\n      0x1f\n        /* \"#utility.yul\":668:675   */\n      not\n        /* \"#utility.yul\":663:665   */\n      0x1f\n        /* \"#utility.yul\":656:661   */\n      dup4\n        /* \"#utility.yul\":652:666   */\n      add\n        /* \"#utility.yul\":648:676   */\n      and\n        /* \"#utility.yul\":638:676   */\n      swap1\n      pop\n        /* \"#utility.yul\":580:682   */\n      swap2\n      swap1\n      pop\n      jump\t// out\n        /* \"#utility.yul\":688:868   */\n    tag_70:\n        /* \"#utility.yul\":736:813   */\n      0x4e487b7100000000000000000000000000000000000000000000000000000000\n        /* \"#utility.yul\":733:734   */\n      0x00\n        /* \"#utility.yul\":726:814   */\n      mstore\n        /* \"#utility.yul\":833:837   */\n      0x41\n        /* \"#utility.yul\":830:831   */\n      0x04\n        /* \"#utility.yul\":823:838   */\n      mstore\n        /* \"#utility.yul\":857:861   */\n      0x24\n        /* \"#utility.yul\":854:855   */\n      0x00\n        /* \"#utility.yul\":847:862   */\n      revert\n        /* \"#utility.yul\":874:1155   */\n    tag_71:\n        /* \"#utility.yul\":957:984   */\n      tag_116\n        /* \"#utility.yul\":979:983   */\n      dup3\n        /* \"#utility.yul\":957:984   */\n      tag_69\n      jump\t// in\n    tag_116:\n        /* \"#utility.yul\":949:955   */\n      dup2\n        /* \"#utility.yul\":945:985   */\n      add\n        /* \"#utility.yul\":1087:1093   */\n      dup2\n        /* \"#utility.yul\":1075:1085   */\n      dup2\n        /* \"#utility.yul\":1072:1094   */\n      lt\n        /* \"#utility.yul\":1051:1069   */\n      0xffffffffffffffff\n        /* \"#utility.yul\":1039:1049   */\n      dup3\n        /* \"#utility.yul\":1036:1070   */\n      gt\n        /* \"#utility.yul\":1033:1095   */\n      or\n        /* \"#utility.yul\":1030:1118   */\n      iszero\n      tag_117\n      jumpi\n        /* \"#utility.yul\":1098:1116   */\n      tag_118\n      tag_70\n      jump\t// in\n    tag_118:\n        /* \"#utility.yul\":1030:1118   */\n    tag_117:\n        /* \"#utility.yul\":1138:1148   */\n      dup1\n        /* \"#utility.yul\":1134:1136   */\n      0x40\n        /* \"#utility.yul\":1127:1149   */\n      mstore\n        /* \"#utility.yul\":917:1155   */\n      pop\n        /* \"#utility.yul\":874:1155   */\n      pop\n      pop\n      jump\t// out\n        /* \"#utility.yul\":1161:1290   */\n    tag_72:\n        /* \"#utility.yul\":1195:1201   */\n      0x00\n        /* \"#utility.yul\":1222:1242   */\n      tag_120\n      tag_64\n      jump\t// in\n    tag_120:\n        /* \"#utility.yul\":1212:1242   */\n      swap1\n      pop\n        /* \"#utility.yul\":1251:1284   */\n      tag_121\n        /* \"#utility.yul\":1279:1283   */\n      dup3\n        /* \"#utility.yul\":1271:1277   */\n      dup3\n        /* \"#utility.yul\":1251:1284   */\n      tag_71\n      jump\t// in\n    tag_121:\n        /* \"#utility.yul\":1161:1290   */\n      swap2\n      swap1\n      pop\n      jump\t// out\n        /* \"#utility.yul\":1296:1604   */\n    tag_73:\n        /* \"#utility.yul\":1358:1362   */\n      0x00\n        /* \"#utility.yul\":1448:1466   */\n      0xffffffffffffffff\n        /* \"#utility.yul\":1440:1446   */\n      dup3\n        /* \"#utility.yul\":1437:1467   */\n      gt\n        /* \"#utility.yul\":1434:1490   */\n      iszero\n      tag_123\n      jumpi\n        /* \"#utility.yul\":1470:1488   */\n      tag_124\n      tag_70\n      jump\t// in\n    tag_124:\n        /* \"#utility.yul\":1434:1490   */\n    tag_123:\n        /* \"#utility.yul\":1508:1537   */\n      tag_125\n        /* \"#utility.yul\":1530:1536   */\n      dup3\n        /* \"#utility.yul\":1508:1537   */\n      tag_69\n      jump\t// in\n    tag_125:\n        /* \"#utility.yul\":1500:1537   */\n      swap1\n      pop\n        /* \"#utility.yul\":1592:1596   */\n      0x20\n        /* \"#utility.yul\":1586:1590   */\n      dup2\n        /* \"#utility.yul\":1582:1597   */\n      add\n        /* \"#utility.yul\":1574:1597   */\n      swap1\n      pop\n        /* \"#utility.yul\":1296:1604   */\n      swap2\n      swap1\n      pop\n      jump\t// out\n        /* \"#utility.yul\":1610:1756   */\n    tag_74:\n        /* \"#utility.yul\":1707:1713   */\n      dup3\n        /* \"#utility.yul\":1702:1705   */\n      dup2\n        /* \"#utility.yul\":1697:1700   */\n      dup4\n        /* \"#utility.yul\":1684:1714   */\n      calldatacopy\n        /* \"#utility.yul\":1748:1749   */\n      0x00\n        /* \"#utility.yul\":1739:1745   */\n      dup4\n        /* \"#utility.yul\":1734:1737   */\n      dup4\n        /* \"#utility.yul\":1730:1746   */\n      add\n        /* \"#utility.yul\":1723:1750   */\n      mstore\n        /* \"#utility.yul\":1610:1756   */\n      pop\n      pop\n      pop\n      jump\t// out\n        /* \"#utility.yul\":1762:2187   */\n    tag_75:\n        /* \"#utility.yul\":1840:1845   */\n      0x00\n        /* \"#utility.yul\":1865:1931   */\n      tag_128\n        /* \"#utility.yul\":1881:1930   */\n      tag_129\n        /* \"#utility.yul\":1923:1929   */\n      dup5\n        /* \"#utility.yul\":1881:1930   */\n      tag_73\n      jump\t// in\n    tag_129:\n        /* \"#utility.yul\":1865:1931   */\n      tag_72\n      jump\t// in\n    tag_128:\n        /* \"#utility.yul\":1856:1931   */\n      swap1\n      pop\n        /* \"#utility.yul\":1954:1960   */\n      dup3\n        /* \"#utility.yul\":1947:1952   */\n      dup2\n        /* \"#utility.yul\":1940:1961   */\n      mstore\n        /* \"#utility.yul\":1992:1996   */\n      0x20\n        /* \"#utility.yul\":1985:1990   */\n      dup2\n        /* \"#utility.yul\":1981:1997   */\n      add\n        /* \"#utility.yul\":2030:2033   */\n      dup5\n        /* \"#utility.yul\":2021:2027   */\n      dup5\n        /* \"#utility.yul\":2016:2019   */\n      dup5\n        /* \"#utility.yul\":2012:2028   */\n      add\n        /* \"#utility.yul\":2009:2034   */\n      gt\n        /* \"#utility.yul\":2006:2118   */\n      iszero\n      tag_130\n      jumpi\n        /* \"#utility.yul\":2037:2116   */\n      tag_131\n      tag_68\n      jump\t// in\n    tag_131:\n        /* \"#utility.yul\":2006:2118   */\n    tag_130:\n        /* \"#utility.yul\":2127:2181   */\n      tag_132\n        /* \"#utility.yul\":2174:2180   */\n      dup5\n        /* \"#utility.yul\":2169:2172   */\n      dup3\n        /* \"#utility.yul\":2164:2167   */\n      dup6\n        /* \"#utility.yul\":2127:2181   */\n      tag_74\n      jump\t// in\n    tag_132:\n        /* \"#utility.yul\":1846:2187   */\n      pop\n        /* \"#utility.yul\":1762:2187   */\n      swap4\n      swap3\n      pop\n      pop\n      pop\n      jump\t// out\n        /* \"#utility.yul\":2207:2547   */\n    tag_76:\n        /* \"#utility.yul\":2263:2268   */\n      0x00\n        /* \"#utility.yul\":2312:2315   */\n      dup3\n        /* \"#utility.yul\":2305:2309   */\n      0x1f\n        /* \"#utility.yul\":2297:2303   */\n      dup4\n        /* \"#utility.yul\":2293:2310   */\n      add\n        /* \"#utility.yul\":2289:2316   */\n      slt\n        /* \"#utility.yul\":2279:2401   */\n      tag_134\n      jumpi\n        /* \"#utility.yul\":2320:2399   */\n      tag_135\n      tag_67\n      jump\t// in\n    tag_135:\n        /* \"#utility.yul\":2279:2401   */\n    tag_134:\n        /* \"#utility.yul\":2437:2443   */\n      dup2\n        /* \"#utility.yul\":2424:2444   */\n      calldataload\n        /* \"#utility.yul\":2462:2541   */\n      tag_136\n        /* \"#utility.yul\":2537:2540   */\n      dup5\n        /* \"#utility.yul\":2529:2535   */\n      dup3\n        /* \"#utility.yul\":2522:2526   */\n      0x20\n        /* \"#utility.yul\":2514:2520   */\n      dup7\n        /* \"#utility.yul\":2510:2527   */\n      add\n        /* \"#utility.yul\":2462:2541   */\n      tag_75\n      jump\t// in\n    tag_136:\n        /* \"#utility.yul\":2453:2541   */\n      swap2\n      pop\n        /* \"#utility.yul\":2269:2547   */\n      pop\n        /* \"#utility.yul\":2207:2547   */\n      swap3\n      swap2\n      pop\n      pop\n      jump\t// out\n        /* \"#utility.yul\":2553:3062   */\n    tag_11:\n        /* \"#utility.yul\":2622:2628   */\n      0x00\n        /* \"#utility.yul\":2671:2673   */\n      0x20\n        /* \"#utility.yul\":2659:2668   */\n      dup3\n        /* \"#utility.yul\":2650:2657   */\n      dup5\n        /* \"#utility.yul\":2646:2669   */\n      sub\n        /* \"#utility.yul\":2642:2674   */\n      slt\n        /* \"#utility.yul\":2639:2758   */\n      iszero\n      tag_138\n      jumpi\n        /* \"#utility.yul\":2677:2756   */\n      tag_139\n      tag_65\n      jump\t// in\n    tag_139:\n        /* \"#utility.yul\":2639:2758   */\n    tag_138:\n        /* \"#utility.yul\":2825:2826   */\n      0x00\n        /* \"#utility.yul\":2814:2823   */\n      dup3\n        /* \"#utility.yul\":2810:2827   */\n      add\n        /* \"#utility.yul\":2797:2828   */\n      calldataload\n        /* \"#utility.yul\":2855:2873   */\n      0xffffffffffffffff\n        /* \"#utility.yul\":2847:2853   */\n      dup2\n        /* \"#utility.yul\":2844:2874   */\n      gt\n        /* \"#utility.yul\":2841:2958   */\n      iszero\n      tag_140\n      jumpi\n        /* \"#utility.yul\":2877:2956   */\n      tag_141\n      tag_66\n      jump\t// in\n    tag_141:\n        /* \"#utility.yul\":2841:2958   */\n    tag_140:\n        /* \"#utility.yul\":2982:3045   */\n      tag_142\n        /* \"#utility.yul\":3037:3044   */\n      dup5\n        /* \"#utility.yul\":3028:3034   */\n      dup3\n        /* \"#utility.yul\":3017:3026   */\n      dup6\n        /* \"#utility.yul\":3013:3035   */\n      add\n        /* \"#utility.yul\":2982:3045   */\n      tag_76\n      jump\t// in\n    tag_142:\n        /* \"#utility.yul\":2972:3045   */\n      swap2\n      pop\n        /* \"#utility.yul\":2768:3055   */\n      pop\n        /* \"#utility.yul\":2553:3062   */\n      swap3\n      swap2\n      pop\n      pop\n      jump\t// out\n        /* \"#utility.yul\":3068:3145   */\n    tag_77:\n        /* \"#utility.yul\":3105:3112   */\n      0x00\n        /* \"#utility.yul\":3134:3139   */\n      dup2\n        /* \"#utility.yul\":3123:3139   */\n      swap1\n      pop\n        /* \"#utility.yul\":3068:3145   */\n      swap2\n      swap1\n      pop\n      jump\t// out\n        /* \"#utility.yul\":3151:3269   */\n    tag_78:\n        /* \"#utility.yul\":3238:3262   */\n      tag_145\n        /* \"#utility.yul\":3256:3261   */\n      dup2\n        /* \"#utility.yul\":3238:3262   */\n      tag_77\n      jump\t// in\n    tag_145:\n        /* \"#utility.yul\":3233:3236   */\n      dup3\n        /* \"#utility.yul\":3226:3263   */\n      mstore\n        /* \"#utility.yul\":3151:3269   */\n      pop\n      pop\n      jump\t// out\n        /* \"#utility.yul\":3275:3497   */\n    tag_14:\n        /* \"#utility.yul\":3368:3372   */\n      0x00\n        /* \"#utility.yul\":3406:3408   */\n      0x20\n        /* \"#utility.yul\":3395:3404   */\n      dup3\n        /* \"#utility.yul\":3391:3409   */\n      add\n        /* \"#utility.yul\":3383:3409   */\n      swap1\n      pop\n        /* \"#utility.yul\":3419:3490   */\n      tag_147\n        /* \"#utility.yul\":3487:3488   */\n      0x00\n        /* \"#utility.yul\":3476:3485   */\n      dup4\n        /* \"#utility.yul\":3472:3489   */\n      add\n        /* \"#utility.yul\":3463:3469   */\n      dup5\n        /* \"#utility.yul\":3419:3490   */\n      tag_78\n      jump\t// in\n    tag_147:\n        /* \"#utility.yul\":3275:3497   */\n      swap3\n      swap2\n      pop\n      pop\n      jump\t// out\n        /* \"#utility.yul\":3503:3625   */\n    tag_79:\n        /* \"#utility.yul\":3576:3600   */\n      tag_149\n        /* \"#utility.yul\":3594:3599   */\n      dup2\n        /* \"#utility.yul\":3576:3600   */\n      tag_77\n      jump\t// in\n    tag_149:\n        /* \"#utility.yul\":3569:3574   */\n      dup2\n        /* \"#utility.yul\":3566:3601   */\n      eq\n        /* \"#utility.yul\":3556:3619   */\n      tag_150\n      jumpi\n        /* \"#utility.yul\":3615:3616   */\n      0x00\n        /* \"#utility.yul\":3612:3613   */\n      dup1\n        /* \"#utility.yul\":3605:3617   */\n      revert\n        /* \"#utility.yul\":3556:3619   */\n    tag_150:\n        /* \"#utility.yul\":3503:3625   */\n      pop\n      jump\t// out\n        /* \"#utility.yul\":3631:3770   */\n    tag_80:\n        /* \"#utility.yul\":3677:3682   */\n      0x00\n        /* \"#utility.yul\":3715:3721   */\n      dup2\n        /* \"#utility.yul\":3702:3722   */\n      calldataload\n        /* \"#utility.yul\":3693:3722   */\n      swap1\n      pop\n        /* \"#utility.yul\":3731:3764   */\n      tag_152\n        /* \"#utility.yul\":3758:3763   */\n      dup2\n        /* \"#utility.yul\":3731:3764   */\n      tag_79\n      jump\t// in\n    tag_152:\n        /* \"#utility.yul\":3631:3770   */\n      swap3\n      swap2\n      pop\n      pop\n      jump\t// out\n        /* \"#utility.yul\":3776:4430   */\n    tag_20:\n        /* \"#utility.yul\":3854:3860   */\n      0x00\n        /* \"#utility.yul\":3862:3868   */\n      dup1\n        /* \"#utility.yul\":3911:3913   */\n      0x40\n        /* \"#utility.yul\":3899:3908   */\n      dup4\n        /* \"#utility.yul\":3890:3897   */\n      dup6\n        /* \"#utility.yul\":3886:3909   */\n      sub\n        /* \"#utility.yul\":3882:3914   */\n      slt\n        /* \"#utility.yul\":3879:3998   */\n      iszero\n      tag_154\n      jumpi\n        /* \"#utility.yul\":3917:3996   */\n      tag_155\n      tag_65\n      jump\t// in\n    tag_155:\n        /* \"#utility.yul\":3879:3998   */\n    tag_154:\n        /* \"#utility.yul\":4065:4066   */\n      0x00\n        /* \"#utility.yul\":4054:4063   */\n      dup4\n        /* \"#utility.yul\":4050:4067   */\n      add\n        /* \"#utility.yul\":4037:4068   */\n      calldataload\n        /* \"#utility.yul\":4095:4113   */\n      0xffffffffffffffff\n        /* \"#utility.yul\":4087:4093   */\n      dup2\n        /* \"#utility.yul\":4084:4114   */\n      gt\n        /* \"#utility.yul\":4081:4198   */\n      iszero\n      tag_156\n      jumpi\n        /* \"#utility.yul\":4117:4196   */\n      tag_157\n      tag_66\n      jump\t// in\n    tag_157:\n        /* \"#utility.yul\":4081:4198   */\n    tag_156:\n        /* \"#utility.yul\":4222:4285   */\n      tag_158\n        /* \"#utility.yul\":4277:4284   */\n      dup6\n        /* \"#utility.yul\":4268:4274   */\n      dup3\n        /* \"#utility.yul\":4257:4266   */\n      dup7\n        /* \"#utility.yul\":4253:4275   */\n      add\n        /* \"#utility.yul\":4222:4285   */\n      tag_76\n      jump\t// in\n    tag_158:\n        /* \"#utility.yul\":4212:4285   */\n      swap3\n      pop\n        /* \"#utility.yul\":4008:4295   */\n      pop\n        /* \"#utility.yul\":4334:4336   */\n      0x20\n        /* \"#utility.yul\":4360:4413   */\n      tag_159\n        /* \"#utility.yul\":4405:4412   */\n      dup6\n        /* \"#utility.yul\":4396:4402   */\n      dup3\n        /* \"#utility.yul\":4385:4394   */\n      dup7\n        /* \"#utility.yul\":4381:4403   */\n      add\n        /* \"#utility.yul\":4360:4413   */\n      tag_80\n      jump\t// in\n    tag_159:\n        /* \"#utility.yul\":4350:4413   */\n      swap2\n      pop\n        /* \"#utility.yul\":4305:4423   */\n      pop\n        /* \"#utility.yul\":3776:4430   */\n      swap3\n      pop\n      swap3\n      swap1\n      pop\n      jump\t// out\n        /* \"#utility.yul\":4436:4765   */\n    tag_24:\n        /* \"#utility.yul\":4495:4501   */\n      0x00\n        /* \"#utility.yul\":4544:4546   */\n      0x20\n        /* \"#utility.yul\":4532:4541   */\n      dup3\n        /* \"#utility.yul\":4523:4530   */\n      dup5\n        /* \"#utility.yul\":4519:4542   */\n      sub\n        /* \"#utility.yul\":4515:4547   */\n      slt\n        /* \"#utility.yul\":4512:4631   */\n      iszero\n      tag_161\n      jumpi\n        /* \"#utility.yul\":4550:4629   */\n      tag_162\n      tag_65\n      jump\t// in\n    tag_162:\n        /* \"#utility.yul\":4512:4631   */\n    tag_161:\n        /* \"#utility.yul\":4670:4671   */\n      0x00\n        /* \"#utility.yul\":4695:4748   */\n      tag_163\n        /* \"#utility.yul\":4740:4747   */\n      dup5\n        /* \"#utility.yul\":4731:4737   */\n      dup3\n        /* \"#utility.yul\":4720:4729   */\n      dup6\n        /* \"#utility.yul\":4716:4738   */\n      add\n        /* \"#utility.yul\":4695:4748   */\n      tag_80\n      jump\t// in\n    tag_163:\n        /* \"#utility.yul\":4685:4748   */\n      swap2\n      pop\n        /* \"#utility.yul\":4641:4758   */\n      pop\n        /* \"#utility.yul\":4436:4765   */\n      swap3\n      swap2\n      pop\n      pop\n      jump\t// out\n        /* \"#utility.yul\":4771:4870   */\n    tag_81:\n        /* \"#utility.yul\":4823:4829   */\n      0x00\n        /* \"#utility.yul\":4857:4862   */\n      dup2\n        /* \"#utility.yul\":4851:4863   */\n      mload\n        /* \"#utility.yul\":4841:4863   */\n      swap1\n      pop\n        /* \"#utility.yul\":4771:4870   */\n      swap2\n      swap1\n      pop\n      jump\t// out\n        /* \"#utility.yul\":4876:5045   */\n    tag_82:\n        /* \"#utility.yul\":4960:4971   */\n      0x00\n        /* \"#utility.yul\":4994:5000   */\n      dup3\n        /* \"#utility.yul\":4989:4992   */\n      dup3\n        /* \"#utility.yul\":4982:5001   */\n      mstore\n        /* \"#utility.yul\":5034:5038   */\n      0x20\n        /* \"#utility.yul\":5029:5032   */\n      dup3\n        /* \"#utility.yul\":5025:5039   */\n      add\n        /* \"#utility.yul\":5010:5039   */\n      swap1\n      pop\n        /* \"#utility.yul\":4876:5045   */\n      swap3\n      swap2\n      pop\n      pop\n      jump\t// out\n        /* \"#utility.yul\":5051:5297   */\n    tag_83:\n        /* \"#utility.yul\":5132:5133   */\n      0x00\n        /* \"#utility.yul\":5142:5255   */\n    tag_167:\n        /* \"#utility.yul\":5156:5162   */\n      dup4\n        /* \"#utility.yul\":5153:5154   */\n      dup2\n        /* \"#utility.yul\":5150:5163   */\n      lt\n        /* \"#utility.yul\":5142:5255   */\n      iszero\n      tag_169\n      jumpi\n        /* \"#utility.yul\":5241:5242   */\n      dup1\n        /* \"#utility.yul\":5236:5239   */\n      dup3\n        /* \"#utility.yul\":5232:5243   */\n      add\n        /* \"#utility.yul\":5226:5244   */\n      mload\n        /* \"#utility.yul\":5222:5223   */\n      dup2\n        /* \"#utility.yul\":5217:5220   */\n      dup5\n        /* \"#utility.yul\":5213:5224   */\n      add\n        /* \"#utility.yul\":5206:5245   */\n      mstore\n        /* \"#utility.yul\":5178:5180   */\n      0x20\n        /* \"#utility.yul\":5175:5176   */\n      dup2\n        /* \"#utility.yul\":5171:5181   */\n      add\n        /* \"#utility.yul\":5166:5181   */\n      swap1\n      pop\n        /* \"#utility.yul\":5142:5255   */\n      jump(tag_167)\n    tag_169:\n        /* \"#utility.yul\":5289:5290   */\n      0x00\n        /* \"#utility.yul\":5280:5286   */\n      dup5\n        /* \"#utility.yul\":5275:5278   */\n      dup5\n        /* \"#utility.yul\":5271:5287   */\n      add\n        /* \"#utility.yul\":5264:5291   */\n      mstore\n        /* \"#utility.yul\":5113:5297   */\n      pop\n        /* \"#utility.yul\":5051:5297   */\n      pop\n      pop\n      pop\n      jump\t// out\n        /* \"#utility.yul\":5303:5680   */\n    tag_84:\n        /* \"#utility.yul\":5391:5394   */\n      0x00\n        /* \"#utility.yul\":5419:5458   */\n      tag_171\n        /* \"#utility.yul\":5452:5457   */\n      dup3\n        /* \"#utility.yul\":5419:5458   */\n      tag_81\n      jump\t// in\n    tag_171:\n        /* \"#utility.yul\":5474:5545   */\n      tag_172\n        /* \"#utility.yul\":5538:5544   */\n      dup2\n        /* \"#utility.yul\":5533:5536   */\n      dup6\n        /* \"#utility.yul\":5474:5545   */\n      tag_82\n      jump\t// in\n    tag_172:\n        /* \"#utility.yul\":5467:5545   */\n      swap4\n      pop\n        /* \"#utility.yul\":5554:5619   */\n      tag_173\n        /* \"#utility.yul\":5612:5618   */\n      dup2\n        /* \"#utility.yul\":5607:5610   */\n      dup6\n        /* \"#utility.yul\":5600:5604   */\n      0x20\n        /* \"#utility.yul\":5593:5598   */\n      dup7\n        /* \"#utility.yul\":5589:5605   */\n      add\n        /* \"#utility.yul\":5554:5619   */\n      tag_83\n      jump\t// in\n    tag_173:\n        /* \"#utility.yul\":5644:5673   */\n      tag_174\n        /* \"#utility.yul\":5666:5672   */\n      dup2\n        /* \"#utility.yul\":5644:5673   */\n      tag_69\n      jump\t// in\n    tag_174:\n        /* \"#utility.yul\":5639:5642   */\n      dup5\n        /* \"#utility.yul\":5635:5674   */\n      add\n        /* \"#utility.yul\":5628:5674   */\n      swap2\n      pop\n        /* \"#utility.yul\":5395:5680   */\n      pop\n        /* \"#utility.yul\":5303:5680   */\n      swap3\n      swap2\n      pop\n      pop\n      jump\t// out\n        /* \"#utility.yul\":5686:6109   */\n    tag_27:\n        /* \"#utility.yul\":5827:5831   */\n      0x00\n        /* \"#utility.yul\":5865:5867   */\n      0x40\n        /* \"#utility.yul\":5854:5863   */\n      dup3\n        /* \"#utility.yul\":5850:5868   */\n      add\n        /* \"#utility.yul\":5842:5868   */\n      swap1\n      pop\n        /* \"#utility.yul\":5878:5949   */\n      tag_176\n        /* \"#utility.yul\":5946:5947   */\n      0x00\n        /* \"#utility.yul\":5935:5944   */\n      dup4\n        /* \"#utility.yul\":5931:5948   */\n      add\n        /* \"#utility.yul\":5922:5928   */\n      dup6\n        /* \"#utility.yul\":5878:5949   */\n      tag_78\n      jump\t// in\n    tag_176:\n        /* \"#utility.yul\":5996:6005   */\n      dup2\n        /* \"#utility.yul\":5990:5994   */\n      dup2\n        /* \"#utility.yul\":5986:6006   */\n      sub\n        /* \"#utility.yul\":5981:5983   */\n      0x20\n        /* \"#utility.yul\":5970:5979   */\n      dup4\n        /* \"#utility.yul\":5966:5984   */\n      add\n        /* \"#utility.yul\":5959:6007   */\n      mstore\n        /* \"#utility.yul\":6024:6102   */\n      tag_177\n        /* \"#utility.yul\":6097:6101   */\n      dup2\n        /* \"#utility.yul\":6088:6094   */\n      dup5\n        /* \"#utility.yul\":6024:6102   */\n      tag_84\n      jump\t// in\n    tag_177:\n        /* \"#utility.yul\":6016:6102   */\n      swap1\n      pop\n        /* \"#utility.yul\":5686:6109   */\n      swap4\n      swap3\n      pop\n      pop\n      pop\n      jump\t// out\n        /* \"#utility.yul\":6115:6223   */\n    tag_85:\n        /* \"#utility.yul\":6192:6216   */\n      tag_179\n        /* \"#utility.yul\":6210:6215   */\n      dup2\n        /* \"#utility.yul\":6192:6216   */\n      tag_77\n      jump\t// in\n    tag_179:\n        /* \"#utility.yul\":6187:6190   */\n      dup3\n        /* \"#utility.yul\":6180:6217   */\n      mstore\n        /* \"#utility.yul\":6115:6223   */\n      pop\n      pop\n      jump\t// out\n        /* \"#utility.yul\":6229:6388   */\n    tag_86:\n        /* \"#utility.yul\":6303:6314   */\n      0x00\n        /* \"#utility.yul\":6337:6343   */\n      dup3\n        /* \"#utility.yul\":6332:6335   */\n      dup3\n        /* \"#utility.yul\":6325:6344   */\n      mstore\n        /* \"#utility.yul\":6377:6381   */\n      0x20\n        /* \"#utility.yul\":6372:6375   */\n      dup3\n        /* \"#utility.yul\":6368:6382   */\n      add\n        /* \"#utility.yul\":6353:6382   */\n      swap1\n      pop\n        /* \"#utility.yul\":6229:6388   */\n      swap3\n      swap2\n      pop\n      pop\n      jump\t// out\n        /* \"#utility.yul\":6394:6751   */\n    tag_87:\n        /* \"#utility.yul\":6472:6475   */\n      0x00\n        /* \"#utility.yul\":6500:6539   */\n      tag_182\n        /* \"#utility.yul\":6533:6538   */\n      dup3\n        /* \"#utility.yul\":6500:6539   */\n      tag_81\n      jump\t// in\n    tag_182:\n        /* \"#utility.yul\":6555:6616   */\n      tag_183\n        /* \"#utility.yul\":6609:6615   */\n      dup2\n        /* \"#utility.yul\":6604:6607   */\n      dup6\n        /* \"#utility.yul\":6555:6616   */\n      tag_86\n      jump\t// in\n    tag_183:\n        /* \"#utility.yul\":6548:6616   */\n      swap4\n      pop\n        /* \"#utility.yul\":6625:6690   */\n      tag_184\n        /* \"#utility.yul\":6683:6689   */\n      dup2\n        /* \"#utility.yul\":6678:6681   */\n      dup6\n        /* \"#utility.yul\":6671:6675   */\n      0x20\n        /* \"#utility.yul\":6664:6669   */\n      dup7\n        /* \"#utility.yul\":6660:6676   */\n      add\n        /* \"#utility.yul\":6625:6690   */\n      tag_83\n      jump\t// in\n    tag_184:\n        /* \"#utility.yul\":6715:6744   */\n      tag_185\n        /* \"#utility.yul\":6737:6743   */\n      dup2\n        /* \"#utility.yul\":6715:6744   */\n      tag_69\n      jump\t// in\n    tag_185:\n        /* \"#utility.yul\":6710:6713   */\n      dup5\n        /* \"#utility.yul\":6706:6745   */\n      add\n        /* \"#utility.yul\":6699:6745   */\n      swap2\n      pop\n        /* \"#utility.yul\":6476:6751   */\n      pop\n        /* \"#utility.yul\":6394:6751   */\n      swap3\n      swap2\n      pop\n      pop\n      jump\t// out\n        /* \"#utility.yul\":6823:7430   */\n    tag_88:\n        /* \"#utility.yul\":6936:6939   */\n      0x00\n        /* \"#utility.yul\":6972:6976   */\n      0x40\n        /* \"#utility.yul\":6967:6970   */\n      dup4\n        /* \"#utility.yul\":6963:6977   */\n      add\n        /* \"#utility.yul\":7066:7070   */\n      0x00\n        /* \"#utility.yul\":7059:7064   */\n      dup4\n        /* \"#utility.yul\":7055:7071   */\n      add\n        /* \"#utility.yul\":7049:7072   */\n      mload\n        /* \"#utility.yul\":7085:7148   */\n      tag_187\n        /* \"#utility.yul\":7142:7146   */\n      0x00\n        /* \"#utility.yul\":7137:7140   */\n      dup7\n        /* \"#utility.yul\":7133:7147   */\n      add\n        /* \"#utility.yul\":7119:7131   */\n      dup3\n        /* \"#utility.yul\":7085:7148   */\n      tag_85\n      jump\t// in\n    tag_187:\n        /* \"#utility.yul\":6987:7158   */\n      pop\n        /* \"#utility.yul\":7240:7244   */\n      0x20\n        /* \"#utility.yul\":7233:7238   */\n      dup4\n        /* \"#utility.yul\":7229:7245   */\n      add\n        /* \"#utility.yul\":7223:7246   */\n      mload\n        /* \"#utility.yul\":7293:7296   */\n      dup5\n        /* \"#utility.yul\":7287:7291   */\n      dup3\n        /* \"#utility.yul\":7283:7297   */\n      sub\n        /* \"#utility.yul\":7276:7280   */\n      0x20\n        /* \"#utility.yul\":7271:7274   */\n      dup7\n        /* \"#utility.yul\":7267:7281   */\n      add\n        /* \"#utility.yul\":7260:7298   */\n      mstore\n        /* \"#utility.yul\":7319:7392   */\n      tag_188\n        /* \"#utility.yul\":7387:7391   */\n      dup3\n        /* \"#utility.yul\":7373:7385   */\n      dup3\n        /* \"#utility.yul\":7319:7392   */\n      tag_87\n      jump\t// in\n    tag_188:\n        /* \"#utility.yul\":7311:7392   */\n      swap2\n      pop\n        /* \"#utility.yul\":7168:7403   */\n      pop\n        /* \"#utility.yul\":7420:7424   */\n      dup1\n        /* \"#utility.yul\":7413:7424   */\n      swap2\n      pop\n        /* \"#utility.yul\":6941:7430   */\n      pop\n        /* \"#utility.yul\":6823:7430   */\n      swap3\n      swap2\n      pop\n      pop\n      jump\t// out\n        /* \"#utility.yul\":7436:7797   */\n    tag_32:\n        /* \"#utility.yul\":7573:7577   */\n      0x00\n        /* \"#utility.yul\":7611:7613   */\n      0x20\n        /* \"#utility.yul\":7600:7609   */\n      dup3\n        /* \"#utility.yul\":7596:7614   */\n      add\n        /* \"#utility.yul\":7588:7614   */\n      swap1\n      pop\n        /* \"#utility.yul\":7660:7669   */\n      dup2\n        /* \"#utility.yul\":7654:7658   */\n      dup2\n        /* \"#utility.yul\":7650:7670   */\n      sub\n        /* \"#utility.yul\":7646:7647   */\n      0x00\n        /* \"#utility.yul\":7635:7644   */\n      dup4\n        /* \"#utility.yul\":7631:7648   */\n      add\n        /* \"#utility.yul\":7624:7671   */\n      mstore\n        /* \"#utility.yul\":7688:7790   */\n      tag_190\n        /* \"#utility.yul\":7785:7789   */\n      dup2\n        /* \"#utility.yul\":7776:7782   */\n      dup5\n        /* \"#utility.yul\":7688:7790   */\n      tag_88\n      jump\t// in\n    tag_190:\n        /* \"#utility.yul\":7680:7790   */\n      swap1\n      pop\n        /* \"#utility.yul\":7436:7797   */\n      swap3\n      swap2\n      pop\n      pop\n      jump\t// out\n        /* \"#utility.yul\":7803:7983   */\n    tag_89:\n        /* \"#utility.yul\":7851:7928   */\n      0x4e487b7100000000000000000000000000000000000000000000000000000000\n        /* \"#utility.yul\":7848:7849   */\n      0x00\n        /* \"#utility.yul\":7841:7929   */\n      mstore\n        /* \"#utility.yul\":7948:7952   */\n      0x22\n        /* \"#utility.yul\":7945:7946   */\n      0x04\n        /* \"#utility.yul\":7938:7953   */\n      mstore\n        /* \"#utility.yul\":7972:7976   */\n      0x24\n        /* \"#utility.yul\":7969:7970   */\n      0x00\n        /* \"#utility.yul\":7962:7977   */\n      revert\n        /* \"#utility.yul\":7989:8309   */\n    tag_46:\n        /* \"#utility.yul\":8033:8039   */\n      0x00\n        /* \"#utility.yul\":8070:8071   */\n      0x02\n        /* \"#utility.yul\":8064:8068   */\n      dup3\n        /* \"#utility.yul\":8060:8072   */\n      div\n        /* \"#utility.yul\":8050:8072   */\n      swap1\n      pop\n        /* \"#utility.yul\":8117:8118   */\n      0x01\n        /* \"#utility.yul\":8111:8115   */\n      dup3\n        /* \"#utility.yul\":8107:8119   */\n      and\n        /* \"#utility.yul\":8138:8156   */\n      dup1\n        /* \"#utility.yul\":8128:8209   */\n      tag_193\n      jumpi\n        /* \"#utility.yul\":8194:8198   */\n      0x7f\n        /* \"#utility.yul\":8186:8192   */\n      dup3\n        /* \"#utility.yul\":8182:8199   */\n      and\n        /* \"#utility.yul\":8172:8199   */\n      swap2\n      pop\n        /* \"#utility.yul\":8128:8209   */\n    tag_193:\n        /* \"#utility.yul\":8256:8258   */\n      0x20\n        /* \"#utility.yul\":8248:8254   */\n      dup3\n        /* \"#utility.yul\":8245:8259   */\n      lt\n        /* \"#utility.yul\":8225:8243   */\n      dup2\n        /* \"#utility.yul\":8222:8260   */\n      sub\n        /* \"#utility.yul\":8219:8303   */\n      tag_194\n      jumpi\n        /* \"#utility.yul\":8275:8293   */\n      tag_195\n      tag_89\n      jump\t// in\n    tag_195:\n        /* \"#utility.yul\":8219:8303   */\n    tag_194:\n        /* \"#utility.yul\":8040:8309   */\n      pop\n        /* \"#utility.yul\":7989:8309   */\n      swap2\n      swap1\n      pop\n      jump\t// out\n        /* \"#utility.yul\":8315:8456   */\n    tag_90:\n        /* \"#utility.yul\":8364:8368   */\n      0x00\n        /* \"#utility.yul\":8387:8390   */\n      dup2\n        /* \"#utility.yul\":8379:8390   */\n      swap1\n      pop\n        /* \"#utility.yul\":8410:8413   */\n      dup2\n        /* \"#utility.yul\":8407:8408   */\n      0x00\n        /* \"#utility.yul\":8400:8414   */\n      mstore\n        /* \"#utility.yul\":8444:8448   */\n      0x20\n        /* \"#utility.yul\":8441:8442   */\n      0x00\n        /* \"#utility.yul\":8431:8449   */\n      keccak256\n        /* \"#utility.yul\":8423:8449   */\n      swap1\n      pop\n        /* \"#utility.yul\":8315:8456   */\n      swap2\n      swap1\n      pop\n      jump\t// out\n        /* \"#utility.yul\":8462:8555   */\n    tag_91:\n        /* \"#utility.yul\":8499:8505   */\n      0x00\n        /* \"#utility.yul\":8546:8548   */\n      0x20\n        /* \"#utility.yul\":8541:8543   */\n      0x1f\n        /* \"#utility.yul\":8534:8539   */\n      dup4\n        /* \"#utility.yul\":8530:8544   */\n      add\n        /* \"#utility.yul\":8526:8549   */\n      div\n        /* \"#utility.yul\":8516:8549   */\n      swap1\n      pop\n        /* \"#utility.yul\":8462:8555   */\n      swap2\n      swap1\n      pop\n      jump\t// out\n        /* \"#utility.yul\":8561:8668   */\n    tag_92:\n        /* \"#utility.yul\":8605:8613   */\n      0x00\n        /* \"#utility.yul\":8655:8660   */\n      dup3\n        /* \"#utility.yul\":8649:8653   */\n      dup3\n        /* \"#utility.yul\":8645:8661   */\n      shl\n        /* \"#utility.yul\":8624:8661   */\n      swap1\n      pop\n        /* \"#utility.yul\":8561:8668   */\n      swap3\n      swap2\n      pop\n      pop\n      jump\t// out\n        /* \"#utility.yul\":8674:9067   */\n    tag_93:\n        /* \"#utility.yul\":8743:8749   */\n      0x00\n        /* \"#utility.yul\":8793:8794   */\n      0x08\n        /* \"#utility.yul\":8781:8791   */\n      dup4\n        /* \"#utility.yul\":8777:8795   */\n      mul\n        /* \"#utility.yul\":8816:8913   */\n      tag_200\n        /* \"#utility.yul\":8846:8912   */\n      0xffffffffffffffffffffffffffffffffffffffffffffffffffffffffffffffff\n        /* \"#utility.yul\":8835:8844   */\n      dup3\n        /* \"#utility.yul\":8816:8913   */\n      tag_92\n      jump\t// in\n    tag_200:\n        /* \"#utility.yul\":8934:8973   */\n      tag_201\n        /* \"#utility.yul\":8964:8972   */\n      dup7\n        /* \"#utility.yul\":8953:8962   */\n      dup4\n        /* \"#utility.yul\":8934:8973   */\n      tag_92\n      jump\t// in\n    tag_201:\n        /* \"#utility.yul\":8922:8973   */\n      swap6\n      pop\n        /* \"#utility.yul\":9006:9010   */\n      dup1\n        /* \"#utility.yul\":9002:9011   */\n      not\n        /* \"#utility.yul\":8995:9000   */\n      dup5\n        /* \"#utility.yul\":8991:9012   */\n      and\n        /* \"#utility.yul\":8982:9012   */\n      swap4\n      pop\n        /* \"#utility.yul\":9055:9059   */\n      dup1\n        /* \"#utility.yul\":9045:9053   */\n      dup7\n        /* \"#utility.yul\":9041:9060   */\n      and\n        /* \"#utility.yul\":9034:9039   */\n      dup5\n        /* \"#utility.yul\":9031:9061   */\n      or\n        /* \"#utility.yul\":9021:9061   */\n      swap3\n      pop\n        /* \"#utility.yul\":8750:9067   */\n      pop\n      pop\n        /* \"#utility.yul\":8674:9067   */\n      swap4\n      swap3\n      pop\n      pop\n      pop\n      jump\t// out\n        /* \"#utility.yul\":9073:9133   */\n    tag_94:\n        /* \"#utility.yul\":9101:9104   */\n      0x00\n        /* \"#utility.yul\":9122:9127   */\n      dup2\n        /* \"#utility.yul\":9115:9127   */\n      swap1\n      pop\n        /* \"#utility.yul\":9073:9133   */\n      swap2\n      swap1\n      pop\n      jump\t// out\n        /* \"#utility.yul\":9139:9281   */\n    tag_95:\n        /* \"#utility.yul\":9189:9198   */\n      0x00\n        /* \"#utility.yul\":9222:9275   */\n      tag_204\n        /* \"#utility.yul\":9240:9274   */\n      tag_205\n        /* \"#utility.yul\":9249:9273   */\n      tag_206\n        /* \"#utility.yul\":9267:9272   */\n      dup5\n        /* \"#utility.yul\":9249:9273   */\n      tag_77\n      jump\t// in\n    tag_206:\n        /* \"#utility.yul\":9240:9274   */\n      tag_94\n      jump\t// in\n    tag_205:\n        /* \"#utility.yul\":9222:9275   */\n      tag_77\n      jump\t// in\n    tag_204:\n        /* \"#utility.yul\":9209:9275   */\n      swap1\n      pop\n        /* \"#utility.yul\":9139:9281   */\n      swap2\n      swap1\n      pop\n      jump\t// out\n        /* \"#utility.yul\":9287:9362   */\n    tag_96:\n        /* \"#utility.yul\":9330:9333   */\n      0x00\n        /* \"#utility.yul\":9351:9356   */\n      dup2\n        /* \"#utility.yul\":9344:9356   */\n      swap1\n      pop\n        /* \"#utility.yul\":9287:9362   */\n      swap2\n      swap1\n      pop\n      jump\t// out\n        /* \"#utility.yul\":9368:9637   */\n    tag_97:\n        /* \"#utility.yul\":9478:9517   */\n      tag_209\n        /* \"#utility.yul\":9509:9516   */\n      dup4\n        /* \"#utility.yul\":9478:9517   */\n      tag_95\n      jump\t// in\n    tag_209:\n        /* \"#utility.yul\":9539:9630   */\n      tag_210\n        /* \"#utility.yul\":9588:9629   */\n      tag_211\n        /* \"#utility.yul\":9612:9628   */\n      dup3\n        /* \"#utility.yul\":9588:9629   */\n      tag_96\n      jump\t// in\n    tag_211:\n        /* \"#utility.yul\":9580:9586   */\n      dup5\n        /* \"#utility.yul\":9573:9577   */\n      dup5\n        /* \"#utility.yul\":9567:9578   */\n      sload\n        /* \"#utility.yul\":9539:9630   */\n      tag_93\n      jump\t// in\n    tag_210:\n        /* \"#utility.yul\":9533:9537   */\n      dup3\n        /* \"#utility.yul\":9526:9631   */\n      sstore\n        /* \"#utility.yul\":9444:9637   */\n      pop\n        /* \"#utility.yul\":9368:9637   */\n      pop\n      pop\n      pop\n      jump\t// out\n        /* \"#utility.yul\":9643:9716   */\n    tag_98:\n        /* \"#utility.yul\":9688:9691   */\n      0x00\n        /* \"#utility.yul\":9643:9716   */\n      swap1\n      jump\t// out\n        /* \"#utility.yul\":9722:9911   */\n    tag_99:\n        /* \"#utility.yul\":9799:9831   */\n      tag_214\n      tag_98\n      jump\t// in\n    tag_214:\n        /* \"#utility.yul\":9840:9905   */\n      tag_215\n        /* \"#utility.yul\":9898:9904   */\n      dup2\n        /* \"#utility.yul\":9890:9896   */\n      dup5\n        /* \"#utility.yul\":9884:9888   */\n      dup5\n        /* \"#utility.yul\":9840:9905   */\n      tag_97\n      jump\t// in\n    tag_215:\n        /* \"#utility.yul\":9775:9911   */\n      pop\n        /* \"#utility.yul\":9722:9911   */\n      pop\n      pop\n      jump\t// out\n        /* \"#utility.yul\":9917:10103   */\n    tag_100:\n        /* \"#utility.yul\":9977:10097   */\n    tag_217:\n        /* \"#utility.yul\":9994:9997   */\n      dup2\n        /* \"#utility.yul\":9987:9992   */\n      dup2\n        /* \"#utility.yul\":9984:9998   */\n      lt\n        /* \"#utility.yul\":9977:10097   */\n      iszero\n      tag_219\n      jumpi\n        /* \"#utility.yul\":10048:10087   */\n      tag_220\n        /* \"#utility.yul\":10085:10086   */\n      0x00\n        /* \"#utility.yul\":10078:10083   */\n      dup3\n        /* \"#utility.yul\":10048:10087   */\n      tag_99\n      jump\t// in\n    tag_220:\n        /* \"#utility.yul\":10021:10022   */\n      0x01\n        /* \"#utility.yul\":10014:10019   */\n      dup2\n        /* \"#utility.yul\":10010:10023   */\n      add\n        /* \"#utility.yul\":10001:10023   */\n      swap1\n      pop\n        /* \"#utility.yul\":9977:10097   */\n      jump(tag_217)\n    tag_219:\n        /* \"#utility.yul\":9917:10103   */\n      pop\n      pop\n      jump\t// out\n        /* \"#utility.yul\":10109:10652   */\n    tag_101:\n        /* \"#utility.yul\":10210:10212   */\n      0x1f\n        /* \"#utility.yul\":10205:10208   */\n      dup3\n        /* \"#utility.yul\":10202:10213   */\n      gt\n        /* \"#utility.yul\":10199:10645   */\n      iszero\n      tag_222\n      jumpi\n        /* \"#utility.yul\":10244:10282   */\n      tag_223\n        /* \"#utility.yul\":10276:10281   */\n      dup2\n        /* \"#utility.yul\":10244:10282   */\n      tag_90\n      jump\t// in\n    tag_223:\n        /* \"#utility.yul\":10328:10357   */\n      tag_224\n        /* \"#utility.yul\":10346:10356   */\n      dup5\n        /* \"#utility.yul\":10328:10357   */\n      tag_91\n      jump\t// in\n    tag_224:\n        /* \"#utility.yul\":10318:10326   */\n      dup2\n        /* \"#utility.yul\":10314:10358   */\n      add\n        /* \"#utility.yul\":10511:10513   */\n      0x20\n        /* \"#utility.yul\":10499:10509   */\n      dup6\n        /* \"#utility.yul\":10496:10514   */\n      lt\n        /* \"#utility.yul\":10493:10542   */\n      iszero\n      tag_225\n      jumpi\n        /* \"#utility.yul\":10532:10540   */\n      dup2\n        /* \"#utility.yul\":10517:10540   */\n      swap1\n      pop\n        /* \"#utility.yul\":10493:10542   */\n    tag_225:\n        /* \"#utility.yul\":10555:10635   */\n      tag_226\n        /* \"#utility.yul\":10611:10633   */\n      tag_227\n        /* \"#utility.yul\":10629:10632   */\n      dup6\n        /* \"#utility.yul\":10611:10633   */\n      tag_91\n      jump\t// in\n    tag_227:\n        /* \"#utility.yul\":10601:10609   */\n      dup4\n        /* \"#utility.yul\":10597:10634   */\n      add\n        /* \"#utility.yul\":10584:10595   */\n      dup3\n        /* \"#utility.yul\":10555:10635   */\n      tag_100\n      jump\t// in\n    tag_226:\n        /* \"#utility.yul\":10214:10645   */\n      pop\n      pop\n        /* \"#utility.yul\":10199:10645   */\n    tag_222:\n        /* \"#utility.yul\":10109:10652   */\n      pop\n      pop\n      pop\n      jump\t// out\n        /* \"#utility.yul\":10658:10775   */\n    tag_102:\n        /* \"#utility.yul\":10712:10720   */\n      0x00\n        /* \"#utility.yul\":10762:10767   */\n      dup3\n        /* \"#utility.yul\":10756:10760   */\n      dup3\n        /* \"#utility.yul\":10752:10768   */\n      shr\n        /* \"#utility.yul\":10731:10768   */\n      swap1\n      pop\n        /* \"#utility.yul\":10658:10775   */\n      swap3\n      swap2\n      pop\n      pop\n      jump\t// out\n        /* \"#utility.yul\":10781:10950   */\n    tag_103:\n        /* \"#utility.yul\":10825:10831   */\n      0x00\n        /* \"#utility.yul\":10858:10909   */\n      tag_230\n        /* \"#utility.yul\":10906:10907   */\n      0x00\n        /* \"#utility.yul\":10902:10908   */\n      not\n        /* \"#utility.yul\":10894:10899   */\n      dup5\n        /* \"#utility.yul\":10891:10892   */\n      0x08\n        /* \"#utility.yul\":10887:10900   */\n      mul\n        /* \"#utility.yul\":10858:10909   */\n      tag_102\n      jump\t// in\n    tag_230:\n        /* \"#utility.yul\":10854:10910   */\n      not\n        /* \"#utility.yul\":10939:10943   */\n      dup1\n        /* \"#utility.yul\":10933:10937   */\n      dup4\n        /* \"#utility.yul\":10929:10944   */\n      and\n        /* \"#utility.yul\":10919:10944   */\n      swap2\n      pop\n        /* \"#utility.yul\":10832:10950   */\n      pop\n        /* \"#utility.yul\":10781:10950   */\n      swap3\n      swap2\n      pop\n      pop\n      jump\t// out\n        /* \"#utility.yul\":10955:11250   */\n    tag_104:\n        /* \"#utility.yul\":11031:11035   */\n      0x00\n        /* \"#utility.yul\":11177:11206   */\n      tag_232\n        /* \"#utility.yul\":11202:11205   */\n      dup4\n        /* \"#utility.yul\":11196:11200   */\n      dup4\n        /* \"#utility.yul\":11177:11206   */\n      tag_103\n      jump\t// in\n    tag_232:\n        /* \"#utility.yul\":11169:11206   */\n      swap2\n      pop\n        /* \"#utility.yul\":11239:11242   */\n      dup3\n        /* \"#utility.yul\":11236:11237   */\n      0x02\n        /* \"#utility.yul\":11232:11243   */\n      mul\n        /* \"#utility.yul\":11226:11230   */\n      dup3\n        /* \"#utility.yul\":11223:11244   */\n      or\n        /* \"#utility.yul\":11215:11244   */\n      swap1\n      pop\n        /* \"#utility.yul\":10955:11250   */\n      swap3\n      swap2\n      pop\n      pop\n      jump\t// out\n        /* \"#utility.yul\":11255:12650   */\n    tag_40:\n        /* \"#utility.yul\":11372:11409   */\n      tag_234\n        /* \"#utility.yul\":11405:11408   */\n      dup3\n        /* \"#utility.yul\":11372:11409   */\n      tag_81\n      jump\t// in\n    tag_234:\n        /* \"#utility.yul\":11474:11492   */\n      0xffffffffffffffff\n        /* \"#utility.yul\":11466:11472   */\n      dup2\n        /* \"#utility.yul\":11463:11493   */\n      gt\n        /* \"#utility.yul\":11460:11516   */\n      iszero\n      tag_235\n      jumpi\n        /* \"#utility.yul\":11496:11514   */\n      tag_236\n      tag_70\n      jump\t// in\n    tag_236:\n        /* \"#utility.yul\":11460:11516   */\n    tag_235:\n        /* \"#utility.yul\":11540:11578   */\n      tag_237\n        /* \"#utility.yul\":11572:11576   */\n      dup3\n        /* \"#utility.yul\":11566:11577   */\n      sload\n        /* \"#utility.yul\":11540:11578   */\n      tag_46\n      jump\t// in\n    tag_237:\n        /* \"#utility.yul\":11625:11692   */\n      tag_238\n        /* \"#utility.yul\":11685:11691   */\n      dup3\n        /* \"#utility.yul\":11677:11683   */\n      dup3\n        /* \"#utility.yul\":11671:11675   */\n      dup6\n        /* \"#utility.yul\":11625:11692   */\n      tag_101\n      jump\t// in\n    tag_238:\n        /* \"#utility.yul\":11719:11720   */\n      0x00\n        /* \"#utility.yul\":11743:11747   */\n      0x20\n        /* \"#utility.yul\":11730:11747   */\n      swap1\n      pop\n        /* \"#utility.yul\":11775:11777   */\n      0x1f\n        /* \"#utility.yul\":11767:11773   */\n      dup4\n        /* \"#utility.yul\":11764:11778   */\n      gt\n        /* \"#utility.yul\":11792:11793   */\n      0x01\n        /* \"#utility.yul\":11787:12405   */\n      dup2\n      eq\n      tag_240\n      jumpi\n        /* \"#utility.yul\":12449:12450   */\n      0x00\n        /* \"#utility.yul\":12466:12472   */\n      dup5\n        /* \"#utility.yul\":12463:12540   */\n      iszero\n      tag_241\n      jumpi\n        /* \"#utility.yul\":12515:12524   */\n      dup3\n        /* \"#utility.yul\":12510:12513   */\n      dup8\n        /* \"#utility.yul\":12506:12525   */\n      add\n        /* \"#utility.yul\":12500:12526   */\n      mload\n        /* \"#utility.yul\":12491:12526   */\n      swap1\n      pop\n        /* \"#utility.yul\":12463:12540   */\n    tag_241:\n        /* \"#utility.yul\":12566:12633   */\n      tag_242\n        /* \"#utility.yul\":12626:12632   */\n      dup6\n        /* \"#utility.yul\":12619:12624   */\n      dup3\n        /* \"#utility.yul\":12566:12633   */\n      tag_104\n      jump\t// in\n    tag_242:\n        /* \"#utility.yul\":12560:12564   */\n      dup7\n        /* \"#utility.yul\":12553:12634   */\n      sstore\n        /* \"#utility.yul\":12422:12644   */\n      pop\n        /* \"#utility.yul\":11757:12644   */\n      jump(tag_239)\n        /* \"#utility.yul\":11787:12405   */\n    tag_240:\n        /* \"#utility.yul\":11839:11843   */\n      0x1f\n        /* \"#utility.yul\":11835:11844   */\n      not\n        /* \"#utility.yul\":11827:11833   */\n      dup5\n        /* \"#utility.yul\":11823:11845   */\n      and\n        /* \"#utility.yul\":11873:11910   */\n      tag_243\n        /* \"#utility.yul\":11905:11909   */\n      dup7\n        /* \"#utility.yul\":11873:11910   */\n      tag_90\n      jump\t// in\n    tag_243:\n        /* \"#utility.yul\":11932:11933   */\n      0x00\n        /* \"#utility.yul\":11946:12154   */\n    tag_244:\n        /* \"#utility.yul\":11960:11967   */\n      dup3\n        /* \"#utility.yul\":11957:11958   */\n      dup2\n        /* \"#utility.yul\":11954:11968   */\n      lt\n        /* \"#utility.yul\":11946:12154   */\n      iszero\n      tag_246\n      jumpi\n        /* \"#utility.yul\":12039:12048   */\n      dup5\n        /* \"#utility.yul\":12034:12037   */\n      dup10\n        /* \"#utility.yul\":12030:12049   */\n      add\n        /* \"#utility.yul\":12024:12050   */\n      mload\n        /* \"#utility.yul\":12016:12022   */\n      dup3\n        /* \"#utility.yul\":12009:12051   */\n      sstore\n        /* \"#utility.yul\":12090:12091   */\n      0x01\n        /* \"#utility.yul\":12082:12088   */\n      dup3\n        /* \"#utility.yul\":12078:12092   */\n      add\n        /* \"#utility.yul\":12068:12092   */\n      swap2\n      pop\n        /* \"#utility.yul\":12137:12139   */\n      0x20\n        /* \"#utility.yul\":12126:12135   */\n      dup6\n        /* \"#utility.yul\":12122:12140   */\n      add\n        /* \"#utility.yul\":12109:12140   */\n      swap5\n      pop\n        /* \"#utility.yul\":11983:11987   */\n      0x20\n        /* \"#utility.yul\":11980:11981   */\n      dup2\n        /* \"#utility.yul\":11976:11988   */\n      add\n        /* \"#utility.yul\":11971:11988   */\n      swap1\n      pop\n        /* \"#utility.yul\":11946:12154   */\n      jump(tag_244)\n    tag_246:\n        /* \"#utility.yul\":12182:12188   */\n      dup7\n        /* \"#utility.yul\":12173:12180   */\n      dup4\n        /* \"#utility.yul\":12170:12189   */\n      lt\n        /* \"#utility.yul\":12167:12346   */\n      iszero\n      tag_247\n      jumpi\n        /* \"#utility.yul\":12240:12249   */\n      dup5\n        /* \"#utility.yul\":12235:12238   */\n      dup10\n        /* \"#utility.yul\":12231:12250   */\n      add\n        /* \"#utility.yul\":12225:12251   */\n      mload\n        /* \"#utility.yul\":12283:12331   */\n      tag_248\n        /* \"#utility.yul\":12325:12329   */\n      0x1f\n        /* \"#utility.yul\":12317:12323   */\n      dup10\n        /* \"#utility.yul\":12313:12330   */\n      and\n        /* \"#utility.yul\":12302:12311   */\n      dup3\n        /* \"#utility.yul\":12283:12331   */\n      tag_103\n      jump\t// in\n    tag_248:\n        /* \"#utility.yul\":12275:12281   */\n      dup4\n        /* \"#utility.yul\":12268:12332   */\n      sstore\n        /* \"#utility.yul\":12190:12346   */\n      pop\n        /* \"#utility.yul\":12167:12346   */\n    tag_247:\n        /* \"#utility.yul\":12392:12393   */\n      0x01\n        /* \"#utility.yul\":12388:12389   */\n      0x02\n        /* \"#utility.yul\":12380:12386   */\n      dup9\n        /* \"#utility.yul\":12376:12390   */\n      mul\n        /* \"#utility.yul\":12372:12394   */\n      add\n        /* \"#utility.yul\":12366:12370   */\n      dup9\n        /* \"#utility.yul\":12359:12395   */\n      sstore\n        /* \"#utility.yul\":11794:12405   */\n      pop\n      pop\n      pop\n        /* \"#utility.yul\":11757:12644   */\n    tag_239:\n      pop\n        /* \"#utility.yul\":11347:12650   */\n      pop\n      pop\n      pop\n        /* \"#utility.yul\":11255:12650   */\n      pop\n      pop\n      jump\t// out\n        /* \"#utility.yul\":12656:12804   */\n    tag_105:\n        /* \"#utility.yul\":12758:12769   */\n      0x00\n        /* \"#utility.yul\":12795:12798   */\n      dup2\n        /* \"#utility.yul\":12780:12798   */\n      swap1\n      pop\n        /* \"#utility.yul\":12656:12804   */\n      swap3\n      swap2\n      pop\n      pop\n      jump\t// out\n        /* \"#utility.yul\":12810:13200   */\n    tag_106:\n        /* \"#utility.yul\":12916:12919   */\n      0x00\n        /* \"#utility.yul\":12944:12983   */\n      tag_251\n        /* \"#utility.yul\":12977:12982   */\n      dup3\n        /* \"#utility.yul\":12944:12983   */\n      tag_81\n      jump\t// in\n    tag_251:\n        /* \"#utility.yul\":12999:13088   */\n      tag_252\n        /* \"#utility.yul\":13081:13087   */\n      dup2\n        /* \"#utility.yul\":13076:13079   */\n      dup6\n        /* \"#utility.yul\":12999:13088   */\n      tag_105\n      jump\t// in\n    tag_252:\n        /* \"#utility.yul\":12992:13088   */\n      swap4\n      pop\n        /* \"#utility.yul\":13097:13162   */\n      tag_253\n        /* \"#utility.yul\":13155:13161   */\n      dup2\n        /* \"#utility.yul\":13150:13153   */\n      dup6\n        /* \"#utility.yul\":13143:13147   */\n      0x20\n        /* \"#utility.yul\":13136:13141   */\n      dup7\n        /* \"#utility.yul\":13132:13148   */\n      add\n        /* \"#utility.yul\":13097:13162   */\n      tag_83\n      jump\t// in\n    tag_253:\n        /* \"#utility.yul\":13187:13193   */\n      dup1\n        /* \"#utility.yul\":13182:13185   */\n      dup5\n        /* \"#utility.yul\":13178:13194   */\n      add\n        /* \"#utility.yul\":13171:13194   */\n      swap2\n      pop\n        /* \"#utility.yul\":12920:13200   */\n      pop\n        /* \"#utility.yul\":12810:13200   */\n      swap3\n      swap2\n      pop\n      pop\n      jump\t// out\n        /* \"#utility.yul\":13206:13481   */\n    tag_42:\n        /* \"#utility.yul\":13338:13341   */\n      0x00\n        /* \"#utility.yul\":13360:13455   */\n      tag_255\n        /* \"#utility.yul\":13451:13454   */\n      dup3\n        /* \"#utility.yul\":13442:13448   */\n      dup5\n        /* \"#utility.yul\":13360:13455   */\n      tag_106\n      jump\t// in\n    tag_255:\n        /* \"#utility.yul\":13353:13455   */\n      swap2\n      pop\n        /* \"#utility.yul\":13472:13475   */\n      dup2\n        /* \"#utility.yul\":13465:13475   */\n      swap1\n      pop\n        /* \"#utility.yul\":13206:13481   */\n      swap3\n      swap2\n      pop\n      pop\n      jump\t// out\n        /* \"#utility.yul\":13487:13667   */\n    tag_56:\n        /* \"#utility.yul\":13535:13612   */\n      0x4e487b7100000000000000000000000000000000000000000000000000000000\n        /* \"#utility.yul\":13532:13533   */\n      0x00\n        /* \"#utility.yul\":13525:13613   */\n      mstore\n        /* \"#utility.yul\":13632:13636   */\n      0x32\n        /* \"#utility.yul\":13629:13630   */\n      0x04\n        /* \"#utility.yul\":13622:13637   */\n      mstore\n        /* \"#utility.yul\":13656:13660   */\n      0x24\n        /* \"#utility.yul\":13653:13654   */\n      0x00\n        /* \"#utility.yul\":13646:13661   */\n      revert\n\n    auxdata: 0xa264697066735822122077ae034bfc5db82bd52a6300f86d60ecb38230b073a35988bef26e4bab40d9ee64736f6c63430008180033\n}\n",
				"bytecode": {
					"linkReferences": {},
					"object": "60806040525f805f6101000a81548160ff021916908315150217905550607b600155600c6002556040518060400160405280600a81526020017f576f726b732066696e6500000000000000000000000000000000000000000000815250600390816200006c919062000380565b507ffffffffffffffffffffffffffffffffffffffffffffffffffffffffffffffffc6004557370997678dbd70bd5a7ec9289c25f079d00117cc460055f6101000a81548173ffffffffffffffffffffffffffffffffffffffff021916908373ffffffffffffffffffffffffffffffffffffffff1602179055507f636174000000000000000000000000000000000000000000000000000000000060065534801562000115575f80fd5b5062000464565b5f81519050919050565b7f4e487b71000000000000000000000000000000000000000000000000000000005f52604160045260245ffd5b7f4e487b71000000000000000000000000000000000000000000000000000000005f52602260045260245ffd5b5f60028204905060018216806200019857607f821691505b602082108103620001ae57620001ad62000153565b5b50919050565b5f819050815f5260205f209050919050565b5f6020601f8301049050919050565b5f82821b905092915050565b5f60088302620002127fffffffffffffffffffffffffffffffffffffffffffffffffffffffffffffffff82620001d5565b6200021e8683620001d5565b95508019841693508086168417925050509392505050565b5f819050919050565b5f819050919050565b5f62000268620002626200025c8462000236565b6200023f565b62000236565b9050919050565b5f819050919050565b620002838362000248565b6200029b62000292826200026f565b848454620001e1565b825550505050565b5f90565b620002b1620002a3565b620002be81848462000278565b505050565b5b81811015620002e557620002d95f82620002a7565b600181019050620002c4565b5050565b601f8211156200033457620002fe81620001b4565b6200030984620001c6565b8101602085101562000319578190505b620003316200032885620001c6565b830182620002c3565b50505b505050565b5f82821c905092915050565b5f620003565f198460080262000339565b1980831691505092915050565b5f62000370838362000345565b9150826002028217905092915050565b6200038b826200011c565b67ffffffffffffffff811115620003a757620003a662000126565b5b620003b3825462000180565b620003c0828285620002e9565b5f60209050601f831160018114620003f6575f8415620003e1578287015190505b620003ed858262000363565b8655506200045c565b601f1984166200040686620001b4565b5f5b828110156200042f5784890151825560018201915060208501945060208101905062000408565b868310156200044f57848901516200044b601f89168262000345565b8355505b6001600288020188555050505b505050505050565b610afe80620004725f395ff3fe608060405234801561000f575f80fd5b5060043610610060575f3560e01c806306c62c2c146100645780632e64cec1146100945780636f760f41146100b25780639e7a13ad146100ce578063a40885d3146100ff578063d1e04b5b1461012f575b5f80fd5b61007e60048036038101906100799190610502565b61014b565b60405161008b9190610561565b60405180910390f35b61009c610178565b6040516100a99190610561565b60405180910390f35b6100cc60048036038101906100c791906105a4565b610181565b005b6100e860048036038101906100e391906105fe565b610205565b6040516100f69291906106a3565b60405180910390f35b610119600480360381019061011491906105fe565b6102ba565b6040516101269190610762565b60405180910390f35b610149600480360381019061014491906105fe565b610392565b005b6008818051602081018201805184825260208301602085012081835280955050505050505f915090505481565b5f600754905090565b6009604051806040016040528083815260200184815250908060018154018082558091505060019003905f5260205f2090600202015f909190919091505f820151815f015560208201518160010190816101db919061097c565b505050806008836040516101ef9190610a85565b9081526020016040518091039020819055505050565b60098181548110610214575f80fd5b905f5260205f2090600202015f91509050805f015490806001018054610239906107af565b80601f0160208091040260200160405190810160405280929190818152602001828054610265906107af565b80156102b05780601f10610287576101008083540402835291602001916102b0565b820191905f5260205f20905b81548152906001019060200180831161029357829003601f168201915b5050505050905082565b6102c261039c565b5f600983815481106102d7576102d6610a9b565b5b905f5260205f2090600202016040518060400160405290815f8201548152602001600182018054610307906107af565b80601f0160208091040260200160405190810160405280929190818152602001828054610333906107af565b801561037e5780601f106103555761010080835404028352916020019161037e565b820191905f5260205f20905b81548152906001019060200180831161036157829003601f168201915b505050505081525050905080915050919050565b8060078190555050565b60405180604001604052805f8152602001606081525090565b5f604051905090565b5f80fd5b5f80fd5b5f80fd5b5f80fd5b5f601f19601f8301169050919050565b7f4e487b71000000000000000000000000000000000000000000000000000000005f52604160045260245ffd5b610414826103ce565b810181811067ffffffffffffffff82111715610433576104326103de565b5b80604052505050565b5f6104456103b5565b9050610451828261040b565b919050565b5f67ffffffffffffffff8211156104705761046f6103de565b5b610479826103ce565b9050602081019050919050565b828183375f83830152505050565b5f6104a66104a184610456565b61043c565b9050828152602081018484840111156104c2576104c16103ca565b5b6104cd848285610486565b509392505050565b5f82601f8301126104e9576104e86103c6565b5b81356104f9848260208601610494565b91505092915050565b5f60208284031215610517576105166103be565b5b5f82013567ffffffffffffffff811115610534576105336103c2565b5b610540848285016104d5565b91505092915050565b5f819050919050565b61055b81610549565b82525050565b5f6020820190506105745f830184610552565b92915050565b61058381610549565b811461058d575f80fd5b50565b5f8135905061059e8161057a565b92915050565b5f80604083850312156105ba576105b96103be565b5b5f83013567ffffffffffffffff8111156105d7576105d66103c2565b5b6105e3858286016104d5565b92505060206105f485828601610590565b9150509250929050565b5f60208284031215610613576106126103be565b5b5f61062084828501610590565b91505092915050565b5f81519050919050565b5f82825260208201905092915050565b5f5b83811015610660578082015181840152602081019050610645565b5f8484015250505050565b5f61067582610629565b61067f8185610633565b935061068f818560208601610643565b610698816103ce565b840191505092915050565b5f6040820190506106b65f830185610552565b81810360208301526106c8818461066b565b90509392505050565b6106da81610549565b82525050565b5f82825260208201905092915050565b5f6106fa82610629565b61070481856106e0565b9350610714818560208601610643565b61071d816103ce565b840191505092915050565b5f604083015f83015161073d5f8601826106d1565b506020830151848203602086015261075582826106f0565b9150508091505092915050565b5f6020820190508181035f83015261077a8184610728565b905092915050565b7f4e487b71000000000000000000000000000000000000000000000000000000005f52602260045260245ffd5b5f60028204905060018216806107c657607f821691505b6020821081036107d9576107d8610782565b5b50919050565b5f819050815f5260205f209050919050565b5f6020601f8301049050919050565b5f82821b905092915050565b5f6008830261083b7fffffffffffffffffffffffffffffffffffffffffffffffffffffffffffffffff82610800565b6108458683610800565b95508019841693508086168417925050509392505050565b5f819050919050565b5f61088061087b61087684610549565b61085d565b610549565b9050919050565b5f819050919050565b61089983610866565b6108ad6108a582610887565b84845461080c565b825550505050565b5f90565b6108c16108b5565b6108cc818484610890565b505050565b5b818110156108ef576108e45f826108b9565b6001810190506108d2565b5050565b601f82111561093457610905816107df565b61090e846107f1565b8101602085101561091d578190505b610931610929856107f1565b8301826108d1565b50505b505050565b5f82821c905092915050565b5f6109545f1984600802610939565b1980831691505092915050565b5f61096c8383610945565b9150826002028217905092915050565b61098582610629565b67ffffffffffffffff81111561099e5761099d6103de565b5b6109a882546107af565b6109b38282856108f3565b5f60209050601f8311600181146109e4575f84156109d2578287015190505b6109dc8582610961565b865550610a43565b601f1984166109f2866107df565b5f5b82811015610a19578489015182556001820191506020850194506020810190506109f4565b86831015610a365784890151610a32601f891682610945565b8355505b6001600288020188555050505b505050505050565b5f81905092915050565b5f610a5f82610629565b610a698185610a4b565b9350610a79818560208601610643565b80840191505092915050565b5f610a908284610a55565b915081905092915050565b7f4e487b71000000000000000000000000000000000000000000000000000000005f52603260045260245ffdfea264697066735822122077ae034bfc5db82bd52a6300f86d60ecb38230b073a35988bef26e4bab40d9ee64736f6c63430008180033",
					"opcodes": "PUSH1 0x80 PUSH1 0x40 MSTORE PUSH0 DUP1 PUSH0 PUSH2 0x100 EXP DUP2 SLOAD DUP2 PUSH1 0xFF MUL NOT AND SWAP1 DUP4 ISZERO ISZERO MUL OR SWAP1 SSTORE POP PUSH1 0x7B PUSH1 0x1 SSTORE PUSH1 0xC PUSH1 0x2 SSTORE PUSH1 0x40 MLOAD DUP1 PUSH1 0x40 ADD PUSH1 0x40 MSTORE DUP1 PUSH1 0xA DUP2 MSTORE PUSH1 0x20 ADD PUSH32 0x576F726B732066696E6500000000000000000000000000000000000000000000 DUP2 MSTORE POP PUSH1 0x3 SWAP1 DUP2 PUSH3 0x6C SWAP2 SWAP1 PUSH3 0x380 JUMP JUMPDEST POP PUSH32 0xFFFFFFFFFFFFFFFFFFFFFFFFFFFFFFFFFFFFFFFFFFFFFFFFFFFFFFFFFFFFFFFC PUSH1 0x4 SSTORE PUSH20 0x70997678DBD70BD5A7EC9289C25F079D00117CC4 PUSH1 0x5 PUSH0 PUSH2 0x100 EXP DUP2 SLOAD DUP2 PUSH20 0xFFFFFFFFFFFFFFFFFFFFFFFFFFFFFFFFFFFFFFFF MUL NOT AND SWAP1 DUP4 PUSH20 0xFFFFFFFFFFFFFFFFFFFFFFFFFFFFFFFFFFFFFFFF AND MUL OR SWAP1 SSTORE POP PUSH32 0x6361740000000000000000000000000000000000000000000000000000000000 PUSH1 0x6 SSTORE CALLVALUE DUP1 ISZERO PUSH3 0x115 JUMPI PUSH0 DUP1 REVERT JUMPDEST POP PUSH3 0x464 JUMP JUMPDEST PUSH0 DUP2 MLOAD SWAP1 POP SWAP2 SWAP1 POP JUMP JUMPDEST PUSH32 0x4E487B7100000000000000000000000000000000000000000000000000000000 PUSH0 MSTORE PUSH1 0x41 PUSH1 0x4 MSTORE PUSH1 0x24 PUSH0 REVERT JUMPDEST PUSH32 0x4E487B7100000000000000000000000000000000000000000000000000000000 PUSH0 MSTORE PUSH1 0x22 PUSH1 0x4 MSTORE PUSH1 0x24 PUSH0 REVERT JUMPDEST PUSH0 PUSH1 0x2 DUP3 DIV SWAP1 POP PUSH1 0x1 DUP3 AND DUP1 PUSH3 0x198 JUMPI PUSH1 0x7F DUP3 AND SWAP2 POP JUMPDEST PUSH1 0x20 DUP3 LT DUP2 SUB PUSH3 0x1AE JUMPI PUSH3 0x1AD PUSH3 0x153 JUMP JUMPDEST JUMPDEST POP SWAP2 SWAP1 POP JUMP JUMPDEST PUSH0 DUP2 SWAP1 POP DUP2 PUSH0 MSTORE PUSH1 0x20 PUSH0 KECCAK256 SWAP1 POP SWAP2 SWAP1 POP JUMP JUMPDEST PUSH0 PUSH1 0x20 PUSH1 0x1F DUP4 ADD DIV SWAP1 POP SWAP2 SWAP1 POP JUMP JUMPDEST PUSH0 DUP3 DUP3 SHL SWAP1 POP SWAP3 SWAP2 POP POP JUMP JUMPDEST PUSH0 PUSH1 0x8 DUP4 MUL PUSH3 0x212 PUSH32 0xFFFFFFFFFFFFFFFFFFFFFFFFFFFFFFFFFFFFFFFFFFFFFFFFFFFFFFFFFFFFFFFF DUP3 PUSH3 0x1D5 JUMP JUMPDEST PUSH3 0x21E DUP7 DUP4 PUSH3 0x1D5 JUMP JUMPDEST SWAP6 POP DUP1 NOT DUP5 AND SWAP4 POP DUP1 DUP7 AND DUP5 OR SWAP3 POP POP POP SWAP4 SWAP3 POP POP POP JUMP JUMPDEST PUSH0 DUP2 SWAP1 POP SWAP2 SWAP1 POP JUMP JUMPDEST PUSH0 DUP2 SWAP1 POP SWAP2 SWAP1 POP JUMP JUMPDEST PUSH0 PUSH3 0x268 PUSH3 0x262 PUSH3 0x25C DUP5 PUSH3 0x236 JUMP JUMPDEST PUSH3 0x23F JUMP JUMPDEST PUSH3 0x236 JUMP JUMPDEST SWAP1 POP SWAP2 SWAP1 POP JUMP JUMPDEST PUSH0 DUP2 SWAP1 POP SWAP2 SWAP1 POP JUMP JUMPDEST PUSH3 0x283 DUP4 PUSH3 0x248 JUMP JUMPDEST PUSH3 0x29B PUSH3 0x292 DUP3 PUSH3 0x26F JUMP JUMPDEST DUP5 DUP5 SLOAD PUSH3 0x1E1 JUMP JUMPDEST DUP3 SSTORE POP POP POP POP JUMP JUMPDEST PUSH0 SWAP1 JUMP JUMPDEST PUSH3 0x2B1 PUSH3 0x2A3 JUMP JUMPDEST PUSH3 0x2BE DUP2 DUP5 DUP5 PUSH3 0x278 JUMP JUMPDEST POP POP POP JUMP JUMPDEST JUMPDEST DUP2 DUP2 LT ISZERO PUSH3 0x2E5 JUMPI PUSH3 0x2D9 PUSH0 DUP3 PUSH3 0x2A7 JUMP JUMPDEST PUSH1 0x1 DUP2 ADD SWAP1 POP PUSH3 0x2C4 JUMP JUMPDEST POP POP JUMP JUMPDEST PUSH1 0x1F DUP3 GT ISZERO PUSH3 0x334 JUMPI PUSH3 0x2FE DUP2 PUSH3 0x1B4 JUMP JUMPDEST PUSH3 0x309 DUP5 PUSH3 0x1C6 JUMP JUMPDEST DUP2 ADD PUSH1 0x20 DUP6 LT ISZERO PUSH3 0x319 JUMPI DUP2 SWAP1 POP JUMPDEST PUSH3 0x331 PUSH3 0x328 DUP6 PUSH3 0x1C6 JUMP JUMPDEST DUP4 ADD DUP3 PUSH3 0x2C3 JUMP JUMPDEST POP POP JUMPDEST POP POP POP JUMP JUMPDEST PUSH0 DUP3 DUP3 SHR SWAP1 POP SWAP3 SWAP2 POP POP JUMP JUMPDEST PUSH0 PUSH3 0x356 PUSH0 NOT DUP5 PUSH1 0x8 MUL PUSH3 0x339 JUMP JUMPDEST NOT DUP1 DUP4 AND SWAP2 POP POP SWAP3 SWAP2 POP POP JUMP JUMPDEST PUSH0 PUSH3 0x370 DUP4 DUP4 PUSH3 0x345 JUMP JUMPDEST SWAP2 POP DUP3 PUSH1 0x2 MUL DUP3 OR SWAP1 POP SWAP3 SWAP2 POP POP JUMP JUMPDEST PUSH3 0x38B DUP3 PUSH3 0x11C JUMP JUMPDEST PUSH8 0xFFFFFFFFFFFFFFFF DUP2 GT ISZERO PUSH3 0x3A7 JUMPI PUSH3 0x3A6 PUSH3 0x126 JUMP JUMPDEST JUMPDEST PUSH3 0x3B3 DUP3 SLOAD PUSH3 0x180 JUMP JUMPDEST PUSH3 0x3C0 DUP3 DUP3 DUP6 PUSH3 0x2E9 JUMP JUMPDEST PUSH0 PUSH1 0x20 SWAP1 POP PUSH1 0x1F DUP4 GT PUSH1 0x1 DUP2 EQ PUSH3 0x3F6 JUMPI PUSH0 DUP5 ISZERO PUSH3 0x3E1 JUMPI DUP3 DUP8 ADD MLOAD SWAP1 POP JUMPDEST PUSH3 0x3ED DUP6 DUP3 PUSH3 0x363 JUMP JUMPDEST DUP7 SSTORE POP PUSH3 0x45C JUMP JUMPDEST PUSH1 0x1F NOT DUP5 AND PUSH3 0x406 DUP7 PUSH3 0x1B4 JUMP JUMPDEST PUSH0 JUMPDEST DUP3 DUP2 LT ISZERO PUSH3 0x42F JUMPI DUP5 DUP10 ADD MLOAD DUP3 SSTORE PUSH1 0x1 DUP3 ADD SWAP2 POP PUSH1 0x20 DUP6 ADD SWAP5 POP PUSH1 0x20 DUP2 ADD SWAP1 POP PUSH3 0x408 JUMP JUMPDEST DUP7 DUP4 LT ISZERO PUSH3 0x44F JUMPI DUP5 DUP10 ADD MLOAD PUSH3 0x44B PUSH1 0x1F DUP10 AND DUP3 PUSH3 0x345 JUMP JUMPDEST DUP4 SSTORE POP JUMPDEST PUSH1 0x1 PUSH1 0x2 DUP9 MUL ADD DUP9 SSTORE POP POP POP JUMPDEST POP POP POP POP POP POP JUMP JUMPDEST PUSH2 0xAFE DUP1 PUSH3 0x472 PUSH0 CODECOPY PUSH0 RETURN INVALID PUSH1 0x80 PUSH1 0x40 MSTORE CALLVALUE DUP1 ISZERO PUSH2 0xF JUMPI PUSH0 DUP1 REVERT JUMPDEST POP PUSH1 0x4 CALLDATASIZE LT PUSH2 0x60 JUMPI PUSH0 CALLDATALOAD PUSH1 0xE0 SHR DUP1 PUSH4 0x6C62C2C EQ PUSH2 0x64 JUMPI DUP1 PUSH4 0x2E64CEC1 EQ PUSH2 0x94 JUMPI DUP1 PUSH4 0x6F760F41 EQ PUSH2 0xB2 JUMPI DUP1 PUSH4 0x9E7A13AD EQ PUSH2 0xCE JUMPI DUP1 PUSH4 0xA40885D3 EQ PUSH2 0xFF JUMPI DUP1 PUSH4 0xD1E04B5B EQ PUSH2 0x12F JUMPI JUMPDEST PUSH0 DUP1 REVERT JUMPDEST PUSH2 0x7E PUSH1 0x4 DUP1 CALLDATASIZE SUB DUP2 ADD SWAP1 PUSH2 0x79 SWAP2 SWAP1 PUSH2 0x502 JUMP JUMPDEST PUSH2 0x14B JUMP JUMPDEST PUSH1 0x40 MLOAD PUSH2 0x8B SWAP2 SWAP1 PUSH2 0x561 JUMP JUMPDEST PUSH1 0x40 MLOAD DUP1 SWAP2 SUB SWAP1 RETURN JUMPDEST PUSH2 0x9C PUSH2 0x178 JUMP JUMPDEST PUSH1 0x40 MLOAD PUSH2 0xA9 SWAP2 SWAP1 PUSH2 0x561 JUMP JUMPDEST PUSH1 0x40 MLOAD DUP1 SWAP2 SUB SWAP1 RETURN JUMPDEST PUSH2 0xCC PUSH1 0x4 DUP1 CALLDATASIZE SUB DUP2 ADD SWAP1 PUSH2 0xC7 SWAP2 SWAP1 PUSH2 0x5A4 JUMP JUMPDEST PUSH2 0x181 JUMP JUMPDEST STOP JUMPDEST PUSH2 0xE8 PUSH1 0x4 DUP1 CALLDATASIZE SUB DUP2 ADD SWAP1 PUSH2 0xE3 SWAP2 SWAP1 PUSH2 0x5FE JUMP JUMPDEST PUSH2 0x205 JUMP JUMPDEST PUSH1 0x40 MLOAD PUSH2 0xF6 SWAP3 SWAP2 SWAP1 PUSH2 0x6A3 JUMP JUMPDEST PUSH1 0x40 MLOAD DUP1 SWAP2 SUB SWAP1 RETURN JUMPDEST PUSH2 0x119 PUSH1 0x4 DUP1 CALLDATASIZE SUB DUP2 ADD SWAP1 PUSH2 0x114 SWAP2 SWAP1 PUSH2 0x5FE JUMP JUMPDEST PUSH2 0x2BA JUMP JUMPDEST PUSH1 0x40 MLOAD PUSH2 0x126 SWAP2 SWAP1 PUSH2 0x762 JUMP JUMPDEST PUSH1 0x40 MLOAD DUP1 SWAP2 SUB SWAP1 RETURN JUMPDEST PUSH2 0x149 PUSH1 0x4 DUP1 CALLDATASIZE SUB DUP2 ADD SWAP1 PUSH2 0x144 SWAP2 SWAP1 PUSH2 0x5FE JUMP JUMPDEST PUSH2 0x392 JUMP JUMPDEST STOP JUMPDEST PUSH1 0x8 DUP2 DUP1 MLOAD PUSH1 0x20 DUP2 ADD DUP3 ADD DUP1 MLOAD DUP5 DUP3 MSTORE PUSH1 0x20 DUP4 ADD PUSH1 0x20 DUP6 ADD KECCAK256 DUP2 DUP4 MSTORE DUP1 SWAP6 POP POP POP POP POP POP PUSH0 SWAP2 POP SWAP1 POP SLOAD DUP2 JUMP JUMPDEST PUSH0 PUSH1 0x7 SLOAD SWAP1 POP SWAP1 JUMP JUMPDEST PUSH1 0x9 PUSH1 0x40 MLOAD DUP1 PUSH1 0x40 ADD PUSH1 0x40 MSTORE DUP1 DUP4 DUP2 MSTORE PUSH1 0x20 ADD DUP5 DUP2 MSTORE POP SWAP1 DUP1 PUSH1 0x1 DUP2 SLOAD ADD DUP1 DUP3 SSTORE DUP1 SWAP2 POP POP PUSH1 0x1 SWAP1 SUB SWAP1 PUSH0 MSTORE PUSH1 0x20 PUSH0 KECCAK256 SWAP1 PUSH1 0x2 MUL ADD PUSH0 SWAP1 SWAP2 SWAP1 SWAP2 SWAP1 SWAP2 POP PUSH0 DUP3 ADD MLOAD DUP2 PUSH0 ADD SSTORE PUSH1 0x20 DUP3 ADD MLOAD DUP2 PUSH1 0x1 ADD SWAP1 DUP2 PUSH2 0x1DB SWAP2 SWAP1 PUSH2 0x97C JUMP JUMPDEST POP POP POP DUP1 PUSH1 0x8 DUP4 PUSH1 0x40 MLOAD PUSH2 0x1EF SWAP2 SWAP1 PUSH2 0xA85 JUMP JUMPDEST SWAP1 DUP2 MSTORE PUSH1 0x20 ADD PUSH1 0x40 MLOAD DUP1 SWAP2 SUB SWAP1 KECCAK256 DUP2 SWAP1 SSTORE POP POP POP JUMP JUMPDEST PUSH1 0x9 DUP2 DUP2 SLOAD DUP2 LT PUSH2 0x214 JUMPI PUSH0 DUP1 REVERT JUMPDEST SWAP1 PUSH0 MSTORE PUSH1 0x20 PUSH0 KECCAK256 SWAP1 PUSH1 0x2 MUL ADD PUSH0 SWAP2 POP SWAP1 POP DUP1 PUSH0 ADD SLOAD SWAP1 DUP1 PUSH1 0x1 ADD DUP1 SLOAD PUSH2 0x239 SWAP1 PUSH2 0x7AF JUMP JUMPDEST DUP1 PUSH1 0x1F ADD PUSH1 0x20 DUP1 SWAP2 DIV MUL PUSH1 0x20 ADD PUSH1 0x40 MLOAD SWAP1 DUP2 ADD PUSH1 0x40 MSTORE DUP1 SWAP3 SWAP2 SWAP1 DUP2 DUP2 MSTORE PUSH1 0x20 ADD DUP3 DUP1 SLOAD PUSH2 0x265 SWAP1 PUSH2 0x7AF JUMP JUMPDEST DUP1 ISZERO PUSH2 0x2B0 JUMPI DUP1 PUSH1 0x1F LT PUSH2 0x287 JUMPI PUSH2 0x100 DUP1 DUP4 SLOAD DIV MUL DUP4 MSTORE SWAP2 PUSH1 0x20 ADD SWAP2 PUSH2 0x2B0 JUMP JUMPDEST DUP3 ADD SWAP2 SWAP1 PUSH0 MSTORE PUSH1 0x20 PUSH0 KECCAK256 SWAP1 JUMPDEST DUP2 SLOAD DUP2 MSTORE SWAP1 PUSH1 0x1 ADD SWAP1 PUSH1 0x20 ADD DUP1 DUP4 GT PUSH2 0x293 JUMPI DUP3 SWAP1 SUB PUSH1 0x1F AND DUP3 ADD SWAP2 JUMPDEST POP POP POP POP POP SWAP1 POP DUP3 JUMP JUMPDEST PUSH2 0x2C2 PUSH2 0x39C JUMP JUMPDEST PUSH0 PUSH1 0x9 DUP4 DUP2 SLOAD DUP2 LT PUSH2 0x2D7 JUMPI PUSH2 0x2D6 PUSH2 0xA9B JUMP JUMPDEST JUMPDEST SWAP1 PUSH0 MSTORE PUSH1 0x20 PUSH0 KECCAK256 SWAP1 PUSH1 0x2 MUL ADD PUSH1 0x40 MLOAD DUP1 PUSH1 0x40 ADD PUSH1 0x40 MSTORE SWAP1 DUP2 PUSH0 DUP3 ADD SLOAD DUP2 MSTORE PUSH1 0x20 ADD PUSH1 0x1 DUP3 ADD DUP1 SLOAD PUSH2 0x307 SWAP1 PUSH2 0x7AF JUMP JUMPDEST DUP1 PUSH1 0x1F ADD PUSH1 0x20 DUP1 SWAP2 DIV MUL PUSH1 0x20 ADD PUSH1 0x40 MLOAD SWAP1 DUP2 ADD PUSH1 0x40 MSTORE DUP1 SWAP3 SWAP2 SWAP1 DUP2 DUP2 MSTORE PUSH1 0x20 ADD DUP3 DUP1 SLOAD PUSH2 0x333 SWAP1 PUSH2 0x7AF JUMP JUMPDEST DUP1 ISZERO PUSH2 0x37E JUMPI DUP1 PUSH1 0x1F LT PUSH2 0x355 JUMPI PUSH2 0x100 DUP1 DUP4 SLOAD DIV MUL DUP4 MSTORE SWAP2 PUSH1 0x20 ADD SWAP2 PUSH2 0x37E JUMP JUMPDEST DUP3 ADD SWAP2 SWAP1 PUSH0 MSTORE PUSH1 0x20 PUSH0 KECCAK256 SWAP1 JUMPDEST DUP2 SLOAD DUP2 MSTORE SWAP1 PUSH1 0x1 ADD SWAP1 PUSH1 0x20 ADD DUP1 DUP4 GT PUSH2 0x361 JUMPI DUP3 SWAP1 SUB PUSH1 0x1F AND DUP3 ADD SWAP2 JUMPDEST POP POP POP POP POP DUP2 MSTORE POP POP SWAP1 POP DUP1 SWAP2 POP POP SWAP2 SWAP1 POP JUMP JUMPDEST DUP1 PUSH1 0x7 DUP2 SWAP1 SSTORE POP POP JUMP JUMPDEST PUSH1 0x40 MLOAD DUP1 PUSH1 0x40 ADD PUSH1 0x40 MSTORE DUP1 PUSH0 DUP2 MSTORE PUSH1 0x20 ADD PUSH1 0x60 DUP2 MSTORE POP SWAP1 JUMP JUMPDEST PUSH0 PUSH1 0x40 MLOAD SWAP1 POP SWAP1 JUMP JUMPDEST PUSH0 DUP1 REVERT JUMPDEST PUSH0 DUP1 REVERT JUMPDEST PUSH0 DUP1 REVERT JUMPDEST PUSH0 DUP1 REVERT JUMPDEST PUSH0 PUSH1 0x1F NOT PUSH1 0x1F DUP4 ADD AND SWAP1 POP SWAP2 SWAP1 POP JUMP JUMPDEST PUSH32 0x4E487B7100000000000000000000000000000000000000000000000000000000 PUSH0 MSTORE PUSH1 0x41 PUSH1 0x4 MSTORE PUSH1 0x24 PUSH0 REVERT JUMPDEST PUSH2 0x414 DUP3 PUSH2 0x3CE JUMP JUMPDEST DUP2 ADD DUP2 DUP2 LT PUSH8 0xFFFFFFFFFFFFFFFF DUP3 GT OR ISZERO PUSH2 0x433 JUMPI PUSH2 0x432 PUSH2 0x3DE JUMP JUMPDEST JUMPDEST DUP1 PUSH1 0x40 MSTORE POP POP POP JUMP JUMPDEST PUSH0 PUSH2 0x445 PUSH2 0x3B5 JUMP JUMPDEST SWAP1 POP PUSH2 0x451 DUP3 DUP3 PUSH2 0x40B JUMP JUMPDEST SWAP2 SWAP1 POP JUMP JUMPDEST PUSH0 PUSH8 0xFFFFFFFFFFFFFFFF DUP3 GT ISZERO PUSH2 0x470 JUMPI PUSH2 0x46F PUSH2 0x3DE JUMP JUMPDEST JUMPDEST PUSH2 0x479 DUP3 PUSH2 0x3CE JUMP JUMPDEST SWAP1 POP PUSH1 0x20 DUP2 ADD SWAP1 POP SWAP2 SWAP1 POP JUMP JUMPDEST DUP3 DUP2 DUP4 CALLDATACOPY PUSH0 DUP4 DUP4 ADD MSTORE POP POP POP JUMP JUMPDEST PUSH0 PUSH2 0x4A6 PUSH2 0x4A1 DUP5 PUSH2 0x456 JUMP JUMPDEST PUSH2 0x43C JUMP JUMPDEST SWAP1 POP DUP3 DUP2 MSTORE PUSH1 0x20 DUP2 ADD DUP5 DUP5 DUP5 ADD GT ISZERO PUSH2 0x4C2 JUMPI PUSH2 0x4C1 PUSH2 0x3CA JUMP JUMPDEST JUMPDEST PUSH2 0x4CD DUP5 DUP3 DUP6 PUSH2 0x486 JUMP JUMPDEST POP SWAP4 SWAP3 POP POP POP JUMP JUMPDEST PUSH0 DUP3 PUSH1 0x1F DUP4 ADD SLT PUSH2 0x4E9 JUMPI PUSH2 0x4E8 PUSH2 0x3C6 JUMP JUMPDEST JUMPDEST DUP2 CALLDATALOAD PUSH2 0x4F9 DUP5 DUP3 PUSH1 0x20 DUP7 ADD PUSH2 0x494 JUMP JUMPDEST SWAP2 POP POP SWAP3 SWAP2 POP POP JUMP JUMPDEST PUSH0 PUSH1 0x20 DUP3 DUP5 SUB SLT ISZERO PUSH2 0x517 JUMPI PUSH2 0x516 PUSH2 0x3BE JUMP JUMPDEST JUMPDEST PUSH0 DUP3 ADD CALLDATALOAD PUSH8 0xFFFFFFFFFFFFFFFF DUP2 GT ISZERO PUSH2 0x534 JUMPI PUSH2 0x533 PUSH2 0x3C2 JUMP JUMPDEST JUMPDEST PUSH2 0x540 DUP5 DUP3 DUP6 ADD PUSH2 0x4D5 JUMP JUMPDEST SWAP2 POP POP SWAP3 SWAP2 POP POP JUMP JUMPDEST PUSH0 DUP2 SWAP1 POP SWAP2 SWAP1 POP JUMP JUMPDEST PUSH2 0x55B DUP2 PUSH2 0x549 JUMP JUMPDEST DUP3 MSTORE POP POP JUMP JUMPDEST PUSH0 PUSH1 0x20 DUP3 ADD SWAP1 POP PUSH2 0x574 PUSH0 DUP4 ADD DUP5 PUSH2 0x552 JUMP JUMPDEST SWAP3 SWAP2 POP POP JUMP JUMPDEST PUSH2 0x583 DUP2 PUSH2 0x549 JUMP JUMPDEST DUP2 EQ PUSH2 0x58D JUMPI PUSH0 DUP1 REVERT JUMPDEST POP JUMP JUMPDEST PUSH0 DUP2 CALLDATALOAD SWAP1 POP PUSH2 0x59E DUP2 PUSH2 0x57A JUMP JUMPDEST SWAP3 SWAP2 POP POP JUMP JUMPDEST PUSH0 DUP1 PUSH1 0x40 DUP4 DUP6 SUB SLT ISZERO PUSH2 0x5BA JUMPI PUSH2 0x5B9 PUSH2 0x3BE JUMP JUMPDEST JUMPDEST PUSH0 DUP4 ADD CALLDATALOAD PUSH8 0xFFFFFFFFFFFFFFFF DUP2 GT ISZERO PUSH2 0x5D7 JUMPI PUSH2 0x5D6 PUSH2 0x3C2 JUMP JUMPDEST JUMPDEST PUSH2 0x5E3 DUP6 DUP3 DUP7 ADD PUSH2 0x4D5 JUMP JUMPDEST SWAP3 POP POP PUSH1 0x20 PUSH2 0x5F4 DUP6 DUP3 DUP7 ADD PUSH2 0x590 JUMP JUMPDEST SWAP2 POP POP SWAP3 POP SWAP3 SWAP1 POP JUMP JUMPDEST PUSH0 PUSH1 0x20 DUP3 DUP5 SUB SLT ISZERO PUSH2 0x613 JUMPI PUSH2 0x612 PUSH2 0x3BE JUMP JUMPDEST JUMPDEST PUSH0 PUSH2 0x620 DUP5 DUP3 DUP6 ADD PUSH2 0x590 JUMP JUMPDEST SWAP2 POP POP SWAP3 SWAP2 POP POP JUMP JUMPDEST PUSH0 DUP2 MLOAD SWAP1 POP SWAP2 SWAP1 POP JUMP JUMPDEST PUSH0 DUP3 DUP3 MSTORE PUSH1 0x20 DUP3 ADD SWAP1 POP SWAP3 SWAP2 POP POP JUMP JUMPDEST PUSH0 JUMPDEST DUP4 DUP2 LT ISZERO PUSH2 0x660 JUMPI DUP1 DUP3 ADD MLOAD DUP2 DUP5 ADD MSTORE PUSH1 0x20 DUP2 ADD SWAP1 POP PUSH2 0x645 JUMP JUMPDEST PUSH0 DUP5 DUP5 ADD MSTORE POP POP POP POP JUMP JUMPDEST PUSH0 PUSH2 0x675 DUP3 PUSH2 0x629 JUMP JUMPDEST PUSH2 0x67F DUP2 DUP6 PUSH2 0x633 JUMP JUMPDEST SWAP4 POP PUSH2 0x68F DUP2 DUP6 PUSH1 0x20 DUP7 ADD PUSH2 0x643 JUMP JUMPDEST PUSH2 0x698 DUP2 PUSH2 0x3CE JUMP JUMPDEST DUP5 ADD SWAP2 POP POP SWAP3 SWAP2 POP POP JUMP JUMPDEST PUSH0 PUSH1 0x40 DUP3 ADD SWAP1 POP PUSH2 0x6B6 PUSH0 DUP4 ADD DUP6 PUSH2 0x552 JUMP JUMPDEST DUP2 DUP2 SUB PUSH1 0x20 DUP4 ADD MSTORE PUSH2 0x6C8 DUP2 DUP5 PUSH2 0x66B JUMP JUMPDEST SWAP1 POP SWAP4 SWAP3 POP POP POP JUMP JUMPDEST PUSH2 0x6DA DUP2 PUSH2 0x549 JUMP JUMPDEST DUP3 MSTORE POP POP JUMP JUMPDEST PUSH0 DUP3 DUP3 MSTORE PUSH1 0x20 DUP3 ADD SWAP1 POP SWAP3 SWAP2 POP POP JUMP JUMPDEST PUSH0 PUSH2 0x6FA DUP3 PUSH2 0x629 JUMP JUMPDEST PUSH2 0x704 DUP2 DUP6 PUSH2 0x6E0 JUMP JUMPDEST SWAP4 POP PUSH2 0x714 DUP2 DUP6 PUSH1 0x20 DUP7 ADD PUSH2 0x643 JUMP JUMPDEST PUSH2 0x71D DUP2 PUSH2 0x3CE JUMP JUMPDEST DUP5 ADD SWAP2 POP POP SWAP3 SWAP2 POP POP JUMP JUMPDEST PUSH0 PUSH1 0x40 DUP4 ADD PUSH0 DUP4 ADD MLOAD PUSH2 0x73D PUSH0 DUP7 ADD DUP3 PUSH2 0x6D1 JUMP JUMPDEST POP PUSH1 0x20 DUP4 ADD MLOAD DUP5 DUP3 SUB PUSH1 0x20 DUP7 ADD MSTORE PUSH2 0x755 DUP3 DUP3 PUSH2 0x6F0 JUMP JUMPDEST SWAP2 POP POP DUP1 SWAP2 POP POP SWAP3 SWAP2 POP POP JUMP JUMPDEST PUSH0 PUSH1 0x20 DUP3 ADD SWAP1 POP DUP2 DUP2 SUB PUSH0 DUP4 ADD MSTORE PUSH2 0x77A DUP2 DUP5 PUSH2 0x728 JUMP JUMPDEST SWAP1 POP SWAP3 SWAP2 POP POP JUMP JUMPDEST PUSH32 0x4E487B7100000000000000000000000000000000000000000000000000000000 PUSH0 MSTORE PUSH1 0x22 PUSH1 0x4 MSTORE PUSH1 0x24 PUSH0 REVERT JUMPDEST PUSH0 PUSH1 0x2 DUP3 DIV SWAP1 POP PUSH1 0x1 DUP3 AND DUP1 PUSH2 0x7C6 JUMPI PUSH1 0x7F DUP3 AND SWAP2 POP JUMPDEST PUSH1 0x20 DUP3 LT DUP2 SUB PUSH2 0x7D9 JUMPI PUSH2 0x7D8 PUSH2 0x782 JUMP JUMPDEST JUMPDEST POP SWAP2 SWAP1 POP JUMP JUMPDEST PUSH0 DUP2 SWAP1 POP DUP2 PUSH0 MSTORE PUSH1 0x20 PUSH0 KECCAK256 SWAP1 POP SWAP2 SWAP1 POP JUMP JUMPDEST PUSH0 PUSH1 0x20 PUSH1 0x1F DUP4 ADD DIV SWAP1 POP SWAP2 SWAP1 POP JUMP JUMPDEST PUSH0 DUP3 DUP3 SHL SWAP1 POP SWAP3 SWAP2 POP POP JUMP JUMPDEST PUSH0 PUSH1 0x8 DUP4 MUL PUSH2 0x83B PUSH32 0xFFFFFFFFFFFFFFFFFFFFFFFFFFFFFFFFFFFFFFFFFFFFFFFFFFFFFFFFFFFFFFFF DUP3 PUSH2 0x800 JUMP JUMPDEST PUSH2 0x845 DUP7 DUP4 PUSH2 0x800 JUMP JUMPDEST SWAP6 POP DUP1 NOT DUP5 AND SWAP4 POP DUP1 DUP7 AND DUP5 OR SWAP3 POP POP POP SWAP4 SWAP3 POP POP POP JUMP JUMPDEST PUSH0 DUP2 SWAP1 POP SWAP2 SWAP1 POP JUMP JUMPDEST PUSH0 PUSH2 0x880 PUSH2 0x87B PUSH2 0x876 DUP5 PUSH2 0x549 JUMP JUMPDEST PUSH2 0x85D JUMP JUMPDEST PUSH2 0x549 JUMP JUMPDEST SWAP1 POP SWAP2 SWAP1 POP JUMP JUMPDEST PUSH0 DUP2 SWAP1 POP SWAP2 SWAP1 POP JUMP JUMPDEST PUSH2 0x899 DUP4 PUSH2 0x866 JUMP JUMPDEST PUSH2 0x8AD PUSH2 0x8A5 DUP3 PUSH2 0x887 JUMP JUMPDEST DUP5 DUP5 SLOAD PUSH2 0x80C JUMP JUMPDEST DUP3 SSTORE POP POP POP POP JUMP JUMPDEST PUSH0 SWAP1 JUMP JUMPDEST PUSH2 0x8C1 PUSH2 0x8B5 JUMP JUMPDEST PUSH2 0x8CC DUP2 DUP5 DUP5 PUSH2 0x890 JUMP JUMPDEST POP POP POP JUMP JUMPDEST JUMPDEST DUP2 DUP2 LT ISZERO PUSH2 0x8EF JUMPI PUSH2 0x8E4 PUSH0 DUP3 PUSH2 0x8B9 JUMP JUMPDEST PUSH1 0x1 DUP2 ADD SWAP1 POP PUSH2 0x8D2 JUMP JUMPDEST POP POP JUMP JUMPDEST PUSH1 0x1F DUP3 GT ISZERO PUSH2 0x934 JUMPI PUSH2 0x905 DUP2 PUSH2 0x7DF JUMP JUMPDEST PUSH2 0x90E DUP5 PUSH2 0x7F1 JUMP JUMPDEST DUP2 ADD PUSH1 0x20 DUP6 LT ISZERO PUSH2 0x91D JUMPI DUP2 SWAP1 POP JUMPDEST PUSH2 0x931 PUSH2 0x929 DUP6 PUSH2 0x7F1 JUMP JUMPDEST DUP4 ADD DUP3 PUSH2 0x8D1 JUMP JUMPDEST POP POP JUMPDEST POP POP POP JUMP JUMPDEST PUSH0 DUP3 DUP3 SHR SWAP1 POP SWAP3 SWAP2 POP POP JUMP JUMPDEST PUSH0 PUSH2 0x954 PUSH0 NOT DUP5 PUSH1 0x8 MUL PUSH2 0x939 JUMP JUMPDEST NOT DUP1 DUP4 AND SWAP2 POP POP SWAP3 SWAP2 POP POP JUMP JUMPDEST PUSH0 PUSH2 0x96C DUP4 DUP4 PUSH2 0x945 JUMP JUMPDEST SWAP2 POP DUP3 PUSH1 0x2 MUL DUP3 OR SWAP1 POP SWAP3 SWAP2 POP POP JUMP JUMPDEST PUSH2 0x985 DUP3 PUSH2 0x629 JUMP JUMPDEST PUSH8 0xFFFFFFFFFFFFFFFF DUP2 GT ISZERO PUSH2 0x99E JUMPI PUSH2 0x99D PUSH2 0x3DE JUMP JUMPDEST JUMPDEST PUSH2 0x9A8 DUP3 SLOAD PUSH2 0x7AF JUMP JUMPDEST PUSH2 0x9B3 DUP3 DUP3 DUP6 PUSH2 0x8F3 JUMP JUMPDEST PUSH0 PUSH1 0x20 SWAP1 POP PUSH1 0x1F DUP4 GT PUSH1 0x1 DUP2 EQ PUSH2 0x9E4 JUMPI PUSH0 DUP5 ISZERO PUSH2 0x9D2 JUMPI DUP3 DUP8 ADD MLOAD SWAP1 POP JUMPDEST PUSH2 0x9DC DUP6 DUP3 PUSH2 0x961 JUMP JUMPDEST DUP7 SSTORE POP PUSH2 0xA43 JUMP JUMPDEST PUSH1 0x1F NOT DUP5 AND PUSH2 0x9F2 DUP7 PUSH2 0x7DF JUMP JUMPDEST PUSH0 JUMPDEST DUP3 DUP2 LT ISZERO PUSH2 0xA19 JUMPI DUP5 DUP10 ADD MLOAD DUP3 SSTORE PUSH1 0x1 DUP3 ADD SWAP2 POP PUSH1 0x20 DUP6 ADD SWAP5 POP PUSH1 0x20 DUP2 ADD SWAP1 POP PUSH2 0x9F4 JUMP JUMPDEST DUP7 DUP4 LT ISZERO PUSH2 0xA36 JUMPI DUP5 DUP10 ADD MLOAD PUSH2 0xA32 PUSH1 0x1F DUP10 AND DUP3 PUSH2 0x945 JUMP JUMPDEST DUP4 SSTORE POP JUMPDEST PUSH1 0x1 PUSH1 0x2 DUP9 MUL ADD DUP9 SSTORE POP POP POP JUMPDEST POP POP POP POP POP POP JUMP JUMPDEST PUSH0 DUP2 SWAP1 POP SWAP3 SWAP2 POP POP JUMP JUMPDEST PUSH0 PUSH2 0xA5F DUP3 PUSH2 0x629 JUMP JUMPDEST PUSH2 0xA69 DUP2 DUP6 PUSH2 0xA4B JUMP JUMPDEST SWAP4 POP PUSH2 0xA79 DUP2 DUP6 PUSH1 0x20 DUP7 ADD PUSH2 0x643 JUMP JUMPDEST DUP1 DUP5 ADD SWAP2 POP POP SWAP3 SWAP2 POP POP JUMP JUMPDEST PUSH0 PUSH2 0xA90 DUP3 DUP5 PUSH2 0xA55 JUMP JUMPDEST SWAP2 POP DUP2 SWAP1 POP SWAP3 SWAP2 POP POP JUMP JUMPDEST PUSH32 0x4E487B7100000000000000000000000000000000000000000000000000000000 PUSH0 MSTORE PUSH1 0x32 PUSH1 0x4 MSTORE PUSH1 0x24 PUSH0 REVERT INVALID LOG2 PUSH5 0x6970667358 0x22 SLT KECCAK256 PUSH24 0xAE034BFC5DB82BD52A6300F86D60ECB38230B073A35988BE CALLCODE PUSH15 0x4BAB40D9EE64736F6C634300081800 CALLER "
				},
				"gasEstimates": {
					"creation": {
						"codeDepositCost": "562800",
						"executionCost": "infinite",
						"totalCost": "infinite"
					},
					"external": {
						"addPerson(string,uint256)": "infinite",
						"nameToFavNum(string)": "infinite",
						"people(uint256)": "infinite",
						"retrieve()": "2432",
						"returnPerson(uint256)": "infinite",
						"storeFunction(uint256)": "22603"
					}
				},
				"methodIdentifiers": {
					"addPerson(string,uint256)": "6f760f41",
					"nameToFavNum(string)": "06c62c2c",
					"people(uint256)": "9e7a13ad",
					"retrieve()": "2e64cec1",
					"returnPerson(uint256)": "a40885d3",
					"storeFunction(uint256)": "d1e04b5b"
				}
			},
			"storageLayout": {
				"storage": [
					{
						"astId": 4,
						"contract": "contracts/SimpleStorage.sol:SimpleStorage",
						"label": "hasFavoriteNumber",
						"offset": 0,
						"slot": "0",
						"type": "t_bool"
					},
					{
						"astId": 7,
						"contract": "contracts/SimpleStorage.sol:SimpleStorage",
						"label": "favNumber",
						"offset": 0,
						"slot": "1",
						"type": "t_uint256"
					},
					{
						"astId": 10,
						"contract": "contracts/SimpleStorage.sol:SimpleStorage",
						"label": "hasFavoriteNum",
						"offset": 0,
						"slot": "2",
						"type": "t_int256"
					},
					{
						"astId": 13,
						"contract": "contracts/SimpleStorage.sol:SimpleStorage",
						"label": "testString",
						"offset": 0,
						"slot": "3",
						"type": "t_string_storage"
					},
					{
						"astId": 17,
						"contract": "contracts/SimpleStorage.sol:SimpleStorage",
						"label": "intTest",
						"offset": 0,
						"slot": "4",
						"type": "t_int256"
					},
					{
						"astId": 20,
						"contract": "contracts/SimpleStorage.sol:SimpleStorage",
						"label": "myAddress",
						"offset": 0,
						"slot": "5",
						"type": "t_address"
					},
					{
						"astId": 23,
						"contract": "contracts/SimpleStorage.sol:SimpleStorage",
						"label": "check",
						"offset": 0,
						"slot": "6",
						"type": "t_bytes32"
					},
					{
						"astId": 25,
						"contract": "contracts/SimpleStorage.sol:SimpleStorage",
						"label": "favortieNum",
						"offset": 0,
						"slot": "7",
						"type": "t_uint256"
					},
					{
						"astId": 29,
						"contract": "contracts/SimpleStorage.sol:SimpleStorage",
						"label": "nameToFavNum",
						"offset": 0,
						"slot": "8",
						"type": "t_mapping(t_string_memory_ptr,t_uint256)"
					},
					{
						"astId": 38,
						"contract": "contracts/SimpleStorage.sol:SimpleStorage",
						"label": "people",
						"offset": 0,
						"slot": "9",
						"type": "t_array(t_struct(People)34_storage)dyn_storage"
					}
				],
				"types": {
					"t_address": {
						"encoding": "inplace",
						"label": "address",
						"numberOfBytes": "20"
					},
					"t_array(t_struct(People)34_storage)dyn_storage": {
						"base": "t_struct(People)34_storage",
						"encoding": "dynamic_array",
						"label": "struct SimpleStorage.People[]",
						"numberOfBytes": "32"
					},
					"t_bool": {
						"encoding": "inplace",
						"label": "bool",
						"numberOfBytes": "1"
					},
					"t_bytes32": {
						"encoding": "inplace",
						"label": "bytes32",
						"numberOfBytes": "32"
					},
					"t_int256": {
						"encoding": "inplace",
						"label": "int256",
						"numberOfBytes": "32"
					},
					"t_mapping(t_string_memory_ptr,t_uint256)": {
						"encoding": "mapping",
						"key": "t_string_memory_ptr",
						"label": "mapping(string => uint256)",
						"numberOfBytes": "32",
						"value": "t_uint256"
					},
					"t_string_memory_ptr": {
						"encoding": "bytes",
						"label": "string",
						"numberOfBytes": "32"
					},
					"t_string_storage": {
						"encoding": "bytes",
						"label": "string",
						"numberOfBytes": "32"
					},
					"t_struct(People)34_storage": {
						"encoding": "inplace",
						"label": "struct SimpleStorage.People",
						"members": [
							{
								"astId": 31,
								"contract": "contracts/SimpleStorage.sol:SimpleStorage",
								"label": "favortieNum",
								"offset": 0,
								"slot": "0",
								"type": "t_uint256"
							},
							{
								"astId": 33,
								"contract": "contracts/SimpleStorage.sol:SimpleStorage",
								"label": "name",
								"offset": 0,
								"slot": "1",
								"type": "t_string_storage"
							}
						],
						"numberOfBytes": "64"
					},
					"t_uint256": {
						"encoding": "inplace",
						"label": "uint256",
						"numberOfBytes": "32"
					}
				}
			},
			"userdoc": {
				"kind": "user",
				"methods": {},
				"version": 1
			}
		}
	}
}