{
	"data": {
		"bytecode": {
			"linkReferences": {},
			"object": "60806040525f805f6101000a81548160ff021916908315150217905550607b600155600c6002556040518060400160405280600a81526020017f576f726b732066696e6500000000000000000000000000000000000000000000815250600390816200006c919062000380565b507ffffffffffffffffffffffffffffffffffffffffffffffffffffffffffffffffc6004557370997678dbd70bd5a7ec9289c25f079d00117cc460055f6101000a81548173ffffffffffffffffffffffffffffffffffffffff021916908373ffffffffffffffffffffffffffffffffffffffff1602179055507f636174000000000000000000000000000000000000000000000000000000000060065534801562000115575f80fd5b5062000464565b5f81519050919050565b7f4e487b71000000000000000000000000000000000000000000000000000000005f52604160045260245ffd5b7f4e487b71000000000000000000000000000000000000000000000000000000005f52602260045260245ffd5b5f60028204905060018216806200019857607f821691505b602082108103620001ae57620001ad62000153565b5b50919050565b5f819050815f5260205f209050919050565b5f6020601f8301049050919050565b5f82821b905092915050565b5f60088302620002127fffffffffffffffffffffffffffffffffffffffffffffffffffffffffffffffff82620001d5565b6200021e8683620001d5565b95508019841693508086168417925050509392505050565b5f819050919050565b5f819050919050565b5f62000268620002626200025c8462000236565b6200023f565b62000236565b9050919050565b5f819050919050565b620002838362000248565b6200029b62000292826200026f565b848454620001e1565b825550505050565b5f90565b620002b1620002a3565b620002be81848462000278565b505050565b5b81811015620002e557620002d95f82620002a7565b600181019050620002c4565b5050565b601f8211156200033457620002fe81620001b4565b6200030984620001c6565b8101602085101562000319578190505b620003316200032885620001c6565b830182620002c3565b50505b505050565b5f82821c905092915050565b5f620003565f198460080262000339565b1980831691505092915050565b5f62000370838362000345565b9150826002028217905092915050565b6200038b826200011c565b67ffffffffffffffff811115620003a757620003a662000126565b5b620003b3825462000180565b620003c0828285620002e9565b5f60209050601f831160018114620003f6575f8415620003e1578287015190505b620003ed858262000363565b8655506200045c565b601f1984166200040686620001b4565b5f5b828110156200042f5784890151825560018201915060208501945060208101905062000408565b868310156200044f57848901516200044b601f89168262000345565b8355505b6001600288020188555050505b505050505050565b610b6a80620004725f395ff3fe608060405234801561000f575f80fd5b5060043610610060575f3560e01c806306c62c2c146100645780632e64cec1146100945780636f760f41146100b25780639e7a13ad146100ce578063a40885d3146100ff578063d1e04b5b1461012f575b5f80fd5b61007e6004803603810190610079919061050e565b61014b565b60405161008b919061056d565b60405180910390f35b61009c610178565b6040516100a9919061056d565b60405180910390f35b6100cc60048036038101906100c791906105b0565b610181565b005b6100e860048036038101906100e3919061060a565b610205565b6040516100f69291906106af565b60405180910390f35b6101196004803603810190610114919061060a565b6102ba565b604051610126919061076e565b60405180910390f35b6101496004803603810190610144919061060a565b610392565b005b6008818051602081018201805184825260208301602085012081835280955050505050505f915090505481565b5f600754905090565b6009604051806040016040528083815260200184815250908060018154018082558091505060019003905f5260205f2090600202015f909190919091505f820151815f015560208201518160010190816101db9190610988565b505050806008836040516101ef9190610a91565b9081526020016040518091039020819055505050565b60098181548110610214575f80fd5b905f5260205f2090600202015f91509050805f015490806001018054610239906107bb565b80601f0160208091040260200160405190810160405280929190818152602001828054610265906107bb565b80156102b05780601f10610287576101008083540402835291602001916102b0565b820191905f5260205f20905b81548152906001019060200180831161029357829003601f168201915b5050505050905082565b6102c26103a8565b5f600983815481106102d7576102d6610aa7565b5b905f5260205f2090600202016040518060400160405290815f8201548152602001600182018054610307906107bb565b80601f0160208091040260200160405190810160405280929190818152602001828054610333906107bb565b801561037e5780601f106103555761010080835404028352916020019161037e565b820191905f5260205f20905b81548152906001019060200180831161036157829003601f168201915b505050505081525050905080915050919050565b60058161039f9190610b01565b60078190555050565b60405180604001604052805f8152602001606081525090565b5f604051905090565b5f80fd5b5f80fd5b5f80fd5b5f80fd5b5f601f19601f8301169050919050565b7f4e487b71000000000000000000000000000000000000000000000000000000005f52604160045260245ffd5b610420826103da565b810181811067ffffffffffffffff8211171561043f5761043e6103ea565b5b80604052505050565b5f6104516103c1565b905061045d8282610417565b919050565b5f67ffffffffffffffff82111561047c5761047b6103ea565b5b610485826103da565b9050602081019050919050565b828183375f83830152505050565b5f6104b26104ad84610462565b610448565b9050828152602081018484840111156104ce576104cd6103d6565b5b6104d9848285610492565b509392505050565b5f82601f8301126104f5576104f46103d2565b5b81356105058482602086016104a0565b91505092915050565b5f60208284031215610523576105226103ca565b5b5f82013567ffffffffffffffff8111156105405761053f6103ce565b5b61054c848285016104e1565b91505092915050565b5f819050919050565b61056781610555565b82525050565b5f6020820190506105805f83018461055e565b92915050565b61058f81610555565b8114610599575f80fd5b50565b5f813590506105aa81610586565b92915050565b5f80604083850312156105c6576105c56103ca565b5b5f83013567ffffffffffffffff8111156105e3576105e26103ce565b5b6105ef858286016104e1565b92505060206106008582860161059c565b9150509250929050565b5f6020828403121561061f5761061e6103ca565b5b5f61062c8482850161059c565b91505092915050565b5f81519050919050565b5f82825260208201905092915050565b5f5b8381101561066c578082015181840152602081019050610651565b5f8484015250505050565b5f61068182610635565b61068b818561063f565b935061069b81856020860161064f565b6106a4816103da565b840191505092915050565b5f6040820190506106c25f83018561055e565b81810360208301526106d48184610677565b90509392505050565b6106e681610555565b82525050565b5f82825260208201905092915050565b5f61070682610635565b61071081856106ec565b935061072081856020860161064f565b610729816103da565b840191505092915050565b5f604083015f8301516107495f8601826106dd565b506020830151848203602086015261076182826106fc565b9150508091505092915050565b5f6020820190508181035f8301526107868184610734565b905092915050565b7f4e487b71000000000000000000000000000000000000000000000000000000005f52602260045260245ffd5b5f60028204905060018216806107d257607f821691505b6020821081036107e5576107e461078e565b5b50919050565b5f819050815f5260205f209050919050565b5f6020601f8301049050919050565b5f82821b905092915050565b5f600883026108477fffffffffffffffffffffffffffffffffffffffffffffffffffffffffffffffff8261080c565b610851868361080c565b95508019841693508086168417925050509392505050565b5f819050919050565b5f61088c61088761088284610555565b610869565b610555565b9050919050565b5f819050919050565b6108a583610872565b6108b96108b182610893565b848454610818565b825550505050565b5f90565b6108cd6108c1565b6108d881848461089c565b505050565b5b818110156108fb576108f05f826108c5565b6001810190506108de565b5050565b601f82111561094057610911816107eb565b61091a846107fd565b81016020851015610929578190505b61093d610935856107fd565b8301826108dd565b50505b505050565b5f82821c905092915050565b5f6109605f1984600802610945565b1980831691505092915050565b5f6109788383610951565b9150826002028217905092915050565b61099182610635565b67ffffffffffffffff8111156109aa576109a96103ea565b5b6109b482546107bb565b6109bf8282856108ff565b5f60209050601f8311600181146109f0575f84156109de578287015190505b6109e8858261096d565b865550610a4f565b601f1984166109fe866107eb565b5f5b82811015610a2557848901518255600182019150602085019450602081019050610a00565b86831015610a425784890151610a3e601f891682610951565b8355505b6001600288020188555050505b505050505050565b5f81905092915050565b5f610a6b82610635565b610a758185610a57565b9350610a8581856020860161064f565b80840191505092915050565b5f610a9c8284610a61565b915081905092915050565b7f4e487b71000000000000000000000000000000000000000000000000000000005f52603260045260245ffd5b7f4e487b71000000000000000000000000000000000000000000000000000000005f52601160045260245ffd5b5f610b0b82610555565b9150610b1683610555565b9250828201905080821115610b2e57610b2d610ad4565b5b9291505056fea2646970667358221220c7d9efbf08e0d584f153572bcf717b81045962360791df09b2d5b92b84c526f464736f6c63430008180033",
			"opcodes": "PUSH1 0x80 PUSH1 0x40 MSTORE PUSH0 DUP1 PUSH0 PUSH2 0x100 EXP DUP2 SLOAD DUP2 PUSH1 0xFF MUL NOT AND SWAP1 DUP4 ISZERO ISZERO MUL OR SWAP1 SSTORE POP PUSH1 0x7B PUSH1 0x1 SSTORE PUSH1 0xC PUSH1 0x2 SSTORE PUSH1 0x40 MLOAD DUP1 PUSH1 0x40 ADD PUSH1 0x40 MSTORE DUP1 PUSH1 0xA DUP2 MSTORE PUSH1 0x20 ADD PUSH32 0x576F726B732066696E6500000000000000000000000000000000000000000000 DUP2 MSTORE POP PUSH1 0x3 SWAP1 DUP2 PUSH3 0x6C SWAP2 SWAP1 PUSH3 0x380 JUMP JUMPDEST POP PUSH32 0xFFFFFFFFFFFFFFFFFFFFFFFFFFFFFFFFFFFFFFFFFFFFFFFFFFFFFFFFFFFFFFFC PUSH1 0x4 SSTORE PUSH20 0x70997678DBD70BD5A7EC9289C25F079D00117CC4 PUSH1 0x5 PUSH0 PUSH2 0x100 EXP DUP2 SLOAD DUP2 PUSH20 0xFFFFFFFFFFFFFFFFFFFFFFFFFFFFFFFFFFFFFFFF MUL NOT AND SWAP1 DUP4 PUSH20 0xFFFFFFFFFFFFFFFFFFFFFFFFFFFFFFFFFFFFFFFF AND MUL OR SWAP1 SSTORE POP PUSH32 0x6361740000000000000000000000000000000000000000000000000000000000 PUSH1 0x6 SSTORE CALLVALUE DUP1 ISZERO PUSH3 0x115 JUMPI PUSH0 DUP1 REVERT JUMPDEST POP PUSH3 0x464 JUMP JUMPDEST PUSH0 DUP2 MLOAD SWAP1 POP SWAP2 SWAP1 POP JUMP JUMPDEST PUSH32 0x4E487B7100000000000000000000000000000000000000000000000000000000 PUSH0 MSTORE PUSH1 0x41 PUSH1 0x4 MSTORE PUSH1 0x24 PUSH0 REVERT JUMPDEST PUSH32 0x4E487B7100000000000000000000000000000000000000000000000000000000 PUSH0 MSTORE PUSH1 0x22 PUSH1 0x4 MSTORE PUSH1 0x24 PUSH0 REVERT JUMPDEST PUSH0 PUSH1 0x2 DUP3 DIV SWAP1 POP PUSH1 0x1 DUP3 AND DUP1 PUSH3 0x198 JUMPI PUSH1 0x7F DUP3 AND SWAP2 POP JUMPDEST PUSH1 0x20 DUP3 LT DUP2 SUB PUSH3 0x1AE JUMPI PUSH3 0x1AD PUSH3 0x153 JUMP JUMPDEST JUMPDEST POP SWAP2 SWAP1 POP JUMP JUMPDEST PUSH0 DUP2 SWAP1 POP DUP2 PUSH0 MSTORE PUSH1 0x20 PUSH0 KECCAK256 SWAP1 POP SWAP2 SWAP1 POP JUMP JUMPDEST PUSH0 PUSH1 0x20 PUSH1 0x1F DUP4 ADD DIV SWAP1 POP SWAP2 SWAP1 POP JUMP JUMPDEST PUSH0 DUP3 DUP3 SHL SWAP1 POP SWAP3 SWAP2 POP POP JUMP JUMPDEST PUSH0 PUSH1 0x8 DUP4 MUL PUSH3 0x212 PUSH32 0xFFFFFFFFFFFFFFFFFFFFFFFFFFFFFFFFFFFFFFFFFFFFFFFFFFFFFFFFFFFFFFFF DUP3 PUSH3 0x1D5 JUMP JUMPDEST PUSH3 0x21E DUP7 DUP4 PUSH3 0x1D5 JUMP JUMPDEST SWAP6 POP DUP1 NOT DUP5 AND SWAP4 POP DUP1 DUP7 AND DUP5 OR SWAP3 POP POP POP SWAP4 SWAP3 POP POP POP JUMP JUMPDEST PUSH0 DUP2 SWAP1 POP SWAP2 SWAP1 POP JUMP JUMPDEST PUSH0 DUP2 SWAP1 POP SWAP2 SWAP1 POP JUMP JUMPDEST PUSH0 PUSH3 0x268 PUSH3 0x262 PUSH3 0x25C DUP5 PUSH3 0x236 JUMP JUMPDEST PUSH3 0x23F JUMP JUMPDEST PUSH3 0x236 JUMP JUMPDEST SWAP1 POP SWAP2 SWAP1 POP JUMP JUMPDEST PUSH0 DUP2 SWAP1 POP SWAP2 SWAP1 POP JUMP JUMPDEST PUSH3 0x283 DUP4 PUSH3 0x248 JUMP JUMPDEST PUSH3 0x29B PUSH3 0x292 DUP3 PUSH3 0x26F JUMP JUMPDEST DUP5 DUP5 SLOAD PUSH3 0x1E1 JUMP JUMPDEST DUP3 SSTORE POP POP POP POP JUMP JUMPDEST PUSH0 SWAP1 JUMP JUMPDEST PUSH3 0x2B1 PUSH3 0x2A3 JUMP JUMPDEST PUSH3 0x2BE DUP2 DUP5 DUP5 PUSH3 0x278 JUMP JUMPDEST POP POP POP JUMP JUMPDEST JUMPDEST DUP2 DUP2 LT ISZERO PUSH3 0x2E5 JUMPI PUSH3 0x2D9 PUSH0 DUP3 PUSH3 0x2A7 JUMP JUMPDEST PUSH1 0x1 DUP2 ADD SWAP1 POP PUSH3 0x2C4 JUMP JUMPDEST POP POP JUMP JUMPDEST PUSH1 0x1F DUP3 GT ISZERO PUSH3 0x334 JUMPI PUSH3 0x2FE DUP2 PUSH3 0x1B4 JUMP JUMPDEST PUSH3 0x309 DUP5 PUSH3 0x1C6 JUMP JUMPDEST DUP2 ADD PUSH1 0x20 DUP6 LT ISZERO PUSH3 0x319 JUMPI DUP2 SWAP1 POP JUMPDEST PUSH3 0x331 PUSH3 0x328 DUP6 PUSH3 0x1C6 JUMP JUMPDEST DUP4 ADD DUP3 PUSH3 0x2C3 JUMP JUMPDEST POP POP JUMPDEST POP POP POP JUMP JUMPDEST PUSH0 DUP3 DUP3 SHR SWAP1 POP SWAP3 SWAP2 POP POP JUMP JUMPDEST PUSH0 PUSH3 0x356 PUSH0 NOT DUP5 PUSH1 0x8 MUL PUSH3 0x339 JUMP JUMPDEST NOT DUP1 DUP4 AND SWAP2 POP POP SWAP3 SWAP2 POP POP JUMP JUMPDEST PUSH0 PUSH3 0x370 DUP4 DUP4 PUSH3 0x345 JUMP JUMPDEST SWAP2 POP DUP3 PUSH1 0x2 MUL DUP3 OR SWAP1 POP SWAP3 SWAP2 POP POP JUMP JUMPDEST PUSH3 0x38B DUP3 PUSH3 0x11C JUMP JUMPDEST PUSH8 0xFFFFFFFFFFFFFFFF DUP2 GT ISZERO PUSH3 0x3A7 JUMPI PUSH3 0x3A6 PUSH3 0x126 JUMP JUMPDEST JUMPDEST PUSH3 0x3B3 DUP3 SLOAD PUSH3 0x180 JUMP JUMPDEST PUSH3 0x3C0 DUP3 DUP3 DUP6 PUSH3 0x2E9 JUMP JUMPDEST PUSH0 PUSH1 0x20 SWAP1 POP PUSH1 0x1F DUP4 GT PUSH1 0x1 DUP2 EQ PUSH3 0x3F6 JUMPI PUSH0 DUP5 ISZERO PUSH3 0x3E1 JUMPI DUP3 DUP8 ADD MLOAD SWAP1 POP JUMPDEST PUSH3 0x3ED DUP6 DUP3 PUSH3 0x363 JUMP JUMPDEST DUP7 SSTORE POP PUSH3 0x45C JUMP JUMPDEST PUSH1 0x1F NOT DUP5 AND PUSH3 0x406 DUP7 PUSH3 0x1B4 JUMP JUMPDEST PUSH0 JUMPDEST DUP3 DUP2 LT ISZERO PUSH3 0x42F JUMPI DUP5 DUP10 ADD MLOAD DUP3 SSTORE PUSH1 0x1 DUP3 ADD SWAP2 POP PUSH1 0x20 DUP6 ADD SWAP5 POP PUSH1 0x20 DUP2 ADD SWAP1 POP PUSH3 0x408 JUMP JUMPDEST DUP7 DUP4 LT ISZERO PUSH3 0x44F JUMPI DUP5 DUP10 ADD MLOAD PUSH3 0x44B PUSH1 0x1F DUP10 AND DUP3 PUSH3 0x345 JUMP JUMPDEST DUP4 SSTORE POP JUMPDEST PUSH1 0x1 PUSH1 0x2 DUP9 MUL ADD DUP9 SSTORE POP POP POP JUMPDEST POP POP POP POP POP POP JUMP JUMPDEST PUSH2 0xB6A DUP1 PUSH3 0x472 PUSH0 CODECOPY PUSH0 RETURN INVALID PUSH1 0x80 PUSH1 0x40 MSTORE CALLVALUE DUP1 ISZERO PUSH2 0xF JUMPI PUSH0 DUP1 REVERT JUMPDEST POP PUSH1 0x4 CALLDATASIZE LT PUSH2 0x60 JUMPI PUSH0 CALLDATALOAD PUSH1 0xE0 SHR DUP1 PUSH4 0x6C62C2C EQ PUSH2 0x64 JUMPI DUP1 PUSH4 0x2E64CEC1 EQ PUSH2 0x94 JUMPI DUP1 PUSH4 0x6F760F41 EQ PUSH2 0xB2 JUMPI DUP1 PUSH4 0x9E7A13AD EQ PUSH2 0xCE JUMPI DUP1 PUSH4 0xA40885D3 EQ PUSH2 0xFF JUMPI DUP1 PUSH4 0xD1E04B5B EQ PUSH2 0x12F JUMPI JUMPDEST PUSH0 DUP1 REVERT JUMPDEST PUSH2 0x7E PUSH1 0x4 DUP1 CALLDATASIZE SUB DUP2 ADD SWAP1 PUSH2 0x79 SWAP2 SWAP1 PUSH2 0x50E JUMP JUMPDEST PUSH2 0x14B JUMP JUMPDEST PUSH1 0x40 MLOAD PUSH2 0x8B SWAP2 SWAP1 PUSH2 0x56D JUMP JUMPDEST PUSH1 0x40 MLOAD DUP1 SWAP2 SUB SWAP1 RETURN JUMPDEST PUSH2 0x9C PUSH2 0x178 JUMP JUMPDEST PUSH1 0x40 MLOAD PUSH2 0xA9 SWAP2 SWAP1 PUSH2 0x56D JUMP JUMPDEST PUSH1 0x40 MLOAD DUP1 SWAP2 SUB SWAP1 RETURN JUMPDEST PUSH2 0xCC PUSH1 0x4 DUP1 CALLDATASIZE SUB DUP2 ADD SWAP1 PUSH2 0xC7 SWAP2 SWAP1 PUSH2 0x5B0 JUMP JUMPDEST PUSH2 0x181 JUMP JUMPDEST STOP JUMPDEST PUSH2 0xE8 PUSH1 0x4 DUP1 CALLDATASIZE SUB DUP2 ADD SWAP1 PUSH2 0xE3 SWAP2 SWAP1 PUSH2 0x60A JUMP JUMPDEST PUSH2 0x205 JUMP JUMPDEST PUSH1 0x40 MLOAD PUSH2 0xF6 SWAP3 SWAP2 SWAP1 PUSH2 0x6AF JUMP JUMPDEST PUSH1 0x40 MLOAD DUP1 SWAP2 SUB SWAP1 RETURN JUMPDEST PUSH2 0x119 PUSH1 0x4 DUP1 CALLDATASIZE SUB DUP2 ADD SWAP1 PUSH2 0x114 SWAP2 SWAP1 PUSH2 0x60A JUMP JUMPDEST PUSH2 0x2BA JUMP JUMPDEST PUSH1 0x40 MLOAD PUSH2 0x126 SWAP2 SWAP1 PUSH2 0x76E JUMP JUMPDEST PUSH1 0x40 MLOAD DUP1 SWAP2 SUB SWAP1 RETURN JUMPDEST PUSH2 0x149 PUSH1 0x4 DUP1 CALLDATASIZE SUB DUP2 ADD SWAP1 PUSH2 0x144 SWAP2 SWAP1 PUSH2 0x60A JUMP JUMPDEST PUSH2 0x392 JUMP JUMPDEST STOP JUMPDEST PUSH1 0x8 DUP2 DUP1 MLOAD PUSH1 0x20 DUP2 ADD DUP3 ADD DUP1 MLOAD DUP5 DUP3 MSTORE PUSH1 0x20 DUP4 ADD PUSH1 0x20 DUP6 ADD KECCAK256 DUP2 DUP4 MSTORE DUP1 SWAP6 POP POP POP POP POP POP PUSH0 SWAP2 POP SWAP1 POP SLOAD DUP2 JUMP JUMPDEST PUSH0 PUSH1 0x7 SLOAD SWAP1 POP SWAP1 JUMP JUMPDEST PUSH1 0x9 PUSH1 0x40 MLOAD DUP1 PUSH1 0x40 ADD PUSH1 0x40 MSTORE DUP1 DUP4 DUP2 MSTORE PUSH1 0x20 ADD DUP5 DUP2 MSTORE POP SWAP1 DUP1 PUSH1 0x1 DUP2 SLOAD ADD DUP1 DUP3 SSTORE DUP1 SWAP2 POP POP PUSH1 0x1 SWAP1 SUB SWAP1 PUSH0 MSTORE PUSH1 0x20 PUSH0 KECCAK256 SWAP1 PUSH1 0x2 MUL ADD PUSH0 SWAP1 SWAP2 SWAP1 SWAP2 SWAP1 SWAP2 POP PUSH0 DUP3 ADD MLOAD DUP2 PUSH0 ADD SSTORE PUSH1 0x20 DUP3 ADD MLOAD DUP2 PUSH1 0x1 ADD SWAP1 DUP2 PUSH2 0x1DB SWAP2 SWAP1 PUSH2 0x988 JUMP JUMPDEST POP POP POP DUP1 PUSH1 0x8 DUP4 PUSH1 0x40 MLOAD PUSH2 0x1EF SWAP2 SWAP1 PUSH2 0xA91 JUMP JUMPDEST SWAP1 DUP2 MSTORE PUSH1 0x20 ADD PUSH1 0x40 MLOAD DUP1 SWAP2 SUB SWAP1 KECCAK256 DUP2 SWAP1 SSTORE POP POP POP JUMP JUMPDEST PUSH1 0x9 DUP2 DUP2 SLOAD DUP2 LT PUSH2 0x214 JUMPI PUSH0 DUP1 REVERT JUMPDEST SWAP1 PUSH0 MSTORE PUSH1 0x20 PUSH0 KECCAK256 SWAP1 PUSH1 0x2 MUL ADD PUSH0 SWAP2 POP SWAP1 POP DUP1 PUSH0 ADD SLOAD SWAP1 DUP1 PUSH1 0x1 ADD DUP1 SLOAD PUSH2 0x239 SWAP1 PUSH2 0x7BB JUMP JUMPDEST DUP1 PUSH1 0x1F ADD PUSH1 0x20 DUP1 SWAP2 DIV MUL PUSH1 0x20 ADD PUSH1 0x40 MLOAD SWAP1 DUP2 ADD PUSH1 0x40 MSTORE DUP1 SWAP3 SWAP2 SWAP1 DUP2 DUP2 MSTORE PUSH1 0x20 ADD DUP3 DUP1 SLOAD PUSH2 0x265 SWAP1 PUSH2 0x7BB JUMP JUMPDEST DUP1 ISZERO PUSH2 0x2B0 JUMPI DUP1 PUSH1 0x1F LT PUSH2 0x287 JUMPI PUSH2 0x100 DUP1 DUP4 SLOAD DIV MUL DUP4 MSTORE SWAP2 PUSH1 0x20 ADD SWAP2 PUSH2 0x2B0 JUMP JUMPDEST DUP3 ADD SWAP2 SWAP1 PUSH0 MSTORE PUSH1 0x20 PUSH0 KECCAK256 SWAP1 JUMPDEST DUP2 SLOAD DUP2 MSTORE SWAP1 PUSH1 0x1 ADD SWAP1 PUSH1 0x20 ADD DUP1 DUP4 GT PUSH2 0x293 JUMPI DUP3 SWAP1 SUB PUSH1 0x1F AND DUP3 ADD SWAP2 JUMPDEST POP POP POP POP POP SWAP1 POP DUP3 JUMP JUMPDEST PUSH2 0x2C2 PUSH2 0x3A8 JUMP JUMPDEST PUSH0 PUSH1 0x9 DUP4 DUP2 SLOAD DUP2 LT PUSH2 0x2D7 JUMPI PUSH2 0x2D6 PUSH2 0xAA7 JUMP JUMPDEST JUMPDEST SWAP1 PUSH0 MSTORE PUSH1 0x20 PUSH0 KECCAK256 SWAP1 PUSH1 0x2 MUL ADD PUSH1 0x40 MLOAD DUP1 PUSH1 0x40 ADD PUSH1 0x40 MSTORE SWAP1 DUP2 PUSH0 DUP3 ADD SLOAD DUP2 MSTORE PUSH1 0x20 ADD PUSH1 0x1 DUP3 ADD DUP1 SLOAD PUSH2 0x307 SWAP1 PUSH2 0x7BB JUMP JUMPDEST DUP1 PUSH1 0x1F ADD PUSH1 0x20 DUP1 SWAP2 DIV MUL PUSH1 0x20 ADD PUSH1 0x40 MLOAD SWAP1 DUP2 ADD PUSH1 0x40 MSTORE DUP1 SWAP3 SWAP2 SWAP1 DUP2 DUP2 MSTORE PUSH1 0x20 ADD DUP3 DUP1 SLOAD PUSH2 0x333 SWAP1 PUSH2 0x7BB JUMP JUMPDEST DUP1 ISZERO PUSH2 0x37E JUMPI DUP1 PUSH1 0x1F LT PUSH2 0x355 JUMPI PUSH2 0x100 DUP1 DUP4 SLOAD DIV MUL DUP4 MSTORE SWAP2 PUSH1 0x20 ADD SWAP2 PUSH2 0x37E JUMP JUMPDEST DUP3 ADD SWAP2 SWAP1 PUSH0 MSTORE PUSH1 0x20 PUSH0 KECCAK256 SWAP1 JUMPDEST DUP2 SLOAD DUP2 MSTORE SWAP1 PUSH1 0x1 ADD SWAP1 PUSH1 0x20 ADD DUP1 DUP4 GT PUSH2 0x361 JUMPI DUP3 SWAP1 SUB PUSH1 0x1F AND DUP3 ADD SWAP2 JUMPDEST POP POP POP POP POP DUP2 MSTORE POP POP SWAP1 POP DUP1 SWAP2 POP POP SWAP2 SWAP1 POP JUMP JUMPDEST PUSH1 0x5 DUP2 PUSH2 0x39F SWAP2 SWAP1 PUSH2 0xB01 JUMP JUMPDEST PUSH1 0x7 DUP2 SWAP1 SSTORE POP POP JUMP JUMPDEST PUSH1 0x40 MLOAD DUP1 PUSH1 0x40 ADD PUSH1 0x40 MSTORE DUP1 PUSH0 DUP2 MSTORE PUSH1 0x20 ADD PUSH1 0x60 DUP2 MSTORE POP SWAP1 JUMP JUMPDEST PUSH0 PUSH1 0x40 MLOAD SWAP1 POP SWAP1 JUMP JUMPDEST PUSH0 DUP1 REVERT JUMPDEST PUSH0 DUP1 REVERT JUMPDEST PUSH0 DUP1 REVERT JUMPDEST PUSH0 DUP1 REVERT JUMPDEST PUSH0 PUSH1 0x1F NOT PUSH1 0x1F DUP4 ADD AND SWAP1 POP SWAP2 SWAP1 POP JUMP JUMPDEST PUSH32 0x4E487B7100000000000000000000000000000000000000000000000000000000 PUSH0 MSTORE PUSH1 0x41 PUSH1 0x4 MSTORE PUSH1 0x24 PUSH0 REVERT JUMPDEST PUSH2 0x420 DUP3 PUSH2 0x3DA JUMP JUMPDEST DUP2 ADD DUP2 DUP2 LT PUSH8 0xFFFFFFFFFFFFFFFF DUP3 GT OR ISZERO PUSH2 0x43F JUMPI PUSH2 0x43E PUSH2 0x3EA JUMP JUMPDEST JUMPDEST DUP1 PUSH1 0x40 MSTORE POP POP POP JUMP JUMPDEST PUSH0 PUSH2 0x451 PUSH2 0x3C1 JUMP JUMPDEST SWAP1 POP PUSH2 0x45D DUP3 DUP3 PUSH2 0x417 JUMP JUMPDEST SWAP2 SWAP1 POP JUMP JUMPDEST PUSH0 PUSH8 0xFFFFFFFFFFFFFFFF DUP3 GT ISZERO PUSH2 0x47C JUMPI PUSH2 0x47B PUSH2 0x3EA JUMP JUMPDEST JUMPDEST PUSH2 0x485 DUP3 PUSH2 0x3DA JUMP JUMPDEST SWAP1 POP PUSH1 0x20 DUP2 ADD SWAP1 POP SWAP2 SWAP1 POP JUMP JUMPDEST DUP3 DUP2 DUP4 CALLDATACOPY PUSH0 DUP4 DUP4 ADD MSTORE POP POP POP JUMP JUMPDEST PUSH0 PUSH2 0x4B2 PUSH2 0x4AD DUP5 PUSH2 0x462 JUMP JUMPDEST PUSH2 0x448 JUMP JUMPDEST SWAP1 POP DUP3 DUP2 MSTORE PUSH1 0x20 DUP2 ADD DUP5 DUP5 DUP5 ADD GT ISZERO PUSH2 0x4CE JUMPI PUSH2 0x4CD PUSH2 0x3D6 JUMP JUMPDEST JUMPDEST PUSH2 0x4D9 DUP5 DUP3 DUP6 PUSH2 0x492 JUMP JUMPDEST POP SWAP4 SWAP3 POP POP POP JUMP JUMPDEST PUSH0 DUP3 PUSH1 0x1F DUP4 ADD SLT PUSH2 0x4F5 JUMPI PUSH2 0x4F4 PUSH2 0x3D2 JUMP JUMPDEST JUMPDEST DUP2 CALLDATALOAD PUSH2 0x505 DUP5 DUP3 PUSH1 0x20 DUP7 ADD PUSH2 0x4A0 JUMP JUMPDEST SWAP2 POP POP SWAP3 SWAP2 POP POP JUMP JUMPDEST PUSH0 PUSH1 0x20 DUP3 DUP5 SUB SLT ISZERO PUSH2 0x523 JUMPI PUSH2 0x522 PUSH2 0x3CA JUMP JUMPDEST JUMPDEST PUSH0 DUP3 ADD CALLDATALOAD PUSH8 0xFFFFFFFFFFFFFFFF DUP2 GT ISZERO PUSH2 0x540 JUMPI PUSH2 0x53F PUSH2 0x3CE JUMP JUMPDEST JUMPDEST PUSH2 0x54C DUP5 DUP3 DUP6 ADD PUSH2 0x4E1 JUMP JUMPDEST SWAP2 POP POP SWAP3 SWAP2 POP POP JUMP JUMPDEST PUSH0 DUP2 SWAP1 POP SWAP2 SWAP1 POP JUMP JUMPDEST PUSH2 0x567 DUP2 PUSH2 0x555 JUMP JUMPDEST DUP3 MSTORE POP POP JUMP JUMPDEST PUSH0 PUSH1 0x20 DUP3 ADD SWAP1 POP PUSH2 0x580 PUSH0 DUP4 ADD DUP5 PUSH2 0x55E JUMP JUMPDEST SWAP3 SWAP2 POP POP JUMP JUMPDEST PUSH2 0x58F DUP2 PUSH2 0x555 JUMP JUMPDEST DUP2 EQ PUSH2 0x599 JUMPI PUSH0 DUP1 REVERT JUMPDEST POP JUMP JUMPDEST PUSH0 DUP2 CALLDATALOAD SWAP1 POP PUSH2 0x5AA DUP2 PUSH2 0x586 JUMP JUMPDEST SWAP3 SWAP2 POP POP JUMP JUMPDEST PUSH0 DUP1 PUSH1 0x40 DUP4 DUP6 SUB SLT ISZERO PUSH2 0x5C6 JUMPI PUSH2 0x5C5 PUSH2 0x3CA JUMP JUMPDEST JUMPDEST PUSH0 DUP4 ADD CALLDATALOAD PUSH8 0xFFFFFFFFFFFFFFFF DUP2 GT ISZERO PUSH2 0x5E3 JUMPI PUSH2 0x5E2 PUSH2 0x3CE JUMP JUMPDEST JUMPDEST PUSH2 0x5EF DUP6 DUP3 DUP7 ADD PUSH2 0x4E1 JUMP JUMPDEST SWAP3 POP POP PUSH1 0x20 PUSH2 0x600 DUP6 DUP3 DUP7 ADD PUSH2 0x59C JUMP JUMPDEST SWAP2 POP POP SWAP3 POP SWAP3 SWAP1 POP JUMP JUMPDEST PUSH0 PUSH1 0x20 DUP3 DUP5 SUB SLT ISZERO PUSH2 0x61F JUMPI PUSH2 0x61E PUSH2 0x3CA JUMP JUMPDEST JUMPDEST PUSH0 PUSH2 0x62C DUP5 DUP3 DUP6 ADD PUSH2 0x59C JUMP JUMPDEST SWAP2 POP POP SWAP3 SWAP2 POP POP JUMP JUMPDEST PUSH0 DUP2 MLOAD SWAP1 POP SWAP2 SWAP1 POP JUMP JUMPDEST PUSH0 DUP3 DUP3 MSTORE PUSH1 0x20 DUP3 ADD SWAP1 POP SWAP3 SWAP2 POP POP JUMP JUMPDEST PUSH0 JUMPDEST DUP4 DUP2 LT ISZERO PUSH2 0x66C JUMPI DUP1 DUP3 ADD MLOAD DUP2 DUP5 ADD MSTORE PUSH1 0x20 DUP2 ADD SWAP1 POP PUSH2 0x651 JUMP JUMPDEST PUSH0 DUP5 DUP5 ADD MSTORE POP POP POP POP JUMP JUMPDEST PUSH0 PUSH2 0x681 DUP3 PUSH2 0x635 JUMP JUMPDEST PUSH2 0x68B DUP2 DUP6 PUSH2 0x63F JUMP JUMPDEST SWAP4 POP PUSH2 0x69B DUP2 DUP6 PUSH1 0x20 DUP7 ADD PUSH2 0x64F JUMP JUMPDEST PUSH2 0x6A4 DUP2 PUSH2 0x3DA JUMP JUMPDEST DUP5 ADD SWAP2 POP POP SWAP3 SWAP2 POP POP JUMP JUMPDEST PUSH0 PUSH1 0x40 DUP3 ADD SWAP1 POP PUSH2 0x6C2 PUSH0 DUP4 ADD DUP6 PUSH2 0x55E JUMP JUMPDEST DUP2 DUP2 SUB PUSH1 0x20 DUP4 ADD MSTORE PUSH2 0x6D4 DUP2 DUP5 PUSH2 0x677 JUMP JUMPDEST SWAP1 POP SWAP4 SWAP3 POP POP POP JUMP JUMPDEST PUSH2 0x6E6 DUP2 PUSH2 0x555 JUMP JUMPDEST DUP3 MSTORE POP POP JUMP JUMPDEST PUSH0 DUP3 DUP3 MSTORE PUSH1 0x20 DUP3 ADD SWAP1 POP SWAP3 SWAP2 POP POP JUMP JUMPDEST PUSH0 PUSH2 0x706 DUP3 PUSH2 0x635 JUMP JUMPDEST PUSH2 0x710 DUP2 DUP6 PUSH2 0x6EC JUMP JUMPDEST SWAP4 POP PUSH2 0x720 DUP2 DUP6 PUSH1 0x20 DUP7 ADD PUSH2 0x64F JUMP JUMPDEST PUSH2 0x729 DUP2 PUSH2 0x3DA JUMP JUMPDEST DUP5 ADD SWAP2 POP POP SWAP3 SWAP2 POP POP JUMP JUMPDEST PUSH0 PUSH1 0x40 DUP4 ADD PUSH0 DUP4 ADD MLOAD PUSH2 0x749 PUSH0 DUP7 ADD DUP3 PUSH2 0x6DD JUMP JUMPDEST POP PUSH1 0x20 DUP4 ADD MLOAD DUP5 DUP3 SUB PUSH1 0x20 DUP7 ADD MSTORE PUSH2 0x761 DUP3 DUP3 PUSH2 0x6FC JUMP JUMPDEST SWAP2 POP POP DUP1 SWAP2 POP POP SWAP3 SWAP2 POP POP JUMP JUMPDEST PUSH0 PUSH1 0x20 DUP3 ADD SWAP1 POP DUP2 DUP2 SUB PUSH0 DUP4 ADD MSTORE PUSH2 0x786 DUP2 DUP5 PUSH2 0x734 JUMP JUMPDEST SWAP1 POP SWAP3 SWAP2 POP POP JUMP JUMPDEST PUSH32 0x4E487B7100000000000000000000000000000000000000000000000000000000 PUSH0 MSTORE PUSH1 0x22 PUSH1 0x4 MSTORE PUSH1 0x24 PUSH0 REVERT JUMPDEST PUSH0 PUSH1 0x2 DUP3 DIV SWAP1 POP PUSH1 0x1 DUP3 AND DUP1 PUSH2 0x7D2 JUMPI PUSH1 0x7F DUP3 AND SWAP2 POP JUMPDEST PUSH1 0x20 DUP3 LT DUP2 SUB PUSH2 0x7E5 JUMPI PUSH2 0x7E4 PUSH2 0x78E JUMP JUMPDEST JUMPDEST POP SWAP2 SWAP1 POP JUMP JUMPDEST PUSH0 DUP2 SWAP1 POP DUP2 PUSH0 MSTORE PUSH1 0x20 PUSH0 KECCAK256 SWAP1 POP SWAP2 SWAP1 POP JUMP JUMPDEST PUSH0 PUSH1 0x20 PUSH1 0x1F DUP4 ADD DIV SWAP1 POP SWAP2 SWAP1 POP JUMP JUMPDEST PUSH0 DUP3 DUP3 SHL SWAP1 POP SWAP3 SWAP2 POP POP JUMP JUMPDEST PUSH0 PUSH1 0x8 DUP4 MUL PUSH2 0x847 PUSH32 0xFFFFFFFFFFFFFFFFFFFFFFFFFFFFFFFFFFFFFFFFFFFFFFFFFFFFFFFFFFFFFFFF DUP3 PUSH2 0x80C JUMP JUMPDEST PUSH2 0x851 DUP7 DUP4 PUSH2 0x80C JUMP JUMPDEST SWAP6 POP DUP1 NOT DUP5 AND SWAP4 POP DUP1 DUP7 AND DUP5 OR SWAP3 POP POP POP SWAP4 SWAP3 POP POP POP JUMP JUMPDEST PUSH0 DUP2 SWAP1 POP SWAP2 SWAP1 POP JUMP JUMPDEST PUSH0 PUSH2 0x88C PUSH2 0x887 PUSH2 0x882 DUP5 PUSH2 0x555 JUMP JUMPDEST PUSH2 0x869 JUMP JUMPDEST PUSH2 0x555 JUMP JUMPDEST SWAP1 POP SWAP2 SWAP1 POP JUMP JUMPDEST PUSH0 DUP2 SWAP1 POP SWAP2 SWAP1 POP JUMP JUMPDEST PUSH2 0x8A5 DUP4 PUSH2 0x872 JUMP JUMPDEST PUSH2 0x8B9 PUSH2 0x8B1 DUP3 PUSH2 0x893 JUMP JUMPDEST DUP5 DUP5 SLOAD PUSH2 0x818 JUMP JUMPDEST DUP3 SSTORE POP POP POP POP JUMP JUMPDEST PUSH0 SWAP1 JUMP JUMPDEST PUSH2 0x8CD PUSH2 0x8C1 JUMP JUMPDEST PUSH2 0x8D8 DUP2 DUP5 DUP5 PUSH2 0x89C JUMP JUMPDEST POP POP POP JUMP JUMPDEST JUMPDEST DUP2 DUP2 LT ISZERO PUSH2 0x8FB JUMPI PUSH2 0x8F0 PUSH0 DUP3 PUSH2 0x8C5 JUMP JUMPDEST PUSH1 0x1 DUP2 ADD SWAP1 POP PUSH2 0x8DE JUMP JUMPDEST POP POP JUMP JUMPDEST PUSH1 0x1F DUP3 GT ISZERO PUSH2 0x940 JUMPI PUSH2 0x911 DUP2 PUSH2 0x7EB JUMP JUMPDEST PUSH2 0x91A DUP5 PUSH2 0x7FD JUMP JUMPDEST DUP2 ADD PUSH1 0x20 DUP6 LT ISZERO PUSH2 0x929 JUMPI DUP2 SWAP1 POP JUMPDEST PUSH2 0x93D PUSH2 0x935 DUP6 PUSH2 0x7FD JUMP JUMPDEST DUP4 ADD DUP3 PUSH2 0x8DD JUMP JUMPDEST POP POP JUMPDEST POP POP POP JUMP JUMPDEST PUSH0 DUP3 DUP3 SHR SWAP1 POP SWAP3 SWAP2 POP POP JUMP JUMPDEST PUSH0 PUSH2 0x960 PUSH0 NOT DUP5 PUSH1 0x8 MUL PUSH2 0x945 JUMP JUMPDEST NOT DUP1 DUP4 AND SWAP2 POP POP SWAP3 SWAP2 POP POP JUMP JUMPDEST PUSH0 PUSH2 0x978 DUP4 DUP4 PUSH2 0x951 JUMP JUMPDEST SWAP2 POP DUP3 PUSH1 0x2 MUL DUP3 OR SWAP1 POP SWAP3 SWAP2 POP POP JUMP JUMPDEST PUSH2 0x991 DUP3 PUSH2 0x635 JUMP JUMPDEST PUSH8 0xFFFFFFFFFFFFFFFF DUP2 GT ISZERO PUSH2 0x9AA JUMPI PUSH2 0x9A9 PUSH2 0x3EA JUMP JUMPDEST JUMPDEST PUSH2 0x9B4 DUP3 SLOAD PUSH2 0x7BB JUMP JUMPDEST PUSH2 0x9BF DUP3 DUP3 DUP6 PUSH2 0x8FF JUMP JUMPDEST PUSH0 PUSH1 0x20 SWAP1 POP PUSH1 0x1F DUP4 GT PUSH1 0x1 DUP2 EQ PUSH2 0x9F0 JUMPI PUSH0 DUP5 ISZERO PUSH2 0x9DE JUMPI DUP3 DUP8 ADD MLOAD SWAP1 POP JUMPDEST PUSH2 0x9E8 DUP6 DUP3 PUSH2 0x96D JUMP JUMPDEST DUP7 SSTORE POP PUSH2 0xA4F JUMP JUMPDEST PUSH1 0x1F NOT DUP5 AND PUSH2 0x9FE DUP7 PUSH2 0x7EB JUMP JUMPDEST PUSH0 JUMPDEST DUP3 DUP2 LT ISZERO PUSH2 0xA25 JUMPI DUP5 DUP10 ADD MLOAD DUP3 SSTORE PUSH1 0x1 DUP3 ADD SWAP2 POP PUSH1 0x20 DUP6 ADD SWAP5 POP PUSH1 0x20 DUP2 ADD SWAP1 POP PUSH2 0xA00 JUMP JUMPDEST DUP7 DUP4 LT ISZERO PUSH2 0xA42 JUMPI DUP5 DUP10 ADD MLOAD PUSH2 0xA3E PUSH1 0x1F DUP10 AND DUP3 PUSH2 0x951 JUMP JUMPDEST DUP4 SSTORE POP JUMPDEST PUSH1 0x1 PUSH1 0x2 DUP9 MUL ADD DUP9 SSTORE POP POP POP JUMPDEST POP POP POP POP POP POP JUMP JUMPDEST PUSH0 DUP2 SWAP1 POP SWAP3 SWAP2 POP POP JUMP JUMPDEST PUSH0 PUSH2 0xA6B DUP3 PUSH2 0x635 JUMP JUMPDEST PUSH2 0xA75 DUP2 DUP6 PUSH2 0xA57 JUMP JUMPDEST SWAP4 POP PUSH2 0xA85 DUP2 DUP6 PUSH1 0x20 DUP7 ADD PUSH2 0x64F JUMP JUMPDEST DUP1 DUP5 ADD SWAP2 POP POP SWAP3 SWAP2 POP POP JUMP JUMPDEST PUSH0 PUSH2 0xA9C DUP3 DUP5 PUSH2 0xA61 JUMP JUMPDEST SWAP2 POP DUP2 SWAP1 POP SWAP3 SWAP2 POP POP JUMP JUMPDEST PUSH32 0x4E487B7100000000000000000000000000000000000000000000000000000000 PUSH0 MSTORE PUSH1 0x32 PUSH1 0x4 MSTORE PUSH1 0x24 PUSH0 REVERT JUMPDEST PUSH32 0x4E487B7100000000000000000000000000000000000000000000000000000000 PUSH0 MSTORE PUSH1 0x11 PUSH1 0x4 MSTORE PUSH1 0x24 PUSH0 REVERT JUMPDEST PUSH0 PUSH2 0xB0B DUP3 PUSH2 0x555 JUMP JUMPDEST SWAP2 POP PUSH2 0xB16 DUP4 PUSH2 0x555 JUMP JUMPDEST SWAP3 POP DUP3 DUP3 ADD SWAP1 POP DUP1 DUP3 GT ISZERO PUSH2 0xB2E JUMPI PUSH2 0xB2D PUSH2 0xAD4 JUMP JUMPDEST JUMPDEST SWAP3 SWAP2 POP POP JUMP INVALID LOG2 PUSH5 0x6970667358 0x22 SLT KECCAK256 0xC7 0xD9 0xEF 0xBF ADDMOD 0xE0 0xD5 DUP5 CALL MSTORE8 JUMPI 0x2B 0xCF PUSH18 0x7B81045962360791DF09B2D5B92B84C526F4 PUSH5 0x736F6C6343 STOP ADDMOD XOR STOP CALLER "
		},
		"gasEstimates": {
			"creation": {
				"codeDepositCost": "584400",
				"executionCost": "infinite",
				"totalCost": "infinite"
			},
			"external": {
				"addPerson(string,uint256)": "infinite",
				"nameToFavNum(string)": "infinite",
				"people(uint256)": "infinite",
				"retrieve()": "2432",
				"returnPerson(uint256)": "infinite",
				"storeFunction(uint256)": "infinite"
			}
		},
		"methodIdentifiers": {
			"addPerson(string,uint256)": "6f760f41",
			"nameToFavNum(string)": "06c62c2c",
			"people(uint256)": "9e7a13ad",
			"retrieve()": "2e64cec1",
			"returnPerson(uint256)": "a40885d3",
			"storeFunction(uint256)": "d1e04b5b"
		}
	},
	"abi": [
		{
			"inputs": [
				{
					"internalType": "string",
					"name": "_name",
					"type": "string"
				},
				{
					"internalType": "uint256",
					"name": "_favoriteNum",
					"type": "uint256"
				}
			],
			"name": "addPerson",
			"outputs": [],
			"stateMutability": "nonpayable",
			"type": "function"
		},
		{
			"inputs": [
				{
					"internalType": "string",
					"name": "",
					"type": "string"
				}
			],
			"name": "nameToFavNum",
			"outputs": [
				{
					"internalType": "uint256",
					"name": "",
					"type": "uint256"
				}
			],
			"stateMutability": "view",
			"type": "function"
		},
		{
			"inputs": [
				{
					"internalType": "uint256",
					"name": "",
					"type": "uint256"
				}
			],
			"name": "people",
			"outputs": [
				{
					"internalType": "uint256",
					"name": "favortieNum",
					"type": "uint256"
				},
				{
					"internalType": "string",
					"name": "name",
					"type": "string"
				}
			],
			"stateMutability": "view",
			"type": "function"
		},
		{
			"inputs": [],
			"name": "retrieve",
			"outputs": [
				{
					"internalType": "uint256",
					"name": "",
					"type": "uint256"
				}
			],
			"stateMutability": "view",
			"type": "function"
		},
		{
			"inputs": [
				{
					"internalType": "uint256",
					"name": "_index",
					"type": "uint256"
				}
			],
			"name": "returnPerson",
			"outputs": [
				{
					"components": [
						{
							"internalType": "uint256",
							"name": "favortieNum",
							"type": "uint256"
						},
						{
							"internalType": "string",
							"name": "name",
							"type": "string"
						}
					],
					"internalType": "struct SimpleStorage.People",
					"name": "",
					"type": "tuple"
				}
			],
			"stateMutability": "view",
			"type": "function"
		},
		{
			"inputs": [
				{
					"internalType": "uint256",
					"name": "_favoriteNumber",
					"type": "uint256"
				}
			],
			"name": "storeFunction",
			"outputs": [],
			"stateMutability": "nonpayable",
			"type": "function"
		}
	]
}